:020000040800F2
:1000000000500020F13400080D3200080F320008C3
:1000100011320008133200081532000800000000F9
:10002000000000000000000000000000173200087F
:1000300019320008000000001B3200081D320008C1
:1000400039350008393500083935000839350008D8
:1000500039350008393500083935000839350008C8
:1000600039350008393500083935000821320008D3
:1000700039350008393500082D32000839320008BA
:10008000393500083935000845320008513200087A
:100090005D32000839350008393500083935000867
:1000A000613200086D3200087132000875320008B4
:1000B000793200088532000891320008393500088D
:1000C000393500089D320008A9320008393500088A
:1000D00039350008B53200083935000839350008CF
:1000E00039350008393500083935000800000000AE
:1000F0000000000000000000000000000000000000
:0C01000000000000000000005FF808F1A3
:1001100010B5054C237833B9044B13B10448AFF341
:1001200000800123237010BD180200200000000091
:100130004C9B000808B5034B1BB103490348AFF3C0
:10014000008008BD000000001C0200204C9B00083D
:10015000034613F8012B002AFBD1181A0138704707
:1001600070B54FF0FF0C4CF4E06C1CEA11541DBF4D
:100170001CEA135594EA0C0F95EA0C0F00F0DEF818
:100180002C4481EA030621EA4C5123EA4C5350EAFD
:10019000013518BF52EA033541F4801143F480134E
:1001A00038D0A0FB02CE4FF00005E1FB02E506F0DF
:1001B0000042E0FB03E54FF00006E1FB03569CF034
:1001C000000F18BF4EF0010EA4F1FF04B6F5007F3A
:1001D00064F5407404D25FEA4E0E6D4146EB0606AC
:1001E00042EAC62141EA55514FEAC52040EA5E5035
:1001F0004FEACE2EB4F1FD0C88BFBCF5E06F1ED8DF
:10020000BEF1004F08BF5FEA500E50F1000041EB15
:10021000045170BD06F0004646EA010140EA0200C2
:1002200081EA0301B4EB5C04C2BFD4EB0C0541EAE4
:10023000045170BD41F480114FF0000E013C00F3F9
:10024000AB8014F1360FDEBF002001F0004170BD1D
:10025000C4F10004203C35DA0C341BDC04F1140436
:10026000C4F1200500FA05F320FA04F001FA05F2C2
:1002700040EA020001F0004221F0004110EBD3708F
:1002800021FA04F642EB06015EEA430E08BF20EABB
:10029000D37070BDC4F10C04C4F1200500FA04F35E
:1002A00020FA05F001FA04F240EA020001F00041F0
:1002B00010EBD37041F100015EEA430E08BF20EA63
:1002C000D37070BDC4F1200500FA05F24EEA020EAB
:1002D00020FA04F301FA05F243EA020321FA04F0DA
:1002E00001F0004121FA04F220EA020000EBD37091
:1002F0005EEA430E08BF20EAD37070BD94F0000F91
:100300000FD101F00046400041EB010111F4801FC4
:1003100008BF013CF7D041EA060195F0000F18BF75
:10032000704703F00046520043EB030313F4801FB1
:1003300008BF013DF7D043EA0603704794EA0C0F6B
:100340000CEA135518BF95EA0C0F0CD050EA410681
:1003500018BF52EA4306D1D181EA030101F00041FE
:100360004FF0000070BD50EA410606BF1046194626
:1003700052EA430619D094EA0C0F02D150EA013632
:1003800013D195EA0C0F05D152EA03361CBF104673
:1003900019460AD181EA030101F0004141F0FE4112
:1003A00041F470014FF0000070BD41F0FE4141F496
:1003B000780170BD81F0004102E000BF83F000438E
:1003C00030B54FEA41044FEA430594EA050F08BFF0
:1003D00090EA020F1FBF54EA000C55EA020C7FEAB4
:1003E000645C7FEA655C00F0E2804FEA5454D4EB31
:1003F0005555B8BF6D420CDD2C4480EA020281EAFB
:10040000030382EA000083EA010180EA020281EA32
:100410000303362D88BF30BD11F0004F4FEA013184
:100420004FF4801C4CEA113102D0404261EB410193
:1004300013F0004F4FEA03334CEA133302D0524219
:1004400063EB430394EA050F00F0A780A4F10104D5
:10045000D5F1200E0DDB02FA0EFC22FA05F280180F
:1004600041F1000103FA0EF2801843FA05F35941F5
:100470000EE0A5F120050EF1200E012A03FA0EFC74
:1004800028BF4CF0020C43FA05F3C01851EBE3719E
:1004900001F0004507D54FF0000EDCF1000C7EEBBB
:1004A00000006EEB0101B1F5801F1BD3B1F5001FF9
:1004B0000CD349085FEA30004FEA3C0C04F1010418
:1004C0004FEA445212F5800F80F09A80BCF1004F41
:1004D00008BF5FEA500C50F1000041EB045141EAC3
:1004E000050130BD5FEA4C0C404141EB0101013C8C
:1004F00028BFB1F5801FE9D291F0000F04BF01467B
:100500000020B1FA81F308BF2033A3F10B03B3F14C
:1005100020020CDA0C3208DD02F1140CC2F10C02DC
:1005200001FA0CF021FA02F10CE002F11402D8BF3A
:10053000C2F1200C01FA02F120FA0CFCDCBF41EA06
:100540000C019040E41AA2BF01EB0451294330BDD5
:100550006FEA04041F3C1CDA0C340EDC04F11404B2
:10056000C4F1200220FA04F001FA02F340EA030089
:1005700021FA04F345EA030130BDC4F10C04C4F1CF
:10058000200220FA02F001FA04F340EA03002946AF
:1005900030BD21FA04F0294630BD94F0000F83F4F9
:1005A000801306BF81F480110134013D4EE77FEADC
:1005B000645C18BF7FEA655C29D094EA050F08BF28
:1005C00090EA020F05D054EA000C04BF1946104609
:1005D00030BD91EA030F1EBF0021002030BD5FEA4D
:1005E000545C05D14000494128BF41F0004130BD75
:1005F00014F580043CBF01F5801130BD01F00045C9
:1006000045F0FE4141F470014FF0000030BD7FEA3B
:10061000645C1ABF194610467FEA655C1CBF0B4636
:10062000024650EA013406BF52EA033591EA030F4D
:1006300041F4002130BD00BF90F0000F04BF002145
:10064000704730B54FF4806404F132044FF0000578
:100650004FF0000150E700BF90F0000F04BF0021F1
:10066000704730B54FF4806404F1320410F0004557
:1006700048BF40424FF000013EE700BF42004FEA52
:10068000E2014FEA31014FEA02701FBF12F07F43CF
:1006900093F07F4F81F06051704732F07F4208BF86
:1006A000704793F07F4F04BF41F40021704730B58D
:1006B0004FF4607401F0004521F000411CE700BFD9
:1006C00050EA010208BF704730B54FF000050AE05C
:1006D00050EA010208BF704730B511F0004502D55D
:1006E000404261EB41014FF4806404F132045FEA5F
:1006F000915C3FF4D8AE4FF003025FEADC0C18BF08
:1007000003325FEADC0C18BF033202EBDC02C2F1F9
:10071000200300FA03FC20FA02F001FA03FE40EA8B
:100720000E0021FA02F11444BDE600BF4FEA410277
:1007300012F5001215D211D56FF47873B3EB625233
:1007400012D94FEAC12343F0004343EA505311F05A
:10075000004F23FA02F018BF404270474FF00000EC
:10076000704750EA013005D111F0004008BF6FF02A
:10077000004070474FF00000704700BF80F000401D
:1007800002E000BF81F0004142001FBF5FEA410369
:1007900092EA030F7FEA226C7FEA236C6AD04FEA69
:1007A0001262D2EB1363C1BFD218414048404140AE
:1007B000B8BF5B42192B88BF704710F0004F40F460
:1007C000000020F07F4018BF404211F0004F41F47C
:1007D000000121F07F4118BF494292EA030F3FD048
:1007E000A2F1010241FA03FC10EB0C00C3F120035B
:1007F00001FA03F100F0004302D5494260EB4000EA
:10080000B0F5000F13D3B0F1807F06D340084FEA54
:10081000310102F10102FE2A51D2B1F1004F40EB49
:10082000C25008BF20F0010040EA030070474900B1
:1008300040EB0000013A28BFB0F5000FEDD2B0FA4E
:1008400080FCACF1080CB2EB0C0200FA0CF0AABF71
:1008500000EBC25052421843BCBFD040184370470F
:1008600092F0000F81F4000106BF80F40000013215
:10087000013BB5E74FEA41037FEA226C18BF7FEAEC
:10088000236C21D092EA030F04D092F0000F08BF2E
:100890000846704790EA010F1CBF0020704712F015
:1008A0007F4F04D1400028BF40F00040704712F154
:1008B00000723CBF00F50000704700F0004343F0B9
:1008C000FE4040F4000070477FEA226216BF0846EF
:1008D0007FEA23630146420206BF5FEA412390EAB2
:1008E000010F40F4800070474FF0000304E000BFA8
:1008F00010F0004348BF40425FEA000C08BF704759
:1009000043F0964301464FF000001CE050EA01021C
:1009100008BF70474FF000030AE000BF50EA010231
:1009200008BF704711F0004302D5404261EB41011E
:100930005FEA010C02BF84460146002043F0B64343
:1009400008BFA3F18053A3F50003BCFA8CF2083A68
:10095000A3EBC25310DB01FA02FC634400FA02FC71
:10096000C2F12002BCF1004F20FA02F243EB020078
:1009700008BF20F00100704702F1200201FA02FCDA
:10098000C2F1200250EA4C0021FA02F243EB0200CD
:1009900008BF20EADC7070474FF0FF0C1CEAD05211
:1009A0001EBF1CEAD15392EA0C0F93EA0C0F6FD0D2
:1009B0001A4480EA010C400218BF5FEA41211ED0B0
:1009C0004FF0006343EA501043EA5111A0FB01319C
:1009D0000CF00040B1F5000F3EBF490041EAD37171
:1009E0005B0040EA010062F17F02FD2A1DD8B3F1ED
:1009F000004F40EBC25008BF20F00100704790F05C
:100A0000000F0CF0004C08BF49024CEA502040EAAD
:100A100051207F3AC2BFD2F1FF0340EAC250704773
:100A200040F400004FF00003013A5DDC12F1190FB1
:100A3000DCBF00F000407047C2F10002410021FA23
:100A400002F1C2F1200200FA02FC5FEA310040F13B
:100A5000000053EA4C0308BF20EADC70704792F0B4
:100A6000000F00F0004C02BF400010F4000F013AEC
:100A7000F9D040EA0C0093F0000F01F0004C02BFE7
:100A8000490011F4000F013BF9D041EA0C018FE756
:100A90000CEAD15392EA0C0F18BF93EA0C0F0AD05C
:100AA00030F0004C18BF31F0004CD8D180EA010082
:100AB00000F00040704790F0000F17BF90F0004F1B
:100AC000084691F0000F91F0004F14D092EA0C0FFD
:100AD00001D142020FD193EA0C0F03D14B0218BF90
:100AE000084608D180EA010000F0004040F0FE40D6
:100AF00040F40000704740F0FE4040F44000704772
:100B00004FF0FF0C1CEAD0521EBF1CEAD15392EAF0
:100B10000C0F93EA0C0F69D0A2EB030280EA010CE0
:100B200049024FEA402037D04FF0805343EA111179
:100B300043EA10130CF000408B4238BF5B0042F1D7
:100B40007D024FF4000C8B4224BF5B1A40EA0C007C
:100B5000B3EB510F24BFA3EB510340EA5C00B3EBAE
:100B6000910F24BFA3EB910340EA9C00B3EBD10F9C
:100B700024BFA3EBD10340EADC001B0118BF5FEAEE
:100B80001C1CE0D1FD2A3FF650AF8B4240EBC25017
:100B900008BF20F0010070470CF0004C4CEA5020D8
:100BA0007F32C2BFD2F1FF0340EAC250704740F427
:100BB00000004FF00003013A37E792F0000F00F019
:100BC000004C02BF400010F4000F013AF9D040EA97
:100BD0000C0093F0000F01F0004C02BF490011F42B
:100BE000000F013BF9D041EA0C0195E70CEAD15323
:100BF00092EA0C0F08D142027FF47DAF93EA0C0F0A
:100C00007FF470AF084676E793EA0C0F04D14B02ED
:100C10003FF44CAF08466EE730F0004C18BF31F09F
:100C2000004CCAD130F000427FF45CAF31F0004399
:100C30007FF43CAF5FE700BF4FEA4002B2F1FE4FE6
:100C40000FD34FF09E03B3EB12620DD94FEA00238E
:100C500043F0004310F0004F23FA02F018BF404267
:100C600070474FF00000704712F1610F01D142024E
:100C700005D110F0004008BF6FF0004070474FF002
:100C80000000704700220A4930B50B88094D013831
:100C900010F8014F14B902B10B8030BD5A1C92B24A
:100CA000B2F5807FEC5414BF134600230122EFE716
:100CB000460200204E020020074A10B51188074C5A
:100CC0004B1C9BB2B3F5807F138008BF0023605498
:100CD00008BF138010BD00BF460200204E02002056
:100CE00038B500240D460D4B01463F220C481C70C0
:100CF00008F082FA0A4B1F2229460A4883F83F402F
:100D000008F07AFA3222074BDC77074B1A600D2283
:100D1000064B1A70064B1C7038BD00BF74040020CF
:100D20001D040020FD030020700400207504002035
:100D300044020020194B70B55B6806460D46144608
:100D40003BB347F2305316491648002A08BF1C46E9
:100D500008F092FA0F223146134808F04DFA0023AA
:100D6000114A1249D37328460A2208F0C3F90A220D
:100D700020460F4908F0BEF90E4B1B7863B10E4BAD
:100D8000187810F0020003D0092206200B4B1A70CD
:100D900070BD4FF0FF30FBE70120F9E7380200207B
:100DA000649B000800000020ED030020E703002002
:100DB000D10300201D0400207404002075040020CD
:100DC000064A10B51188064C4B1C9BB2802B138031
:100DD00008BF0023605408BF138010BD4C020020E0
:100DE0004E0300202DE9FF479A46334B81465B684E
:100DF0000E461746002B5AD0DFF8C08098F8004006
:100E0000630657D514F0080449D10A2201A93846CF
:100E100008F070F901A8FFF79BF90138C0B2032868
:100E20003BD82748FFF72EFF01A8FFF72BFF2548E7
:100E3000FFF728FF2246244924480B88A5B2AF4279
:100E400018D802B10B8098F80030214C23F00C0325
:100E500043F00C0388F8003023683BB11D489847E5
:100E6000236801A8984723681B489847092004B0C5
:100E7000BDE8F0875D1CADB2B5F5807F08BF0025E9
:100E8000721C19F8066092B2C6540134524514BF60
:100E9000164600262B460122D0E70B20E7E70C4B35
:100EA0001B680BB90820E2E70C489847FAE74FF0B7
:100EB000FF30DCE70520DAE7380200207404002068
:100EC0009D9E0008689B0008460200204E020020FC
:100ED000600400206B9B0008E69B00087E9B0008D6
:100EE00002460D4B0068516803C390680B4A1860B6
:100EF000002313700A4A13700A4A13800A4A1380A7
:100F00000A4A13800A4A13800A4A13700A4A136075
:100F10000A4A1360704700BF3802002075040020A1
:100F2000D003002048020020460200204A02002090
:100F30004C0200207404002064040020600400209F
:100F4000094A13680BB1013B1360084A136823B1C7
:100F5000013B13600BB9064A1370064A13680BB1C4
:100F6000013B1360704700BF700400206C04002038
:100F7000D0030020680400202DE9F84FAC4AAD4EA4
:100F8000B2F800B0338800255B4506D0AA4F3A7806
:100F90000D3A022A20D8A6F800B0A84EA84C336813
:100FA000002B40F038826423A34D33602B780F2B45
:100FB00000F23182DFE813F05B0344025D0263025A
:100FC0006D027702DD02E502F60205031403510308
:100FD00056030F021B022A0202229A499A4C0A6007
:100FE0009B45DAD0994AD05C22780C2A00F2EE8137
:100FF000DFE812F00D005600C400EC01EC017B01AB
:1010000090019801A501EC01C001C501D7010023A1
:1010100004219846DFF838C28E4ADFF83C928CF8FB
:10102000003011705FFA83FE59F82E10E1B9B8F163
:10103000000F01D08CF800E00022824B80491A603A
:101040000B7813F0010F06D03E2804D162F30003A1
:101050000B70824B1A60338801339BB2802B338034
:1010600004BF00233380BBE791F804A0013382451D
:1010700013D1B8F1000F01D08CF800E00B7849785B
:10108000303B313903EB830301EB430374490B809D
:101090000123237005231370DDE74FF00108C1E73A
:1010A000DFF8ACC16C499CF8002051F82220694956
:1010B000097812F801E0864514D1DFF8A4C1BCF824
:1010C0000030013B9BB2ACF800300BB10D284DD184
:1010D0009378D278303B03EB8303303A02EB43033F
:1010E0002370B8E700229146C1F57F4A8CF80020B2
:1010F0000AF1D30ADFF860C15FFA82F85CF828C011
:10110000BCF1000F0CD1B9F1000F04D0544A158086
:101110004F4A82F800800022013B227033809AE718
:101120009CF800E09CF80150AEF1300E0EEB8E0EF4
:10113000554405EB4E05ADB27F2D1BD81CF801E0E0
:10114000864517D1464B1D80B9F1000F02D0404BA8
:1011500083F8008055B99CF802309CF80320303B9E
:1011600003EB8303303A02EB43032370394B013125
:10117000197070E74FF001090132BBE70A287FF4CC
:101180006AAF0022324B22701B78023B0D2B3FF6D8
:1011900062AF01A151F823F0D1110008E911000854
:1011A000031200085710000871120008711200089D
:1011B000931200089D120008B5120008931200084F
:1011C00057100008D512000857100008DF12000859
:1011D0003B78022B7FF43FAF0022184B1A60184A6D
:1011E000137843F0200356E7154A137819077FF563
:1011F00032AF23F0480313701A4B1A881A4B1A8027
:1012000029E70E4B1A603B78062B0D4B02BF1A786C
:1012100042F020021A701A7842F002021A70134B40
:101220001B68002B3FF417AF0320984713E700BF5C
:101230004C0200204A0200207504002070040020A7
:10124000740400206C040020D00300204E03002012
:101250003502002034020020549D0008680400205C
:10126000CE03002046020020480200206404002033
:101270008F4A137823F0420313708E4B1B680BB117
:10128000002098473B78062B3FF4E5AE0F233B70D8
:10129000E1E6874A137823F04003FCE6844A13789A
:1012A00023F008031370834B1B68002B3FF4D3AE6D
:1012B0000A20BAE7804B1A607D4A137823F0600356
:1012C00043F0600313707B4B1B68002B3FF4C3AEED
:1012D0000720AAE7764A137823F04203DBE6744A34
:1012E000137823F042031370D0E7744A2C28126855
:1012F00007D106232370002A3FF4ADAE7048904713
:10130000A9E60021013B21703380002A3FF4A3AEFF
:101310006C48F4E722287FF49EAE07232370002256
:10132000694B6CE7222803D0674A1388102B01D140
:101330000823D5E6591C1180644AD0548BE60A284C
:101340007FF489AE0023604A237011885F4A0F2919
:101350009BBF5354564913700A789FBF42F0200236
:101360000A70554A1360534B1B68002B3FF473AE51
:1013700004205AE72C287FF4CEAE0B23CEE73A2880
:1013800001D10C23ACE6A0F13002092A3FF6C3AE2E
:101390004D4A138803EB830300EB4303303B138078
:1013A00059E64B4B9B6803B19847474A1388013B6A
:1013B0009BB21380002B7FF44EAE23703F4B1B6813
:1013C000002B3FF448AE4348984744E60023424A86
:1013D000237013603FE63E4B00201B689847374B55
:1013E0001B680BB13D4898470E232B7013E0384B18
:1013F00001201B689847314B1B680BB13848984750
:101400000F232B704FF4FA73336004E001230022A2
:101410002B70344B1A702378DA0740F12A81324A54
:1014200012685AB962F30003012223702F4B30492E
:101430001A700A2308882F4933600880BDE8F88FA6
:10144000284A13782BB1013BDBB213701BB90D2373
:10145000CBE7042313702378274823F0200323705D
:10146000FFF710FC154B1B680BB12448984702236B
:10147000BBE72378980640F1A2800323B5E7204814
:10148000FFF700FC0D4B1B680BB11E489847042367
:10149000ABE71D48FFF7F6FB084B1B680BB11B4879
:1014A00098470623A1E72378990731D507239CE7BE
:1014B00074040020640400207004002060040020F4
:1014C000969B0008AB9B0008CE030020D7030020AA
:1014D00038020020BF9B00086C040020D29B00084B
:1014E000E89B0008440200206804002075040020E6
:1014F0004602002048020020F59E0008FE9B0008DE
:10150000D99E00080C9C0008E79E0008209C00085B
:101510006D4F3B78002B3FF47EAF6C48FFF7B2FB7A
:101520002220FFF7C9FB3846FFF7ACFB2220FFF76C
:10153000C3FB2C20FFF7C0FB2220FFF7BDFB644854
:10154000FFF7A0FB2220FFF7B7FB0D20FFF7B4FB4E
:101550000A20FFF7B1FB5F4B1B680BB15E48984751
:10156000237823F02003237006232B7040F2DC53F2
:101570004AE723789A0622D5072304222B70574B7B
:1015800048E70022564B57481A70FFF77BFB514B38
:101590001B680BB154489847237823F0200323702D
:1015A000082322E723789B0601D509231DE74B4A30
:1015B0001378013BDBB21370002B7FF477AF01236C
:1015C00013E74A4B1B78002B3FF425AF4848FFF741
:1015D00059FB404B1B680BB1464898470A2304E768
:1015E0004548FFF74FFB2220FFF766FB4348FFF714
:1015F00049FB2220FFF760FB2C20FFF75DFB222038
:10160000FFF75AFB3948FFF73DFB2220FFF754FB59
:101610002C20FFF751FB3A48FFF734FB2C20FFF753
:101620004BFB3848FFF72EFB2C20FFF745FB302003
:10163000FFF742FB0D20FFF73FFB0A20FFF73CFBC3
:10164000244B1B680BB130489847237823F0600384
:1016500023700B232B70C823D6E623789F06AED5C4
:101660000C23C2E623789807A9D559069DD50023F7
:10167000CAE6264D26492A88098891423FF4DEAE03
:10168000244E5F07B05C02D53E2808BF0A20224BDB
:101690005B68984700283FF4D1AE22782B88510729
:1016A0000AD5F15C3E2907D1052122F0050242F05E
:1016B00001022270194A116001339BB2B3F5807F99
:1016C00008BF00232B80B9E61D040020CF9E000830
:1016D000FD03002060040020349C00084402002028
:1016E000D7030020C49E0008479C0008ED0300209B
:1016F000A99E0008589C0008B79E00080000002022
:10170000E7030020D10300206E9C0008480200205F
:10171000460200204E02002038020020680400200B
:10172000014B1860704700BF600400200022F0B534
:10173000084BD4B2A14202F1010200D8F0BD5D799C
:101740001E686F1C5F71045D74555C79DD792C40F7
:101750005C71EEE7D008002010B5054B5A79196886
:10176000541C5C7188545A79D9790A405A7110BD59
:10177000B8080020021E18BF01224FF40071014872
:1017800002F078BC000C01401FB514461A464FF019
:10179000FF330091CDE9014301460123024802F0E5
:1017A000EFFE04B010BD00BFFC0A0020FFF7ECBF45
:1017B00013B514461A46CDE9001401230146024828
:1017C00002F06EFF02B010BDFC0A002013B51446F3
:1017D0001A46CDE9001401230146024803F026F819
:1017E00002B010BDFC0A002007B501228DF80700E9
:1017F0000DF10701034805F014FEB0FA80F040092E
:1018000003B000BD0C09002010B50446FEF7A0FC93
:1018100081B22046BDE8104007F0B2BA054B064A37
:1018200003F1100153F8040B8B4242F8040BF9D179
:10183000704700BFF8080020E80800200122014B93
:101840001A707047B10400200122014B1A707047D2
:10185000B004002038B502681A4B04469A4212D1EF
:10186000194A1A4913781A480133DBB2282B01BFF1
:1018700000231370174A137808BF43F080031370D6
:10188000082202F01DF82368B3F1804F18D101221D
:10189000114912480B78124CE2541344027803F0B9
:1018A0000F03013A12F0FF0208BF05250B7003BFBA
:1018B000E254013303F00F03027004BF05700B7094
:1018C00038BD00BF002C014008090020F8080020A6
:1018D000940B0020B2040020930400200D0000208F
:1018E0009404002070B5026883790C46D15C0546EB
:1018F000A1F1F003042B00F2FE80DFE803F0030DFA
:101900001C68B700F0210222204601F0F8FC0D21EE
:10191000204601F03CFD08E0F1210D22204601F0B7
:10192000EEFC2046774901F045FD2046217ABDE8CE
:10193000704001F02CBD0D22F221204601F0DFFCA9
:10194000714B724DB3F9001020462980C9B201F0E5
:101950001EFD6978204601F01AFD6D4B2046B3F953
:1019600000102980C9B201F012FD6978204601F00B
:101970000EFD684B2046B3F900102980C9B201F072
:1019800006FD6978204601F002FD634B2046B3F95D
:1019900000102980C9B201F0FAFC6978204601F0F4
:1019A000F6FC5E4B2046B3F900102980C9B201F065
:1019B000EEFC6978204601F0EAFC594BB3F90010BF
:1019C00029802046C9B201F0E2FC6978A0E7554EB3
:1019D0001122F321204601F092FC4C4D3188204623
:1019E0002980C9B201F0D3FC6978204601F0CFFC10
:1019F000718820462980C9B201F0C9FC6978204667
:101A000001F0C5FCB18820462980C9B201F0BFFCB5
:101A10006978204601F0BBFCF18820462980C9B2D4
:101A200001F0B5FC6978204601F0B1FC318920460F
:101A30002980C9B201F0ABFC6978204601F0A7FC0F
:101A4000718920462980C9B201F0A1FC697820463D
:101A500001F09DFCB18920462980C9B201F097FCB4
:101A60006978204601F093FCF189A9E70222F4216C
:101A7000204601F044FC0D21204601F088FC217A2B
:101A8000204601F084FC00220121284601F0B7FC29
:101A90001E4C002201212070284601F0B0FC0022DB
:101AA00001216070284601F0AAFC00220121A070EB
:101AB000284601F0A4FCE0701B4B226801211A703B
:101AC0002846002201F09BFC0022012120702846BC
:101AD00001F095FC002201216070284601F08FFC86
:101AE0000022A0700121284601F089FCE0702268E4
:101AF0000E4B1A7070BD0222204601F000FCFF213F
:101B000006E700BFDCB30008AE040020B4040020E8
:101B1000AC040020AA040020A8040020A604002091
:101B2000A4040020E8080020920400209104002072
:101B3000F0B516464379027905469A420C46C1B083
:101B400014D001F069FC88B121462846FFF7CAFE8F
:101B500068460022617AD3B2994209D8AEB10A46EA
:101B60004FF4807300216846FFF73CF941B0F0BDA7
:101B7000A77925687B1CDBB2A371ED5D013200F80B
:101B8000015BE5792B40A371E5E7684607F0F8F8BB
:101B9000ECE7000010B50C4B0C4C1A780C4B0D48C0
:101BA00053F822100122237802FA03F38B4308BF73
:101BB0001A464FF4005102F05DFA2378013303F026
:101BC0001F03237010BD00BF8E0400207904002085
:101BD0001000002000100140F0B5002485B0012065
:101BE00000F05AFF2146402320221E20009401F0DD
:101BF00091F82046162380221421009401F08AF8DF
:101C00004023522221465020009401F083F87F4D5A
:101C10002146282001F032F87D4902A807F02CFB6C
:101C200095E80E00009402A801F012F82146552014
:101C300001F024F8774902A807F01EFB95E80E0092
:101C4000009402A801F004F81921282001F016F8E8
:101C50000821714B714D0DEB0100B3F90030704A52
:101C600007F08CFA95E80E00009402A800F0F0FF4F
:101C70001921552001F002F808216A4B0DEB0100F3
:101C8000B3F90030664A07F079FA95E80E0000943F
:101C900002A800F0DDFF2521282000F0EFFF082139
:101CA000614B0DEB0100B3F900305D4A07F066FAB5
:101CB00095E80E00009402A800F0CAFF25215520E7
:101CC00000F0DCFF0821594B0DEB0100B3F90030A7
:101CD000534A07F053FA95E80E00009402A800F06A
:101CE000B7FF3121282000F0C9FF0821504B0DEB30
:101CF0000100B3F900304A4A07F040FA95E80E00B7
:101D0000009402A800F0A4FF3121552000F0B6FF96
:101D100008211E26474B0DEB0100B3F90030404A65
:101D200007F02CFA95E80E0040F6FA75424F009441
:101D300002A800F08DFF3B8803227343B3FBF5F349
:101D4000C3F13C0310463C210094DBB200F09CFF41
:101D50007B8806227343B3FBF5F3C3F13C031046C3
:101D60003C210094DBB200F08FFFBB880922734353
:101D7000B3FBF5F3C3F13C0310463C210094DBB206
:101D800000F082FFFB880C227343B3FBF5F3C3F131
:101D90003C0310463C210094DBB200F075FF3B8908
:101DA0000F227343B3FBF5F3C3F13C0310463C2110
:101DB0000094DBB200F068FF7B8912227343B3FB0F
:101DC000F5F3C3F13C0310463C210094DBB200F074
:101DD0005BFFBB8915227343B3FBF5F3C3F13C03EF
:101DE00010463C210094DBB200F04EFFFB89182224
:101DF0007343B3FBF5F3C3F13C033C21104600945D
:101E0000DBB200F041FF05B0F0BD00BFFC9E000852
:101E1000849C0008889C0008AE040020089F0008ED
:101E20008C9C0008A8040020AC040020A60400201C
:101E3000AA040020A4040020E808002013B5224CC6
:101E40002378032B3ED8DFE803F002151A271F4A38
:101E50001F4B11781B788B4208D01E484B1C415CED
:101E600003F00F0321B103212170137002B010BDE4
:101E70000121F9E7FFF7B0FE02232370F6E71648C9
:101E800003F0C8FC2028F1D100F02CFE0028EDD092
:101E90000023124A1370F0E70F4803F0BBFC202820
:101EA000E4D100F09DFC0028E0D00D4B0D4A0193D9
:101EB0000D4B0E4900930E480E4B00F075FD0023AC
:101EC0000D4AE7E70023D8E77804002077040020D4
:101ED0009304002094040020FC0A0020B104002098
:101EE000A4040020AA040020A6040020AC040020C2
:101EF000AE040020A8040020B004002030B542F257
:101F00000F7564240D4B18780D4B684319780D4BF1
:101F100069431A780C4B6A431B78B0FBF4F06B43AF
:101F2000B1FBF4F1B2FBF4F2B3FBF4F3074C246819
:101F30006063E163A263236430BD00BF92040020AC
:101F400090040020910400208F0400209C090020B0
:101F500002780346032A1CD8DFE802F00F021407B8
:101F6000427842B903221A7005E041780122002923
:101F7000F9D101708270002070474278012AFAD1AD
:101F80000222F0E7407800220128ECD118709A7004
:101F900070470122E7E7000008B5837813B1838812
:101FA0000A339BB20A4A83801378042B0DD900238D
:101FB0004FF400410748137002F056F8064B08B979
:101FC000587008BD01225A70FBE701331370F8E71F
:101FD00076040020000C01407A04002070B51C4CEF
:101FE0002378DB0929D023781A4D23F0800323704E
:101FF0002B78194E013B2B703378013B3370FEF781
:102000009FFF1648FFF7C8FF33782BB902233370C0
:10201000237843F0400323702E7876B90A232B707F
:10202000237843F020032370FFF7B4FD0C4A1378A4
:102030000133DBB2092B01D8137070BD1670314625
:10204000BDE870404FF4807309220648FEF7CABE0F
:10205000B20400200F0000200E0000207A040020AF
:102060008D0400200400002083784BB98288642A04
:1020700006D9B2F57A7F04D20121044A1170838017
:102080007047FDD0014A1370F9E700BF8E040020AD
:1020900010B594B0142200210CA807F0A5F8142262
:1020A00000210DEB020007F09FF81022002101A88B
:1020B00007F09AF802244FF480330122CDE911434E
:1020C000CDE90A234FF4E0130AA80E92139304F00B
:1020D0001DFA08B172B6FEE70F23CDE905344FF4BF
:1020E00080630790CDE90830214605A804F0D0FBB5
:1020F00008B172B6FEE7122301934FF40043CDE915
:10210000033001A804F080FC08B172B6FEE714B0F9
:1021100010BD000080B5A74D98B001F033FAFFF76D
:10212000B7FF1022002111A807F05EF8AB6900226A
:1021300043F01003AB61AB694FF4005103F010039F
:102140000293029BAB699C4843F02003AB61AB69EF
:10215000002403F020030393039BAB69012743F0A2
:102160000403AB61AB69022603F004030493049BF0
:10217000AB6943F00803AB61AB6903F00803059357
:10218000059B01F077FF00224FF400718B4801F0AE
:1021900071FF4FF40053884811A9CDE91137CDE9FB
:1021A000134601F08DFE4FF40043844811A9CDE998
:1021B0001134139401F084FE4FF400737F4811A989
:1021C000CDE91137CDE9134601F07AFE6B6922465D
:1021D0003B436B616B6921463B400B200193019BA4
:1021E00001F0B2FC0B2001F0DFFC224621460E205C
:1021F00001F0AAFC0E2001F0D7FC224621460F2058
:1022000001F0A2FC0F2001F0CFFC6D4A6D4BCDE92F
:10221000114413604FF480731394936014734FF45C
:1022200060231475546008241046D361146101F0D2
:10223000F9FB08B172B6FEE7CDE91107139011A9B9
:102240005F4801F083FA08B172B6FEE75C4811A955
:10225000CDE9117601F07AFA08B172B6FEE70325EE
:10226000574811A91196129501F070FA08B172B68B
:10227000FEE711950425524811A9129501F066FA5E
:1022800008B172B6FEE7119505254D4811A91295C2
:1022900001F05CFA08B172B6FEE7119506254848D0
:1022A00011A9129501F052FA08B172B6FEE7119524
:1022B0000725434811A9129501F048FA08B172B6F2
:1022C000FEE73F4811A9CDE9115401F03FFA044659
:1022D00008B172B6FEE70CAE01461022304606F099
:1022E00083FF1422214611A806F07EFF47233648BB
:1022F000DFF8D8C008AFC0E900C3F92308947C60B8
:10230000C0E90334C0E90544846004F061FD08B10C
:1023100072B6FEE74FF4805831462B48CDF8308036
:1023200004F03CFE08B172B6FEE7CDE9110011A938
:10233000254804F02AFF08B172B6FEE7CDE908008F
:102340003946214804F0A6FF054608B172B6FEE7FB
:1023500001461022304606F047FF1422294611A8F4
:1023600006F042FF4FF047094FF08043184C0895A4
:10237000C4E9003944F61F6320467D60C4E9033593
:10238000A560A56104F024FD08B172B6FEE73146F0
:102390002046CDF8308004F001FE08B172B6FEE7A9
:1023A000CDE9110011A9204604F0EFFE90B172B6FC
:1023B000FEE700BF0010024000100140000C014089
:1023C000940B0020002401402C0A0020002C014026
:1023D000E4090020CDE908003946204604F05AFF00
:1023E000044608B172B6FEE701461022384606F0F0
:1023F000FBFE14222146304606F0F6FE1C22214642
:1024000011A8A04D0694079406F0EEFE9E4B2846B8
:10241000C5E9003942F20F730DF1180AC5E903341A
:10242000AC60AC6104F0D4FC08B172B6FEE739468A
:102430002846CDF8208004F0B1FD08B172B6FEE761
:10244000284604F0F1FC08B172B6FEE700233146DD
:102450008C48CDE90C3304F098FE08B172B6FEE763
:10246000CDE906005146874804F014FF024608B142
:1024700072B6FEE760231390CDE91130159011A9D3
:10248000804804F029FD08B172B6FEE704227D48B9
:1024900011A904F021FD08B172B6FEE708227948BF
:1024A00011A904F019FD08B172B6FEE70C227548B7
:1024B00011A904F011FD044608B172B6FEE7714897
:1024C00000F02EFE4FF4E1337048714DC0E9024434
:1024D000C0E900530C230461C0E90534C46104F071
:1024E00071FF044608B172B6FEE706F0D5FB6948F5
:1024F00069496A4BC0E90244C0E900134FF48043C4
:10250000C0E90644C0E90434046201F091FF0446C6
:1025100008B172B6FEE71022014611A806F064FE6B
:1025200047235F4D5F4A0C94C5E9002342F20F73C5
:1025300028467460C5E90334AC60AC6104F048FC23
:1025400008B172B6FEE74FF48053284611A91193E3
:1025500004F024FD08B172B6FEE70023314650486E
:10256000CDE90C3304F096FE044608B172B6FEE7DE
:102570004D4806F01BFC4D4804F034FB4C4804F079
:1025800031FB404804F02EFB21463E4804F080FE1B
:1025900004213C4804F07CFE08213A4804F078FE0F
:1025A0000C21384804F074FE4FF4005101224148D8
:1025B00001F060FD404800F069FA404800F060FA20
:1025C0003F4800F057FA00F0E5FB3E4800F0C8F83D
:1025D0003D4800F0CBF83D4800F0CEF800F0EAF8B6
:1025E0003B4A3C4B104613603B4B53603B4B936064
:1025F000FEF776FC3A48FFF793F801223949234861
:1026000005F0F1F838493948FEF76AFB47F23152D4
:1026100047F23A513648FEF78DFB364B364A37497A
:10262000374800F058FF374B374A3849384800F0F0
:1026300052FF384B384A1C7005231370374A137009
:1026400040F20122364B1C70364B1C70364B1A8000
:102650009C709C80FFF7C2FCFEF78EFC002227498D
:102660002748FFF765FA012228492948FFF760FA51
:10267000FFF744FCFFF7E2FB2B48FFF7F5FCFFF701
:1026800067FCE7E79C090020000400400C090020DB
:1026900000380140FC0A002000580040801A060063
:1026A00054090020000800402D1700082C0A0020C3
:1026B000E409002000100140B1040020891700083F
:1026C000B1170008B0040020AD170008CD170008AE
:1026D0008004002075170008E91700085917000842
:1026E000091800088C0400208F9C0008A29C000898
:1026F000AA9C0008B8070020B8060020DC080020CB
:10270000D0080020B8050020B8040020C40800202C
:10271000B8080020B2040020920400209004002099
:10272000910400208F0400207A0400200268084BE6
:1027300010B59A420AD1074C2078FEF741FB21469A
:10274000BDE810400122044805F04DB810BD00BF9F
:10275000003801408C0400200C09002072B6FEE70E
:10276000014B1860704700BFE80B0020014B186058
:10277000704700BFE40B0020014B1860704700BF9A
:10278000E00B0020044A10B414680B46A44601462E
:102790000122D02010BC6047E40B00201346044AFD
:1027A00010B41468CAB2A446014610BCD0206047D9
:1027B000E00B0020002307B56B210DF107008DF819
:1027C0000730FFF7DFFF0DF107001C21FFF7DAFFED
:1027D0001B210DF10700FFF7D5FF03B000BD00007E
:1027E0002DE9F041644B654A1868117803782BB9DC
:1027F000012900F09E800020BDE8F081002301291E
:10280000037000F096800229F5D1012111705C4A15
:1028100010885788C0BA968815895489B2F80C80F8
:1028200000F5E172B2F5617FFFBAF6BAEDBAE4BA2B
:1028300098FAB8F813D9FEF75BF84FF06251FEF73B
:10284000ABF8FDF71BFF4AA3D3E90023FDF788FC93
:102850004C4B0022FDF784FCFDF768FF03B24A4AA7
:10286000138007F5E173B3F5617F6AD93846FEF747
:102870003FF84FF06251FEF78FF8FDF7FFFE3CA3E3
:10288000D3E90023FDF76CFC00223E4BFDF768FC0A
:10289000FDF74CFF00B23D4B188006F5E173B3F530
:1028A000617F50D93046FEF723F84FF06251FEF7B2
:1028B00073F8FDF7E3FE2EA3D3E90023FDF750FCE8
:1028C0000022304BFDF74CFCFDF730FF00B2304BDF
:1028D000188005F5E173B3F5617F36D92846FEF718
:1028E00007F82C49FEF70CF92B49FEF755F8FEF7CF
:1028F000A3F900B2294B188004F5AF73B3F52F7F0D
:1029000025D92046FDF7F4FF2249FEF7F9F82249C0
:10291000FEF742F8FEF790F900B2214B214C1880E7
:1029200008F5AF73B3F52F7F13D800232380012060
:1029300062E702230E21137011483B22FFF72EFF9E
:1029400059E70020A7E70020C1E70020D2E70020D8
:10295000E3E74046FDF7CCFF0E49FEF7D1F80E49FC
:10296000FEF71AF8FEF768F92080E0E7AFF3008081
:102970001F85EB51B89E2340E80B0020400000204B
:10298000C40B002000005940DC0B0020DA0B0020B3
:10299000D80B0020000003430000C842D60B0020E3
:1029A000D40B0020D20B002070B5DDE9045418B11F
:1029B0000E4EB6F90060068019B10D48B0F900005E
:1029C00008801AB10B49B1F9001011801BB10A4AF5
:1029D000B2F900201A801DB1084BB3F900302B80EA
:1029E0001CB1074BB3F90030238070BDDC0B002015
:1029F000DA0B0020D80B0020D60B0020D40B0020CF
:102A0000D20B002013B5064B8DF807001C6801227D
:102A1000002378200DF10701A04702B010BD00BFD0
:102A2000F80F002013B5064B8DF807001C68012233
:102A3000002378200DF10701A04702B010BD00BFB0
:102A4000F40F0020044B10B41C68CAB2A44601461F
:102A50004023782010BC6047F80F0020044B10B4CE
:102A60001C68CAB2A44601464023782010BC6047C7
:102A7000F40F0020014B1860704700BFF40F0020D6
:102A8000014B1860704700BFF80F0020014B186021
:102A9000704700BFFC0F002000284FF4806214BF75
:102AA000FF210021014806F09FBB00BFF40B00206E
:102AB00038B5B0240A4D2046FFF7A4FF0020FFF7E9
:102AC000A1FF01341020FFF79DFFE4B228468021CA
:102AD000FFF7B8FFB82C05F18005ECD138BD00BF79
:102AE000F40B002038B51C4B1C4C1A682378117865
:102AF00019B9012B0AD0002038BD0021013B11700B
:102B0000032BF8D8DFE803F0020B1015144B1878EC
:102B10005038C0B2FFF786FF02232370EBE7002096
:102B2000FFF780FF0323F8E71020FFF77BFF042364
:102B3000F3E70B4D0B4B2878802103EBC010FFF718
:102B40008DFF01202B7820700133DBB2072B2B7017
:102B5000D1D900232B70CFE7FC0F002041000020CB
:102B6000EC0B0020F40B0020030630B510D43F29F5
:102B70000ED80124CB08074D00EBC3102B5C01F0ED
:102B8000070104FA01F1A2420CBF0B438B432B5403
:102B900030BD00BFF40B00202DE9F04F044689B092
:102BA00008A800E90E009DF84830A4F12005029322
:102BB000EBB25E2B47D8079B23B3234413F8206C5A
:102BC000224AB2F8009009EB0603802B3BDC5388C5
:102BD0009DF815B0019303EB0B02402A33DC029BF6
:102BE0004FF00008B3FA83FA0BFB05F54FEA5A1AC7
:102BF0006D00C34509D8154B4E441E80204609B0D0
:102C0000BDE8F08F9DF81460DAE70027069A535B61
:102C10000493019B08EB0302D3B20393BE4203D893
:102C200008F101080235E4E7049B07EB090003FA09
:102C300007F2130454BF5246029A0399C0B2FFF739
:102C400093FF0137EAE70024D8E700BFEE0B00202E
:102C500070B586B003AC84E80E009DF82860451E70
:102C600015F8010F40B1009694E80E00FFF794FFAD
:102C7000034628788342F3D006B070BD014B18801C
:102C800059807047EE0B00202DE9F74F9046A8EBD6
:102C90000009A3EB010AB9F1000F1E46B8BFC9F144
:102CA0000009BAF1000FB8BFCAF1000A804594BF0D
:102CB0004FF0FF33012305460C468E4294BF4FF080
:102CC000FF3B4FF0010B404631469DF8302000930A
:102CD000A9EB0A07FFF748FFCAF10003454504D1F5
:102CE000B44202D103B0BDE8F08F214628460193DB
:102CF000FFF73AFF019B7900B3EB470FBFBF009886
:102D0000A7EB0A072D18EDB28945C2BF5C444F44BA
:102D1000E4B2E3E72DE9F0411446A042804628BF23
:102D2000A046A042064638BF264699420C4628BF18
:102D30001C46994238BF19460F469DF81820BC42E0
:102D400001D83F2C01D9BDE8F081454607E02B06AC
:102D500007D428462146FFF707FF0135EDB2B542FB
:102D6000F5D90134E4B2EAE710B504468120FFF753
:102D700049FE2046BDE81040FFF744BE034628B197
:102D80000123AF20024A5371FFF73CBEAE20F9E7A2
:102D9000EE0B002008B5642000F018FC0020FFF7BF
:102DA000EDFF2020FFF72EFE0020FFF72BFEB020C6
:102DB000FFF728FEC820FFF725FE0020FFF722FEC0
:102DC0001020FFF71FFE4020FFF71CFEFF20FFF73B
:102DD000CBFFA120FFF716FEA620FFF713FEA820C9
:102DE000FFF710FE3F20FFF70DFEA420FFF70AFEBD
:102DF000D320FFF707FE0020FFF704FED520FFF7E2
:102E000001FEF020FFF7FEFDD920FFF7FBFD222099
:102E1000FFF7F8FDDA20FFF7F5FD1220FFF7F2FDCE
:102E2000DB20FFF7EFFD2020FFF7ECFD8D20FFF703
:102E3000E9FD1420FFF7E6FD0120FFF79FFF0020CA
:102E4000FFF72AFEFFF734FE0022034B1A805A8058
:102E500001221A7108BD00BFEE0B00200E4B82B09C
:102E60009A6942F001029A619A6902F001020092A5
:102E7000009ADA6942F08052DA61DB69074A03F0AE
:102E800080530193019B536823F0E06343F0806318
:102E9000536002B0704700BF0010024000000140C4
:102EA00030B5054687B01022002102A806F09CF933
:102EB0002A68204B9A423BD103F56C439A691E481D
:102EC00042F400729A619A6902A902F400720092B7
:102ED000009A9A69194C42F004029A619B69FF2298
:102EE00003F004030193019B0323CDE9022300F0C7
:102EF000E7FF80204FF480720023C4E903024FF4FF
:102F000080620F492046C4E90013C4E90523A36089
:102F1000E36100F06BFE08B1FFF720FC00221220F5
:102F20002C621146656200F00FFE122000F03CFE9C
:102F300007B030BD0024014000080140500B0020C4
:102F40000800024030B5054687B01022002102A8D3
:102F500006F04AF92A682E4B9A4256D12D4C4FF46E
:102F60004061A3692C4843F00803A361A36903F0FF
:102F700008030093009B1223CDE90213032302A947
:102F8000059300F09DFFE369802243F48003E36131
:102F9000E369224803F480030193019B0023204C42
:102FA000C4E900032046C4E90323C4E90533A36050
:102FB000E36100F01BFE08B1FFF7D0FB1023194AB4
:102FC000AC636562184CC4E90023002380222046CC
:102FD000C4E90232C4E90433C4E9063300F006FE52
:102FE00008B1FFF7BBFB0022212011466C6365622C
:102FF00000F0AAFD212000F0D7FD0022222011467A
:1030000000F0A2FD222000F0CFFD07B030BD00BFD0
:103010000058004000100240000C014058000240DF
:10302000B80A002044000240740A00201FB503685B
:10303000374A93422CD1374B18209A6942F40062E8
:103040009A6100229B69114603F400630093009B80
:1030500000F07AFD182000F0A7FD0022192011468B
:1030600000F072FD192000F09FFD00221A20114689
:1030700000F06AFD1A2000F097FD00221B20114687
:1030800000F062FD1B2005B05DF804EB00F08CBD84
:10309000B3F1804F11D103F50433DA691C2042F0FB
:1030A0000102DA610022DB69114603F0010301939A
:1030B000019B00F049FD1C20E5E7174A934210D11F
:1030C000144B1D20DA6942F00202DA610022DB694A
:1030D000114603F002030293029B00F035FD1D2010
:1030E000D1E70E4A934210D10A4B1E20DA6942F012
:1030F0000402DA610022DB69114603F00403039342
:10310000039B00F021FD1E20BDE705B000BD00BF00
:10311000002C014000100240000400400008004064
:1031200010B5044686B01022002102A806F05CF813
:103130002268114B9A421CD103F503339A690F4858
:1031400042F008029A619B69332203F0080301935D
:10315000019B022302A9CDE90223059300F0B0FEF2
:10316000074A536823F4406343F0E06343F4006389
:10317000536006B010BD00BF00040040000C0140C9
:103180000000014010B5044686B01022002102A8BC
:1031900006F02AF822681B4B9A4230D103F55843B7
:1031A0009A69194842F480429A619A6902A902F424
:1031B00080420092009A9A69002442F004029A61C7
:1031C0009B694FF4007203F004030193019B0223F7
:1031D000CDE902230323059300F072FE4FF48063D0
:1031E000094802A9CDE90234049400F069FE2520C3
:1031F0002246214600F0A8FC252000F0D5FC06B0B0
:1032000010BD00BF0038014000080140FEE7FEE7A6
:10321000FEE7FEE7FEE770477047704700F0C4B96D
:10322000014800F0B5BD00BF500B0020014800F080
:10323000AFBD00BF740A0020014800F0A9BD00BF67
:10324000B80A0020014800F001BA00BF940B00202A
:10325000014802F071BB00BFF41E0020FFF7F8BF69
:10326000014803F0EEBC00BF2C0A0020FFF7F8BFB6
:10327000FFF7F6BFFFF7F4BF014803F0E2BC00BF61
:10328000E4090020014803F0DCBC00BF9C090020D9
:10329000014803F0D6BC00BF54090020014801F0EA
:1032A000BFBD00BFFC0A0020014802F013BA00BFF6
:1032B000FC0A0020014804F033B900BF0C090020CB
:1032C0000A4A0346106810B508B909481060094950
:1032D000094C0344091B8B4206D905F0A1FF0C23BE
:1032E00003604FF0FF3010BD1360FCE700100020BA
:1032F00018230020005000200004000070470346FF
:10330000002030B5187258791C68451C5D71552530
:10331000987125545879DC7901322040451C5D7143
:103320004E251C68D2B225545879DC792040451CC2
:103330005D7145251C6825545879DC792040451C71
:103340005D7152251C6825545879DC7920401C6831
:10335000451C5D7122545879DC794A402040451C57
:103360005D713A251C6825545879DC7920401C6829
:10337000451C5D7121545879DC7920405871072033
:103380005872187A504080F03600187230BD0346EB
:1033900010B5427A013242725A790068541C5C714D
:1033A00081545A79D87902405A711A7A81EA020016
:1033B000187210BD002337B58DF807309DF807301F
:1033C000CB5C13B9007A03B030BD437A9DF8074057
:1033D00001334372437902685D1C45710C5DD4541E
:1033E0004379C27913409DF807204371531CDBB227
:1033F0008DF807308B5C027A53400372DEE7034698
:1034000010B5C47980790144214018689971405CF5
:1034100011440C409C7110BDF0B50024052645797F
:103420000379AB4201D10020F0BD827A072A50D83F
:10343000DFE802F0040F1C22282D4F3E0268D25C08
:10344000552A01D101228272C279013313400371DE
:10345000E6E70268D25C4E2A01D10222F3E7552A40
:10346000F2D000228272013BDBB2EDE70268D25C4F
:10347000452A1BD10322E6E70268D25C522A15D105
:103480000422E0E70268D25C86724272DCE70268DE
:10349000D25C3A2A0AD10721C2798172591C0A40AA
:1034A0008271427A82F036020272CDE78472DAE7E4
:1034B000427A0768013AD2B2017A42721AB1FA5CD2
:1034C00051400172C0E78272FA5C8A42BCD101208D
:1034D000AAE78472B8E710B502604FF07F4400227B
:1034E000446002818272C1E900340A818A7210BD8F
:1034F000FFF704FF0B480C490C4A002302E0D458A4
:10350000C4500433C4188C42F9D3094A094C00232F
:1035100001E013600432A242FBD305F087FEFEF700
:10352000F9FD7047000000201802002024B40008B4
:103530001802002014230020FEE7000038B50E4BCF
:1035400005461A784FF47A73B3FBF2F30B4A10680E
:10355000B0FBF3F000F036FB044658B90F2D09D844
:10356000024629464FF0FF3000F0EEFA2046044BA9
:103570001D6038BD0120FCE7480000204400002009
:103580004C000020074A08B51368032043F01003DD
:10359000136000F0C7FA0F20FFF7D0FFFFF75EFCC3
:1035A000002008BD00200240034A044B11681B782C
:1035B0000B441360704700BF041000204800002037
:1035C000014B1868704700BF0410002038B504464E
:1035D000FFF7F6FF0546631C1EBF044B1B78E4187B
:1035E000FFF7EEFF431BA342FAD338BD480000208B
:1035F000436A10B59A6A12F0500F1BD19A6A42F4CE
:1036000000729A621A68926802F46022B2F5602F22
:103610000CD11A7B52B99A6A22F480729A629A6A21
:10362000D2045EBF9A6A42F001029A621846FEF71F
:10363000F5F810BD1B6ABDE810401B6B18477047BA
:1036400008B5406AFFF7FBFF08BD7047036870B517
:103650001D685E680446B00626D5A90724D5A26A6F
:10366000D2065EBFA26A42F40072A2629A6802F4B5
:103670006022B2F5602F10D1227B72B95A6822F015
:1036800020025A60A36A23F48073A362A36AD80459
:103690005EBFA36A43F00103A3622046FEF7BEF8B3
:1036A0006FF0120223681A60310630D56A072ED5F2
:1036B000A36ADB065EBFA36A43F40053A3622368D8
:1036C0009A6802F4E042B2F5E04F0AD05A68500519
:1036D00016D49A6802F46022B2F5602F10D1227BD2
:1036E00072B95A6822F080025A60A36A23F48053A8
:1036F000A362A36AD9055EBFA36A43F00103A36274
:10370000204600F00DFA6FF00C0223681A60720672
:103710000CD5EB070AD5A36A204643F48033A36295
:10372000FFF793FF6FF0010223681A6070BD7047C6
:10373000406A08B5836A43F040038362C36A43F07A
:103740000403C362FFF7F3FF08BD0000002373B555
:10375000019390F824300446012B6CD0012380F8AB
:1037600024304D680268062D086805EB850322D8D1
:103770001F26556B053B9E4025EA060500FA03F31C
:103780002B43536309288B6800EB40054FF007017A
:1037900029D9D6681E3DA94026EA0101AB400B435A
:1037A000D360A0F11003012B25D90020002384F859
:1037B000243002B070BD0C2D4FF01F0509D8166BD8
:1037C000233B9D4026EA050500FA03F32B431363D0
:1037D000D8E7D66A413B9D4026EA050500FA03F387
:1037E0002B43D362CEE71069A94020EA0101AB4028
:1037F0000B431361D9E7114B9A4216D193681B0210
:10380000D3D49368102843F400039360CDD10C4BBC
:103810000C4A1B68B3FBF2F30A2253430193019B4A
:10382000002BC2D0019B013BF8E7A36A012043F0C3
:103830002003A362BAE70220BBE700BF00240140D7
:103840004400002040420F00002337B50193036875
:1038500004469A68D20702D5002003B030BD9A68AA
:1038600042F001029A60144B144A1B68B3FBF2F356
:103870000193019BE3B9FFF7A3FE054623689B680C
:10388000DB07E9D4FFF79CFE401B0228F6D923682A
:103890009B6813F00103F1D1A26A012042F01002EB
:1038A000A262E26A84F8243042F00102E262D4E7C4
:1038B000019B013BDCE700BF4400002040420F00B9
:1038C0002DE9F0413F4B9046026804469A420F466C
:1038D00002D03D498A4203D15B6813F4702F6DD149
:1038E00094F82430012B6BD00123204684F8243037
:1038F000FFF7AAFF064600285DD1A56A2168324B72
:1039000025F4706525F0010545F480759942A5629E
:1039100004D12C4A536813F4702F3ED1A36A23F4C8
:103920008013A3624B685A0505D5A36A23F440535C
:1039300043F48053A362A36A206A13F4805318BF30
:10394000E36A3A4618BF23F00603E362002384F8D3
:1039500024301E4B4C3183621D4BC3621D4B0363ED
:103960006FF0020341F84C3C51F8443C43F480733F
:1039700041F8443C434600F069F923689A6802F430
:103980006022B2F5602F9A680CBF42F4A00242F4A4
:1039900080129A603046BDE8F081A36A43F4801338
:1039A000A36253685B0541BFA06A20F4405040F415
:1039B0008050A062BFE7002384F824300126E9E7A5
:1039C0000226E7E70024014000280140F135000805
:1039D000413600083137000838B5036804469A6854
:1039E000D10701D4002038BD9A6822F001029A6004
:1039F000FFF7E6FD054623689B68DB07F2D5FFF776
:103A0000DFFD401B0228F6D923689B68DA07F2D550
:103A1000A36A012043F01003A362E36A43F00103A9
:103A2000E362E0E7F8B5044600286DD0836A23B965
:103A3000C36280F82430FFF733FA2046FFF7CCFF4B
:103A4000A36A13F0100361D100285FD1A26A6168F4
:103A500022F4885222F0020242F00202E569A668CE
:103A6000A262227B2943B6F5807F41EA420136D02B
:103A7000771E7D427D412D02277D012F06D182BB1D
:103A8000A269013A45EA423242F400652268B6F57D
:103A9000807F576827F4694745EA070555609768AE
:103AA0001D4D05EA070545EA0105956001D0012E87
:103AB00002D12369013B1B05D56A25F470052B4310
:103AC000D3629268154B1340994213D10023E362ED
:103AD000A36A23F0030343F00103A362F8BD354654
:103AE000CAE7A26A42F02002A262E26A42F0010240
:103AF000E262CBE7A36A23F0120343F01003A36250
:103B0000E36A43F00103E3620120E7E7A36A43F0BD
:103B10001003A362F8E700BFFDF7E1FFFE0E1FFFF1
:103B20007047000007490302CA6803F4E06322F407
:103B3000E0621204120C134343F0BF6343F40033FA
:103B4000CB60704700ED00E0154B30B5DC68C4F386
:103B50000224C4F10703251D042B28BF0423062DCE
:103B60004FF0FF3594BF0024033C05FA03F321EA2C
:103B70000303A54022EA0502A340002843EA02030A
:103B8000ACBF00F16040074A4FEA0313DBB2ABBFA2
:103B900000F5614000F00F0080F80033135430BD91
:103BA00000ED00E014ED00E0002807DB01234109EF
:103BB000034A00F01F00834042F82130704700BFE5
:103BC00000E100E00138B0F1807F0BD24FF0E0233C
:103BD000F021054A586182F82310002007229861DD
:103BE0001A6170470120704700ED00E0034610B5F0
:103BF00030B301681420134A0A44B2FBF0F2920079
:103C00001A64114ADA63022283F82120D3E90124DD
:103C10002243DC68086822431C696FF30D102243BD
:103C20005C6922439C692243DC69224302430A60A7
:103C300000200122986383F8200083F8212010BD22
:103C40000120FCE7F8FFFDBF00000240F0B590F84E
:103C50002040012C34D0012480F8204090F82140ED
:103C6000012CE5B24FF0000428D1022680F8216033
:103C700084630468266826F001062660D0E90F6791
:103C8000BD40756063604368102BC36A0BBFA260C0
:103C9000A160E160E2604BB1236843F00E030020B5
:103CA0002360236843F001032360F0BD236823F001
:103CB00004032360236843F00A03F0E780F8204000
:103CC0000220F2E790F821200346022A06D00422BF
:103CD00082630120002283F8202070470268C06BB5
:103CE000116821F00E011160116821F001011160CD
:103CF00001211A6C01FA02F24260002083F82110BF
:103D0000E8E7000008B590F82130022B03D0042327
:103D10008363012008BD03681A6822F00E021A604E
:103D20001A6822F001021A60174A93421FD0143217
:103D300093421ED0143293421DD0143293421DD0B0
:103D4000143293421DD01432934214BF4FF080734B
:103D50004FF480130D4A5360012380F82130002373
:103D600080F82030436B03B198470020D2E701234D
:103D7000F0E71023EEE74FF48073EBE74FF4805346
:103D8000E8E74FF48033E5E7080002400000024016
:103D900070B40425C66B026C3468036895402542F4
:103DA000196832D04D0730D51A6896065EBF1A687A
:103DB00022F004021A603E4A934219D01432934210
:103DC00018D01432934217D01432934217D01432C1
:103DD000934217D01432934214BF4FF080634FF4D4
:103DE0008003344A5360C36A002B5ED070BC18470E
:103DF0000423F6E74023F4E74FF48063F1E74FF440
:103E00008043EEE74FF48023EBE7022595402542FF
:103E100035D08D0733D51A68940606D41A6822F077
:103E20000A021A60012280F82120214A934219D007
:103E30001432934218D01432934217D01432934262
:103E400017D01432934217D01432934214BF4FF05C
:103E500000734FF40013174A5360002380F820309A
:103E6000836AC1E70223F6E72023F4E74FF40073E7
:103E7000F1E74FF40053EEE74FF40033EBE708258A
:103E80009540254211D009070FD5196821F00E0180
:103E90001960012303FA02F27260836380F8213013
:103EA000002380F82030036B9EE770BC704700BF92
:103EB000080002400000024090F821007047000016
:103EC0002DE9F74F00244FF00F0E2646DFF884C18E
:103ED000614B00F104080A6832FA06F502D103B01A
:103EE000BDE8F08F012505FA06F702EA070537EA73
:103EF000020276D14A68032A07D8013A022A00F260
:103F00008380DFE802F091969C00122A00F09480F2
:103F100069D8112A00F08A80FF2D94BF8146C146DE
:103F20004FEA8602D9F8007088BF203A0EFA02FAEA
:103F300027EA0A0704FA02F21743C9F80070D1F819
:103F4000049019F0805F4CD0DCF8182026F00307AD
:103F500042F00102CCF81820DCF8182007F1804765
:103F600002F00102019207F5803706F0030A019A78
:103F70004FEA8A0ABA680EFA0AFB22EA0B0B374AA2
:103F8000904260D002F5806290425ED002F580627D
:103F900090425CD002F58062904214BF042203225A
:103FA00002FA0AF242EA0B02BA609A6819F4801F18
:103FB00014BF2A43AA439A60DA6819F4001F14BF99
:103FC0002A43AA43DA605A6819F4003F14BF2A430F
:103FD000AA435A601A6819F4803F14BF2A43AA43BF
:103FE0001A60013677E7DFF878904A450CD014D88C
:103FF000A9F580194A4507D009F570294A4503D02B
:10400000A9F580194A4587D18A68D2B1012A4FF0B3
:1040100008040CBF076147617EE7DFF848904A4516
:10402000F2D009F58039EDE7CC6875E7CC68043447
:1040300072E7CC6808346FE7CC680C346CE7002476
:104040006AE7042468E70022AAE70122A8E702221F
:10405000A6E700BF00100240000401400008014034
:10406000000022100000311080680840003818BF9E
:10407000012070470AB1016170470904FBE701683C
:1040800000224B6913F4806310D06FF480634B619E
:104090002023026380F83D3080F83E20036C80F8D6
:1040A0003C2043F004030364012070471846704726
:1040B0002DE9F84606460F4691461D464FEA114A3D
:1040C0003368BAF1010F39D15C6927EA0404A4B25C
:1040D000B4FA84F46409A14501D0002024E06A1CEC
:1040E000EFD0FFF76DFA089BC01AA84201D8002D47
:1040F000E6D1BAF1010F336818D15B6927EA0303EF
:104100009BB2B3FA83F35B099945D9D100232022EE
:104110000120336386F83D2086F83E30326C86F805
:104120003C3042F020023264BDE8F8869B69DB43F4
:10413000C3F3400383F00103DBB2E5E79C69E4438A
:10414000C4F3400484F00104E4B2C4E72DE9F04173
:1041500004460F46164698462568686927EA000017
:1041600080B2C0B16B695A0517D52B68202243F481
:1041700000732B606FF480636B610023236384F80A
:104180003D2084F83E30236C43F004032364002375
:10419000012084F83C30BDE8F081731CDDD0FFF7CE
:1041A0000FFAA0EB0800B04201D8002ED4D123684A
:1041B0005A6927EA020292B2002ACDD000232022B7
:1041C000236384F83D2084F83E30236C1343DDE7FD
:1041D00070B504460D46164623685B691B0601D57B
:1041E00000201EE02046FFF74AFFC8B96A1CF3D042
:1041F000FFF7E6F9801BA84201D8002DECD1236817
:104200005B6913F08003E7D12022236384F83D200B
:1042100084F83E30226C84F83C3042F02002226464
:10422000012070BD2DE9F0431546026899461368D8
:1042300085B043F480731360DDE90C780E463B468D
:1042400000224FF00111CDF800800446FFF730FF47
:10425000236838B11B68DB0502D54FF40073236473
:10426000032620E006F0FE061E613A46434620463D
:104270001849FFF76BFFA8B9236803905A693946BC
:1042800003929B69424603932046039BFFF7A0FFDE
:10429000064660B1236C042B01BF2268136843F407
:1042A000007313600126304605B0BDE8F083B9F114
:1042B000010F236802D1EDB21D61F4E72A0A1A61E9
:1042C000394642462046FFF783FF0028E2D12368A3
:1042D000F1E700BF020001002DE9FF479A46DDE942
:1042E0000C78036815461A680E4642F480621A601C
:1042F0001A684FF0011142F480721A603B460022A6
:10430000CDF800800446FFF7D3FE236848B11B6850
:10431000DB0548BF4FF400734FF0030048BF236430
:1043200021E05FFA86F906F0FE061E613A46434632
:1043300020462949FFF70AFFA0B9236803905A696C
:10434000394603929B69424603932046039BFFF73D
:104350003FFF58B1236C042B01BF2268136843F45C
:1043600000731360012004B0BDE8F087BAF1010FBB
:1043700023681AD1EDB24246394620461D61FFF747
:1043800027FF02460028E5D1216820460B6843F448
:1043900080730B603B464FF00111CDF80080FFF7B2
:1043A00087FE226860B11368B2E72A0A1A613946AB
:1043B00042462046FFF70CFF0028CBD12368D9E7FF
:1043C00049F001031361204643463A46024904B0CE
:1043D000BDE8F047FFF7BABE0200010070B5044621
:1043E0000D46164623685B695B0701D500201EE079
:1043F0002046FFF744FEC8B96A1CF3D0FFF7E0F887
:10440000801BA84201D8002DECD123685B6913F012
:104410000403E7D12022236384F83D2084F83E3052
:10442000226C84F83C3042F020022264012070BDEE
:1044300070B5044608B9012070BD90F83D3003F016
:10444000FF021BB980F83C20FEF77CFD242384F892
:104450003D3023681A6822F001021A601A6842F49B
:1044600000421A601A6822F400421A6002F0ACFAA4
:104470003F4B65689D4294BF3E4B3F4B98428CBF7B
:1044800000230123002BD6D1394E3C4BB542B0FB63
:10449000F3F388BF4FF496762268516821F03F010C
:1044A00041EA030182BF73434FF47A76B3FBF6F31C
:1044B0005160116A013321F03F010B431362D1694E
:1044C000431E2B4821F44F41854221F0FF0132D891
:1044D0006D00B3FBF5F340F6FC700133034242D0AC
:1044E000C3F30B031943D1611168D4E9073021F0FC
:1044F000C00103430B4313609168D4E9030321F423
:104500000341034321F0FF010B439360D168D4E9D9
:10451000053021F0FF0103430B43D36013680020F3
:1045200043F0010313602023206484F83D302063AE
:1045300084F83E0080E7A06850B905EB4505B3FB61
:10454000F5F30133C3F30B037BB143F40043C9E735
:1045500019206843B3FBF0F30133C3F30B0323B11A
:1045600043F44043BEE70423BCE70123BAE700BF9E
:10457000A08601007F841E00FF083D0040420F001E
:104580002DE9F743044699460F4690460C9EFFF7E7
:1045900017F894F83D300546202B03D0022003B0D5
:1045A000BDE8F08300901923012220463A49FFF725
:1045B0007FFD0028F2D194F83C30012BEED001238E
:1045C000206884F83C3003684246D90758BF036826
:1045D00039465CBF43F001030360036823F40063C2
:1045E0000360212384F83D30402384F83E300023CB
:1045F00023640A9B20466362BDF82C306385638D7B
:104600002385264BE3624B46CDE90065FFF70AFEA2
:1046100000282AD00120C2E7FFF7DAFD40B1236C61
:10462000042B01BF2268136843F400731360F1E7A1
:10463000636A27681A4612F8011B39616262628D4B
:10464000218D013A92B262857A69481E80B2520782
:1046500020850AD548B15A7802333A616362638D86
:104660000239013B9BB221856385238D2A46314661
:104670002046002BD0D1FFF7B1FE0028CFD1226811
:10468000136843F400731360202384F83C0084F81B
:104690003D3084F83E0082E7020010000000FFFF7A
:1046A0002DE9FF4799460023044602930F469046A2
:1046B0000C9EFEF785FF94F83D308246202B16D1E4
:1046C00046F2A812554B1B68B3FBF2F31922534371
:1046D0000293029B013B0293029B53B92022236366
:1046E00084F83D2084F83E30236C13432364022079
:1046F00066E0226893699907EBD494F83C30012B6B
:10470000F5D0012384F83C3013680025DB0758BF3F
:10471000136843495CBF43F001031360136823F43B
:1047200000631360212384F83D30402384F83E3039
:10473000BDF8343025646385638D66629BB2E162A7
:1047400023856764C4F84880C4F84C902565002B25
:1047500057D0606B40B333494563816232491032B0
:10476000C0E90B513146FFF771FA064600283CD1EB
:1047700023234246009339464B462046CDF804A0F9
:10478000FFF750FDF8B1606BFFF7BCFA636B9E62F8
:1047900023681A6822F480621A6066851A68268582
:1047A00022F001021A600AE0202384F83D3084F8E8
:1047B0003E00236C84F83C0043F080032364012016
:1047C00004B0BDE8F087236803905A6903929A69A0
:1047D00084F83C000392039A5A6842F480725A604B
:1047E0005A6842F400625A60EAE7202384F83D30B8
:1047F00084F83E50236C84F83C5043F0100323644B
:10480000DDE7202284F83D2084F83E30226C84F8D5
:104810003C3042F040022264D1E700BF4400002057
:104820000000FFFFF94A0008BF4A00082DE9F047E1
:1048300086B0044698460E461746DDF838A0FEF7C7
:10484000BFFE0023039394F83D308146202B03D014
:10485000022006B0BDE8F08746F2A812644B1B6840
:10486000B3FBF2F3192253430393039B013B0393DE
:10487000039B4BB92022236384F83D2084F83E300B
:10488000236C13432364E3E721688B699A07ECD414
:1048900094F83C30012BDBD0012384F83C300B68CA
:1048A0000025DB0758BF0B68524A5CBF43F0010389
:1048B0000B600B6823F400630B60222384F83D3007
:1048C000402384F83E30BDF83C3025646385638D19
:1048D000C4F824A09BB2E26223856664A764C4F88E
:1048E0004C802565002B66D0A06B58B3424A4563C7
:1048F0008262424A1031C0E90B525246FFF7A6F9D4
:10490000824600284BD123233A4600933146434642
:104910002046CDF80490FFF7DFFC00B3A06BFFF753
:10492000F1F9A36BC3F828A023681A6822F4806207
:104930001A60A4F82AA01A68A4F828A022F001029C
:104940001A600AE0202384F83D3084F83E00236C8E
:1049500084F83C0043F080032364012079E7228D32
:104960002368012A0BBF1A685A6822F4806242F455
:1049700080520CBF1A605A60002204925969049157
:10498000996984F83C20049104995A6842F4807231
:104990005A605A6842F400625A60002059E72023A6
:1049A00084F83D3084F83E50236C84F83C5043F04A
:1049B00010032364D1E723233A460093314643464C
:1049C0002046CDF80490FFF787FC0028C5D1236866
:1049D00005905A6905929A690592059A1A6842F4F7
:1049E00000721A60202384F83C0084F83D30D4E73C
:1049F000440000200000FFFFF94A0008BF4A0008F9
:104A000070477047704770477047704790F83D2077
:104A100008B5036DD2B283B9C36C0268012B836CF5
:104A200005D1DBB21361036D0233036508BDC3F327
:104A300007231361036D0133F7E7036D012B03D1E6
:104A4000836C0268DBB2F4E7036D022B2FD1222ABC
:104A500005D10268136843F480731360EAE7438D5D
:104A60009BB263B1212A0AD1436A026813F8011B81
:104A700011614362438D013B9BB24385D6E7438D71
:104A80009BB2002BD2D1212AD0D10268516821F4E7
:104A9000E0615160116841F40071116020220363EC
:104AA00080F83D2080F83E30FCF7C8FEBEE7036882
:104AB0005A69120644BF00221A61B7E77047406A7C
:104AC00008B5436B0BB100229A62836B0BB10022D5
:104AD0009A620268136823F4806313600023202223
:104AE000438580F83D2080F83E30036C43F010038E
:104AF0000364FFF7E3FF08BD70B5446A236894F8C8
:104B00003D1094F83E00E26A5D68C9B225F4407534
:104B10005D60656BC0B20DB10026AE62A56B0DB1D4
:104B20000026AE6201F02105212D05D001F02205FD
:104B3000222D23D1202821D15A68292922F400626C
:104B40005A604FF0000363850DD12123236328238E
:104B5000204684F83D30FFF755FF2268536843F440
:104B60004073536070BD2A29F7D122232363282381
:104B7000204684F83D30FFF746FFEEE794F83E10FC
:104B80000029EFD0618D89B2012902BF196821F493
:104B900080611960596812F5803F21F440715960B5
:104BA00006D0082A04D0B2F12A4F01D0202A03D11E
:104BB000196841F400711960596821F480515960F5
:104BC000596821F40061596000236385236C1BB18F
:104BD0002046FFF773FFC5E7202184F83D1094F8C5
:104BE0003E1084F83E30402904D120462363FCF770
:104BF0002BFEB7E7082A01D0202A05D10023204642
:104C00002363FFF7FEFEADE71223F8E770470000CD
:104C1000002337B546F2A81101932C4B406A1B685C
:104C200090F83D20B3FBF1F323214B43019303683C
:104C3000D2B2019941BB016C41F020010164446B87
:104C40000CB10021A162816B09B100258D621D6844
:104C500025F480651D600025458504B1656301B1BB
:104C60004D63196821F00101196090F83D10602929
:104C700011D1202380F83D30002380F83E300364BA
:104C8000FFF7C4FF03B030BD0199013901911968E4
:104C90008905CED4D3E702F02802282A0ED119685C
:104CA00041F001011960196841F480611960002325
:104CB000036380F83D20FFF701FFE3E7202380F83E
:104CC0003D30002380F83E30F5E700BF440000206F
:104CD00010B590F83D2090F83E300446102BD9B224
:104CE000D2B2036801D0402913D1222A11D1196808
:104CF00021F400611960596811F4006106D1602A3D
:104D00001EBF202284F83D2084F83E10002222633A
:104D100007E002F028012829EDD10022226384F85F
:104D20003D105A6812F400624FD05A68606B22F44A
:104D300000625A6090F82130012B374B2BD043632F
:104D4000FEF7E0FF50B12268606B136823F00103A7
:104D50001360202384F83D30436B9847236C190778
:104D60001FBF2268536823F4E063536094F83D301A
:104D7000226CDBB252070DD5282B0BD1274B2022FA
:104D8000E36200232046236384F83D2084F83E300C
:104D9000FFF73BFE10BDA06B4363FEF7B3FF002897
:104DA000DCD023685A69510605D51A69636A1A70FE
:104DB000636A013363622268A06B136823F0010306
:104DC0001360202384F83D30C6E794F83D10602935
:104DD00015D1202184F83D1022645A69520605D568
:104DE0001A69636A1A70636A013363622268204633
:104DF000136823F001031360FFF708FFAEE75A6959
:104E0000500605D51A69636A1A70636A01336362D2
:104E10002046FFF753FEA1E7114C00080000FFFFFA
:104E2000F0B5044603688FB05A68C66A90F83E0031
:104E300094F83D101028C5B2C9B202D0402D40F000
:104E4000E5829F69586910F0010F07D1B6F52A0F66
:104E500002D0B6F12A4F51D10FB0F0BD96054DD515
:104E6000E26AB2F52A0F0CD10122E26294F83E20E8
:104E7000402A11D1226D52B9626C02F0FE021A6111
:104E8000EAE7E26AB2F12A4FF0D10822EDE7626C5C
:104E900042F00102D2B2F2E72269B2F5804F1AD194
:104EA00094F83D20212A626C11D102F0FE021A61B1
:104EB000626B0AB1926A2AB9A26B002ACCD0926ABC
:104EC000002AC9D05A6842F400625A60C4E742F02E
:104ED0000102D2B2EBE7226D32B9626CD21102F05C
:104EE000060242F0F002CAE7226D012AB4D1626CD8
:104EF000D21102F0060242F0F102C0E7060703D524
:104F0000960501D5626CE4E7860740F1F0809605CE
:104F100040F1ED8094F83E10E26A256B94F83D0074
:104F2000C9B2222840F0DB80206D40B9402906D16B
:104F300000905A6900929B690093009B8CE7216D59
:104F400089B92069B0F5404F0DD101915A6901929C
:104F50009A690192019A1A6842F480721A60236D6C
:104F60000133236578E7618D89B251B902915A699D
:104F700002929A690292029A1A6842F400721A60C6
:104F800019E0618D89B2012949D112F5803F1BD109
:104F90001A6822F480621A605A6812F400620CD017
:104FA0001A6822F480621A60002203925A690392FE
:104FB0009B690393039B0023D3E704925A690492ED
:104FC0009A690492049AD7E7082A1CD0202A1AD09A
:104FD000122D0DD1012A16D11A6822F480621A60AE
:104FE000002205925A6905929B690593059BE2E7A9
:104FF000102AF1D8864941FA02F2D707ECD41A6890
:1050000042F48062EBE71A6822F480621A600022A0
:1050100006925A6906929A690692069AACE7618DE1
:1050200089B2022938D1102A03D87A49D140CE0753
:1050300018D4196841F40061196000210791596979
:105040000791996907910799196821F4806119609E
:1050500059680D05AFD5202A1BD8072A0ED8012A7A
:10506000A9D111E0196841F480611960002108910B
:1050700059690891996908910899E9E7A2F108012D
:10508000654ACA40D00796D55A6842F480525A60A1
:1050900091E712F5803FE3E7196841F480611960F8
:1050A0005968090510D5202A16D8072A06D8012ADA
:1050B0000AD15A6842F480525A6005E0A2F1080110
:1050C000554ACA40D207F4D4002209925A6909927B
:1050D0009B690993099B6EE712F5803FE8E7002280
:1050E0000A925A690A929B690A930A9BB4E67F075F
:1050F00040F194805E6836053FF5AEAE070600F0DD
:1051000004063ED550053CD5002E3DD194F83D20F7
:10511000258D94F83E10D2B2E06AC9B2C5B9212AF1
:1051200018D1082858D0202856D010F5803F53D0E9
:105130005A6822F4E0625A6011232363002384F842
:105140003E302023204684F83D30FFF759FC83E6AB
:10515000212A05D040297FF47FAE222A7FF47CAE3D
:10516000628D92B21AB95A6822F48062ADE694F860
:105170003E20402A16D120460FB0BDE8F040FFF790
:1051800045BC002E3FF468AE97057FF565AE21293A
:1051900039D1E16A94F83D20212A7FF45DAE628D19
:1051A00092B24AB1626A12F8011B19616262638DA0
:1051B000013B9BB263854FE608290DD020290BD017
:1051C00011F5803F08D0596821F4E061596011233E
:1051D000236384F83E20B4E75A68204622F4E06254
:1051E0005A601A6842F400721A6000232022236376
:1051F00084F83D2094F83E2084F83E30402AA4D123
:10520000FCF71CFB28E6402D7FF426AEB3E700BF79
:10521000EBFFFEFF140001000101000159680E05BB
:105220003FF51AAE450600F0040140F186805005B6
:1052300040F18380002940F0838094F83D20222AA9
:105240007FF40AAEE06A628D92B2032A14D91A6919
:10525000636A1A70636A01336362638D013B9BB2B8
:105260006385638D9BB2032B7FF4F6AD2268536890
:1052700023F480635360EFE5E56A022D3FF473AFDA
:10528000012A3FF670AF0B9146F2A811794A1268D5
:10529000B2FBF1F202EB82020B920B9A013A0B92F3
:1052A0000B99D1B9226C204642F0200222645A6840
:1052B00022F4E0625A601A69636A1A70636A013301
:1052C0006362638D013B9BB26385202384F83D308C
:1052D00084F83E10FFF7F2FBBEE51A6812F4007284
:1052E000DBD1196821F480611960596821F4E0610B
:1052F00059601969636A1970636A01336362638D67
:10530000013B9BB26385202384F83D3094F83E3006
:1053100084F83E20402B04D122632046FCF794FA07
:105320009AE5082801D0202801D1002300E01223AB
:1053300020462363FFF765FB8EE500293FF48CAD23
:1053400092057FF589ADE26A608D616A80B20428BA
:1053500009D15A6822F480625A601B690B70636A33
:105360000133636223E7608D80B203280CD1586853
:10537000042A20F480605860EFD0022AEDD01A6829
:1053800022F480621A60E8E7608D80B20228E4D1DE
:10539000042A33D007D8012A07D0022A2ED0186851
:1053A00040F4007004E0102AF9D1186820F48060FD
:1053B00018601B690B70616A4B1C6362638D013B53
:1053C0009BB2638523681B694B70636A2168013354
:1053D0006362638D013B9BB263854B6823F440732A
:1053E0004B60202384F83D3094F83E30402B4FF042
:1053F000000384F83E3005D123638EE7186840F43B
:105400008060D5E7082A90D0202A8DE7206C20B351
:105410000025586987072FD596052DD5226C02B136
:105420009D6994F83D2002F02802282A18D15A6874
:105430002F0622F480625A604FF0000354BFE268E6
:10544000A269C5F3800181F001012046C9B284F848
:105450003C3092B2FFF7D8FAFEE49D695869D9E76B
:1054600000220C9259690C919B6984F83C200C93A2
:105470000C9BF1E444000020C60640F1B180950584
:1054800040F1AE8094F83D505A68EDB222F4E062EB
:105490005A6000220D925A690D921A6842F0010278
:1054A0001A600D9A1A6822F480621A605A68100510
:1054B00020D505F0F702222A4AD1A06B0268526873
:1054C00092B26285628D92B21AB1226C42F00402ED
:1054D00022645A6822F400625A60FEF7EDFC01284B
:1054E00008D0A06B794B4363FEF70CFC10B1A06BA6
:1054F000436B9847638D9BB213B323685A69510776
:1055000009D51A69636A1A70636A01336362638D2D
:10551000013B9BB2638523685A69520609D51A6913
:10552000636A1A70636A01336362638D013B9BB2E5
:105530006385638D9BB21BB1236C43F0040323642A
:10554000236C13B320460FB0BDE8F040FFF7C0BB9B
:10555000606B0268526892B26285628D92B21AB133
:10556000226C42F0040222645A6822F400625A60FB
:10557000FEF7A2FC0128BDD0606B544B4363FEF7DD
:10558000C1FB0028B6D0606BB2E72A2D06D1236399
:105590002823204684F83D30FFF735FA94F83D3053
:1055A000282B0CD14A4B2022E362002320462363A0
:1055B00084F83D2084F83E30FFF727FA4CE4236B53
:1055C000222B02D0222D7FF447AC0023202223631C
:1055D00084F83D2084F83E302046FFF714FA3BE47F
:1055E00001F0F701212900F0040535D1070627D580
:1055F000560525D53DBB94F83D00628DC0B292B2F0
:10560000002A3FF429AC626A12F8015B1D616262F4
:10561000628D013A92B26285628D92B2002A7FF465
:105620001BAC29287FF418AC5A68204622F480620B
:105630005A602823216384F83D30FFF7E3F90BE437
:10564000002D3FF409AC95057FF506AC628D92B252
:10565000002A3FF401ACA5E5400627D5510525D524
:105660003DBB94F83D20618DD2B289B200293FF450
:10567000F3AB1969636A1970636A01336362638DFE
:10568000013B9BB26385638D9BB2002B7FF4E4AB3F
:105690002A2A7FF4E1AB2268536823F480635360C5
:1056A00022232363282384F83D3095E7002D3FF41F
:1056B000D3AB92057FF5D0AB628D92B2002A3FF456
:1056C000CBAB1A69636A1A7049E600BF114C000837
:1056D0000000FFFFF8B5036804465F695E6890F854
:1056E0003E2017F48075D2B20AD016F4807507D028
:1056F0006FF4807101255961196841F40041196006
:10570000B80506D5F10542BF6FF4007145F00205FA
:105710005961780536D5F10534D5608D94F83D1082
:10572000202AD4F830C080B2C9B25FD100285DD140
:1057300001F0F700212804D0282957D1BCF1210F0E
:1057400054D194F83D20E16AD2B2082901D0202931
:105750002AD1282A28D12E4A2046E2625A6822F409
:10576000E0625A606FF480625A611A6822F48062C3
:105770001A6000232022236384F83D2084F83E3001
:10578000FFF743F93A053FD5F3053DD56FF40062C5
:10579000236845F008055A61236C20461D432564A3
:1057A000BDE8F840FFF794BA212A1BD11849E162FD
:1057B00022630021202284F83D2084F83E105A689C
:1057C00022F4E0625A606FF480625A611A6822F42F
:1057D00080621A605A69100648BF19612046FFF7B7
:1057E00011F9CFE76FF480625A61CBE76FF4806103
:1057F000102A596145F0040501D0402AC2D11A6827
:1058000042F400721A60BDE7002DC5D1F8BD00BF9B
:105810000000FFFF90F83D007047F8B50446E0B186
:1058200090F8913203F0FF021BB980F8902203F048
:1058300039FB032384F8913200232546637155F820
:10584000040B01F0F1FF95E80E00206801F0DCFF89
:10585000014628B1022384F8913201252846F8BD7B
:10586000206801F0EBFF0028F4D1024601272679D9
:1058700004F11003C1B28E4203F1280318D80021AD
:105880000A4604F5A873C8B2864203F128031BD860
:1058900095E80E00206801F0D3FF05460028D9D115
:1058A00001236073206884F8913202F07FFAD5E713
:1058B00043E9062203F8277C03F8281C03F8252C6B
:1058C00043F8102C0130D5E743E9062203F8272CD2
:1058D00003F8280C03F8252C43F8102C0131D2E7EB
:1058E00038B590F890320446012B10D0012580F88D
:1058F0009052006801F08FFF2946204603F0E1FB3B
:10590000206802F051FA002084F8900238BD02208D
:10591000FCE710B590F890220446012A0AD0012233
:10592000417380F89022006802F038FA002084F871
:10593000900210BD0220FCE72DE9F04F044687B02D
:10594000006802F035FA10F4004500F025844FF0AD
:105950002809C54E2068B0F84430190402D407B0B5
:10596000BDE8F08FB0F84470B9B217F00F0740F0FF
:10597000BF8011F0100126D103889BB2334043F45D
:1059800000430380B0F85030227C9BB203EBC2038B
:1059900000EB4303B3F80434626AC3F309031A4407
:1059A000E3622046626203F0B4FA637B002BD1D03D
:1059B000A26A002ACED1637B216843F08003A1F85C
:1059C0004C306273C6E70588ABB215F4006521D090
:1059D000B0F8503094F850219BB203EBC20300EBB7
:1059E0004303B3F80C34B4F85621C3F30903C4F8E5
:1059F0006C3104F5267102F022FC226820461388DF
:105A000023F070031B051B0D43F08003138003F08C
:105A100071FA9FE71B049DD5038823F070031B05D3
:105A20001B0D43F080030380B0F8503094F85021F0
:105A30009BB203EBC20300EB4303B3F80C34C3F394
:105A40000903C4F86C318BB1D4F8641171B1B4F8A6
:105A5000562102F0F4FBD4F86431D4F86C212946C5
:105A600013442046C4F8643103F04AFA21680A88D6
:105A7000170593B23FF56EAF03F44053B3F5405FA3
:105A80003FF468AFB1F8502001F20C4092B2835A53
:105A9000D4F86051C3F309033E2D83521DD9835AB4
:105AA0006F09ED0608BF07F1FF379BB243EA872372
:105AB0006FEA43436FEA53439BB283520B8823F44C
:105AC000804323F070031B041B0C83F4405343F406
:105AD000004343F080030B803CE7835A002DE7D05E
