:020000040800F2
:1000000000500020C95B00084D5500084F550008FE
:1000100051550008535500085555000800000000D0
:10002000000000000000000000000000575500081C
:1000300059550008000000005B5500085D55000898
:10004000115C0008115C0008115C0008115C0008DC
:10005000115C0008115C0008115C0008115C0008CC
:10006000115C0008115C0008115C00086155000873
:10007000115C0008115C00086D55000879550008F6
:10008000115C0008115C00088555000891550008B6
:100090009D550008115C0008115C0008115C000807
:1000A000A1550008AD550008B1550008B555000828
:1000B000B9550008C5550008D1550008115C000865
:1000C000115C0008DD550008E9550008115C0008C6
:1000D000115C0008F5550008115C0008115C00086F
:1000E000115C0008115C0008115C000800000000B1
:1000F0000000000000000000000000000000000000
:0C01000000000000000000005FF808F1A3
:1001100010B5054C237833B9044B13B10448AFF341
:1001200000800123237010BD700200200000000039
:10013000FCC3000808B5034B1BB103490348AFF3E8
:10014000008008BD0000000074020020FCC300080D
:1001500010F8012B11F8013B012A28BF9A42F7D071
:10016000D01A7047034613F8012B002AFBD1181A46
:10017000013870477BB972B90029BEBF00204FF02B
:10018000004106E008BF00281CBF6FF000414FF09F
:10019000FF3000F0B9B9ADF1080C6DE904CE0029CB
:1001A00009DB002B1ADB00F035F8DDF804E0DDE9AF
:1001B000022304B07047404261EB4101002B1BDB7E
:1001C00000F028F8DDF804E0DDE9022304B0404245
:1001D00061EB4101524263EB43037047524263EBD0
:1001E000430300F017F8DDF804E0DDE9022304B072
:1001F000404261EB41017047524263EB430300F020
:1002000009F8DDF804E0DDE9022304B0524263EBB3
:10021000430370472DE9F047089D0F4604468E467C
:10022000002B48D18A42164661D9B2FA82F24AB10D
:10023000C2F1200301FA02FE20FA03F3964043EADA
:100240000E0E94404FEA164CBEFBFCF1B7B20CFB0D
:1002500011EE01FB07F0230C43EA0E43984209D943
:10026000F31801F1FF3E80F0ED80984240F2EA8001
:10027000023933441B1AB3FBFCF00CFB103300FBB8
:1002800007F7A4B244EA0344A74209D9341900F19C
:10029000FF3380F0D980A74240F2D6803444023840
:1002A00040EA01400021E41B1DB10023D440C5E910
:1002B0000043BDE8F0878B4206D90DB1C5E90001C6
:1002C00000210846BDE8F087B3FA83F1002947D141
:1002D000BB4202D3824200F20481841A67EB03021C
:1002E00001209646002DE4D0C5E9004EE1E7002A42
:1002F00000F09080B2FA82F2002A40F0A780881BBA
:100300000121370C1FFA86FEB0FBF7FC07FB1C002F
:10031000230C43EA00430EFB0CF0984207D9F31874
:100320000CF1FF3802D2984200F2E080C4461B1A5A
:10033000B3FBF7F007FB10330EFB00FEA4B244EA58
:100340000344A64507D9341900F1FF3302D2A6456C
:1003500000F2C9801846A4EB0E0440EA0C40A3E763
:10036000C1F120068B4022FA06FC4CEA030C27FA66
:1003700006FA4FEA1C49BAFBF9F88F4020FA06F357
:1003800009FB18AA1FFA8CFE3B4300FA01F708FB91
:100390000EF01C0C44EA0A44A04202FA01F20BD906
:1003A0001CEB040408F1FF3A80F09980A04240F26F
:1003B0009680A8F102086444241A98B2B4FBF9F3B9
:1003C00009FB134403FB0EFE40EA0444A64508D98A
:1003D0001CEB040403F1FF307FD2A6457DD9023B1C
:1003E000644443EA0840A4EB0E04A0FB028E74456B
:1003F0004346F14661D35ED055B1FA1A64EB090465
:1004000004FA06F622FA01F31E43CC40C5E9006463
:1004100000214EE743084FEA510C43EAC1710A0C30
:1004200042EA0C428BB2C407B2FBF6F143EA024344
:10043000BCFBF6FCB646304637461F22181A41EA86
:100440000C4161E7714615E7184629E7C2F1200320
:1004500021FA03F0964024FA03F397403B43370C0C
:10046000B0FBF7F807FB18001FFA86FE190C41EAEB
:10047000004108FB0EF0884204FA02F43AD97118E0
:1004800008F1FF3C01D288421ED8091AB1FBF7F8E7
:1004900008FB0EF007FB18119BB243EA01438342AD
:1004A0002FD2F31808F1FF31C8D28342C6D2A8F187
:1004B00002013344C2E747459ED2B8EB02036EEB1C
:1004C0000C0E0138F14697E7301A0144A8F1020CEE
:1004D000B1FBF7F808FB0EF0DCE7034681E7D046F6
:1004E0006AE70846FEE63444023834E7ACF1020C11
:1004F00033441CE7091AC446B1FBF7F808FB0EF0B9
:10050000C8E741469AE700BF704700BF00220A498A
:1005100030B50B88094D013810F8014F14B902B1FC
:100520000B8030BD5A1C92B2B2F5006FEC5414BF70
:10053000134600230122EFE79E020020A6020020BE
:10054000074A10B51188074C4B1C9BB2B3F5006FDE
:10055000138008BF0023605408BF138010BD00BF84
:100560009E020020A602002038B500240D460E4B46
:1005700001461C700D4B3F220D481C700BF07EFA9B
:100580000B4B1F2229460B4883F83F400BF076FAAD
:100590003222084BDC77084B1A601722074B1A707F
:1005A000074B1C7038BD00BF900F0020AA0E002022
:1005B000370F0020170F00208C0F0020910F002014
:1005C0009C020020014B1878704700BFA90E002044
:1005D000194B70B55B6806460D4614463BB347F2AF
:1005E000305316491648002A08BF1C460BF09CFAE7
:1005F0000F22314613480BF041FA0023114A1249E9
:10060000D37328460A220BF0A5F90A2220460F4987
:100610000BF0A0F90E4B1B7863B10E4B187810F05D
:10062000020003D0132206200B4B1A7070BD4FF04E
:10063000FF30FBE70120F9E79002002014C4000816
:1006400005000020070F0020010F0020EB0E002006
:10065000370F0020900F0020910F0020194B70B52C
:100660005B6806460D4614463BB347F230531649C5
:100670001648002A08BF1C460BF056FA0F223146D6
:1006800013480BF0FBF90023114A1249D373284693
:100690000A220BF05FF90A2220460F490BF05AF9A3
:1006A0000E4B1B7863B10E4B187810F0020003D08C
:1006B000132206200B4B1A7070BD4FF0FF30FBE782
:1006C0000120F9E79002002018C40008050000206E
:1006D000070F0020010F0020EB0E0020370F002035
:1006E000900F0020910F0020064B5B683BB1064B3A
:1006F0001B7813F0400F0CBF0520072070474FF008
:10070000FF30704790020020900F0020074A10B57C
:100710001188074C4B1C9BB2B3F5806F138008BF48
:100720000023605408BF138010BD00BFA402002046
:10073000A60A00202DE9FF471F463D4B04465B6893
:1007400088461546BDF83090002B6CD0394EDFF846
:10075000E8A033789AF8001003F040020A4365D00D
:100760001B0758D40A2201A938460BF0F3F801A858
:10077000FFF7F8FC421ED2B2032A4AD82F48FFF7EF
:10078000C5FE9AF8003053B10A22694620460BF0A4
:10079000E1F86846FFF7BAFE2C20FFF7D1FE01A86A
:1007A000FFF7B4FE2648FFF7B1FE002211462548A8
:1007B000DFF894C0038894B2A74216D801B1038031
:1007C0003378224C23F00C0343F00C03337023687E
:1007D0003BB11F489847236801A8984723681D48E4
:1007E0009847092004B0BDE8F0875C1CA4B2B4F5BA
:1007F000006F08BF0024691C18F8055089B20CF876
:1008000003500132494514BF0D46002523460121FE
:10081000D1E70B20E6E70D4B1B680BB90820E1E799
:100820000D489847FAE74FF0FF30DBE70520D9E79E
:1008300090020020900F0020AA0E002027D200086E
:100840001CC400089E020020A6020020780F002091
:100850001FC4000866C6000832C4000802460F4BD9
:100860000068516803C390680D4A18600023137034
:100870000C4A13700C4A13800C4A13800C4A1380E4
:100880000C4A13800C4A13700C4A13700C4A1370F4
:100890000C4A13600C4A1360704700BF900200209E
:1008A000910F0020A80E0020A00200209E02002030
:1008B000A2020020A4020020900F0020AA0E002017
:1008C000A90E00207C0F0020780F0020114A136829
:1008D0000BB1013B1360104A136823B1013B136055
:1008E0000BB90E4A13700E4A13680BB1013B13602B
:1008F0000C4A13686BB1013B136053B90A490A787B
:10090000100706D563F3C302084B0A701A88084B18
:100910001A8070478C0F0020880F0020A80E00203E
:10092000840F0020800F0020900F00209E020020E6
:10093000A00200202DE9F74FA64EA74A3388B2F84F
:1009400000B000255B4506D0A44F3A78173A022A3A
:100950002AD8A6F800B0A24EA24C3368002B40F073
:10096000A88264239D4D33602B78192B00F2A1825D
:10097000DFE813F08404C502DE02E502F302F802A8
:1009800001030603190323035B036003700376036B
:1009900084038A03BB030204130422043104710498
:1009A00081049402B002BF0202228F498F4C0A6078
:1009B0009B45D0D08E4AD05C22780D2A00F244822A
:1009C000DFE812F00E005500CC0042024202B801EE
:1009D000CD01D601E3014202FE011B022D020C02F1
:1009E000002304219846DFF80CC2834ADFF80C92FA
:1009F0008CF8003011705FFA83FE59F82E10D1B9CF
:100A0000B8F1000F01D08CF800E00022764B754958
:100A10001A600B7813F0010F00F092803E2840F02E
:100A20008F8062F300030B70754B1A604FF496725F
:100A3000744B1A6084E091F804A00133824513D10D
:100A4000B8F1000F01D08CF800E00B784978303B0A
:100A5000313903EB830301EB43036B490B80012323
:100A60002370052313706BE04FF00108C3E7DFF834
:100A700084C162499CF8002051F822205E4909781F
:100A800012F801E0864514D1DFF87CC1BCF80030D3
:100A9000013B9BB2ACF800300BB10D284DD19378DF
:100AA000D278303B03EB8303303A02EB43032370ED
:100AB00046E000229146C1F57F4A8CF800200AF1F9
:100AC000D30ADFF838C15FFA82F85CF828C0BCF1BD
:100AD000000F0CD1B9F1000F04D04B4A1580454AE4
:100AE00082F800800022013B2270338028E09CF8CD
:100AF00000E09CF80150AEF1300E0EEB8E0E554426
:100B000005EB4E05ADB27F2D24D81CF801E08645DB
:100B100020D13D4B1D80B9F1000F02D0354B83F839
:100B2000008055B99CF802309CF80320303B03EB61
:100B30008303303A02EB430323702F4B01311970CA
:100B4000338801339BB2B3F5806F338004BF002339
:100B500033802DE74FF001090132B2E70A28EFD1C7
:100B600000232370234B1B78023B0F2BE8D801A2F4
:100B700052F823F0B50B0008110C00082D0C0008EA
:100B8000410B0008570C0008570C0008850C0008A2
:100B90008F0C0008D10C0008850C0008410B0008E0
:100BA000FB0C0008410B0008050D0008110D0008A2
:100BB000110D00083A78152AC2D8144BD340D80733
:100BC000BED50022064B1A60064A137843F0200374
:100BD00048E700BFA2020020A4020020910F0020DD
:100BE0008C0F0020900F0020880F0020A80E0020FE
:100BF000A60A00208D0200208C020020A8D0000848
:100C0000840F0020800F0020A60E002054552000E5
:100C1000904A1378190793D523F0090313708E4B6C
:100C20001A888E4B1A808E4B002202E73B78102BDD
:100C300086D100228B4B1A60864A137823F0220358
:100C400043F022031370884B1B68002B3FF478AFEE
:100C50000320984774E77F4A137823F04203137008
:100C60003B78113B052B3FF66BAF7F4B1B680BB1FD
:100C7000002098477D4B1B78002B7FF461AF192330
:100C80003B705DE7734A137823F04003EAE6714A4C
:100C9000137823F0080313700022714B1A60734B12
:100CA0001B7873B1724B0A22187801A90AF052FE20
:100CB0007048FFF72BFC01A8FFF728FC6E48FFF7F0
:100CC00025FC694B1B68002B3FF43AAF0A20C0E7B4
:100CD000664B1B78002B7FF433AF624A13605D4A8A
:100CE000137823F0600343F0600313705E4B1B68BE
:100CF000002B3FF425AF0720ABE7564A137823F0CB
:100D00004203AFE6534A137823F042031370B6E769
:100D1000504A1378180706D523F0090313704E4B79
:100D20001A884E4B1A803B78013B102B3FF608AFD8
:100D30004C4B79E7514A2C28126807D106232370BF
:100D4000002A3FF4FDAE4E489047F9E60021013BF2
:100D500021703380002A3FF4F3AE4A48F4E722289A
:100D60007FF4EEAE072300222370474B1A80E7E69C
:100D7000222803D0444A1388102B01D1082396E679
:100D8000591C1180414AD054DAE60A287FF4D8AEC3
:100D900000233D4A237011883C4A0F299BBF5354BE
:100DA0002C4913700A789FBF42F020020A702D4A26
:100DB00013602D4B1B68002B3FF4C2AE042048E7A4
:100DC0002C287FF48FAE294B1B782BB10D230022EA
:100DD0002370274B1A70B3E60B23C4E72C28FBD0F3
:100DE000A0F13002092A3FF67DAE214A137803EBC9
:100DF000830300EB4303303B34E63A2801D10C2354
:100E000055E6A0F13002092A3FF66CAE1E4A13885F
:100E100003EB830300EB4303303B138090E61C4B52
:100E20009B6803B19847184A1388013B9BB2138013
:100E3000002B7FF485AE2370104B1B68002B3FF412
:100E40007FAE144898477BE60023134A2370136053
:100E500076E600BF900F00209E020020A002002036
:100E6000800F00208C0F00207C0F0020AA0E002095
:100E7000A90E00204AC4000865C60008780F0020AB
:100E800057C400086CC40008A60E0020F10E002014
:100E90009002002080C40008880F0020974B00209B
:100EA0001B689847964B1B680BB1964898471823C8
:100EB0002B702378DA0740F1EA81934A126832B93D
:100EC000924A23F009031188914A2370118003B0DC
:100ED000BDE8F08F894B01201B689847884B1B6841
:100EE0000BB18C48984719232B704FF4FA73336079
:100EF000DFE7012300222B70874B1A70D9E7864A5F
:100F000013782BB1013BDBB213701BB91723CFE76A
:100F1000042313702378814823F020032370FFF704
:100F2000F5FA774B1B680BB17D4898470223BFE762
:100F30002378990601D50323BAE70123B8E7794856
:100F4000FFF7E4FA6E4B1B680BB17748984723789C
:100F500023F0200323700423AAE723789A06ECD514
:100F60000523A5E77148FFF7D1FA237823F0200382
:100F7000237006239CE723789B06DED5072397E79B
:100F80006B4B1B786BB16B48FFF7C0FA5C4B1B686F
:100F90000BB169489847237823F020032370082376
:100FA00086E76648F0E723789F06C6D5604B1B7836
:100FB000002B0CBF0F2309237AE76148FFF7A6FA3D
:100FC0002220FFF7BDFA5F48FFF7A0FA2220FFF7C3
:100FD000B7FA2C20FFF7B4FA2220FFF7B1FA5A48EB
:100FE000FFF794FA2220FFF7ABFA2C20FFF7A8FABC
:100FF0005648FFF78BFA2C20FFF7A2FA5448FFF768
:1010000085FA0D20FFF79CFA0A20FFF799FA3C4B6E
:101010001B680BB14F489847237823F020032370B7
:101020000A232B704FF4967361E723789E0684D5CC
:101030000B233DE74848FFF769FA314B1B680BB1BA
:1010400046489847237823F0200323700C232B7005
:10105000C8234CE7237898067FF56FAF0D2327E769
:101060003F48FFF753FA264B1B680BB13D489847A2
:10107000237823F0200323700E23E8E723789906D2
:101080007FF55BAF162313E7374F3B78002B3FF418
:1010900010AF3648FFF73AFA2220FFF751FA3846E8
:1010A000FFF734FA2220FFF74BFA2C20FFF748FA1B
:1010B0002220FFF745FA2E48FFF728FA2220FFF7F3
:1010C0003FFA0D20FFF73CFA0A20FFF739FA0C4BE4
:1010D0001B680BB127489847237823F0200323701F
:1010E00010232B7040F2DC5301E723789A067FF53A
:1010F00024AF112304222B70074BFEE69002002040
:10110000780F002093C40008840F00209E02002066
:10111000A0020020A9C400089C02002071D200088F
:10112000BFC4000863D20008CDC40008E1C40008B1
:10113000AA0E0020F3C400080FC5000801C500086E
:1011400019D20008CB0E0020AB0E002002000020B8
:101150000000002023C5000805D2000836C500089D
:10116000F1D100084AC50008370F002059D2000805
:10117000170F002061C5000800225A4B5A481A7008
:10118000FFF7C4F9594B1B680BB1594898472378AE
:1011900023F02003237012238AE623789B0601D5CF
:1011A000132385E6534A1378013BDBB21370002BFF
:1011B0003FF4C3AE11237BE64F4B1B78002B3FF46B
:1011C00078AE4E48FFF7A2F9484B1B680BB14C486C
:1011D000984714236CE64B48FFF798F92220FFF755
:1011E000AFF94948FFF792F92220FFF7A9F92C201F
:1011F000FFF7A6F92220FFF7A3F93F48FFF786F98A
:101200002220FFF79DF92C20FFF79AF93F48FFF7BE
:101210007DF93F493C48FEF79BFF58B92C20FFF76A
:101220008FF93C48FFF772F92C20FFF789F930203D
:10123000FFF786F90D20FFF783F90A20FFF780F901
:101240002A4B1B680BB134489847237823F060037E
:1012500023701523FBE6237813F0200203D043F01C
:10126000400323700EE762F386139F0723707FF518
:1012700064AE1423D5E6294B1B780BB1002336E668
:10128000237898077FF559AE590689D5F6E7244D9E
:1012900024492A88098891423FF419AE224E5F07FB
:1012A000B05C02D53E2808BF0A20204B5B689847F7
:1012B00000283FF40CAE22782B8851070AD5F15C48
:1012C0003E2907D1322122F0050242F001022270AC
:1012D000174A116001339BB2B3F5006F08BF0023BA
:1012E0002B80F4E5F10E00204ED20008780F00208C
:1012F00074C500089C020020070F002033D20008AC
:1013000085C5000841D2000805000020010F00201B
:1013100014C40008EB0E00209BC50008AA0E002094
:10132000A00200209E020020A602002090020020C1
:10133000840F0020014B1860704700BF7C0F002015
:10134000014B1860704700BF780F00200022F0B5F5
:10135000084BD4B2A14202F1010200D8F0BD5D7980
:101360001E686F1C5F71045D74555C79DD792C40DB
:101370005C71EEE7B0240020021E18BF01224FF47A
:101380000071014805F08CBA000C01401FB51446ED
:101390001A464FF0FF330091CDE901430146012386
:1013A000024805F01DFD04B010BD00BF0827002055
:1013B000FFF7ECBF13B514461A46CDE9001401231C
:1013C0000146024805F09CFD02B010BD0827002030
:1013D00013B514461A46CDE900140123014602480C
:1013E00005F054FE02B010BD0827002007B5012209
:1013F0008DF807000DF10701034808F044FCB0FA2E
:1014000080F0400903B000BD1825002010B5044647
:10141000FEF7A8FE81B22046BDE810400AF0E0B811
:1014200010B5164B1B78F3B115490C78FF2C15D06D
:101430007E2C144B13D818550020621CD2B2012AFE
:101440000A7098540AD0134413F8022C0D2A05D1BF
:1014500013F8013C0A2B01D1FF230B7010BD0022B1
:101460000A701A70FAE7084B5A791968541C5C71B3
:1014700088545A79D9790A405A71EFE7EF1F002052
:10148000F01F0020F11F002098240020032810B531
:10149000184C15D10C21184B18481A78184B01FB21
:1014A00002330F2299680AF0E9FA0023134A2370E5
:1014B000D3730122134B1A700522134B1A7010BDFF
:1014C000124B22781B7813431843C0B20028F6D180
:1014D000012340F6B8320C2123700D4BBDE81040BB
:1014E0001A80054B064A1B784B43D1184968D058DF
:1014F000FFF73AB8EC170020ED1700206400002039
:10150000F8E70008EE17002074000020EF1F00200D
:101510005C000020038830B58B421FD2C38B8B4206
:1015200019D9002330F8024BA14211D3028891420D
:101530000ED80B48121BC55A0230C35A091B5B1B3D
:10154000500801FB0300B0FBF2F0284480B230BD2C
:1015500002331E2BE6D14FF47A70F8E70020F6E74D
:1015600058E700084FF47A7381EAE172A2EBE17266
:1015700013B5B2FBF3F403FB14220A230029B2FBD8
:10158000F3F20DDA074954EA0203074B08BF0B4692
:10159000CDE900421021054A0AF020FA02B010BD40
:1015A000004BF5E767C60008B1C50008B3C50008E1
:1015B00042F2107381EAE172A2EBE17213B5B2FB61
:1015C000F3F403FB142264230029B2FBF3F20DDAD7
:1015D000074954EA0203074B08BF0B46CDE9004216
:1015E0001021054A0AF0FAF902B010BD004BF5E7E8
:1015F00067C60008B1C50008B3C50008054B064A18
:1016000003F1100153F8040B8B4242F8040BF9D19B
:10161000704700BFD8240020C82400200122014BBD
:101620001A707047112500200122014B1A70704773
:101630001025002002682D4B10B59A42044612D1A5
:101640002B4A2C4913782C480133DBB2282B01BFDD
:1016500000231370294A137808BF43F080031370E6
:10166000082204F099FC2368B3F1804F1BD1244B6E
:101670001A7842B11A78012A05D01A78022A02D0C3
:101680001A78052A08D101241E491F480A78845473
:10169000224402F00F020A701C490A78013A12F043
:1016A000FF0201D00A7010BD14220A701A78032AB2
:1016B00005D01A78042A02D01A78052AF3D11A78AC
:1016C0001149032A0F4A02D01B78042B06D10120AE
:1016D0001378C854034403F00F03137000201378E9
:1016E000C854013303F00F031370DCE7002C0140F2
:1016F00012250020D8240020A027002092200020BE
:1017000014250020E8240020E92400207A0000208D
:10171000F0B5026883790C46D15C0546A1F1A003BF
:1017200091B0512B00F21F87DFE813F052005C00EC
:101730006C00B80007013201AB01C801530171010F
:101740008E010A024E046B048804A504C204DF045F
:101750002902FC0419053605530571058F05D605C8
:101760001D071D071D071D071D071D07F405440262
:10177000610212066E0672069006AE06CC06EA06F6
:10178000080730064F061D071D071D071D071D070B
:101790001D071D071D071D071D071D071D071D0729
:1017A0001D071D071D071D071D071D071D071D0719
:1017B0001D071D071D071D071D071D071D071D0709
:1017C0001D071D071D071D071D071D0786021A049B
:1017D000A0210222204603F032FF0D21204603F013
:1017E00076FF08E0A1210D22204603F028FF2046C5
:1017F000C14903F07FFF2046217A11B0BDE8F040D7
:1018000003F065BF0D22A221204603F018FFBB4B59
:10181000BB4DB3F9001020462980C9B203F057FF31
:101820006978204603F053FFB64B2046B3F9001009
:101830002980C9B203F04BFF6978204603F047FFC7
:10184000B14B2046B3F900102980C9B203F03FFF25
:101850006978204603F03BFFAC4B2046B3F90010FB
:101860002980C9B203F033FF6978204603F02FFFC7
:10187000A74B2046B3F900102980C9B203F027FF17
:101880006978204603F023FFA24BB3F900102980AA
:10189000C9B2204603F01BFF69789FE79E4E1122D4
:1018A000A321204603F0CBFE954D318820462980A8
:1018B000C9B203F00CFF6978204603F008FF718875
:1018C00020462980C9B203F002FF6978204603F060
:1018D000FEFEB18820462980C9B203F0F8FE69787F
:1018E000204603F0F4FEF18820462980C9B203F0B7
:1018F000EEFE6978204603F0EAFE31892046298011
:10190000C9B203F0E4FE6978204603F0E0FE718975
:1019100020462980C9B203F0DAFE6978204603F038
:10192000D6FEB18920462980C9B203F0D0FE69787D
:10193000204603F0CCFEF189A9E70222A42120462B
:1019400003F07DFE0D21204603F0C1FE217A2046E2
:1019500003F0BDFE00220121284603F0F0FE684C92
:10196000002201212070284603F0E9FE6070B4F9DE
:1019700000202388002A6949694AB5BF5B42138069
:101980000B800023B6BF00230B80138011B0F0BD85
:101990000222A521204603F052FE0D21204603F02D
:1019A00096FE217A204603F092FE0022012128466D
:1019B00003F0C5FE524C002201212070284603F09E
:1019C000BEFE6070B4F900202388002A5549564AAB
:1019D000D3E70222A821204603F031FE0D21204644
:1019E00003F075FE217A204603F071FE00220121EA
:1019F000284603F0A4FE424C002220700121284614
:101A000003F09DFE60702288484B1A80BEE70222D8
:101A1000A921204603F013FE0D21204603F057FEB6
:101A2000217A204603F053FE00220121284603F0CC
:101A300086FE334C002220700121284603F07FFEF1
:101A4000607022883A4BE0E70222AA21204603F088
:101A5000F6FD0D21204603F03AFE217A204603F0E0
:101A600036FE00220121284603F069FE244C0022A4
:101A700020700121284603F062FE607022882D4B01
:101A8000C3E70222A621204603F0D9FD0D212046FE
:101A900003F01DFE217A204603F019FE00220121E9
:101AA000284603F04CFE164C0022207001212846E7
:101AB00003F045FE607022881F4BA6E70222A72193
:101AC000204603F0BCFD0D21204603F000FE217AE4
:101AD000204603F0FCFD00220121284603F02FFEE2
:101AE000074C002220700121284603F028FE607078
:101AF0002288124B89E700BF34E800080E25002039
:101B0000942000200C2500200A2500200825002014
:101B10000625002004250020C82400208C20002059
:101B20008A200020902000208E20002054000020D9
:101B300052000020AC1700204C0000204E00002076
:101B40000222AB21204603F07AFD0D21204603F04E
:101B5000BEFD217A204603F0BAFD0022012128466D
:101B600003F0EDFD304C002220700121284603F0E7
:101B7000E6FD6070B4F900202C4B1A6006E70222E3
:101B8000B221204603F05BFD0D21204603F09FFDAE
:101B9000217A204603F09BFD00220121284603F014
:101BA000CEFD214C002220700121284603F0C7FD04
:101BB0006070EBE60222C121204603F040FD0D21BA
:101BC000204603F084FD217A204603F080FD0022A8
:101BD0000121284603F0B3FD134C0022207001219F
:101BE000284603F0ACFD60702288114B0DE70222FD
:101BF000C221204603F023FD0D21204603F067FD9E
:101C0000217A204603F063FD00220121284603F0DB
:101C100096FD054C002220700121284603F08FFD1F
:101C200060702288034BF0E69420002044000020DE
:101C3000780000207600002000255122F021204667
:101C400003F0FDFCA34B03AF1B88ADF80C30A24B97
:101C50001B88ADF80E30A14B1B88ADF81030A04B9F
:101C60001B88ADF812309F4B1B88ADF8143037F944
:101C7000026B2046F1B203F02AFD01352046C6F37F
:101C8000072103F024FD052DF1D1974D2046297839
:101C900003F01DFD6978204603F019FDA978204660
:101CA00003F015FDE9780025204603F010FD8F4B69
:101CB00009AF1B88ADF824308D4B1B88ADF826305A
:101CC0008C4B1B88ADF828308B4B1B88ADF82A3025
:101CD0008A4B1B88ADF82C30894B1B88ADF82E3011
:101CE000884B1B68ADF8303037F9026B2046F1B2F3
:101CF00003F0EDFC01352046C6F3072103F0E7FCB5
:101D0000072DF1D10025804B06AF1B88ADF81830A8
:101D10007E4B1B88ADF81A307D4B1B88ADF81C300C
:101D20007C4B1B88ADF81E307B4B1B88ADF82030F8
:101D30007A4B1B88ADF8223037F8026B2046F1B29F
:101D400003F0C5FC01352046310A03F0C0FC062D26
:101D5000F2D10025724B01AF1B88ADF80430714BF6
:101D60001B88ADF80630704B1B88ADF808306F4B00
:101D70001B88ADF80A3037F8026B2046F1B203F049
:101D8000A6FC01352046310A03F0A1FC042DF2D156
:101D9000674B0021B3F90050204603F098FC002166
:101DA000204603F094FCE9B2204603F090FCC5F312
:101DB0000721204603F08BFC5E4B5F4AB3F90060BD
:101DC000B2F900501978204603F081FCC6F30721D0
:101DD000204603F07CFCE9B2204603F078FCC5F312
:101DE0000721564D204603F072FC2978204603F067
:101DF0006EFC6978204603F06AFCA978204603F05F
:101E000066FCE978204603F062FC4D4B4D4AB3F97D
:101E10000060B2F900501978204603F058FCC6F370
:101E20000721204603F053FCE9B2204603F04FFCA3
:101E3000C5F30721444D204603F049FC297820468C
:101E400003F045FC6978414D204603F040FCA97839
:101E5000204603F03CFC69882046090A03F037FC61
:101E6000A979204603F033FCE9882046090A03F0EB
:101E70002EFCA97A204603F02AFC6989344D090A10
:101E8000204603F024FC29882046C9B203F01FFC39
:101E90002988304DC1F30721204603F018FC29881A
:101EA0002046C9B203F013FC29882B4DC1F307214A
:101EB000204603F00CFC29882046C9B203F007FC39
:101EC0002988264DC1F30721204603F000FC29781C
:101ED000DFE400BF54000020AC17002052000020B7
:101EE0004C0000204E00002044000020380000205C
:101EF00036000020AA170020A8170020300000207C
:101F00004000002020000020280000201A000020AF
:101F100024000020180000202600002016000020C9
:101F20004A000020480000207800002076000020B1
:101F30003E0000203C0000203A000020D017002086
:101F40002E0000202C0000202A000020C8240020A1
:101F5000EA170020E8170020E61700201C000020E8
:101F600000261D22F121204603F069FBC64B09AF74
:101F70001B680993C54B1B680A93C54B1B680B93E1
:101F8000C44B1B680C93C44B1B680D93C34B1B685D
:101F90000E93C34B1B680F9357F8045B2046E9B2BE
:101FA00003F095FBC5F30721204603F090FBC5F332
:101FB0000741204603F08BFB01362046290E03F033
:101FC00086FB072EE8D116E40222AC21204603F05E
:101FD00036FB0D21204603F07AFB217A204603F0E0
:101FE00076FB00220121284603F0A9FBAD4C00221C
:101FF00020700121284603F0A2FB60702288AA4BC2
:1020000003E50222AD21204603F019FB0D212046F5
:1020100003F05DFB217A204603F059FB00220121E9
:10202000284603F08CFB9F4C00222070012128469B
:1020300003F085FB607022889C4BE6E40222AE210F
:10204000204603F0FCFA0D21204603F040FB217AE4
:10205000204603F03CFB00220121284603F06FFBE1
:10206000904C002220700121284603F068FB60702C
:1020700022888F4BC9E40222AF21204603F0DFFA09
:102080000D21204603F023FB217A204603F01FFB9D
:1020900000220121284603F052FB824C00222070CE
:1020A0000121284603F04BFB60702288814BACE491
:1020B0000222B021204603F0C2FA0D21204603F08F
:1020C00006FB217A204603F002FB0022012128466C
:1020D00003F035FB734C002220700121284603F0E9
:1020E0002EFB60702288744B8FE40222B1212046BF
:1020F00003F0A5FA0D21204603F0E9FA217A2046E3
:1021000003F0E5FA00220121284603F018FB654C94
:10211000002220700121284603F011FB6070228804
:10212000664B72E40222B321204603F088FA0D21A7
:10213000204603F0CCFA217A204603F0C8FA0022A8
:102140000121284603F0FBFA564C002220700121A1
:10215000284603F0F4FA60702288594B55E40222B5
:10216000B421204603F06BFA0D21204603F0AFFAAC
:10217000217A204603F0ABFA00220121284603F021
:10218000DEFA484C002220700121284603F0D7FADD
:10219000607022884B4B38E40222B521204603F0C0
:1021A0004EFA0D21204603F092FA217A204603F0E0
:1021B0008EFA00220121284603F0C1FA394C002290
:1021C00020700121284603F0BAFA607022883E4B45
:1021D0001BE40222B621204603F031FA0D212046ED
:1021E00003F075FA217A204603F071FA00220121EA
:1021F000284603F0A4FA2B4C002220700121284627
:1022000003F09DFA60702288304BFFF7FEBB02227C
:10221000B721204603F013FA0D21204603F057FAA8
:10222000217A204603F053FA00220121284603F0C8
:1022300086FA1C4C002220700121284603F07FFA08
:1022400060702288224BFFF7E0BB0222B8212046B3
:1022500003F0F5F90D21204603F039FA217A2046E2
:1022600003F035FA00220121284603F068FA0D4CEC
:10227000002220700121284603F061FA6070228854
:10228000144BFFF7C2BB00BFC0170020B4170020DB
:10229000B8170020B0170020CC1700208C170020A2
:1022A0005800002094200020380000203600002034
:1022B000AA170020A81700203000002040000020AE
:1022C000280000201A000020240000201800002010
:1022D00026000020160000200222B921204603F02B
:1022E000AEF90D21204603F0F2F9217A204603F0E1
:1022F000EEF900220121284603F021FA9D4C00222C
:1023000020700121284603F01AFA607022889A4B47
:10231000FFF77BBB0222C021204603F090F90D217C
:10232000204603F0D4F9217A204603F0D0F90022A8
:102330000121284603F003FA8E4C0022207001216F
:10234000284603F0FCF9607022888C4BFFF75DBBD8
:102350000222C321204603F072F90D21204603F02A
:10236000B6F9217A204603F0B2F90022012128466D
:1023700003F0E5F97F4C002220700121284603F08C
:10238000DEF9607022887E4BFFF73FBB0222CB2133
:10239000204603F054F90D21204603F098F9217AE4
:1023A000204603F094F900220121284603F0C7F9E2
:1023B000704C002220700121284603F0C0F96070A3
:1023C000B4F900206F4BFFF7D8BB0222CC21204686
:1023D00003F035F90D21204603F079F9217A2046E2
:1023E00003F075F900220121284603F0A8F9614C99
:1023F000002220700121284603F0A1F96070B4F991
:102400000020614BFFF7B9BB0222C421FFF7B9BB23
:102410000222C521204603F012F90D21204603F0C7
:1024200056F9217A204603F052F90022012128466C
:1024300003F085F94F4C002220700121284603F05B
:102440007EF960702288514BFFF7DFBA0222C62165
:10245000204603F0F4F80D21204603F038F9217AE4
:10246000204603F034F900220121284603F067F9E1
:10247000404C002220700121284603F060F9607072
:102480002288434BFFF7C1BA0222C721204603F03E
:10249000D6F80D21204603F01AF9217A204603F0E0
:1024A00016F900220121284603F049F9314C002297
:1024B00020700121284603F042F960702288354BD4
:1024C000FFF7A3BA0222C821204603F0B8F80D2175
:1024D000204603F0FCF8217A204603F0F8F80022A9
:1024E0000121284603F02BF9224C00222070012103
:1024F000284603F024F960702288274BFFF785BA3D
:102500000222C921204603F09AF80D21204603F04B
:10251000DEF8217A204603F0DAF80022012128466D
:1025200003F00DF9134C002220700121284603F01E
:1025300006F960702288194BFFF767BA184D04221C
:102540002B88CA21013320462B8003F078F80D2117
:10255000204603F0BCF829882046090A03F0B7F8A2
:102560002978FFF73BB90222204603F068F8FF21E3
:10257000FFF734B9942000204A00002048000020D2
:102580003E000020200000201C0000203C00002015
:102590003A0000202E0000202C0000202A000020FD
:1025A00070170020F0B516464379027905469A4225
:1025B0000C46C3B01DD003F0CFF8D0B1012E04BF3C
:1025C0000022154B2146284608BF1A70FFF7A0F8D5
:1025D0000022617A02A8D3B299420CD8C6B1FDF7A5
:1025E000F1FF4FF4807300930022637A02A9FEF793
:1025F000A1F843B0F0BDA77925687B1CDBB2A371BD
:10260000ED5D013200F8015BE5792B40A371E2E753
:1026100002A808F0E5FFECE77400002010B50D4BB0
:102620000D4C1A780D4B0E4853F8221001222378D6
:1026300002FA03F38B4308BF1A464FF4005104F02B
:102640002FF923780133DBB2142B28BF002323702A
:1026500010BD00BF132500206E1700208000002051
:10266000001001402DE9F0418C4B8D4C1B788AB055
:10267000032B5FFA83F840F02B810025012002F044
:102680006FFB4023202229461E20009502F0B8FC53
:102690001623802214212846009502F0B1FC402325
:1026A000522229465020009502F0AAFC7D4E294670
:1026B000282002F059FC7C4902A809F035FA96E876
:1026C0000E00009502A802F039FC2946552002F0C0
:1026D0004BFC764902A809F027FA96E80E0000950F
:1026E00002A802F02BFC1921282002F03DFC704BBF
:1026F0002021B3F900306F4A02A809F06FF994E87D
:102700000E00009502A802F019FC1921552002F0D4
:102710002BFC694B2021B3F90030664A02A809F06E
:102720005DF994E80E00009502A802F007FC25214F
:10273000282002F019FC614B2021B3F900305D4ADA
:1027400002A809F04BF994E80E00009502A802F0E7
:10275000F5FB2521552002F007FC594B2021B3F948
:102760000030544A02A809F039F994E80E000095A7
:1027700002A802F0E3FB3121282002F0F5FB514BC7
:102780002021B3F900304B4A02A809F027F994E858
:102790000E00009502A81E2602F0D0FB3121552024
:1027A00002F0E2FB484B2021B3F90030414A02A875
:1027B00009F014F994E80E0040F6FA74434F0095BE
:1027C00002A802F0BBFB3B8842467343B3FBF4F321
:1027D000C3F13C033C214046DBB2009502F0CAFB4A
:1027E0007B8806227343B3FBF4F3C3F13C0310462A
:1027F0003C21DBB2009502F0BDFBBB88092273438C
:10280000B3FBF4F3C3F13C0310463C21DBB200956B
:1028100002F0B0FBFB880C227343B3FBF4F3C3F16B
:102820003C0310463C21DBB2009502F0A3FB3B8940
:102830000F227343B3FBF4F3C3F13C0310463C2176
:10284000DBB2009502F096FB7B8912227343B3FB47
:10285000F4F3C3F13C0310463C21DBB2009502F0D7
:1028600089FBBB8915227343B3FBF4F3C3F13C032B
:1028700010463C21DBB2009502F07CFB1822FB895C
:102880003C217343B3FBF4F31046C3F13C030095C2
:10289000DBB202F06FFB0AB0BDE8F0811425002026
:1028A00084D2000878D20008BFC50008C3C500085C
:1028B0000E250020C7C50008082500200C25002093
:1028C000062500200A25002004250020C824002019
:1028D000002002F045FA02210125084602F044FBDF
:1028E00094E80E004548009502F028FB02212420C0
:1028F00002F03AFB424B20211B68424A02A809F031
:102900006DF894E80E00009502A802F017FB112163
:10291000022002F029FB94E80E003B48009502F0EB
:102920000DFB1121242002F01FFB0522374B202133
:102930001B6802A803EB430393FBF2F3344A09F04C
:102940004DF894E80E00009502A802F0F7FA202155
:10295000022002F009FB94E80E002E48009502F0D8
:10296000EDFA2021242002F0FFFA64212A4E02A869
:10297000326892FBF1F301FB1322002AB8BF5242E6
:1029800020210092254A09F029F894E80E000095CC
:1029900002A802F0D3FA2F21022002F0E5FA94E80F
:1029A0000E001F48009502F0C9FA24202F2102F0E2
:1029B000DBFA42F226323368009503F58C53133369
:1029C000934298BF174894E80E0088BF164802F05B
:1029D000B5FA01240E237F2219460020009402F04C
:1029E000C9FA1D237F2219460020009402F0C2FA82
:1029F0002C237F221946002000944AE7CAC500080C
:102A000000250020CFC50008D8C50008FC24002000
:102A1000DDC50008E7C50008CC170020B5C50008D3
:102A2000ECC50008F1C50008FBC5000837B5424BEE
:102A3000424C1A782AB11A78012A02D01A78022A4E
:102A400016D12278013A012A12D8002323703C4A79
:102A50003C4B11781B788B4208D03B484B1C415CA7
:102A600003F00F0391B103212170137003B030BD47
:102A70002278032A5DD801A151F822F04F2A0008DC
:102A8000912A0008A72A0008C12A00080121EBE7C3
:102A90001B78052B04D103F065F802232370E5E7CA
:102AA000FFF7E0FDF9E7294805F0E4FA2028DDD139
:102AB00002F07CF90028D9D00023254A1370EDE7F5
:102AC000224805F0DAFA234D10B14FF47A732B60E7
:102AD0001E4805F0CFFA202816D102F087F898B1E9
:102AE0001D4B1E4A01931E4B1E4900931E481F4B4F
:102AF00002F0C4F800231E4A1E4913700A7842F0FF
:102B000008020A702B60C9E72B680133B3F5FA7F1E
:102B10002B60ABD90D4804F049F9012003F0C2F84D
:102B20000A4804F09BF802F02BF802F051F8002359
:102B3000E8E70023B2E700BF142500206D1700204E
:102B40006C170020E8240020E9240020082700203A
:102B50001125002068170020042500200A250020E8
:102B6000062500200C2500200E2500200825002029
:102B70001025002092200020074B084A1B6812886D
:102B80005A63074A1288DA63064A12889A63064A29
:102B900012881A64704700BFA825002090200020EA
:102BA0008C2000208E2000208A2000202DE9F0417A
:102BB00098B010AE14AF044610220021304608F041
:102BC00043FF10220021384608F03EFF2F4B3046CD
:102BD0001968FEF7EDFC2E4B38461968FEF7C2FC6B
:102BE0002C4D2D4B2D4A2E492E48DFF8BCC0DFF866
:102BF000BCE0DFF8BC801B881288098800882D881B
:102C0000BCF800C0BEF800E0B8F80080CDE90E675F
:102C1000284E1BB2B6F9006012B20D96264E09B2CC
:102C2000B6F9006000B20C96244E2DB2B6F90060E1
:102C30000FFA8CFC0B96224E0FFA8EFEB6F900604E
:102C40000FFA88F80A961F4EB6F9006009961E4ED4
:102C5000B6F90060CDE90121CDE9030500934FF4F9
:102C600000611A4B1A4A1B48CDE905CECDE907860B
:102C700008F0B4FE4FF4006300220093154983B2BC
:102C80002046FDF757FD18B0BDE8F081D0170020B1
:102C900078170020E2170020EA170020E81700202C
:102CA000E6170020E4170020E0170020DE170020C0
:102CB000DC17002004250020062500200825002020
:102CC0000A2500200C2500200E25002001C6000842
:102CD00068C60008EF1700202DE9F04798B010AE45
:102CE00014AF044610220021304608F0ADFE102239
:102CF0000021384608F0A8FE394B30461968FEF727
:102D000057FC384B38461968FEF72CFC364BDFF879
:102D1000DCA0B3F80090364BBAF900A01A88354B06
:102D2000DFF8D4C01988354BDFF8D4E01888354B6C
:102D3000DFF8D4801D88354B12B21B88BCF800C068
:102D4000BEF800E0CDF838A0DFF8C4A00FFA8CFC84
:102D5000BAF900A009B2CDF834A0DFF8B8A000B2EB
:102D6000BAF900A02DB2CDF830A0DFF8ACA01BB2AC
:102D7000BAF900A00FFA8EFECDF82CA0DFF89CA0C7
:102D8000BAF900A0CDF828A0DFF894A0BAF900A005
:102D9000CDE9043CCDE90021CDE902050FFA89F324
:102DA00040F29E7140461F4ACDE906E6CDE9087A19
:102DB00008F014FE4FF400611B4B1C4ACDF8008054
:102DC0001B4808F00BFE4FF40063002200931849E3
:102DD00083B22046FDF7AEFC18B0BDE8F08700BF17
:102DE000D017002078170020EA17002004250020C3
:102DF000E8170020E6170020E4170020DE17002067
:102E0000DC170020E2170020C70F0020E017002089
:102E100006250020082500200A2500200C2500207A
:102E20000E250020F3C60008FECD00083ECE0008A7
:102E3000EF17002013B50A4B044600934FF40061CE
:102E4000084B094A094808F0C9FD4FF40063002205
:102E500000932046B3230549FDF76CFC02B010BD7A
:102E600043CE0008FECD00083ECE0008EF1700203C
:102E70002DE9F0470024DDE908760C7098461470BF
:102E80001C7047F23A5305468A46304642493B8019
:102E9000914608F049FE2846404908F002FE58B124
:102EA000043010F8013FE2B213F0DF0F01D0262BFF
:102EB0004DD100230AF802302846394908F0F1FDC7
:102EC00060B10023043010F8012FD9B212F0DF0FE7
:102ED00001D0262A45D1002309F80130284631497E
:102EE00008F0DFFD60B10023033010F8012FD9B2E4
:102EF00012F0DF0F01D0262A3DD1002308F801305F
:102F00002846294908F0CDFD48B10023053010F8C6
:102F1000012F303AD1B2092934D903B13B80284678
:102F2000224908F0BEFDA8B3C41D03222046204953
:102F300008F092FD28B1032220461E4908F08CFDBE
:102F400030BB1B493046BDE8F04708F0EDBD2B2BE8
:102F500008BF20230AF8043001343F2CA1D12246B7
:102F6000A7E72B2A08BF202209F8032001333F2BB3
:102F7000A9D11946AFE708F8032001330F2BB4D1CC
:102F80001946BAE703EB830302EB430293B2BEE7B1
:102F90000149D7E7BDE8F08714C40008B8CE00089F
:102FA000BECE0008C4CE0008C9CE0008D0CE0008AE
:102FB00018C40008D8CE00082DE9F043464BA9B04C
:102FC0001A78B2B10022454945481A70FDF7C0F899
:102FD000444B47F23152198828B9434829B0BDE81B
:102FE000F043FDF73BBB404829B0BDE8F043FDF797
:102FF000EFBA3E4F3B78ABB13D4E3378FF2B11D14A
:10300000FDF7E0FA3B4905463B4808F04AFD044617
:1030100058B12846FFF7CAFD092803D10023364AD4
:103020003370137029B0BDE8F0833449324808F09A
:1030300038FD002845D04022214608A808F004FDAC
:103040004022214618A808F0FFFC102221460DEB73
:10305000020008F0F9FC2A4B0DF10C0803930DF166
:103060000A030093244804ABCDF8048018AA08A9E9
:10307000FFF7FEFE9DF810309DF80C9033B11A4B0F
:103080000F22184604A908F0F9FCC473BDF80A30F1
:103090000BB1144A1380B9F1000F03D04146104818
:1030A00008F042FD2846FFF7C5FE0928BAD10023E3
:1030B000114A18A908A83B7033701370FDF754FA31
:1030C000B0E710490C4808F0ECFC0028A6D02846D0
:1030D000FFF702FEA0E700BFEE17002018C40008AB
:1030E0005E0000206200002064000020EF1F00202E
:1030F000F01F0020DCCE0008F11F0020E6CE000803
:1031000055445000F0CE000840F201230380002314
:1031100083708380C380704702780346032A1DD8DA
:10312000DFE802F00F021407427842B903221A7056
:1031300005E0417801220029F9D101708270002058
:1031400070474278012AFAD10222F0E74078002243
:103150000128ECD118709A70D87170470122E6E707
:1031600070B504464FF400411D4803F093FBA67868
:103170001C4A1D491D4DAEB188B113780133DBB235
:10318000072B137003D901236370002313700023EE
:103190000B702B78EBB1A3880A33A38070BD6070ED
:1031A0001070F4E70B781670042B0FD9003818BF95
:1031B00001200E70607000232B70A3796BB1A3887F
:1031C000002BEBD0092B08D90A3BE6E701330B7043
:1031D000F1E7A38001232B70DDE70023DDE700BFCB
:1031E000000C0140C60F0020C50F0020C40F0020B6
:1031F00073B5414D2B78DB0938D02B783F4C23F049
:1032000080032B702378052B18D0FDF75FFB3C481B
:1032100090F84230222B09D003683A491A685B685B
:103220002023012280F8423006F00DFF364B1B7838
:1032300023B136490A88DAB1013A0A803448FFF7E7
:103240008FFF344A1378013B13F0FF0303BF0223BF
:1032500013702B78137004BF43F040032B702E4B78
:103260001E78013E16F0FF0617D01E7002B070BD2A
:103270002A4803780133DBB2042B94BF1A46134665
:10328000027040F6B8320A800C214B43244AD11810
:103290004968D058FDF768F9D0E70A221A702B78F0
:1032A00043F020032B70FFF7B9F92378052BDDD00D
:1032B0001C4A13780133DBB2092B01D81370D5E710
:1032C000194C16702378042B9CBF01332370174BC5
:1032D0001D78002DCAD1FDF707FA0728C6D123783B
:1032E000042BC3D94FF480732A4600932846092340
:1032F0000F49FDF71FFAB9E792200020142500209E
:103300001825002088200020EC1700205C000020F9
:10331000722000207B0000207C000020ED170020A0
:10332000F8E700088920002074000020EF1F00202B
:103330000C000020F8B583780446002B4CD183881C
:10334000002B49D18379002B46D0C37903B340F6D3
:10335000B732A38893426FD8A3F5FA62B2F57A7FA9
:103360006ED2424804F086FE202838D1002504267B
:10337000E5713F4B01201E70FDF7FEFF01F058FD87
:10338000012001F071FE3B4BA5711E70A58026E067
:10339000364804F06FFE202821D1A179344A013942
:1033A000344B354E354D032942D8DFE801F0024158
:1033B000192F0027012017701F70FDF7DDFF3288DD
:1033C0002F4B37801A802A882E4B2F801A8000239B
:1033D000FF22A3712C4B1A70E379002BB7D1F8BDF3
:1033E000022100201170294A197010700120FDF788
:1033F000C3FF33882A8813431BB2002BE7D1204B2D
:103400001B8833801F4B1B882B80E0E705210020A1
:1034100011701970FDF7B0FF3288194B1A802A8895
:10342000184B1A80002333802B8002F08DFBCEE7EF
:10343000012010701870DAE70023E371A380CEE753
:10344000A3F57A73B3F57A7F08D2084804F012FE28
:103450002028C4D100250326E5718AE70023E37103
:10346000A3790133A3714FF4C873E7E7082700205D
:1034700014250020132500203800002036000020ED
:103480003400002032000020980000208017002027
:10349000C72AF8B5CCBF00240124C729D8BF0134FE
:1034A0001D46884BC728D8BF01341E78032E00F272
:1034B0000781DFE816F004001A008800F700824A4E
:1034C000C729B2F900202A6002DC01221A7044E008
:1034D0007E4B7F4AB3F90030322BD8BF4FF4AF7325
:1034E0005B4213607B4A136037E07B49097801290E
:1034F0000ED1032C0CD14FF0E022926912F0010F93
:103500000CBF4FF0FF310121744A11701C7024E090
:10351000734E744914BB32880868013292B2052A8E
:1035200032800FD90028B4BF01214FF0FF316E4A1D
:10353000348014806D4A14706D4A14606D4A1170A5
:103540000222C3E76C4B1860624B1A68604B1A602A
:103550005D4B0860B3F900302B60F8BD0023338069
:103560004FF47A735A43654C04FB0020644A126896
:1035700090FBF2F00A2290FBF2F05F4A80EAE074DE
:103580001060604AA4EBE07414605F4AB2F9002056
:1035900042436243642492FBF3F25C4BB3F9003084
:1035A000434393FBF4F31A44594B494CB3F90030AD
:1035B00022609A4202DD1A46236002E05B429A4290
:1035C000F9DB444BC3E7002C7FF47FAF41F2883036
:1035D000504B514A1B88B2F900101BB2C91A4F4A0E
:1035E000002381FB0001FCF7C5FD0A26404ADFF8F5
:1035F00030C113684B49C5F800C018440B683B4FF5
:10360000C3EBC30393FBF6F30B60474B97F800E063
:103610001E681060002E2E4BB8BF7642BEF1000F20
:1036200005D0BEF1010F21D02C601C6095E7B6F5E6
:10363000E17FDCBF4FF4AF742E49C5F800C0D5BFA1
:1036400091F900100C6061431C60D8BF196000281C
:103650003649B8BF404288427FF77FAF00211960EA
:10366000214B1160198001233B7076E7B6F5E17FAD
:10367000DEBF20492E4C91F90010C5F800C0D5BF1F
:1036800061430C6019601C602A490028B8BF4042A1
:1036900088427FF762AF00211960134B11601980D7
:1036A0000223E1E74FF4AF71012C094A296002D1EE
:1036B000002111602AE7094B93F900304B4312E7D0
:1036C000002203E784170020400000203000002083
:1036D0008C170020C00F0020142500200B000020B4
:1036E000BC0F0020881700208217002081170020BF
:1036F000B80F00200A0000209417002018FCFFFFDC
:103700009817002090170020360000203800002075
:103710002A0000207217002004250020B8FF0100B5
:103720001EFBFFFFB4170020C01700208F5F0100B1
:10373000A2FEFFFF1FBF020038B50C4605460188F8
:103740000948FDF7E7FE208069880848FDF7E2FE9A
:103750006080A9880648FDF7DDFEA080E98805485D
:10376000FDF7D8FEE08038BDD8E70008B8E70008CC
:1037700098E7000878E7000837B53D4C3D4A2178C6
:103780001378994272D02378DBB2137023782BB16F
:103790002378012B02D02378022B57D1364804F02E
:1037A00069FC2028FAD1012001F05EFC002001F024
:1037B000D7FA2378D3B90125304C1421162001F013
:1037C000D3FB94E80E002E48009501F0B7FB2221B0
:1037D000242001F0C9FB94E80E002A48009501F06E
:1037E000ADFB03B0BDE8304001F0C6BA2378012B31
:1037F000DDB213D1214C1421162001F0B5FB94E861
:103800000E002148009501F099FB2221042001F0CF
:10381000ABFB94E80E001D480095E0E72378022BEF
:10382000DFD10125154C1421162001F09DFB94E8F1
:103830000E001748009501F081FB2221242001F0A1
:1038400093FB94E80E0013480095C8E72378052BF6
:103850000CD1094804F00EFC2028FAD101F0E8FA56
:10386000012003B0BDE8304001F0FEBB03B030BD25
:1038700014250020980000200827002084D200088A
:10388000F6CE000803CF00080CCF000819CF0008BF
:103890002BCF000838CF000810B594B014220021B7
:1038A0000CA808F0D1F8142200210DEB020008F05A
:1038B000CBF81022002101A808F0C6F802244FF42A
:1038C00080330122CDE91143CDE90A234FF4E013FF
:1038D0000AA80E92139305F04BFA08B172B6FEE7F0
:1038E0000F23CDE905344FF480630790CDE908300C
:1038F000214605A805F0FEFB08B172B6FEE71223CB
:1039000001934FF40043CDE9033001A805F0AEFC6C
:1039100008B172B6FEE714B010BD00000268084B93
:1039200010B59A420AD1074C2078FCF7EFFE2146E9
:10393000BDE810400122044806F085BB10BD00BF61
:103940000038014088200020182500200368074A1D
:10395000934209D11A685B682023012280F8423023
:103960000349044806F06FBB704700BF00380140B0
:1039700088200020182500208D4A2DE9F04F156879
:103980008C4ADFF834A214688C4A85B0B2F900B0D2
:103990008B4ADAF80030B2F9002003900292894A8B
:1039A000B2F9007043EA0502224300F0B2805A21C6
:1039B0000A224B4302FB0B30642390FBF3F04D4390
:1039C0004C430190029802FB074402FB005594FB14
:1039D000F3F495FBF3F5019B7B4ACAF80030744B76
:1039E000B2F900801D60734B1C60784B1B68002B84
:1039F00000F09480434403EBD3735B1000934FF4C7
:103A00008F704FF06409714B009A1A60704A116808
:103A100000FB01F292FBF9F681FB01024FEAE17C27
:103A200000FB0CFC01FB02CC5DA3D3E90023A0FB4F
:103A300001016144FCF79EFB311A664E33889BB24C
:103A4000952B6ED833889BB2272B31D8624B4FF41D
:103A50008F70C3F80080614B5549B3F90020604B6B
:103A6000029C1A605F4B604A1F60232303FB08F32C
:103A7000136093FBF9F3564A0C60136000FB03F4E8
:103A800083FB0302DD1745434A4903FB02550F60E0
:103A9000A0FB030142A3D3E90023CAF800B02944E4
:103AA000FCF768FB94FBF9F4484B211AC3F800803B
:103AB00033889BB2312B0AD9444A4C4B10681A68A0
:103AC000401A10444A4A186013683B441360338814
:103AD00001339BB2338033889BB2962B0DD1642285
:103AE000424B44491B6893FBF2F30B80404B1B682D
:103AF00093FBF2F3404A1BB2138000233F4A13604A
:103B00003F4A13602B4B1A68364B1A6005B0BDE86C
:103B1000F08F3C46029DCDF804B05CE7CDF8008004
:103B20006DE7304B00981A681C60324BA21AB3F94B
:103B300000306443C31A5B1A019905FB05446943CD
:103B400030482F4DB4FBF0F491FBF0F11B1B0B44FC
:103B5000062192FBF1F21344284A0398136013687C
:103B600040F6262203F21351914298BF0023039995
:103B7000DA17A3FB013100FB0211D81841EB010653
:103B8000C01841EB060108A3D3E90023FCF7F2FAC1
:103B900062232C685C4394FBF9F404442C60B5E781
:103BA000420A1B0400000000404B4C0000000000D3
:103BB000A80F0020A40F0020AC0F00200825002033
:103BC00006250020042500200E250020A00F00203F
:103BD000CC170020FA240020C81700200A25002056
:103BE000C41700209C0F0020D0170020980F002041
:103BF000940F00208617002072170020FC2400205C
:103C000000250020285122002DE9F04FAB4A8BB04F
:103C100013781B0740F11D841378A94C23F0080387
:103C200013700522A74BE1881A6063886289ADF89A
:103C300018300B44ADF81C2013440322B3FBF2F3FD
:103C4000ADF81A1006A808A9ADF81E30FFF774FDEC
:103C5000BDF82030BDF920200193BDF82230BDF819
:103C600024B00293984B994E1A80BDF92220984BAC
:103C700098481A80BDF92420974B98491A80DDE9AD
:103C8000013213445B44012BB8BF0123944A0D68F1
:103C90001360B4F90020934B1A80B4F90430924AAF
:103CA0001380B4F90830914A1380B4F90C30B4F998
:103CB0000E2033808E4B04681A808E4B8E4A54EA55
:103CC0000507B3F90030B2F900200DD05F2703EBF0
:103CD000830307FB0433642402EB820207FB052203
:103CE00093FBF4F392FBF4F20A6002F57A62B2F508
:103CF000FA5F88BF2322036084BF53437F4A41F2A7
:103D0000883088BF13607E4BDFF8F8A1B3F900401C
:103D10006FF031035C43832394FBF3F47A4BBAF8DE
:103D200000101C60794B09B2B3F90030784A591A77
:103D3000039381FB00010023FCF71CFA754D6F4BC8
:103D40002F681B680744142043434FF47570724971
:103D50002F600A68224400FB0233704A934246DC1B
:103D60006F4A934245DB4FF47A7293FBF2F364227D
:103D70000B6093FBF2F3DFF8AC916B4FC9F80030A6
:103D80006A4B6B4C1B686B4D059300233B6023789B
:103D9000012BDAB22FD0022A34D02378664A53B1ED
:103DA0002378012B03D1654B1B78022B03D1237899
:103DB000052B40F06481D9F80030002BCCBF0123E3
:103DC0000023137001DD0023059323781BB12378B2
:103DD000052B40F061815A4BD9F800109942594B9C
:103DE00080F25481012119700023059354E1564B50
:103DF000BDE7564BBBE75A46DDE9010105ABFFF7CE
:103E000047FBCAE7DFF8488198F80030032B00F23F
:103E1000D580DFE813F00400AA00E2001A0005AB29
:103E20005A46DDE90101FFF733FB33881BB2B3F5D6
:103E3000FA7FB2DB0122474B1A700023464A3B60EF
:103E40001360032388F80030A7E7434E3368053337
:103E50003360404B93F800A0BAF1000F1FD1DDE9A9
:103E6000010105AB5A46FFF713FB3368B3F5167F24
:103E700003D24FF4167305938FE740F2DB53326899
:103E80009A4201D89623F6E70122344BC6F800A0E7
:103E9000C3F800A0294B1A7088F800A07DE73368AA
:103EA000B3F57A7F02D24FF47A73E4E740F6B73382
:103EB00032689A4254D8FA23DDE700BF92200020EE
:103EC000C824002058000020EA170020DE17002038
:103ED000E8170020C8170020E6170020C4170020AC
:103EE00098170020E4170020E2170020E0170020B8
:103EF000DC1700200E2500200A250020D8170020FE
:103F00000625002072170020D41700200425002069
:103F1000B8FF010078170020D0170020E7ECA43587
:103F200019135BCACC1700208C1700204400002016
:103F300014250020B4170020B60F0020841700209D
:103F400024FAFFFFB50F0020A0BB0D006044F2FF74
:103F50008017002009000020741700207C17002023
:103F60000023964A3360136096E7FA230A220593EA
:103F70002B6841F28830C3EBC30393FBF2F32B6051
:103F8000BAF80030039A1BB2D11A81FB000100235A
:103F90008B4AFCF7EFF8894E8A4AD6F800A05044C5
:103FA00030603368002B3368B8BF5B42934207DD53
:103FB0000023854A33601360844A1370022341E76B
:103FC000834B1B68002BB8BF5B42B3F5E17FCBBFCF
:103FD0000023804B2B603B60DFE67F4B7F480593DF
:103FE0007F4B00681A887F4B7F491B8809681BB28A
:103FF000A3F54873434312B2A2F5487201FB0233A2
:104000007A4A934236DB4CF2B332934235DC642277
:1040100093FBF2F35B423B60029B6C49C72B07DDCD
:10402000019BC72B04DDBBF1C70FC4BF01230B707D
:10403000654B1A6805321A600A782AB941F287324C
:10404000196891427FF6A9AE41F287321968914210
:104050007FF6A3AE029AC72A06DD019AC72A03DDBE
:10406000BBF1C70F3FF799AE002261493A600A7071
:104070001A60E6E64FF4FA73CDE75E4BCBE75E4B92
:104080001B78022B04BF002313709EE611F57A7F84
:10409000C0F28E80002119702378DFF860C1012BF7
:1040A000574E03D02378022B40F00D8155490B78F1
:1040B0000133DBB2072B00F2BF800B704E4B1B7835
:1040C000022B00F0FB80059BB6F900100B44059312
:1040D000C820D9F800E005993D4BDFF82C81A1EB11
:1040E0000E011960D8F8003001F19506A3EB0E031C
:1040F0005843464BB6F5957F18602B6800F2E78071
:1041000001EB81063344424EB342B8BF334649F611
:104110004046B342A8BF33463E4E2B60B6F900601E
:10412000C8F800E073434FF47A7693FBF6F33A4E07
:10413000B6F9006001FB0633384EB6F9006000FBAB
:10414000063342F2107693FBF6F63548CCF8006061
:1041500001602178012907D127490978002900F059
:10416000BB80032900F0B8802178022904D12249BC
:104170000978002900F0B08042F20F7E294973458A
:10418000B1F800C02849098800F31C81DFF89CE0E1
:10419000734580F22F81264BA6EB0C08B3F9003053
:1041A000761AA8EB0308234BB3F90030F61A14E192
:1041B0001B78002B3FF470AF16E600BF7C17002081
:1041C000B8FF01008F5F010074170020B70F0020B7
:1041D000C0170020A2FEFFFF88FAFFFF1C0000208E
:1041E000E2170020E0170020200000204D3CFFFFD8
:1041F000090000200CFEFFFF84170020B0170020EC
:104200009C170020B40F0020B00F0020B81700202A
:10421000C063FFFFAC1700205400002052000020B4
:10422000BC1700204E0000204C000020F1D8FFFFFA
:10423000AA170020A8170020002387480B700168E8
:10424000864B0191B3F90030DCF80010C3F164082B
:104250004B430199DFF808E201FB0833642193FB2B
:10426000F1F380490360B1F900007F49C01A0B687F
:1042700003447345B8BF73464CF2503E7345A8BF24
:1042800073460B607949B1F900104B4342F210714B
:1042900093FBF1F37649B1F9001041434FF47A7082
:1042A00091FBF0F10B4473498B42B8BF0B4640F2CF
:1042B000DC518B42A8BF0B463380FFE600216A4BDE
:1042C0003180196004E70021634B1960F7E70A2683
:1042D000DB0093FBF6F31FE73B68032906EB0308BB
:1042E00018BF6549A6EB030613BF644B40F20233C7
:1042F00040F2EE211B8818BF0988B8F1000F0CDDD1
:104300005F4F4344B7F900809844002E0EDD8B19AF
:104310005C49B1F900601E440EE01FBF584FA8EB86
:104320000303B7F90080A3EB0808EEE704D0731A83
:104330005449B1F900609E1B1378002B69D000230B
:10434000514E2B600360B04641F28830FFF714FBFA
:1043500042F22832D9F8003003F58C5314339342DB
:1043600004D90026B046494B2E601E60484B1A887F
:10437000484B92B2952A1B8854D8002632462E60AC
:1043800059428A42B8BF0A46B342A8BF334626788C
:104390008B42B8BF0B4640484049002E47D0267894
:1043A000012E44D02678022E41D02478052C3ED010
:1043B0000023364A2B6013601A46524202800022C4
:1043C0000A8039E02E4B0CEB0608B3F900300E449E
:1043D00098442C4BB3F900301E443B68002BABD003
:1043E000B8F1000F0FD1002BE04606DA7EB1A8EB42
:1043F000030890E70026B046EFE7CCF10008002E56
:10440000F5D10E46F3E7002EF1D1002BF9DA4E423A
:10441000EDE7234A1278002A96D040F6B8362B6092
:10442000036090E798454246A8BF1A46A8E7002ACD
:10443000C3DD0A8000220280002B9AB219491A4B70
:10444000D5BF52421A800A800023D6BF00220B80BB
:104450001A800BB0BDE8F08FA41700203A000020AE
:10446000B03CFFFF40000020A01700203C000020CF
:104470003E00002024FAFFFF480000204A000020F0
:10448000AA170020A817002048F4FFFF00250020ED
:10449000FA240020500000208C2000208A200020D8
:1044A000B50F0020902000208E20002080B5A74D61
:1044B0009AB001F0D3FBFFF7EFF91022002113A807
:1044C00007F0C2FAAB69002243F01003AB61AB699D
:1044D0004FF4005103F010030493049BAB699C4814
:1044E00043F02003AB61AB69002403F02003059384
:1044F000059BAB69012743F00403AB61AB6902265E
:1045000003F004030693069BAB6943F00803AB6119
:10451000AB6903F008030793079B02F0C1F900227F
:104520004FF400718B4802F0BBF94FF400538848F8
:1045300013A9CDE91337CDE9154602F069F84FF418
:104540000043844813A9CDE91334159402F060F8B0
:104550004FF400737F4813A9CDE91337CDE9154611
:1045600002F056F86B6922463B436B616B6921464A
:104570003B400B200393039B01F052FE0B2001F004
:104580007FFE224621460E2001F04AFE0E2001F059
:1045900077FE224621460F2001F042FE0F2001F057
:1045A0006FFE6D4A6D4B082513604FF48073936066
:1045B0004FF460231046CDE9134415941473147519
:1045C000D3615460156101F099FD08B172B6FEE740
:1045D0000624CDE9130713A95F48159401F022FCC6
:1045E00008B172B6FEE75C4813A9CDE9137601F075
:1045F00019FC08B172B6FEE713960326564813A9B4
:10460000149601F00FFC08B172B6FEE7139604266B
:10461000514813A9149601F005FC08B172B6FEE7E3
:10462000139605264C4813A9149601F0FBFB08B11C
:1046300072B6FEE7484813A9CDE9136401F0F2FB16
:1046400008B172B6FEE713940724434813A91494E3
:1046500001F0E8FB08B172B6FEE73F4813A9CDE9C7
:10466000134501F0DFFB044608B172B6FEE70EAE5B
:1046700001461022304607F0E7F91422214613A81C
:1046800007F0E2F947233648DFF8D8C00AAFC0E99F
:1046900000C3F9230A947C60C0E90334C0E90544EF
:1046A000846004F0C7FF08B172B6FEE74FF480588B
:1046B00031462B48CDF8388005F0A2F808B172B623
:1046C000FEE7CDE9130013A9254805F090F908B1DC
:1046D00072B6FEE7CDE90A003946214805F00CFA2A
:1046E000054608B172B6FEE701461022304607F0D3
:1046F000ABF91422294613A807F0A6F94FF0470991
:104700004FF08043184C0A95C4E9003941F28733D1
:1047100020467D60C4E90335A560A56104F08AFFE9
:1047200008B172B6FEE731462046CDF8388005F074
:1047300067F808B172B6FEE7CDE9130013A9204669
:1047400005F055F990B172B6FEE700BF00100240C7
:1047500000100140000C0140A0270020002401406F
:1047600038260020002C0140F0250020CDE90A0069
:104770003946204605F0C0F9044608B172B6FEE796
:1047800001461022384607F05FF9142221463046D0
:1047900007F05AF91C22214613A85B4D089409948E
:1047A00007F052F9594B2846C5E9003942F20F7318
:1047B0000DF1200AC5E90334AC60AC6104F03AFFA6
:1047C00008B172B6FEE739462846CDF8288005F0D4
:1047D00017F808B172B6FEE7284604F057FF08B193
:1047E00072B6FEE7002331464748CDE90E3305F0A7
:1047F000FEF808B172B6FEE7CDE90800514642481E
:1048000005F07AF9024608B172B6FEE7602315900A
:10481000CDE91330179013A93B4804F08FFF08B17E
:1048200072B6FEE70422384813A904F087FF08B1E6
:1048300072B6FEE70822344813A904F07FFF08B1DE
:1048400072B6FEE70C22304813A904F077FF044645
:1048500008B172B6FEE72C4800F002FE4FF4E133D7
:104860002B482C4DC0E90244C0E900530C230461DD
:10487000C0E90534C46105F0D7F9044608B172B641
:10488000FEE706F039FE24482449254BC0E90244DE
:10489000C0E900134FF48043C0E90644C0E9043482
:1048A000046202F0DBF9044608B172B6FEE710229A
:1048B000014613A807F0C8F847231A4D1A4A0E9468
:1048C000C5E9002342F20F7328467460C5E903343A
:1048D000AC60AC6104F0AEFE08B172B6FEE74FF416
:1048E0008053284613A9139304F08AFF08B172B6C7
:1048F000FEE7002331460B48CDE90E3305F0FCF806
:10490000044698B172B6FEE7A825002000040040D6
:1049100018250020003801400827002000580040DA
:10492000801A06006025002000080040544806F068
:104930006DFE544804F088FD534804F085FD53484B
:1049400004F082FD2146514805F0D4F804214F4877
:1049500005F0D0F808214D4805F0CCF80C214B4863
:1049600005F0C8F84FF400510122494801F098FFC2
:10497000484800F0EFF9484800F0E6F9474800F0F1
:10498000DDF900F07DFB204600F06EFB444800F0AE
:10499000CDF8444800F0D0F8434800F0D3F800F0D8
:1049A000EFF8424A424B10461360424B5360424B71
:1049B0009360FBF753FF4148FCF7C2FC4048FCF70B
:1049C000B9FC01223F49404805F03DFB40F6B832B2
:1049D0003E4B3F491C703F4B3F481C703F4B1A8079
:1049E00001223F4B1A70FBF7BFFD3E4B3E4A3F4949
:1049F0003F4800F010FF3F4B3F4A4048404900F01D
:104A00000AFF404B404A1C70404B41481C80414BC0
:104A10001C80414B1C80414B1C80FEF775FBD2F87B
:104A2000FC3043F08073C2F8FC303D4B5C601A6888
:104A30003C4C42F001021A600190FEF7D9FB23784A
:104A4000052B08D0FBF776FFFEF7B6FA01222C49BA
:104A50002A48FDF7A7FD002224492548FDF7A2FDBD
:104A6000FEF78AF8FDF7E2FFFFF7CEF80198FEF7B0
:104A700053FB0198FEF75EFCFEF77EFEDDE700BF0C
:104A80004D13000838260020F0250020A82500201E
:104A900000100140112500208D130008B5130008F7
:104AA00010250020B1130008D11300087C2000203D
:104AB00079130008ED130008211400080D140008F4
:104AC0008D1400088820002018250020EF1F0020EA
:104AD00041CF0008ED1700204ACF00085C000020FD
:104AE000EC1700209823002098220020BC240020EE
:104AF000B024002098210020982000209824002035
:104B0000A42400209220002000ED00E0902000204E
:104B1000722000208C2000208E2000208A2000207F
:104B2000001000E01425002072B6FEE7014B18606B
:104B3000704700BF00280020014B1860704700BF7D
:104B4000FC270020014B1860704700BFF8270020A9
:104B5000044A10B414680B46A44601460122D02032
:104B600010BC6047FC2700201346044A10B41468A8
:104B7000CAB2A446014610BCD0206047F8270020E6
:104B800013B500240DF107006B218DF80740FFF7E6
:104B9000DFFF04230DF1070019218DF80730FFF71F
:104BA000D7FF02230DF107001A218DF80730FFF718
:104BB000CFFF0DF107001C218DF80740FFF7C8FF5C
:104BC0001B210DF10700FFF7C3FF02B010BD00006D
:104BD0000122044B1A70044B1B680BB100221A709F
:104BE000704700BF990000200028002008B51A4B2C
:104BF00019681A4B08781A7818B9012A23D00020AE
:104C000008BD0020012A08701DD0022AF7D101201A
:104C10001870134B13491A88D2BA0A605A8812497D
:104C2000D2BA0A609A881149D2BA0A601A89104920
:104C3000D2BA0A605A890F49D2BA9B890A600E4AD1
:104C4000DBBA1360DCE702220E211A7004483B2213
:104C5000FFF78AFFD3E700BF00280020990000205B
:104C6000D0270020F4270020F0270020EC27002088
:104C7000E8270020E4270020E027002070B5DDE9C8
:104C8000045410B10B4E3668068011B10A48006812
:104C9000088012B109490968118013B1084A1268E5
:104CA0001A8015B1074B1B682B8014B1064B1B688B
:104CB000238070BDF4270020F0270020EC2700207F
:104CC000E8270020E4270020E027002013B5064B4A
:104CD0008DF807001C680122002378200DF10701E0
:104CE000A04702B010BD00BF102C002013B5064B2A
:104CF0008DF807001C680122002378200DF10701C0
:104D0000A04702B010BD00BF0C2C0020044B10B413
:104D10001C68CAB2A44601464023782010BC6047F4
:104D2000102C0020044B10B41C68CAB2A4460146E3
:104D30004023782010BC60470C2C0020014B1860E9
:104D4000704700BF0C2C0020014B1860704700BF5B
:104D5000102C0020014B1860704700BF142C00205D
:104D600000284FF4806214BFFF210021014806F0A3
:104D70006BBE00BF0A28002038B5B0240A4D20467B
:104D8000FFF7A4FF0020FFF7A1FF01341020FFF779
:104D90009DFFE4B228468021FFF7B8FFB82C05F14B
:104DA0008005ECD138BD00BF0A28002038B51C4B67
:104DB0001C4C1A682378117819B9012B0AD00020ED
:104DC00038BD0021013B1170032BF8D8DFE803F058
:104DD000020B1015144B18785038C0B2FFF786FF3D
:104DE00002232370EBE70020FFF780FF0323F8E79F
:104DF0001020FFF77BFF0423F3E70B4D0B4B2878C4
:104E0000802103EBC010FFF78DFF01202B7820706D
:104E10000133DBB2072B2B70D1D900232B70CFE7E6
:104E2000142C00209A0000200A2C00200A280020C0
:104E30000022054B1A700122044B1A70044B1B68A8
:104E400003B11A70704700BF0A2C00209A0000209E
:104E5000142C0020030630B510D43F290ED80124AD
:104E6000CB08074D00EBC3102B5C01F0070104FADF
:104E700001F1A2420CBF0B438B432B5430BD00BF4A
:104E80000A2800202DE9F04F044689B008A800E95F
:104E90000E009DF84830A4F120050293EBB25E2B82
:104EA00047D8079B23B3234413F8206C224AB2F857
:104EB000009009EB0603802B3BDC53889DF815B06E
:104EC000019303EB0B02402A33DC029B4FF00008F6
:104ED000B3FA83FA0BFB05F54FEA5A1A6D00C34586
:104EE00009D8154B4E441E80204609B0BDE8F08F0E
:104EF0009DF81460DAE70027069A535B0493019B40
:104F000008EB0302D3B20393BE4203D808F10108B1
:104F10000235E4E7049B07EB090003FA07F21304E8
:104F200054BF5246029A0399C0B2FFF793FF01376C
:104F3000EAE70024D8E700BF0428002070B586B057
:104F400003AC84E80E009DF82860451E15F8010F9B
:104F500040B1009694E80E00FFF794FF03462878CE
:104F60008342F3D006B070BD014B18805980704762
:104F7000042800202DE9F74F9046A8EB0009A3EB89
:104F8000010AB9F1000F1E46B8BFC9F10009BAF114
:104F9000000FB8BFCAF1000A804594BF4FF0FF333D
:104FA000012305460C468E4294BF4FF0FF3B4FF065
:104FB000010B404631469DF830200093A9EB0A07CB
:104FC000FFF748FFCAF10003454504D1B44202D1BE
:104FD00003B0BDE8F08F214628460193FFF73AFF62
:104FE000019B7900B3EB470FBFBF0098A7EB0A07FF
:104FF0002D18EDB28945C2BF5C444F44E4B2E3E7EB
:105000002DE9F0411446A042804628BFA046A042A8
:10501000064638BF264699420C4628BF1C46994290
:1050200038BF19460F469DF81820BC4201D83F2CC6
:1050300001D9BDE8F081454607E02B0607D4284694
:105040002146FFF707FF0135EDB2B542F5D901342E
:10505000E4B2EAE710B504468120FFF737FE2046A8
:10506000BDE81040FFF732BE034628B10123AF2050
:10507000024A5371FFF72ABEAE20F9E70428002048
:1050800008B5642000F00EFE0020FFF7EDFF2020A1
:10509000FFF71CFE0020FFF719FEB020FFF716FEF9
:1050A000C820FFF713FE0020FFF710FE1020FFF7C7
:1050B0000DFE4020FFF70AFEFF20FFF7CBFFA120E7
:1050C000FFF704FEA620FFF701FEA820FFF7FEFD74
:1050D0003F20FFF7FBFDA420FFF7F8FDD320FFF7EB
:1050E000F5FD0020FFF7F2FDD520FFF7EFFDF020E2
:1050F000FFF7ECFDD920FFF7E9FD2220FFF7E6FDE1
:10510000DA20FFF7E3FD1220FFF7E0FDDB20FFF7D9
:10511000DDFD2020FFF7DAFD8D20FFF7D7FD1420FD
:10512000FFF7D4FD0120FFF79FFF0020FFF718FED7
:10513000FFF722FE0022034B1A805A8001221A71C7
:1051400008BD00BF042800200E4B82B09A6942F0CF
:1051500001029A619A6902F001020092009ADA69EA
:1051600042F08052DA61DB69074A03F08053019311
:10517000019B536823F0E06343F08063536002B007
:10518000704700BF001002400000014030B50546E6
:1051900087B01022002102A806F056FC2A68204B96
:1051A0009A423BD103F56C439A691E4842F400725F
:1051B0009A619A6902A902F400720092009A9A69AF
:1051C000194C42F004029A619B69FF2203F0040328
:1051D0000193019B0323CDE9022301F019FA8020FA
:1051E0004FF480720023C4E903024FF480620F4938
:1051F0002046C4E90013C4E90523A360E36101F07C
:1052000073F808B1FFF790FC002212202C621146BF
:10521000656201F005F8122001F032F807B030BDE8
:1052200000240140000801405C27002008000240E3
:1052300030B5054687B01022002102A806F004FC14
:105240002A682E4B9A4256D12D4C4FF44061A369E7
:105250002C4843F00803A361A36903F008030093FB
:10526000009B1223CDE90213032302A9059301F049
:10527000CFF9E369802243F48003E361E3692248C4
:1052800003F480030193019B0023204CC4E9000335
:105290002046C4E90323C4E90533A360E36101F0B8
:1052A00023F808B1FFF740FC1023194AAC6365628C
:1052B000184CC4E90023002380222046C4E90232AE
:1052C000C4E90433C4E9063301F00EF808B1FFF76E
:1052D0002BFC0022212011466C63656200F0A0FFC8
:1052E000212000F0CDFF00222220114600F098FF7F
:1052F000222000F0C5FF07B030BD00BF00580040BD
:1053000000100240000C014058000240C42600205A
:1053100044000240802600200268114B10B59A42DA
:1053200004461CD10F4A4FF48061D3690E4823F420
:105330008003D36101F040FA4FF400610A4801F0A4
:105340003BFAA06B01F000F8606B00F0FDFF21203C
:1053500000F0A4FFBDE81040222000F09FBF10BD68
:105360000058004000100240000C01401FB50368C7
:10537000374A93422CD1374B18209A6942F4006285
:105380009A6100229B69114603F400630093009B1D
:1053900000F046FF182000F073FF0022192011468C
:1053A00000F03EFF192000F06BFF00221A2011468A
:1053B00000F036FF1A2000F063FF00221B20114688
:1053C00000F02EFF1B2005B05DF804EB00F058BF85
:1053D000B3F1804F11D103F50433DA691C2042F098
:1053E0000102DA610022DB69114603F00103019337
:1053F000019B00F015FF1C20E5E7174A934210D1EE
:10540000144B1D20DA6942F00202DA610022DB69E6
:10541000114603F002030293029B00F001FF1D20DE
:10542000D1E70E4A934210D10A4B1E20DA6942F0AE
:105430000402DA610022DB69114603F004030393DE
:10544000039B00F0EDFE1E20BDE705B000BD00BFD0
:10545000002C014000100240000400400008004001
:1054600010B5044686B01022002102A806F0ECFA1E
:105470002268114B9A421CD103F503339A690F48F5
:1054800042F008029A619B69332203F008030193FA
:10549000019B022302A9CDE90223059301F0B8F88C
:1054A000074A536823F4406343F0E06343F4006326
:1054B000536006B010BD00BF00040040000C014066
:1054C0000000014010B5044686B01022002102A859
:1054D00006F0BAFA22681B4B9A4230D103F55843C2
:1054E0009A69194842F480429A619A6902A902F4C1
:1054F00080420092009A9A69002442F004029A6164
:105500009B694FF4007203F004030193019B022393
:10551000CDE902230323059301F07AF84FF4806369
:10552000094802A9CDE90234049401F071F825205C
:105530002246214600F074FE252000F0A1FE06B0B0
:1055400010BD00BF0038014000080140FEE7FEE743
:10555000FEE7FEE7FEE770477047704700F090BB3C
:10556000014800F0BDBF00BF5C270020014800F0EB
:10557000B7BF00BF80260020014800F0B1BF00BFC8
:10558000C4260020014800F0CDBB00BFA0270020AA
:10559000014802F003BE00BF1C3B0020FFF7F8BF2C
:1055A000014803F080BF00BF38260020FFF7F8BF96
:1055B000FFF7F6BFFFF7F4BF014803F074BF00BF69
:1055C000F0250020014803F06EBF00BFA825002091
:1055D000014803F068BF00BF60250020014802F0C9
:1055E0004FB800BF08270020014802F0A3BC00BF4D
:1055F00008270020014804F0C3BB00BF1825002085
:105600000A4A0346106810B508B9094810600949EC
:10561000094C0344091B8B4206D906F059FA0C23A6
:1056200003604FF0FF3010BD1360FCE7182C002022
:10563000403F002000500020000400007047034657
:10564000002030B5187258791C68451C5D715525CD
:10565000987125545879DC7901322040451C5D71E0
:105660004E251C68D2B225545879DC792040451C5F
:105670005D7145251C6825545879DC792040451C0E
:105680005D7152251C6825545879DC7920401C68CE
:10569000451C5D7122545879DC794A402040451CF4
:1056A0005D713A251C6825545879DC7920401C68C6
:1056B000451C5D7121545879DC79204058710720D0
:1056C0005872187A504080F03600187230BD034688
:1056D00010B5427A013242725A790068541C5C71EA
:1056E00081545A79D87902405A711A7A81EA0200B3
:1056F000187210BD002337B58DF807309DF80730BC
:10570000CB5C13B9007A03B030BD437A9DF80740F3
:1057100001334372437902685D1C45710C5DD454BA
:105720004379C27913409DF807204371531CDBB2C3
:105730008DF807308B5C027A53400372DEE7034634
:1057400010B5C47980790144214018689971405C92
:1057500011440C409C7110BDF0B50024052645791C
:105760000379AB4201D10020F0BD827A072A50D8DC
:10577000DFE802F0040F1C22282D4F3E0268D25CA5
:10578000552A01D101228272C2790133134003717B
:10579000E6E70268D25C4E2A01D10222F3E7552ADD
:1057A000F2D000228272013BDBB2EDE70268D25CEC
:1057B000452A1BD10322E6E70268D25C522A15D1A2
:1057C0000422E0E70268D25C86724272DCE702687B
:1057D000D25C3A2A0AD10721C2798172591C0A4047
:1057E0008271427A82F036020272CDE78472DAE781
:1057F000427A0768013AD2B2017A42721AB1FA5C6F
:1058000051400172C0E78272FA5C8A42BCD1012029
:10581000AAE78472B8E710B502604FF07F44002217
:10582000446002818272C1E900340A818A7210BD2B
:105830002DE9F04F384C394A23780020D7564033B1
:10584000DBB212F90380364B8BB01B7812F9039050
:105850004033DBB212F903A0324B1B78D5564033EC
:10586000DBB2D656FFF77CFA00202F4902AAB1F925
:1058700002B0B1F904C00BFB08F30CFB08FE0CFBF3
:10588000173331F906CB0BFB07EE0AFB0CFC4FEA92
:10589000EE1E09FB0ECC4FEAEC1C0CFB06FEDB11E6
:1058A00003FB15EE73430CFB05334FEAEE1EDB11D1
:1058B00001300EF1400E20330828A2F800E053809A
:1058C00002F10402D3D100260127184D0AAB0AA920
:1058D000D5E9000203EB820201EB800012F81E3CC6
:1058E00010F81E1C12F8202C10F8200C013600971E
:1058F000FFF740FB0C2E05F10805E7D12378084A95
:1059000002332370137801331370064A137803337C
:1059100013700BB0BDE8F08F292C0020CCEA0008F2
:10592000282C0020272C00209CEA00083CEA0008D4
:105930002DE9F04F3E4B3F4A1B780020D4564033B0
:10594000DBB2D5563C4B93B01B7812F90380403341
:10595000DBB212F90390394B1B78D6564033DBB2D9
:10596000D756FFF7FDF94FF0000C354902A8B1F901
:105970000020B1F906E002FB07F3B1F904A00EFB29
:1059800016330EFB07FE0AFB05FB02FB06EEDB11DE
:10599000B1F9022003FB04BB09FB02F26B434FEA9F
:1059A000EB1B08FB1B220AFB14334FEAEE1ECEF161
:1059B000300ED211DB110EFB02F20EFB03F392113B
:1059C0009B110CF1010C40332032BCF1100F03800D
:1059D000428001F1080100F10400C8D10025012630
:1059E000184C12AB12A9D4E9000203EB820201EBBE
:1059F000800012F83E3C10F83E1C12F8402C10F8C3
:105A0000400C01350096FFF7B5FA202D04F108048B
:105A1000E7D1074A137801331370074A137801332B
:105A20001370064A13780233137013B0BDE8F08F79
:105A3000262C0020CCEA0008252C0020242C002055
:105A4000BCE90008BCE800082DE9F04F384C394AA1
:105A500023780020D7564033DBB212F90380364B4F
:105A600089B01B7812F903904033DBB212F903A01E
:105A7000324B1B78D5564033DBB2D656FFF770F960
:105A800000202F4903AAB1F902B0B1F904C00BFB01
:105A900008F30CFB08FE0CFB173331F906CB0BFBAC
:105AA00007EE0AFB0CFC4FEAEE1E09FB0ECC4FEA98
:105AB000EC1C0CFB06FEDB1103FB15EE73430CFB29
:105AC00005334FEAEE1EDB1101300EF1400E20339C
:105AD0000528A2F800E0538002F10402D3D1002689
