:020000040800F2
:1000000000500020B93A0008D5370008D73700085B
:10001000D9370008DB370008DD3700080000000092
:10002000000000000000000000000000DF370008B2
:10003000E137000800000000E3370008E53700085A
:10004000013B0008013B0008013B0008013B0008A0
:10005000013B0008013B0008013B0008013B000890
:10006000013B0008013B0008013B0008E93700089C
:10007000013B0008013B0008F53700080138000883
:10008000013B0008013B00080D3800081938000842
:1000900025380008013B0008013B0008013B00082F
:1000A0002938000835380008393800083D3800087C
:1000B000413800084D38000859380008013B000855
:1000C000013B00086538000871380008013B000852
:1000D000013B00087D380008013B0008013B000897
:1000E000013B0008013B0008013B00080000000044
:1000F0000000000000000000000000000000000000
:0C01000000000000000000005FF808F1A3
:10010C0010B5054C237833B9044B13B10448AFF345
:10011C0000800123237010BD50020020000000005D
:10012C00C8A2000808B5034B1BB103490348AFF341
:10013C00008008BD0000000054020020C8A2000886
:10014C00034613F8012B002AFBD1181A013870470B
:10015C0000220A4930B50B88094D013810F8014FBF
:10016C0014B902B10B8030BD5A1C92B2B2F5806F3B
:10017C00EC5414BF134600230122EFE77E0200204B
:10018C0086020020074A10B51188074C4B1C9BB205
:10019C00B3F5806F138008BF0023605408BF138031
:1001AC0010BD00BF7E0200208602002038B500245E
:1001BC000D460E4B01461C700D4B3F220D481C701A
:1001CC0009F0BCFB0B4B1F2229460B4883F83F4020
:1001DC0009F0B4FB3222084BDC77084B1A6014226E
:1001EC00074B1A70074B1C7038BD00BF700B0020FA
:1001FC008A0A0020170B0020F70A00206C0B002045
:10020C00710B00207C020020014B1878704700BF56
:10021C00890A0020194B70B55B6806460D461446DA
:10022C003BB347F2305316491648002A08BF1C4608
:10023C0009F0DAFB0F223146134809F07FFB00234B
:10024C00114A1249D37328460A2209F0F5FA0A22F8
:10025C0020460F4909F0F0FA0E4B1B7863B10E4B98
:10026C00187810F0020003D0102206200B4B1A70E5
:10027C0070BD4FF0FF30FBE70120F9E77002002062
:10028C00E0A2000805000020E70A0020E10A002097
:10029C00CB0A0020170B0020700B0020710B0020E4
:1002AC00064B5B683BB1064B1B7813F0400F0CBF41
:1002BC000520072070474FF0FF3070477002002078
:1002CC00700B0020074A10B51188074C4B1C9BB2D1
:1002DC00B3F5806F138008BF0023605408BF1380F0
:1002EC0010BD00BF84020020860600202DE9FF47C8
:1002FC001F463D4B04465B6888461546BDF830905A
:10030C00002B6CD0394EDFF8E8A033789AF8001047
:10031C0003F040020A4365D01B0758D40A2201A9F6
:10032C00384609F089FA01A8FFF70AFF421ED2B23B
:10033C00032A4AD82F48FFF70BFF9AF8003053B125
:10034C000A226946204609F077FA6846FFF700FF53
:10035C002C20FFF717FF01A8FFF7FAFE2648FFF73E
:10036C00F7FE002211462548DFF894C0038894B2AA
:10037C00A74216D801B103803378224C23F00C032A
:10038C0043F00C03337023683BB11F489847236834
:10039C0001A8984723681D489847092004B0BDE878
:1003AC00F0875C1CA4B2B4F5806F08BF0024691CF4
:1003BC0018F8055089B20CF803500132494514BFA6
:1003CC000D46002523460121D1E70B20E6E70D4B16
:1003DC001B680BB90820E1E70D489847FAE74FF086
:1003EC00FF30DBE70520D9E770020020700B0020FE
:1003FC008A0A0020E3A80008E4A200087E0200207C
:10040C0086020020580B0020E7A20008B5A40008C3
:10041C00FAA2000802460F4B0068516803C39068AB
:10042C000D4A1860002313700C4A13700C4A138089
:10043C000C4A13800C4A13800C4A13800C4A13701C
:10044C000C4A13700C4A13700C4A13600C4A13605C
:10045C00704700BF70020020710B0020880A00203A
:10046C00800200207E0200208202002084020020F4
:10047C00700B00208A0A0020890A00205C0B0020E7
:10048C00580B0020114A13680BB1013B1360104A42
:10049C00136823B1013B13600BB90E4A13700E4A5B
:1004AC0013680BB1013B13600C4A13686BB1013B31
:1004BC00136053B90A490A78100706D563F3C302CF
:1004CC00084B0A701A88084B1A8070476C0B002076
:1004DC00680B0020880A0020640B0020600B0020B1
:1004EC00700B00207E020020800200202DE9F84FC6
:1004FC00A54AA64EB2F800B0338800255B4506D05D
:10050C00A34F3A78143A022A27D8A6F800B0A14E85
:10051C00A14C3368002B40F06D8264239C4D3360FA
:10052C002B78162B00F26682DFE813F04404AD0240
:10053C00C602CC02DA02E002E902EF0202030D036A
:10054C003E034803520383038C039D03AC03FE0359
:10055C003B04410459029802A70202228F49904C95
:10056C000A609B45D3D08F4AD05C22780D2A00F2CA
:10057C003182DFE812F00E005500CC002F022F0262
:10058C00A501BA01C301D0012F02EB0108021A0226
:10059C00F901002304219846DFF80CC2834ADFF8E6
:1005AC0010928CF8003011705FFA83FE59F82E10FF
:1005BC00D1B9B8F1000F01D08CF800E00022774BD4
:1005CC0075491A600B7813F0010F00F092803E28E9
:1005DC0040F08F8062F300030B70764B1A604FF47F
:1005EC009672754B1A6084E091F804A00133824531
:1005FC0013D1B8F1000F01D08CF800E00B784978DA
:10060C00303B313903EB830301EB43036B490B8024
:10061C0001232370052313706BE04FF00108C3E72F
:10062C00DFF884C162499CF8002051F822205F4910
:10063C00097812F801E0864514D1DFF880C1BCF8C6
:10064C000030013B9BB2ACF800300BB10D284DD102
:10065C009378D278303B03EB8303303A02EB4303BD
:10066C00237046E000229146C1F57F4A8CF80020A9
:10067C000AF1D30ADFF838C15FFA82F85CF828C0B7
:10068C00BCF1000F0CD1B9F1000F04D04B4A15800E
:10069C00454A82F800800022013B2270338028E01A
:1006AC009CF800E09CF80150AEF1300E0EEB8E0E73
:1006BC00554405EB4E05ADB27F2D24D81CF801E056
:1006CC00864520D13D4B1D80B9F1000F02D0364B31
:1006DC0083F8008055B99CF802309CF80320303B1D
:1006EC0003EB8303303A02EB430323702F4B0131AE
:1006FC001970338801339BB2B3F5806F338004BF1C
:10070C00002333802DE74FF001090132B2E70A28AC
:10071C00EFD100232370244B1B78023B0F2BE8D81E
:10072C0001A252F823F000BF75070008CD0700089E
:10073C00E9070008FF060008130800081308000862
:10074C00410800084B080008690800084108000827
:10075C00FF06000893080008FF0600089D08000823
:10076C00A9080008A90800083A78082AC1D84FF44B
:10077C00AA73D340DB07BCD50022064B1A60064A8D
:10078C00137843F0200346E7840200208202002005
:10079C00710B00206C0B0020700B0020680B0020EC
:1007AC00880A0020860600206D0200206C020020C2
:1007BC0064A70008640B0020600B0020860A002050
:1007CC00944A1378180794D523F009031370924BAD
:1007DC001A88924B1A80924B002203E73B780D2B20
:1007EC0087D100228F4B1A608A4A137823F0220398
:1007FC0043F0220313708C4B1B68002B3FF479AF32
:10080C000320984775E7834A137823F0420313704B
:10081C003B780E3B052B3FF66CAF834B1B680BB143
:10082C0000209847814B1B78002B7FF462AF162376
:10083C003B705EE7774A137823F04003EBE6754A8A
:10084C00137823F0080313700022754B1A60764B53
:10085C001B68002B3FF44DAF0A20D2E7734B1B787B
:10086C00002B7FF446AF6F4A13606A4A137823F06B
:10087C00600343F0600313706B4B1B68002B3FF459
:10088C0038AF0720BDE7634A137823F04203C2E672
:10089C00604A137823F042031370C8E75D4A13785B
:1008AC00190706D523F0090313705B4B1A885B4BB1
:1008BC001A803B78013B0D2B3FF61BAF594B8BE756
:1008CC005B4A2C28126807D106232370002A3FF4B8
:1008DC0010AF584890470CE70021013B2170338042
:1008EC00002A3FF406AF5448F4E722287FF401AF06
:1008FC00072300222370514B1A80FAE6222803D0DA
:10090C004E4A1388102B01D10823A9E6591C1180DB
:10091C004B4AD054EDE60A287FF4EBAE0023474A4D
:10092C0023701188464A0F299BBF535439491370C1
:10093C000A789FBF42F020020A703A4A13603A4B81
:10094C001B68002B3FF4D5AE04205AE72C287FF40B
:10095C00A2AE364B1B782BB10D2300222370394BE2
:10096C001A70C6E60B23C4E72C28FBD0A0F130028A
:10097C00092A3FF690AE334A137803EB830300EB5E
:10098C004303303B47E63A2801D10C2368E6A0F13B
:10099C003002092A3FF67FAE284A138803EB830303
:1009AC0000EB4303303B1380A3E6274B9B6803B15A
:1009BC009847224A1388013B9BB21380002B7FF48B
:1009CC0098AE23701A4B1B68002B3FF492AE1F4855
:1009DC0098478EE600231E4A2370136089E61A4B53
:1009EC0000201B689847124B1B680BB1194898479D
:1009FC0015232B702378DA0740F1E581164A12682B
:100A0C0032B9054A23F009031188044A2370118076
:100A1C00BDE8F88F700B00207E02002080020020C1
:100A2C00600B00206C0B00205C0B00208A0A00205D
:100A3C00580B002012A3000827A30008860A0020E8
:100A4C00D10A0020890A0020700200203BA3000874
:100A5C00680B00204EA30008640B0020914B012072
:100A6C001B689847904B1B680BB19048984716230E
:100A7C002B704FF4FA733360BCE7012300222B7008
:100A8C008B4B1A70B6E78A4A13782BB1013BDBB259
:100A9C0013701BB91423ACE7042313702378854817
:100AAC0023F020032370FFF753FB7F4B1B680BB124
:100ABC008148984702239CE723789E0640F1758174
:100ACC00032396E77D48FFF743FB774B1B680BB17D
:100ADC007B489847237823F020032370042388E76E
:100AEC002378980640F16181052382E77548FFF76A
:100AFC002FFB237823F020032370062379E7237838
:100B0C00990640F15281072373E76F4B1B786BB149
:100B1C006E48FFF71DFB644B1B680BB16C48984784
:100B2C00237823F020032370082362E76948F0E759
:100B3C0023789A0640F13981634B1B78002B0CBF4C
:100B4C000C23092355E76448FFF702FB2220FFF72B
:100B5C0019FB6248FFF7FCFA2220FFF713FB2C204D
:100B6C00FFF710FB2220FFF70DFB5D48FFF7F0FAB3
:100B7C002220FFF707FB2C20FFF704FB5948FFF757
:100B8C00E7FA2C20FFF7FEFA5748FFF7E1FA0D20A1
:100B9C00FFF7F8FA0A20FFF7F5FA434B1B680BB185
:100BAC00524898470A2324E75148FFF7D1FA3E4BA5
:100BBC001B680BB14F4898470B231AE74E48FFF7B9
:100BCC00C7FA394B1B680BB14C489847132310E7F5
:100BDC004B4F3B78002B3FF40DAF4A48FFF7B8FA68
:100BEC002220FFF7CFFA3846FFF7B2FA2220FFF7A0
:100BFC00C9FA2C20FFF7C6FA2220FFF7C3FA4248A5
:100C0C00FFF7A6FA2220FFF7BDFA0D20FFF7BAFA7C
:100C1C000A20FFF7B7FA244B1B680BB13B489847E7
:100C2C00237823F0200323700D232B7040F2DC5328
:100C3C0021E723789B0640F1B8800E2304222B7009
:100C4C001B4B1EE70022324B32481A70FFF780FA1A
:100C5C00154B1B680BB130489847237823F02003C1
:100C6C0023700F23C5E623789F0601D51023C0E619
:100C7C000F4A1378013BDBB21370002B00F0958008
:100C8C000E23B6E6254B1B78002B3FF4B3AE24485D
:100C9C00FFF75EFA044B1B680BB1224898471123EF
:100CAC00A7E600BF70020020580B002064A30008C8
:100CBC007C0200202DA900087AA300081FA90008B7
:100CCC0088A300089CA300088A0A0020AEA3000891
:100CDC00CAA30008BCA30008D5A80008AB0A0020D2
:100CEC008B0A00200200002000000020DEA3000878
:100CFC00C1A80008F1A30008ADA8000805A40008CD
:100D0C00170B002015A90008F70A00201CA40008E6
:100D1C00D10A00200AA900082FA40008E70A002025
:100D2C00EFA8000840A400083C48FFF711FA222065
:100D3C00FFF728FA3A48FFF70BFA2220FFF722FABE
:100D4C002C20FFF71FFA2220FFF71CFA3548FFF77B
:100D5C00FFF92220FFF716FA2C20FFF713FA32487E
:100D6C00FFF7F6F92C20FFF70DFA3048FFF7F0F9F2
:100D7C002C20FFF707FA3020FFF704FA0D20FFF7BD
:100D8C0001FA0A20FFF7FEF9294B1B680BB1294821
:100D9C009847237823F06003237012232B70C82309
:100DAC0069E623789E063FF511AF012321E6224B1D
:100DBC001B780BB100235EE623789807F5D559060E
:100DCC007FF554AFF6E71D4D1D492A8809889142DD
:100DDC003FF41EAE1B4E5F07B05C02D53E2808BF29
:100DEC000A20194B5B68984700283FF411AE227813
:100DFC002B8851070AD5F15C3E2907D1322122F00C
:100E0C00050242F001022270104A116001339BB2BC
:100E1C00B3F5806F08BF00232B80F9E5FDA800080F
:100E2C0005000020E70A0020E10A0020CB0A002080
:100E3C00580B002056A400088A0A002080020020CB
:100E4C007E0200208602002070020020640B00202D
:100E5C00014B1860704700BF5C0B0020014B186001
:100E6C00704700BF580B00200022F0B5084BD4B2DD
:100E7C00A14202F1010200D8F0BD5D791E686F1C21
:100E8C005F71045D74555C79DD792C405C71EEE723
:100E9C0008120020021E18BF01224FF400710148F5
:100EAC0003F070BC000C01401FB514461A464FF0FD
:100EBC00FF330091CDE9014301460123024803F0C1
:100ECC0001FF04B010BD00BF34140020FFF7ECBFCD
:100EDC0013B514461A46CDE9001401230146024805
:100EEC0003F080FF02B010BD3414002013B514467B
:100EFC001A46CDE9001401230146024804F038F8E3
:100F0C0002B010BD3414002007B501228DF8070083
:100F1C000DF10701034806F028FEB0FA80F04009F5
:100F2C0003B000BD4412002010B50446FFF708F9C9
:100F3C0081B22046BDE8104008F0C4BA10B5164B7B
:100F4C001B78F3B115490C78FF2C15D07E2C144B63
:100F5C0013D818550020621CD2B2012A0A7098547A
:100F6C000AD0134413F8022C0D2A05D113F8013CB6
:100F7C000A2B01D1FF230B7010BD00220A701A70CE
:100F8C00FAE7084B5A791968541C5C7188545A79E1
:100F9C00D9790A405A71EFE7270D0020280D00205F
:100FAC00290D0020F0110020032810B5174C12D188
:100FBC000C21174B17481A78174B01FB02330F22E1
:100FCC00996808F0BBFC0023124A2370D3730122EA
:100FDC00124B1A7010BD124B22781B781343184316
:100FEC00C0B20028F6D1012340F6B8320C21237090
:100FFC000C4BBDE810401A80054B074A1B784B433D
:10100C00D1184968D058FFF7D1B800BFD00B0020D9
:10101C00D10B00203200002014BE0008D20B00209F
:10102C00270D00202E000020054B064A03F110016D
:10103C0053F8040B8B4242F8040BF9D1704700BFF4
:10104C0030120020201200200122014B1A70704730
:10105C00E70D00200122014B1A707047E60D0020AD
:10106C0038B502681A4B04469A4212D1194A1A49E9
:10107C0013781A480133DBB2282B01BF00231370FD
:10108C00174A137808BF43F080031370082202F04C
:10109C00F5FE2368B3F1804F18D101221149124893
:1010AC000B78124CE2541344027803F00F03013A0C
:1010BC0012F0FF0208BF05250B7003BFE254013389
:1010CC0003F00F03027004BF05700B7038BD00BF36
:1010DC00002C01404012002030120020CC140020C3
:1010EC00E80D0020C80D002043000020C90D002091
:1010FC00F0B5026883790C46D15C0546B22989B0FB
:10110C0018D89F291CD9A13911291FD8DFE811F053
:10111C00280038008400D300F100650182010E0123
:10112C002B0148019F018F02AC02C902E6020303A6
:10113C002003E201F02900F0EA81F12900F04D8250
:10114C000222204602F0B9FBFF2105E0A021022279
:10115C00204602F0B2FB0D21204602F0F6FB08E01F
:10116C00A1210D22204602F0A8FB2046C84902F01E
:10117C00FFFB2046217A09B0BDE8F04002F0E5BB48
:10118C000D22A221204602F098FBC24BC24DB3F9AE
:10119C00001020462980C9B202F0D7FB697820469E
:1011AC0002F0D3FBBD4B2046B3F900102980C9B225
:1011BC0002F0CBFB6978204602F0C7FBB84B204607
:1011CC00B3F900102980C9B202F0BFFB6978204640
:1011DC0002F0BBFBB34B2046B3F900102980C9B217
:1011EC0002F0B3FB6978204602F0AFFBAE4B204611
:1011FC00B3F900102980C9B202F0A7FB6978204628
:10120C0002F0A3FBA94BB3F9001029802046C9B208
:10121C0002F09BFB69789FE7A54E1122A321204683
:10122C0002F04BFB9C4D318820462980C9B202F05C
:10123C008CFB6978204602F088FB71882046298057
:10124C00C9B202F082FB6978204602F07EFBB188BD
:10125C0020462980C9B202F078FB6978204602F05A
:10126C0074FBF18820462980C9B202F06EFB6978C4
:10127C00204602F06AFB318920462980C9B202F06F
:10128C0064FB6978204602F060FB71892046298056
:10129C00C9B202F05AFB6978204602F056FBB189BC
:1012AC0020462980C9B202F050FB6978204602F032
:1012BC004CFBF189A9E70222A421204602F0FDFA99
:1012CC000D21204602F041FB217A204602F03DFB25
:1012DC0000220121284602F070FB6F4C0022207086
:1012EC000121284602F069FB60702288714B1A803C
:1012FC00CBE00222A521204602F0DFFA0D21204688
:10130C0002F023FB217A204602F01FFB0022012170
:10131C00284602F052FB604C002220700121284626
:10132C0002F04BFB60702288634BE0E70222A8219D
:10133C00204602F0C2FA0D21204602F006FB217A6B
:10134C00204602F002FB00220121284602F035FB68
:10135C00514C002220700121284602F02EFB6070B7
:10136C002288564BC3E70222A921204602F0A5FA97
:10137C000D21204602F0E9FA217A204602F0E5FA26
:10138C0000220121284602F018FB434C0022207059
:10139C000121284602F011FB60702288484BA6E719
:1013AC000222AA21204602F088FA0D21204602F0E2
:1013BC00CCFA217A204602F0C8FA002201212846F4
:1013CC0002F0FBFA344C002220700121284602F076
:1013DC00F4FA607022883B4B89E70222A621204652
:1013EC0002F06BFA0D21204602F0AFFA217A20466A
:1013FC0002F0ABFA00220121284602F0DEFA264C5C
:10140C00002220700121284602F0D7FA6070228851
:10141C002D4B6CE70222A721204602F04EFA0D213B
:10142C00204602F092FA217A204602F08EFA00222F
:10143C000121284602F0C1FA174C0022207001212C
:10144C00284602F0BAFA60702288204B4FE702223D
:10145C00AB21204602F031FA0D21204602F075FA3C
:10146C00217A204602F071FA00220121284602F06E
:10147C00A4FA094C002220700121284602F09DFAA2
:10148C006070B4F90020124B1A6009B0F0BD00BFB7
:10149C0038BE0008E40D0020EC0D0020E20D002009
:1014AC00E00D0020DE0D0020DC0D0020DA0D002008
:1014BC0020120020C60D0020C40D00202C0000209E
:1014CC002A000020A00B0020240000202600002071
:1014DC001C0000200222B221204602F0EEF90D2160
:1014EC00204602F032FA217A204602F02EFA00222F
:1014FC000121284602F061FAA44C0022207001213F
:10150C00284602F05AFA60702288A14BEFE60025BB
:10151C001D22204602F0D1F99E4B01AF1B88ADF87D
:10152C0004309D4B1B88ADF806309C4B1B88ADF8E6
:10153C0008309B4B1B88ADF80A309A4B1B88ADF8D2
:10154C000C3037F9026B2046F1B202F0FEF901358E
:10155C002046C6F3072102F0F8F9052DF1D1924D82
:10156C002046297802F0F1F96978204602F0EDF96D
:10157C00A978204602F0E9F9E9780025204602F026
:10158C00E4F98A4B04AF1B88ADF81030884B1B88EC
:10159C00ADF81230874B1B88ADF81430864B1B8886
:1015AC00ADF81630854B1B88ADF81830844B1B8872
:1015BC00ADF81A30764B1B88ADF81C3037F9026B3E
:1015CC002046F1B202F0C1F901352046C6F30721DD
:1015DC0002F0BBF9072DF1D1CBE5002611222046F4
:1015EC0002F06BF9774B04AF1B680493764B1B68C6
:1015FC000593764B1B680693754B1B68079357F83E
:10160C00045B2046E9B202F0A0F9C5F3072120469D
:10161C0002F09BF9C5F30741204602F096F901361A
:10162C002046290E02F091F9042EE8D1A1E5022200
:10163C00AC21204602F041F90D21204602F085F93B
:10164C00217A204602F081F900220121284602F07D
:10165C00B4F94E4C002220700121284602F0ADF95D
:10166C0060702288514B42E60222AD21204602F0E6
:10167C0024F90D21204602F068F9217A204602F067
:10168C0064F900220121284602F097F93F4C002210
:10169C0020700121284602F090F960702288444B9A
:1016AC0025E60222AE21204602F007F90D21204644
:1016BC0002F04BF9217A204602F047F90022012171
:1016CC00284602F07AF9314C00222070012128467C
:1016DC0002F073F960702288364B08E60222AF21C3
:1016EC00204602F0EAF80D21204602F02EF9217A6C
:1016FC00204602F02AF900220121284602F05DF969
:10170C00224C002220700121284602F056F960700C
:10171C002288294BEBE50222B021204602F0CDF8BD
:10172C000D21204602F011F9217A204602F00DF924
:10173C0000220121284602F040F9144C00222070AE
:10174C000121284602F039F9607022881B4BCEE546
:10175C000222B121204602F0B0F80D21204602F001
:10176C00F4F8217A204602F0F0F8002201212846F4
:10177C0002F023F9054C002220700121284602F0CA
:10178C001CF9607022880E4BB1E500BFEC0D0020F7
:10179C00120000202C000020A00B00202A000020AA
:1017AC0024000020260000201C0000201A0000202D
:1017BC00180000202200002020000020160000202D
:1017CC0014000020C00B0020B40B0020B80B00202C
:1017DC00B00B0020F0B516464379027905469A42C3
:1017EC000C46C3B01DD002F0F5F8D0B1012E04BFE9
:1017FC000022154B2146284608BF1A70FFF778FCCB
:10180C000022617A02A8D3B299420CD8C6B1FEF775
:10181C00FBFC4FF4807300930022637A02A9FEF75D
:10182C0065FD43B0F0BDA77925687B1CDBB2A371C5
:10183C00ED5D013200F8015BE5792B40A371E2E725
:10184C0002A807F03FFEECE74200002010B50C4B5D
:10185C000C4C1A780C4B0D4853F8221001222378AB
:10186C0002FA03F38B4308BF1A464FF4005102F0FF
:10187C0089FF2378013303F01F03237010BD00BFD1
:10188C00BE0D00207A0B0020480000200010014003
:10189C00F0B5002485B0012001F0B2FB21464023B5
:1018AC0020221E20009401F0E9FC20461623802201
:1018BC001421009401F0E2FC4023522221465020D6
:1018CC00009401F0DBFC7F4D2146282001F08AFCBE
:1018DC007D4902A808F088F895E80E00009402A84B
:1018EC0001F06AFC2146552001F07CFC774902A8E6
:1018FC0008F07AF895E80E00009402A801F05CFC60
:10190C001921282001F06EFC0821714B714D0DEB53
:10191C000100B3F90030704A07F0D2FF95E80E00D1
:10192C00009402A801F048FC1921552001F05AFC42
:10193C0008216A4B0DEB0100B3F90030664A07F041
:10194C00BFFF95E80E00009402A801F035FC25219C
:10195C00282001F047FC0821614B0DEB0100B3F985
:10196C0000305D4A07F0ACFF95E80E00009402A829
:10197C0001F022FC2521552001F034FC0821594BA3
:10198C000DEB0100B3F90030534A07F099FF95E8CD
:10199C000E00009402A801F00FFC3121282001F068
:1019AC0021FC0821504B0DEB0100B3F900304A4AE1
:1019BC0007F086FF95E80E00009402A801F0FCFBEE
:1019CC003121552001F00EFC08211E26474B0DEB52
:1019DC000100B3F90030404A07F072FF95E80E00A1
:1019EC0040F6FA75424F009402A801F0E5FB3B88E3
:1019FC0003227343B3FBF5F3C3F13C0310463C21C4
:101A0C000094DBB201F0F4FB7B8806227343B3FB3A
:101A1C00F5F3C3F13C0310463C210094DBB201F01A
:101A2C00E7FBBB8809227343B3FBF5F3C3F13C031B
:101A3C0010463C210094DBB201F0DAFBFB880C224F
:101A4C007343B3FBF5F3C3F13C0310463C21009404
:101A5C00DBB201F0CDFB3B890F227343B3FBF5F3F3
:101A6C00C3F13C0310463C210094DBB201F0C0FBF7
:101A7C007B8912227343B3FBF5F3C3F13C0310468D
:101A8C003C210094DBB201F0B3FBBB8915227343FC
:101A9C00B3FBF5F3C3F13C0310463C210094DBB2DD
:101AAC0001F0A6FBFB8918227343B3FBF5F3C3F1DA
:101ABC003C033C2110460094DBB201F099FB05B0CD
:101ACC00F0BD00BF34A900086CA4000870A4000885
:101ADC00E40D002040A9000874A40008DE0D0020CD
:101AEC00E20D0020DC0D0020E00D0020DA0D0020BE
:101AFC002012002037B5344C2378032B61D8DFE853
:101B0C0003F002151A27314A314B11781B788B429E
:101B1C0008D030484B1C415C03F00F0321B103216A
:101B2C002170137003B030BD0121F9E7FFF7B0FE4F
:101B3C0002232370F6E7284804F00EFA2028F1D18E
:101B4C0001F084FA0028EDD00023244A1370F0E74A
:101B5C00214804F004FA224D10B14FF47A732B6033
:101B6C001D4804F0F9F9202816D101F08FF998B12D
:101B7C001C4B1D4A01931D4B1D4900931D481E4BC8
:101B8C0001F0CCF900231D4A1D4913700A7842F06C
:101B9C0008020A702B60CCE72B680133B3F5FA7F8F
:101BAC002B60BFD90C4803F073F8012001F0ECFF57
:101BBC00094802F0C5FF01F03BF901F059F9002387
:101BCC00E8E70023B5E700BF790B0020780B002075
:101BDC00C80D0020C90D002034140020E70D002092
:101BEC00740B0020DA0D0020E00D0020DC0D00202D
:101BFC00E20D0020E40D0020DE0D0020E60D00209B
:101C0C00E80D0020074B084A1B6812885A63074AE4
:101C1C001288DA63064A12889A63064A12881A6492
:101C2C00704700BFD4120020C60D0020C20D00204A
:101C3C00C40D0020C00D002013B50B4B04460093BF
:101C4C004FF4AA71094B0A4A0A4807F039FE4FF4BF
:101C5C00AA7300220093204640F243130549FEF775
:101C6C0045FB02B010BD00BFBCA4000877A400085F
:101C7C00B7A40008D30B002013B50A4B04460093FD
:101C8C004FF4AA71084B094A094807F019FE4FF4A2
:101C9C00AA73002200932046B3230549FEF726FBC6
:101CAC0002B010BDC1A5000877A40008B7A40008B5
:101CBC00D30B00202DE9F84300241F460C70147040
:101CCC001C7047F23A53089D89462B8032490646D0
:101CDC00904607F046FE58B1043010F8013FE2B2CE
:101CEC0013F0DF0F01D0262B36D1002309F8023078
:101CFC0030462A4907F035FE60B10023043010F855
:101D0C00012FD9B212F0DF0F01D0262A2ED10023D9
:101D1C0008F801303046224907F023FE58B1002361
:101D2C00C21C12F8011FD8B211F0DF0F01D0262906
:101D3C0026D100233B5430461A4907F012FE48B115
:101D4C000023053010F8012F303AD1B209291DD9E2
:101D5C0003B12B80BDE8F8832B2B08BF202309F897
:101D6C00043001343F2CB8D12246BEE72B2A08BFE1
:101D7C00202208F8032001333F2BC0D11946C6E7B7
:101D8C00F95401330F2BCCD11846D2E703EB830364
:101D9C0002EB430293B2D5E736A600083CA6000836
:101DAC0042A6000847A600082DE9F043344BA9B021
:101DBC001E785EB100221A7047F23152314B324814
:101DCC00198829B0BDE8F043FEF724BADFF8BC90BF
:101DDC0099F80030002B42D02D4F3B78FF2B3ED191
:101DEC00FEF712FA2B4C80462B49204607F0B9FD22
:101DFC000546002836D04022314608A807F096FD4B
:101E0C004022314618A807F091FD102231460DEB07
:101E1C00020007F08BFD0DF10E030093204604AB7E
:101E2C0018AA08A9FFF746FF9DF8103033B1164BDE
:101E3C000F22184604A907F081FDC673BDF80E30B9
:101E4C000BB1104A13804046FFF716FF002318A968
:101E5C0008A889F800303B702370FEF7A7F929B069
:101E6C00BDE8F08320460D4907F07BFD28B14046C4
:101E7C00FFF7E2FE3D702570F1E738702070EEE759
:101E8C00D20B00203000002032000020270D002053
:101E9C00280D0020290D00204EA6000858A6000889
:101EAC0002780346032A1CD8DFE802F00F0214075D
:101EBC00427842B903221A7005E0417801220029C8
:101ECC00F9D101708270002070474278012AFAD152
:101EDC000222F0E7407800220128ECD118709A70A9
:101EEC0070470122E7E7000008B5837813B18388B7
:101EFC000A339BB20A4A83801378042B0DD9002332
:101F0C004FF400410748137002F036FC064B08B939
:101F1C00587008BD01225A70FBE701331370F8E7C3
:101F2C00720B0020000C0140AA0D002073B53C4E32
:101F3C003378DB0940D033783A4C23F0800333708C
:101F4C002378394D013B23702B78013B2B70FEF726
:101F5C0099FA3648FFF7C8FF354B1B7823B1354942
:101F6C000A885AB3013A0A80334890F84230222B3F
:101F7C0009D0036831491A685B682023012280F874
:101F8C00423005F0D2FF2B782BB902232B7033781B
:101F9C0043F040033370257875B90A2323703378E6
:101FAC0043F020033370FFF751FC254A13780133BB
:101FBC00DBB2092B17D8137002B070BD214803781F
:101FCC000133DBB2022B94BF1A461346027040F663
:101FDC00B8320A800C214B431B4AD1184968D0589F
:101FEC00FEF7E4F8C0E7194C15702378042B9CBF5E
:101FFC0001332370164B1D78002DDDD1FEF750F9FF
:10200C000728D9D12378042BD6D94FF480732A46CC
:10201C000093284609230F49FEF768F9CCE700BF67
:10202C00E80D00204500002044000020AA0D0020EF
:10203C00D00B00202E00002044120020BC0D0020EC
:10204C00BD0D0020D10B002014BE00084200002062
:10205C00270D00200900002083784BB98288642A60
:10206C0006D9B2F57A7F04D20121044A117083801B
:10207C007047FDD0014A1370F9E700BFBE0D002078
:10208C002DE9F74FAD4A13781C0740F1408140F61B
:10209C00FF75AB4913784E89CC8823F00803137075
:1020AC00AE1B4B882C1B26EAE677ED1A002CACBF36
:1020BC003B193B1C25EAE5721344012BB8BF0123E5
:1020CC00A048DFF884E203608B89DEF8008000937F
:1020DC000B89B1F800A001939C4BB1F80EC0D3F85A
:1020EC00009088889A4B9B4958EA090BB3F9003049
:1020FC00B1F900100FD04FF05F0B03EB83030BFB18
:10210C0008334FF0640801EB81010BFB091193FBC1
:10211C00F8F391FBF8F1CEF80030DFF830E2CEF8AE
:10212C00001001F57A6EBEF5FA5F0AD94FF47A7E8B
:10213C000EFB03F393FBF1F340F23D214B43864935
:10214C000B60864B4FF0310EB3F900106FF0C703E4
:10215C005943832391FBF3F1DFF80482814B19601F
:10216C00D8F8003019447C4B1B680EFB013E32231F
:10217C009EFBF3F3C8F8003041F288334FF00008AF
:10218C009EFBF3FE7849794BC1F80080DFF8E081C3
:10219C00C3F800E098F80090764B1B68B9F1000F7B
:1021AC0000F0898109F1FF32062A00F28281DFE812
:1021BC0012F00700B1000D012C0140015D0171010D
:1021CC006D4A13780133DBB2092B01D8137010E080
:1021DC00019B9A454FF000038ABF9946184601208F
:1021EC001370664B83F80090654B1880022388F8B7
:1021FC00003000233222A3EB0E05624E624B634C7F
:10220C001D60336805F19500EB1A5343604AB0F535
:10221C00957F1360226800F2F181142000FB0522E7
:10222C005C488242B8BF024649F640408242A8BF91
:10223C00024659482260B0F90000356042434FF421
:10224C007A7092FBF0F25548B0F9000005FB0022C1
:10225C005348B0F9000003FB002242F2107392FBCA
:10226C00F3F35048036042F20F70824240F3CB818B
:10227C004D4A4E48128800881A44034442F22830D2
:10228C000EF58C5E0EF1140E864588BF002398F86F
:10229C00005084BF23601A46062D454C03D85620A7
:1022AC00E840C00704D443480078022840F0C381BA
:1022BC000A68002A40F3B4813B4B1A883B4B5242CC
:1022CC001B8821884C42A242B8BF22468B42A8BF31
:1022DC000B461046A34292B2B8BF2346364900289B
:1022EC003648D5BF52420A8002800022D6BF002257
:1022FC0002800A80002B9AB23149324BD5BF524230
:10230C001A800A800023D6BF00220B801A8003B0EB
:10231C00BDE8F08F194A2C4B1278B3F90030012A22
:10232C00154A18BF5B420B6013780133DBB2132BD9
:10233C007FF64CAF00231370032358E7E80D002001
:10234C00301200209C0B0020A80B0020A40B0020B6
:10235C00E40D0020E00D0020CC0B0020DC0D002053
:10236C00C40B0020C80B0020880B0020AC0B0020F5
:10237C00800B00201C0000207F0B00207E0B002017
:10238C007C0B0020BC0B0020C00B0020B40B0020E9
:10239C00B80B0020C063FFFFA00B00202C00002016
:1023AC002A000020B00B0020260000202400002072
:1023BC0028000020810B0020C00D0020C20D002041
:1023CC00C60D0020C40D002016000020A34B1422C3
:1023DC00B3F90030002B08BF6046A0F57A7393FB6D
:1023EC00F2F39F4A1278012A08BF5B420B609D4BA7
:1023FC00B0F5C87FB3F90030BFF6FCAE00209A4AA6
:10240C001070042288F80020F4E6954A974B127855
:10241C00B3F90030012A944A18BF5B420B60137861
:10242C000133DBB2132B7FF6D1AE002313700523DF
:10243C00DDE68A4B1422B3F90030002B08BF60464E
:10244C00A0F57A7393FBF2F3854A1278012A08BF40
:10245C005B420B60834BB0F5C87FB3F90030BFF61D
:10246C00C9AE0020804A10700622CBE77C4A7F4B15
:10247C001278B3F90030012A7B4A08BF5B420B602B
:10248C0013780133DBB2132B7FF6A0AE002313704D
:10249C000723ACE640F2DC52724B9442B3F90030A5
:1024AC007FF7A8AE0022012088F80020704A107037
:1024BC00A0E60022A6E70098B0F57A7F04D36A4A1A
:1024CC0082F8009001229DE740F2DC5C6445D4BFA9
:1024DC00002001206645C8BF01306545C8BF0130EA
:1024EC00634D2E78032E00F28780DFE806F002079A
:1024FC004F7F64457FF77EAE012209E0032801D1AE
:10250C00287077E630B95B4A10705B4A1070022273
:10251C002A706FE64FF47A746243584B584803FBA9
:10252C000722584B1B6892FBF3F20A2392FBF3F23F
:10253C00554B82EAE2751A60544BA5EBE2751D60AF
:10254C00534BB3F90030534303605248B0F90000C9
:10255C005043684390FBF4F04F4C1B1820604F48DD
:10256C0048BF0333B0F900009B100B6020B1002B67
:10257C00B8BF5B4293FBF0F03A4BB3F90030034425
:10258C004748322BA8BF3223026033E66445B3DCE4
:10259C00434B39481A680478344BB3F900307CB992
:1025AC00002A344AD8BF5B420B6013780133DBB28C
:1025BC00222B7FF60BAE002313700123037018E659
:1025CC00012C0ED1002A2B4AC8BF5B420B6013783A
:1025DC000133DBB2452B7FF6F9AD002313700223D8
:1025EC00ECE7002AC8BF5B420B6002E6032883D1EC
:1025FC001C4BB3F90030FDE5002289E70A20D2001C
:10260C0092FBF0F215E627488242AFBF0023264A20
:10261C0026481288BBBF00889A1A1A461B1A2DE648
:10262C004AD0214B1988214B1B885B4222888A4255
:10263C00A8BF0A4645E6002A3FF443AE0D681C4885
:10264C001C49B0F90000B1F900102844A1EB0501B8
:10265C00C7BF89181B18511A1B1AE7E77C0B0020FF
:10266C007E0B0020140000207F0B002016000020A1
:10267C00810B0020830B0020820B002018FCFFFF35
:10268C00900B00209C0B0020980B0020940B00203A
:10269C001A000020180000208C0B002012000020D3
:1026AC00840B0020F1D8FFFF26000020240000201E
:1026BC002000002022000020134602E610B594B042
:1026CC00142200210CA807F031F9142200210DEB83
:1026DC00020007F02BF91022002101A807F026F9BF
:1026EC0002244FF480330122CDE91143CDE90A23B2
:1026FC004FF4E0130AA80E92139304F0ABFA08B14E
:10270C0072B6FEE70F23CDE905344FF480630790D2
:10271C00CDE90830214605A804F05EFC08B172B67C
:10272C00FEE7122301934FF40043CDE9033001A8D7
:10273C0004F00EFD08B172B6FEE714B010BD000037
:10274C0080B5A74D98B001F0FBF9FFF7B7FF102249
:10275C00002111A807F0EAF8AB69002243F010033E
:10276C00AB61AB694FF4005103F010030293029B71
:10277C00AB699C4843F02003AB61AB69002403F0C8
:10278C0020030393039BAB69012743F00403AB6164
:10279C00AB69022603F004030493049BAB6943F07A
:1027AC000803AB61AB6903F008030593059B01F0CB
:1027BC00E9FF00224FF400718B4801F0E3FF4FF466
:1027CC000053884811A9CDE91137CDE9134601F022
:1027DC0091FE4FF40043844811A9CDE911341394B0
:1027EC0001F088FE4FF400737F4811A9CDE9113731
:1027FC00CDE9134601F07EFE6B6922463B436B61CB
:10280C006B6921463B400B200193019B01F07AFC44
:10281C000B2001F0A7FC224621460E2001F072FC91
:10282C000E2001F09FFC224621460F2001F06AFC8D
:10283C000F2001F097FC6D4A6D4BCDE911441360EC
:10284C004FF480731394936014734FF460231475D6
:10285C00546008241046D361146101F0C1FB08B127
:10286C0072B6FEE7CDE91107139011A95F4801F08C
:10287C004BFA08B172B6FEE75C4811A9CDE91176A6
:10288C0001F042FA08B172B6FEE70325574811A9C8
:10289C001196129501F038FA08B172B6FEE711954F
:1028AC000425524811A9129501F02EFA08B172B6FE
:1028BC00FEE7119505254D4811A9129501F024FA52
:1028CC0008B172B6FEE711950625484811A9129574
:1028DC0001F01AFA08B172B6FEE7119507254348C4
:1028EC0011A9129501F010FA08B172B6FEE73F4833
:1028FC0011A9CDE9115401F007FA044608B172B6DA
:10290C00FEE70CAE01461022304607F00FF81422F9
:10291C00214611A807F00AF847233648DFF8D8C03B
:10292C0008AFC0E900C3F92308947C60C0E9033404
:10293C00C0E90544846004F0EFFD08B172B6FEE70F
:10294C004FF4805831462B48CDF8308004F0CAFE45
:10295C0008B172B6FEE7CDE9110011A9254804F0C3
:10296C00B8FF08B172B6FEE7CDE908003946214838
:10297C0005F034F8054608B172B6FEE701461022A0
:10298C00304606F0D3FF1422294611A806F0CEFFDC
:10299C004FF047094FF08043184C0895C4E90039B3
:1029AC0044F61F6320467D60C4E90335A560A5612C
:1029BC0004F0B2FD08B172B6FEE731462046CDF800
:1029CC00308004F08FFE08B172B6FEE7CDE911003D
:1029DC0011A9204604F07DFF90B172B6FEE700BF4E
:1029EC000010024000100140000C0140CC140020EB
:1029FC000024014064130020002C01401C13002013
:102A0C00CDE908003946204604F0E8FF044608B139
:102A1C0072B6FEE701461022384606F087FF1422F4
:102A2C002146304606F082FF1C22214611A8A54DF6
:102A3C000694079406F07AFFA34B2846C5E90039A3
:102A4C0042F20F730DF1180AC5E90334AC60AC61A6
:102A5C0004F062FD08B172B6FEE739462846CDF89F
:102A6C00208004F03FFE08B172B6FEE7284604F061
:102A7C007FFD08B172B6FEE7002331469148CDE9DF
:102A8C000C3304F026FF08B172B6FEE7CDE9060060
:102A9C0051468C4804F0A2FF024608B172B6FEE71C
:102AAC0060231390CDE91130159011A9854804F0DD
:102ABC00B7FD08B172B6FEE70422824811A904F0F2
:102ACC00AFFD08B172B6FEE708227E4811A904F0EA
:102ADC00A7FD08B172B6FEE70C227A4811A904F0E2
:102AEC009FFD044608B172B6FEE7764800F0F6FD8D
:102AFC004FF4E1337548764DC0E90244C0E9005308
:102B0C000C230461C0E90534C46104F0FFFF0446E2
:102B1C0008B172B6FEE706F061FC6E486E496F4B69
:102B2C00C0E90244C0E900134FF48043C0E90644F5
:102B3C00C0E90434046202F003F8044608B172B62A
:102B4C00FEE71022014611A806F0F0FE4723644D63
:102B5C00644A0C94C5E9002342F20F732846746052
:102B6C00C5E90334AC60AC6104F0D6FC08B172B6B4
:102B7C00FEE74FF48053284611A9119304F0B2FDDF
:102B8C0008B172B6FEE7002331465548CDE90C3347
:102B9C0004F024FF044608B172B6FEE7524806F072
:102BAC00A7FC524804F0C2FB514804F0BFFB454857
:102BBC0004F0BCFB2146434804F00EFF04214148BD
:102BCC0004F00AFF08213F4804F006FF0C213D48A1
:102BDC0004F002FF4FF400510122464801F0D2FDEF
:102BEC00454800F007FA454800F0FEF9444800F06B
:102BFC00F5F900F083FB434800F0F0F8424800F090
:102C0C00F3F8424800F0F6F800F012F9404A414B54
:102C1C0010461360404B5360404B9360FDF7FAFB3A
:102C2C003F48FEF71BF93F48FEF712F901223E49D7
:102C3C00264805F07AF940F6B8323C4B3C491C70FA
:102C4C003C4B3D481C703D4B1A8001223C4B1A708A
:102C5C00FDF7ACFA3B4B3C4A3C493D4800F019FFB0
:102C6C003C4B3D4A3D493E4800F013FF40F20122E7
:102C7C003C4B1C703C4B1C803C4B1C803C4B1C80CC
:102C8C003C4B1C803C4B1A809C709C80FFF74EF98F
:102C9C00FDF72CFCFFF788F800222C492C48FEF796
:102CAC0099FD01222D492E48FEF794FDFEF7AAFF4F
:102CBC00FEF720FFFFF7E4F92F48FFF7CDF9FFF7F8
:102CCC00EFF8E3E7D4120020000400404412002087
:102CDC00003801403414002000580040801A0600CF
:102CEC008C12002000080040750E000864130020B0
:102CFC001C13002000100140E70D0020B50E000849
:102D0C00DD0E0008E60D0020D90E0008F90E0008B3
:102D1C00B00D0020A10E0008150F0008490F000887
:102D2C00350F0008B50F0008BC0D0020270D002042
:102D3C005EA60008D10B002074A600082E0000200F
:102D4C00D00B0020F0100020F00F002014120020F7
:102D5C0008120020F00E0020F00D0020FC110020C5
:102D6C00F0110020E80D0020C60D0020C20D00203F
:102D7C00C40D0020C00D0020AA0D00200268084BD5
:102D8C0010B59A420AD1074C2078FDF79BFA2146E0
:102D9C00BDE810400122044805F0C7B810BD00BFC3
:102DAC0000380140BC0D0020441200200368074A83
:102DBC00934209D11A685B682023012280F84230C3
:102DCC000349044805F0B1B8704700BF0038014012
:102DDC00BC0D00204412002072B6FEE7014B1860B7
:102DEC00704700BF2C150020014B1860704700BFC6
:102DFC0028150020014B1860704700BF24150020D7
:102E0C00044A10B414680B46A44601460122D02093
:102E1C0010BC6047281500201346044A10B41468EF
:102E2C00CAB2A446014610BCD0206047241500202D
:102E3C0013B500240DF107006B218DF80740FFF747
:102E4C00DFFF04230DF107001A218DF80730FFF77F
:102E5C00D7FF0DF107001C218DF80740FFF7D0FFBD
:102E6C001B210DF10700FFF7CBFF02B010BD0000D6
:102E7C000122044B1A70044B1B680BB100221A7010
:102E8C00704700BF780000202C15002008B51A4BA5
:102E9C0019681A4B08781A7818B9012A23D000201F
:102EAC0008BD0020012A08701DD0022AF7D101208C
:102EBC001870134B13491A88D2BA0A605A881249EF
:102ECC00D2BA0A609A881149D2BA0A601A89104992
:102EDC00D2BA0A605A890F49D2BA9B890A600E4A43
:102EEC00DBBA1360DCE702220E211A7004483B2285
:102EFC00FFF792FFD3E700BF2C15002078000020CD
:102F0C00FC140020201500201C1500201815002092
:102F1C0014150020101500200C15002070B5DDE9EB
:102F2C00045410B10B4E3668068011B10A48006883
:102F3C00088012B109490968118013B1084A126856
:102F4C001A8015B1074B1B682B8014B1064B1B68FC
:102F5C00238070BD201500201C15002018150020A2
:102F6C0014150020101500200C15002013B5064B6D
:102F7C008DF807001C680122002378200DF1070151
:102F8C00A04702B010BD00BF3C19002013B5064B82
:102F9C008DF807001C680122002378200DF1070131
:102FAC00A04702B010BD00BF38190020044B10B46C
:102FBC001C68CAB2A44601464023782010BC604766
:102FCC003C190020044B10B41C68CAB2A44601463C
:102FDC004023782010BC604738190020014B186042
:102FEC00704700BF38190020014B1860704700BFB4
:102FFC003C190020014B1860704700BF401900209D
:10300C0000284FF4806214BFFF210021014806F014
:10301C008DBC00BF3815002038B5B0240A4D2046B1
:10302C00FFF7A4FF0020FFF7A1FF01341020FFF7EA
:10303C009DFFE4B228468021FFF7B8FFB82C05F1BC
:10304C008005ECD138BD00BF3815002038B51C4BBD
:10305C001C4C1A682378117819B9012B0AD000205E
:10306C0038BD0021013B1170032BF8D8DFE803F0C9
:10307C00020B1015144B18785038C0B2FFF786FFAE
:10308C0002232370EBE70020FFF780FF0323F8E710
:10309C001020FFF77BFF0423F3E70B4D0B4B287835
:1030AC00802103EBC010FFF78DFF01202B782070DF
:1030BC000133DBB2072B2B70D1D900232B70CFE758
:1030CC004019002079000020301500203815002010
:1030DC00030630B510D43F290ED80124CB08074D78
:1030EC0000EBC3102B5C01F0070104FA01F1A242C2
:1030FC000CBF0B438B432B5430BD00BF3815002045
:10310C002DE9F04F044689B008A800E90E009DF89F
:10311C004830A4F120050293EBB25E2B47D8079BF5
:10312C0023B3234413F8206C224AB2F8009009EB25
:10313C000603802B3BDC53889DF815B0019303EB01
:10314C000B02402A33DC029B4FF00008B3FA83FADF
:10315C000BFB05F54FEA5A1A6D00C34509D8154B00
:10316C004E441E80204609B0BDE8F08F9DF81460D7
:10317C00DAE70027069A535B0493019B08EB0302E2
:10318C00D3B20393BE4203D808F101080235E4E739
:10319C00049B07EB090003FA07F2130454BF5246D1
:1031AC00029A0399C0B2FFF793FF0137EAE70024B4
:1031BC00D8E700BF3215002070B586B003AC84E8A8
:1031CC000E009DF82860451E15F8010F40B10096C1
:1031DC0094E80E00FFF794FF034628788342F3D05F
:1031EC0006B070BD014B1880598070473215002015
:1031FC002DE9F74F9046A8EB0009A3EB010AB9F1B2
:10320C00000F1E46B8BFC9F10009BAF1000FB8BFD4
:10321C00CAF1000A804594BF4FF0FF3301230546E5
:10322C000C468E4294BF4FF0FF3B4FF0010B4046D3
:10323C0031469DF830200093A9EB0A07FFF748FFB1
:10324C00CAF10003454504D1B44202D103B0BDE834
:10325C00F08F214628460193FFF73AFF019B790036
:10326C00B3EB470FBFBF0098A7EB0A072D18EDB2C1
:10327C008945C2BF5C444F44E4B2E3E72DE9F04119
:10328C001446A042804628BFA046A042064638BF3E
:10329C00264699420C4628BF1C46994238BF19460F
:1032AC000F469DF81820BC4201D83F2C01D9BDE82F
:1032BC00F081454607E02B0607D428462146FFF748
:1032CC0007FF0135EDB2B542F5D90134E4B2EAE7B6
:1032DC0010B504468120FFF749FE2046BDE810409A
:1032EC00FFF744BE034628B10123AF20024A5371B5
:1032FC00FFF73CBEAE20F9E73215002008B564207C
:10330C0000F042FC0020FFF7EDFF2020FFF72EFE1F
:10331C000020FFF72BFEB020FFF728FEC820FFF798
:10332C0025FE0020FFF722FE1020FFF71FFE402095
:10333C00FFF71CFEFF20FFF7CBFFA120FFF716FEC7
:10334C00A620FFF713FEA820FFF710FE3F20FFF783
:10335C000DFEA420FFF70AFED320FFF707FE002086
:10336C00FFF704FED520FFF701FEF020FFF7FEFD6E
:10337C00D920FFF7FBFD2220FFF7F8FDDA20FFF73D
:10338C00F5FD1220FFF7F2FDDB20FFF7EFFD20200B
:10339C00FFF7ECFD8D20FFF7E9FD1420FFF7E6FDAC
:1033AC000120FFF79FFF0020FFF72AFEFFF734FEF6
:1033BC000022034B1A805A8001221A7108BD00BFEB
:1033CC00321500200E4B82B09A6942F001029A61CC
:1033DC009A6902F001020092009ADA6942F0805276
:1033EC00DA61DB69074A03F080530193019B536850
:1033FC0023F0E06343F08063536002B0704700BF7A
:10340C00001002400000014030B5054687B0102284
:10341C00002102A806F08AFA2A68204B9A423BD176
:10342C0003F56C439A691E4842F400729A619A69DA
:10343C0002A902F400720092009A9A69194C42F0A7
:10344C0004029A619B69FF2203F004030193019B20
:10345C000323CDE9022301F04DF880204FF4807254
:10346C000023C4E903024FF480620F492046C4E9EB
:10347C000013C4E90523A360E36100F0A7FE08B1C3
:10348C00FFF7AAFC002212202C621146656200F0A4
:10349C0039FE122000F066FE07B030BD002401405A
:1034AC0000080140881400200800024030B5054691
:1034BC0087B01022002102A806F038FA2A682E4B99
:1034CC009A4256D12D4C4FF44061A3692C4843F0DD
:1034DC000803A361A36903F008030093009B122364
:1034EC00CDE90213032302A9059301F003F8E36964
:1034FC00802243F48003E361E369224803F48003F0
:10350C000193019B0023204CC4E900032046C4E92D
:10351C000323C4E90533A360E36100F057FE08B14F
:10352C00FFF75AFC1023194AAC636562184CC4E9C6
:10353C000023002380222046C4E90232C4E904336C
:10354C00C4E9063300F042FE08B1FFF745FC002247
:10355C00212011466C63656200F0D4FD212000F03F
:10356C0001FE00222220114600F0CCFD222000F0AA
:10357C00F9FD07B030BD00BF0058004000100240FC
:10358C00000C014058000240F0130020440002409F
:10359C00AC1300200268114B10B59A4204461CD1A2
:1035AC000F4A4FF48061D3690E4823F48003D36132
:1035BC0001F074F84FF400610A4801F06FF8A06B49
:1035CC0000F034FE606B00F031FE212000F0D8FDDD
:1035DC00BDE81040222000F0D3BD10BD00580040C3
:1035EC0000100240000C01401FB50368374A93429B
:1035FC002CD1374B18209A6942F400629A61002250
:10360C009B69114603F400630093009B00F07AFD64
:10361C00182000F0A7FD00221920114600F072FDC1
:10362C00192000F09FFD00221A20114600F06AFDBF
:10363C001A2000F097FD00221B20114600F062FDBD
:10364C001B2005B05DF804EB00F08CBDB3F1804F8E
:10365C0011D103F50433DA691C2042F00102DA615E
:10366C000022DB69114603F001030193019B00F07A
:10367C0049FD1C20E5E7174A934210D1144B1D203D
:10368C00DA6942F00202DA610022DB69114603F0CA
:10369C0002030293029B00F035FD1D20D1E70E4A78
:1036AC00934210D10A4B1E20DA6942F00402DA610F
:1036BC000022DB69114603F004030393039B00F023
:1036CC0021FD1E20BDE705B000BD00BF002C014050
:1036DC0000100240000400400008004010B50446F1
:1036EC0086B01022002102A806F020F92268114BA6
:1036FC009A421CD103F503339A690F4842F0080231
:10370C009A619B69332203F008030193019B022306
:10371C0002A9CDE90223059300F0ECFE074A536899
:10372C0023F4406343F0E06343F40063536006B05A
:10373C0010BD00BF00040040000C0140000001401F
:10374C0010B5044686B01022002102A806F0EEF84F
:10375C0022681B4B9A4230D103F558439A69194899
:10376C0042F480429A619A6902A902F48042009262
:10377C00009A9A69002442F004029A619B694FF402
:10378C00007203F004030193019B0223CDE9022391
:10379C000323059300F0AEFE4FF48063094802A9A1
:1037AC00CDE90234049400F0A5FE252022462146E2
:1037BC0000F0A8FC252000F0D5FC06B010BD00BF21
:1037CC000038014000080140FEE7FEE7FEE7FEE797
:1037DC00FEE770477047704700F0C4B9014800F02D
:1037EC00F1BD00BF88140020014800F0EBBD00BF04
:1037FC00AC130020014800F0E5BD00BFF013002021
:10380C00014800F001BA00BFCC140020014802F0BE
:10381C0037BC00BF38280020FFF7F8BF014803F081
:10382C00B4BD00BF64130020FFF7F8BFFFF7F6BF6D
:10383C00FFF7F4BF014803F0A8BD00BF1C13002024
:10384C00014803F0A2BD00BFD4120020014803F0D0
:10385C009CBD00BF8C120020014801F083BE00BF4C
:10386C0034140020014802F0D7BA00BF34140020F1
:10387C00014804F0F7B900BF441200200A4A03467D
:10388C00106810B508B9094810600949094C03447F
:10389C00091B8B4206D906F07BF80C2303604FF012
:1038AC00FF3010BD1360FCE744190020582C002099
:1038BC00005000200004000070470346002030B583
:1038CC00187258791C68451C5D71552598712554E2
:1038DC005879DC7901322040451C5D714E251C68FD
:1038EC00D2B225545879DC792040451C5D714525B0
:1038FC001C6825545879DC792040451C5D71522593
:10390C001C6825545879DC7920401C68451C5D7175
:10391C0022545879DC794A402040451C5D713A2587
:10392C001C6825545879DC7920401C68451C5D7155
:10393C0021545879DC792040587107205872187A34
:10394C00504080F03600187230BD034610B5427AF4
:10395C00013242725A790068541C5C7181545A7954
:10396C00D87902405A711A7A81EA0200187210BD95
:10397C00002337B58DF807309DF80730CB5C13B9B1
:10398C00007A03B030BD437A9DF80740013343728F
:10399C00437902685D1C45710C5DD4544379C2793E
:1039AC0013409DF807204371531CDBB28DF8073090
:1039BC008B5C027A53400372DEE7034610B5C47980
:1039CC0080790144214018689971405C11440C4085
:1039DC009C7110BDF0B50024052645790379AB42E6
:1039EC0001D10020F0BD827A072A50D8DFE802F01E
:1039FC00040F1C22282D4F3E0268D25C552A01D19F
:103A0C0001228272C279013313400371E6E7026826
:103A1C00D25C4E2A01D10222F3E7552AF2D00022C1
:103A2C008272013BDBB2EDE70268D25C452A1BD106
:103A3C000322E6E70268D25C522A15D10422E0E7A1
:103A4C000268D25C86724272DCE70268D25C3A2A67
:103A5C000AD10721C2798172591C0A408271427ABB
:103A6C0082F036020272CDE78472DAE7427A076896
:103A7C00013AD2B2017A42721AB1FA5C5140017227
:103A8C00C0E78272FA5C8A42BCD10120AAE7847238
:103A9C00B8E710B502604FF07F4400224460028109
:103AAC008272C1E900340A818A7210BDFFF704FFEB
:103ABC000B480C490C4A002302E0D458C450043380
:103ACC00C4188C42F9D3094A094C002301E0136055
:103ADC000432A242FBD305F061FFFEF731FE7047C2
:103AEC00000000205002002080BE00085002002080
:103AFC00582C0020FEE7000038B50E4B05461A780E
:103B0C004FF47A73B3FBF2F30B4A1068B0FBF3F08B
:103B1C0000F048FB044658B90F2D09D80246294637
:103B2C004FF0FF3000F0EEFA2046044B1D6038BD1C
:103B3C000120FCE7800000207C0000208400002095
:103B4C00074A08B51368032043F01003136000F014
:103B5C00C7FA0F20FFF7D0FFFFF734FC002008BD99
:103B6C0000200240034A044B11681B780B4413607D
:103B7C00704700BF4819002080000020014B1868D6
:103B8C00704700BF4819002038B50446FFF7F6FF10
:103B9C000546631C1EBF044B1B78E418FFF7EEFFB1
:103BAC00431BA342FAD338BD80000020436A10B5F2
:103BBC009A6A12F0500F1BD19A6A42F400729A6200
:103BCC001A68926802F46022B2F5602F0CD11A7B4D
:103BDC0052B99A6A22F480729A629A6AD2045EBFCF
:103BEC009A6A42F001029A621846FDF71DFA10BD5E
:103BFC001B6ABDE810401B6B1847704708B5406A3C
:103C0C00FFF7FBFF08BD7047036870B51D685E6861
:103C1C000446B00626D5A90724D5A26AD2065EBFF3
:103C2C00A26A42F40072A2629A6802F46022B2F5AF
:103C3C00602F10D1227B72B95A6822F020025A6090
:103C4C00A36A23F48073A362A36AD8045EBFA36A39
:103C5C0043F00103A3622046FDF7E6F96FF0120270
:103C6C0023681A60310630D56A072ED5A36ADB06A5
:103C7C005EBFA36A43F40053A36223689A6802F4FC
:103C8C00E042B2F5E04F0AD05A68500516D49A6853
:103C9C0002F46022B2F5602F10D1227B72B95A68FF
:103CAC0022F080025A60A36A23F48053A362A36AB1
:103CBC00D9055EBFA36A43F00103A362204600F05E
:103CCC000DFA6FF00C0223681A6072060CD5EB0724
:103CDC000AD5A36A204643F48033A362FFF793FF0F
:103CEC006FF0010223681A6070BD7047406A08B516
:103CFC00836A43F040038362C36A43F00403C362E4
:103D0C00FFF7F3FF08BD0000002373B5019390F893
:103D1C0024300446012B6CD0012380F824304D68EC
:103D2C000268062D086805EB850322D81F26556B03
:103D3C00053B9E4025EA060500FA03F32B4353632B
:103D4C0009288B6800EB40054FF0070129D9D6688C
:103D5C001E3DA94026EA0101AB400B43D360A0F104
:103D6C001003012B25D90020002384F8243002B045
:103D7C0070BD0C2D4FF01F0509D8166B233B9D40D1
:103D8C0026EA050500FA03F32B431363D8E7D66A3A
:103D9C00413B9D4026EA050500FA03F32B43D36211
:103DAC00CEE71069A94020EA0101AB400B43136137
:103DBC00D9E7114B9A4216D193681B02D3D493685E
:103DCC00102843F400039360CDD10C4B0C4A1B68B4
:103DDC00B3FBF2F30A2253430193019B002BC2D095
:103DEC00019B013BF8E7A36A012043F02003A36287
:103DFC00BAE70220BBE700BF002401407C00002092
:103E0C0040420F00002337B50193036804469A68BB
:103E1C00D20702D5002003B030BD9A6842F00102EF
:103E2C009A60144B144A1B68B3FBF2F30193019B89
:103E3C00E3B9FFF7A3FE054623689B68DB07E9D4CB
:103E4C00FFF79CFE401B0228F6D923689B6813F0F1
:103E5C000103F1D1A26A012042F01002A262E26ACF
:103E6C0084F8243042F00102E262D4E7019B013B6A
:103E7C00DCE700BF7C00002040420F002DE9F04140
:103E8C003F4B9046026804469A420F4602D03D4989
:103E9C008A4203D15B6813F4702F6DD194F82430EF
:103EAC00012B6BD00123204684F82430FFF7AAFFA6
:103EBC00064600285DD1A56A2168324B25F4706551
:103ECC0025F0010545F480759942A56204D12C4A70
:103EDC00536813F4702F3ED1A36A23F48013A362AA
:103EEC004B685A0505D5A36A23F4405343F4805319
:103EFC00A362A36A206A13F4805318BFE36A3A469C
:103F0C0018BF23F00603E362002384F824301E4B11
:103F1C004C3183621D4BC3621D4B03636FF0020374
:103F2C0041F84C3C51F8443C43F4807341F8443C18
:103F3C00434600F0A5F923689A6802F46022B2F5B2
:103F4C00602F9A680CBF42F4A00242F480129A606F
:103F5C003046BDE8F081A36A43F48013A362536832
:103F6C005B0541BFA06A20F4405040F48050A06231
:103F7C00BFE7002384F824300126E9E70226E7E7AF
:103F8C000024014000280140B93B0008093C00080E
:103F9C00F93C000838B5036804469A68D10701D487
:103FAC00002038BD9A6822F001029A60FFF7E6FD06
:103FBC00054623689B68DB07F2D5FFF7DFFD401B46
:103FCC000228F6D923689B68DA07F2D5A36A012088
:103FDC0043F01003A362E36A43F00103E362E0E7FA
:103FEC00F8B5044600286DD0836A23B9C36280F803
:103FFC002430FFF709FA2046FFF7CCFFA36A13F031
:10400C00100361D100285FD1A26A616822F4885242
:10401C0022F0020242F00202E569A668A262227B4B
:10402C002943B6F5807F41EA420136D0771E7D42A6
:10403C007D412D02277D012F06D182BBA269013A59
:10404C0045EA423242F400652268B6F5807F576833
:10405C0027F4694745EA0705556097681D4D05EA41
:10406C00070545EA0105956001D0012E02D12369AF
:10407C00013B1B05D56A25F470052B43D36292686E
:10408C00154B1340994213D10023E362A36A23F02A
:10409C00030343F00103A362F8BD3546CAE7A26AE5
:1040AC0042F02002A262E26A42F00102E262CBE735
:1040BC00A36A23F0120343F01003A362E36A43F0F4
:1040CC000103E3620120E7E7A36A43F01003A36254
:1040DC00F8E700BFFDF7E1FFFE0E1FFF7047000081
:1040EC0007490302CA6803F4E06322F4E062120495
:1040FC00120C134343F0BF6343F40033CB6070479F
:10410C0000ED00E0154B30B5DC68C4F30224C4F1BB
:10411C000703251D042B28BF0423062D4FF0FF3564
:10412C0094BF0024033C05FA03F321EA0303A540E2
:10413C0022EA0502A340002843EA0203ACBF00F1C7
:10414C006040074A4FEA0313DBB2ABBF00F5614096
:10415C0000F00F0080F80033135430BD00ED00E088
:10416C0014ED00E0002807DB01234109034A00F0AD
:10417C001F00834042F82130704700BF00E100E08F
:10418C0000280CDB01220649430900F01F00824085
:10419C00203341F82320BFF34F8FBFF36F8F70474D
:1041AC0000E100E00138B0F1807F0BD24FF0E0234A
:1041BC00F021054A586182F82310002007229861EB
:1041CC001A6170470120704700ED00E0034610B5FE
:1041DC0030B301681420134A0A44B2FBF0F2920087
:1041EC001A64114ADA63022283F82120D3E90124EC
:1041FC002243DC68086822431C696FF30D102243CC
:10420C005C6922439C692243DC69224302430A60B5
:10421C0000200122986383F8200083F8212010BD30
:10422C000120FCE7F8FFFDBF0000024010B508B309
:10423C000168114A0B680A4423F001030B60002348
:10424C000B604B608B60CB601421B2FBF1F201214F
:10425C000A4C9200026401FA02F2C4636260836346
:10426C00C0E90A33C0E90C3380F8213080F82030E3
:10427C00184610BD0120FCE7F8FFFDBF000002400E
:10428C00F0B590F82040012C34D0012480F8204067
:10429C0090F82140012CE5B24FF0000428D1022601
:1042AC0080F8216084630468266826F00106266085
:1042BC00D0E90F67BD40756063604368102BC36A1B
:1042CC000BBFA260A160E160E2604BB1236843F0D8
:1042DC000E0300202360236843F001032360F0BD2C
:1042EC00236823F004032360236843F00A03F0E7F8
:1042FC0080F820400220F2E790F821200346022AA1
:10430C0006D0042282630120002283F8202070470B
:10431C000268C06B116821F00E011160116821F068
:10432C000101116001211A6C01FA02F242600020B5
:10433C0083F82110E8E7000008B590F82130022B33
:10434C0003D004238363012008BD03681A6822F09C
:10435C000E021A601A6822F001021A60174A934280
:10436C001FD0143293421ED0143293421DD01432FB
:10437C0093421DD0143293421DD01432934214BF79
:10438C004FF080734FF480130D4A5360012380F873
:10439C002130002380F82030436B03B19847002074
:1043AC00D2E70123F0E71023EEE74FF48073EBE73D
:1043BC004FF48053E8E74FF48033E5E70800024000
:1043CC000000024070B40425C66B026C34680368AC
:1043DC0095402542196832D04D0730D51A6896069B
:1043EC005EBF1A6822F004021A603E4A934219D04A
:1043FC001432934218D01432934217D01432934291
:10440C0017D01432934217D01432934214BF4FF08A
:10441C0080634FF48003344A5360C36A002B5ED030
:10442C0070BC18470423F6E74023F4E74FF480638D
:10443C00F1E74FF48043EEE74FF48023EBE70225DE
:10444C009540254235D08D0733D51A68940606D48D
:10445C001A6822F00A021A60012280F82120214AEF
:10446C00934219D01432934218D01432934217D07D
:10447C001432934217D01432934217D01432934211
:10448C0014BF4FF000734FF40013174A536000230E
:10449C0080F82030836AC1E70223F6E72023F4E793
:1044AC004FF40073F1E74FF40053EEE74FF4003391
:1044BC00EBE708259540254211D009070FD519685F
:1044CC0021F00E011960012303FA02F2726083637A
:1044DC0080F82130002380F82030036B9EE770BCFD
:1044EC00704700BF080002400000024090F8210015
:1044FC00704700002DE9F74F00244FF00F0E2646B1
:10450C00DFF884C1614B00F104080A6832FA06F541
:10451C0002D103B0BDE8F08F012505FA06F702EAD7
:10452C00070537EA020276D14A68032A07D8013A0E
:10453C00022A00F28380DFE802F091969C00122A96
:10454C0000F0948069D8112A00F08A80FF2D94BF66
:10455C008146C1464FEA8602D9F8007088BF203ADE
:10456C000EFA02FA27EA0A0704FA02F21743C9F80C
:10457C000070D1F8049019F0805F4CD0DCF8182052
:10458C0026F0030742F00102CCF81820DCF81820C2
:10459C0007F1804702F00102019207F5803706F01F
:1045AC00030A019A4FEA8A0ABA680EFA0AFB22EA4F
:1045BC000B0B374A904260D002F5806290425ED07D
:1045CC0002F5806290425CD002F58062904214BF8A
:1045DC000422032202FA0AF242EA0B02BA609A6837
:1045EC0019F4801F14BF2A43AA439A60DA6819F49D
:1045FC00001F14BF2A43AA43DA605A6819F4003F1B
:10460C0014BF2A43AA435A601A6819F4803F14BF96
:10461C002A43AA431A60013677E7DFF878904A45B7
:10462C000CD014D8A9F580194A4507D009F5702982
:10463C004A4503D0A9F580194A4587D18A68D2B179
:10464C00012A4FF008040CBF076147617EE7DFF8D1
:10465C0048904A45F2D009F58039EDE7CC6875E70A
:10466C00CC68043472E7CC6808346FE7CC680C343F
:10467C006CE700246AE7042468E70022AAE7012219
:10468C00A8E70222A6E700BF001002400004014088
:10469C000008014000002210000031102DE9F74FF6
:1046AC004FF0040B00224FF0010A4FF00F0800EB03
:1046BC000B0301932E4B31FA02F402D103B0BDE887
:1046CC00F08F0AFA02F70F4049D022F0030404F1EC
:1046DC00804404F5803402F0030CA5684FEA8C0C7E
:1046EC0008FA0CF909EA050E224DA84239D005F555
:1046FC008065A84237D005F58065A84235D005F510
:10470C008065A84214BF0425032505FA0CF57545F0
:10471C006FEA07060FD11D6835401D605D68354096
:10472C005D60DD683540DD609D6835409D60A56845
:10473C0025EA0905A560FF2F94BF0746019F4FEAA4
:10474C0082043D6888BF203C08FA04FC25EA0C056D
:10475C000BFA04F425433D60C4683440C460013254
:10476C00A9E70025D1E70125CFE70225CDE700BF5A
:10477C00000401400008014080680840003818BF60
:10478C00012070470AB1016170470904FBE7016819
:10479C0000224B6913F4806310D06FF480634B617B
:1047AC002023026380F83D3080F83E20036C80F8B3
:1047BC003C2043F004030364012070471846704703
:1047CC002DE9F84606460F4691461D464FEA114A1A
:1047DC003368BAF1010F39D15C6927EA0404A4B239
:1047EC00B4FA84F46409A14501D0002024E06A1CC9
:1047FC00EFD0FFF7C3F9089BC01AA84201D8002DCF
:10480C00E6D1BAF1010F336818D15B6927EA0303CB
:10481C009BB2B3FA83F35B099945D9D100232022CB
:10482C000120336386F83D2086F83E30326C86F8E2
:10483C003C3042F020023264BDE8F8869B69DB43D1
:10484C00C3F3400383F00103DBB2E5E79C69E44367
:10485C00C4F3400484F00104E4B2C4E72DE9F04150
:10486C0004460F46164698462568686927EA0000F4
:10487C0080B2C0B16B695A0517D52B68202243F45E
:10488C0000732B606FF480636B610023236384F8E7
:10489C003D2084F83E30236C43F004032364002352
:1048AC00012084F83C30BDE8F081731CDDD0FFF7AB
:1048BC0065F9A0EB0800B04201D8002ED4D12368D2
:1048CC005A6927EA020292B2002ACDD00023202294
:1048DC00236384F83D2084F83E30236C1343DDE7DA
:1048EC0070B504460D46164623685B691B0601D558
:1048FC0000201EE02046FFF74AFFC8B96A1CF3D01F
:10490C00FFF73CF9801BA84201D8002DECD123689D
:10491C005B6913F08003E7D12022236384F83D20E8
:10492C0084F83E30226C84F83C3042F02002226441
:10493C00012070BD2DE9F0431546026899461368B5
:10494C0085B043F480731360DDE90C780E463B466A
:10495C0000224FF00111CDF800800446FFF730FF24
:10496C00236838B11B68DB0502D54FF40073236450
:10497C00032620E006F0FE061E613A46434620461A
:10498C001849FFF76BFFA8B9236803905A69394699
:10499C0003929B69424603932046039BFFF7A0FFBB
:1049AC00064660B1236C042B01BF2268136843F4E4
:1049BC00007313600126304605B0BDE8F083B9F1F1
:1049CC00010F236802D1EDB21D61F4E72A0A1A61C6
:1049DC00394642462046FFF783FF0028E2D1236880
:1049EC00F1E700BF020001002DE9FF479A46DDE91F
:1049FC000C78036815461A680E4642F480621A60F9
:104A0C001A684FF0011142F480721A603B46002282
:104A1C00CDF800800446FFF7D3FE236848B11B682D
:104A2C00DB0548BF4FF400734FF0030048BF23640D
:104A3C0021E05FFA86F906F0FE061E613A4643460F
:104A4C0020462949FFF70AFFA0B9236803905A6949
:104A5C00394603929B69424603932046039BFFF71A
:104A6C003FFF58B1236C042B01BF2268136843F439
:104A7C0000731360012004B0BDE8F087BAF1010F98
:104A8C0023681AD1EDB24246394620461D61FFF724
:104A9C0027FF02460028E5D1216820460B6843F425
:104AAC0080730B603B464FF00111CDF80080FFF78F
:104ABC0087FE226860B11368B2E72A0A1A61394688
:104ACC0042462046FFF70CFF0028CBD12368D9E7DC
:104ADC0049F001031361204643463A46024904B0AB
:104AEC00BDE8F047FFF7BABE0200010070B50446FE
:104AFC000D46164623685B695B0701D500201EE056
:104B0C002046FFF744FEC8B96A1CF3D0FFF736F80D
:104B1C00801BA84201D8002DECD123685B6913F0EF
:104B2C000403E7D12022236384F83D2084F83E302F
:104B3C00226C84F83C3042F020022264012070BDCB
:104B4C0070B5044608B9012070BD90F83D3003F0F3
:104B5C00FF021BB980F83C20FEF7A8FC242384F844
:104B6C003D3023681A6822F001021A601A6842F478
:104B7C0000421A601A6822F400421A6002F0C8FA65
:104B8C003F4B65689D4294BF3E4B3F4B98428CBF58
:104B9C0000230123002BD6D1394E3C4BB542B0FB40
:104BAC00F3F388BF4FF496762268516821F03F01E9
:104BBC0041EA030182BF73434FF47A76B3FBF6F3F9
:104BCC005160116A013321F03F010B431362D1692B
:104BDC00431E2B4821F44F41854221F0FF0132D86E
:104BEC006D00B3FBF5F340F6FC700133034242D089
:104BFC00C3F30B031943D1611168D4E9073021F0D9
:104C0C00C00103430B4313609168D4E9030321F4FF
:104C1C000341034321F0FF010B439360D168D4E9B6
:104C2C00053021F0FF0103430B43D36013680020D0
:104C3C0043F0010313602023206484F83D3020638B
:104C4C0084F83E0080E7A06850B905EB4505B3FB3E
:104C5C00F5F30133C3F30B037BB143F40043C9E712
:104C6C0019206843B3FBF0F30133C3F30B0323B1F7
:104C7C0043F44043BEE70423BCE70123BAE700BF7B
:104C8C00A08601007F841E00FF083D0040420F00FB
:104C9C0010B5044698B12423026880F83D3013689F
:104CAC0023F001031360FEF775FC0020206484F8E8
:104CBC003C0084F83D00206384F83E0010BD0120C8
:104CCC00FCE700002DE9F743044699460F46904651
:104CDC000C9EFEF753FF94F83D300546202B03D075
:104CEC00022003B0BDE8F083009019230122204676
:104CFC003A49FFF765FD0028F2D194F83C30012BBE
:104D0C00EED00123206884F83C3003684246D90772
:104D1C0058BF036839465CBF43F001030360036866
:104D2C0023F400630360212384F83D30402384F88E
:104D3C003E30002323640A9B20466362BDF82C306E
:104D4C006385638D2385264BE3624B46CDE9006575
:104D5C00FFF7F0FD00282AD00120C2E7FFF7C0FDC5
:104D6C0040B1236C042B01BF2268136843F4007319
:104D7C001360F1E7636A27681A4612F8011B396160
:104D8C006262628D218D013A92B262857A69481E07
:104D9C0080B2520720850AD548B15A7802333A615D
:104DAC006362638D0239013B9BB221856385238D40
:104DBC002A4631462046002BD0D1FFF797FE00281B
:104DCC00CFD12268136843F400731360202384F856
:104DDC003C0084F83D3084F83E0082E7020010006D
:104DEC000000FFFF2DE9FF4799460023044602937C
:104DFC000F4690460C9EFEF7C1FE94F83D3082465D
:104E0C00202B16D146F2A812554B1B68B3FBF2F3BC
:104E1C00192253430293029B013B0293029B53B909
:104E2C002022236384F83D2084F83E30236C134306
:104E3C002364022066E0226893699907EBD494F806
:104E4C003C30012BF5D0012384F83C30136800254D
:104E5C00DB0758BF136843495CBF43F00103136081
:104E6C00136823F400631360212384F83D3040233E
:104E7C0084F83E30BDF8343025646385638D6662FA
:104E8C009BB2E16223856764C4F84880C4F84C90F7
:104E9C002565002B57D0606B40B333494563816265
:104EAC0032491032C0E90B513146FFF7E9F9064699
:104EBC0000283CD123234246009339464B462046DA
:104ECC00CDF804A0FFF736FDF8B1606BFFF734FAAC
:104EDC00636B9E6223681A6822F480621A6066858E
:104EEC001A68268522F001021A600AE0202384F851
:104EFC003D3084F83E00236C84F83C0043F0800382
:104F0C002364012004B0BDE8F087236803905A693C
:104F1C0003929A6984F83C000392039A5A6842F40B
:104F2C0080725A605A6842F400625A60EAE72023A1
:104F3C0084F83D3084F83E50236C84F83C5043F0A8
:104F4C0010032364DDE7202284F83D2084F83E30F2
:104F5C00226C84F83C3042F040022264D1E700BF5E
:104F6C007C0000200000FFFF495200080F5200088F
:104F7C002DE9F04786B0044698460E461746DDF8F4
:104F8C0038A0FEF7FBFD0023039394F83D308146D7
:104F9C00202B03D0022006B0BDE8F08746F2A81201
:104FAC00644B1B68B3FBF2F3192253430393039B2B
:104FBC00013B0393039B4BB92022236384F83D20D0
:104FCC0084F83E30236C13432364E3E721688B6938
:104FDC009A07ECD494F83C30012BDBD0012384F8F5
:104FEC003C300B680025DB0758BF0B68524A5CBF8E
:104FFC0043F001030B600B6823F400630B60222366
:10500C0084F83D30402384F83E30BDF83C302564B4
:10501C006385638DC4F824A09BB2E2622385666429
:10502C00A764C4F84C802565002B66D0A06B58B3E0
:10503C00424A45638262424A1031C0E90B525246E1
:10504C00FFF71EF9824600284BD123233A460093E2
:10505C00314643462046CDF80490FFF7C5FC00B31B
:10506C00A06BFFF769F9A36BC3F828A023681A6833
:10507C0022F480621A60A4F82AA01A68A4F828A066
:10508C0022F001021A600AE0202384F83D3084F8F3
:10509C003E00236C84F83C0043F080032364012021
:1050AC0079E7228D2368012A0BBF1A685A6822F40B
:1050BC00806242F480520CBF1A605A600022049243
:1050CC0059690491996984F83C20049104995A68AF
:1050DC0042F480725A605A6842F400625A600020AE
:1050EC0059E7202384F83D3084F83E50236C84F833
:1050FC003C5043F010032364D1E723233A4600933A
:10510C00314643462046CDF80490FFF76DFC00284D
:10511C00C5D1236805905A6905929A690592059A3A
:10512C001A6842F400721A60202384F83C0084F858
:10513C003D30D4E77C0000200000FFFF49520008FE
:10514C000F520008704770477047704770477047A0
:10515C0090F83D2008B5036DD2B283B9C36C0268D8
:10516C00012B836C05D1DBB21361036D0233036534
:10517C0008BDC3F307231361036D0133F7E7036D18
:10518C00012B03D1836C0268DBB2F4E7036D022BB5
:10519C002FD1222A05D10268136843F4807313605F
:1051AC00EAE7438D9BB263B1212A0AD1436A0268B4
:1051BC0013F8011B11614362438D013B9BB2438584
:1051CC00D6E7438D9BB2002BD2D1212AD0D10268D5
:1051DC00516821F4E0615160116841F40071116073
:1051EC002022036380F83D2080F83E30FBF72CFF33
:1051FC00BEE703685A69120644BF00221A61B7E77A
:10520C007047406A08B5436B0BB100229A62836BFE
:10521C000BB100229A620268136823F48063136056
:10522C0000232022438580F83D2080F83E30036C1B
:10523C0043F010030364FFF7E3FF08BD70B5446A45
:10524C00236894F83D1094F83E00E26A5D68C9B298
:10525C0025F440755D60656BC0B20DB10026AE6281
:10526C00A56B0DB10026AE6201F02105212D05D0F4
:10527C0001F02205222D23D1202821D15A68292979
:10528C0022F400625A604FF0000363850DD1212394
:10529C0023632823204684F83D30FFF755FF22680E
:1052AC00536843F44073536070BD2A29F7D122230D
:1052BC0023632823204684F83D30FFF746FFEEE7B2
:1052CC0094F83E100029EFD0618D89B2012902BFFC
:1052DC00196821F480611960596812F5803F21F436
:1052EC004071596006D0082A04D0B2F12A4F01D07F
:1052FC00202A03D1196841F400711960596821F40E
:10530C0080515960596821F400615960002363850C
:10531C00236C1BB12046FFF773FFC5E7202184F8EF
:10532C003D1094F83E1084F83E30402904D12046BC
:10533C002363FBF78FFEB7E7082A01D0202A05D19B
:10534C00002320462363FFF7FEFEADE71223F8E7A8
:10535C0070470000002337B546F2A81101932C4B7F
:10536C00406A1B6890F83D20B3FBF1F323214B43BB
:10537C0001930368D2B2019941BB016C41F0200149
:10538C000164446B0CB10021A162816B09B1002551
:10539C008D621D6825F480651D600025458504B16E
:1053AC00656301B14D63196821F00101196090F832
:1053BC003D10602911D1202380F83D30002380F866
:1053CC003E300364FFF7C4FF03B030BD01990139CF
:1053DC00019119688905CED4D3E702F02802282A56
:1053EC000ED1196841F001011960196841F480610E
:1053FC0019600023036380F83D20FFF701FFE3E70A
:10540C00202380F83D30002380F83E30F5E700BFC4
:10541C007C00002010B590F83D2090F83E300446FA
:10542C00102BD9B2D2B2036801D0402913D1222A51
:10543C0011D1196821F400611960596811F40061E7
:10544C0006D1602A1EBF202284F83D2084F83E102D
:10545C000022226307E002F028012829EDD1002266
:10546C00226384F83D105A6812F400624FD05A68D7
:10547C00606B22F400625A6090F82130012B374B9C
:10548C002BD04363FEF758FF50B12268606B136852
:10549C0023F001031360202384F83D30436B9847BD
:1054AC00236C19071FBF2268536823F4E063536011
:1054BC0094F83D30226CDBB252070DD5282B0BD162
:1054CC00274B2022E36200232046236384F83D20EF
:1054DC0084F83E30FFF73BFE10BDA06B4363FEF734
:1054EC002BFF0028DCD023685A69510605D51A69B0
:1054FC00636A1A70636A013363622268A06B136873
:10550C0023F001031360202384F83D30C6E794F8A0
:10551C003D10602915D1202184F83D1022645A6970
:10552C00520605D51A69636A1A70636A013363629D
:10553C0022682046136823F001031360FFF708FF6D
:10554C00AEE75A69500605D51A69636A1A70636A20
:10555C00013363622046FFF753FEA1E76153000855
:10556C000000FFFFF0B5044603688FB05A68C66AA6
:10557C0090F83E0094F83D101028C5B2C9B202D084
:10558C00402D40F0E5829F69586910F0010F07D15A
:10559C00B6F52A0F02D0B6F12A4F51D10FB0F0BD9B
:1055AC0096054DD5E26AB2F52A0F0CD10122E262C2
:1055BC0094F83E20402A11D1226D52B9626C02F04F
:1055CC00FE021A61EAE7E26AB2F12A4FF0D1082230
:1055DC00EDE7626C42F00102D2B2F2E72269B2F559
:1055EC00804F1AD194F83D20212A626C11D102F01F
:1055FC00FE021A61626B0AB1926A2AB9A26B002A86
:10560C00CCD0926A002AC9D05A6842F400625A601F
:10561C00C4E742F00102D2B2EBE7226D32B9626C00
:10562C00D21102F0060242F0F002CAE7226D012A02
:10563C00B4D1626CD21102F0060242F0F102C0E762
:10564C00060703D5960501D5626CE4E7860740F1A1
:10565C00F080960540F1ED8094F83E10E26A256BDF
:10566C0094F83D00C9B2222840F0DB80206D40B98F
:10567C00402906D100905A6900929B690093009BC7
:10568C008CE7216D89B92069B0F5404F0DD101919E
:10569C005A6901929A690192019A1A6842F48072CD
:1056AC001A60236D0133236578E7618D89B251B996
:1056BC0002915A6902929A690292029A1A6842F409
:1056CC0000721A6019E0618D89B2012949D112F575
:1056DC00803F1BD11A6822F480621A605A6812F457
:1056EC0000620CD01A6822F480621A6000220392C5
:1056FC005A6903929B690393039B0023D3E704929B
:10570C005A6904929A690492049AD7E7082A1CD021
:10571C00202A1AD0122D0DD1012A16D11A6822F482
:10572C0080621A60002205925A6905929B69059362
:10573C00059BE2E7102AF1D8864941FA02F2D70715
:10574C00ECD41A6842F48062EBE71A6822F48062A7
:10575C001A60002206925A6906929A690692069A73
:10576C00ACE7618D89B2022938D1102A03D87A4965
:10577C00D140CE0718D4196841F40061196000219A
:10578C00079159690791996907910799196821F44B
:10579C008061196059680D05AFD5202A1BD8072ADE
:1057AC000ED8012AA9D111E0196841F48061196061
:1057BC000021089159690891996908910899E9E7BC
:1057CC00A2F10801654ACA40D00796D55A6842F43E
:1057DC0080525A6091E712F5803FE3E7196841F473
:1057EC00806119605968090510D5202A16D8072A36
:1057FC0006D8012A0AD15A6842F480525A6005E050
:10580C00A2F10801554ACA40D207F4D400220992E9
:10581C005A6909929B690993099B6EE712F5803FBF
:10582C00E8E700220A925A690A929B690A930A9B3A
:10583C00B4E67F0740F194805E6836053FF5AEAE66
:10584C00070600F004063ED550053CD5002E3DD190
:10585C0094F83D20258D94F83E10D2B2E06AC9B27E
:10586C00C5B9212A18D1082858D0202856D010F5AF
:10587C00803F53D05A6822F4E0625A6011232363AC
:10588C00002384F83E302023204684F83D30FFF777
:10589C0059FC83E6212A05D040297FF47FAE222AC9
:1058AC007FF47CAE628D92B21AB95A6822F480628F
:1058BC00ADE694F83E20402A16D120460FB0BDE844
:1058CC00F040FFF745BC002E3FF468AE97057FF51E
:1058DC0065AE212939D1E16A94F83D20212A7FF463
:1058EC005DAE628D92B24AB1626A12F8011B196107
:1058FC006262638D013B9BB263854FE608290DD034
:10590C0020290BD011F5803F08D0596821F4E061B3
:10591C0059601123236384F83E20B4E75A6820466B
:10592C0022F4E0625A601A6842F400721A60002392
:10593C002022236384F83D2094F83E2084F83E30E6
:10594C00402AA4D1FBF780FB28E6402D7FF426AE3D
:10595C00B3E700BFEBFFFEFF1400010001010001E3
:10596C0059680E053FF51AAE450600F0040140F1EA
:10597C008680500540F18380002940F0838094F8A4
:10598C003D20222A7FF40AAEE06A628D92B2032A8D
:10599C0014D91A69636A1A70636A01336362638D7E
:1059AC00013B9BB26385638D9BB2032B7FF4F6ADF9
:1059BC002268536823F480635360EFE5E56A022D97
:1059CC003FF473AF012A3FF670AF0B9146F2A8116A
:1059DC00794A1268B2FBF1F202EB82020B920B9A3B
:1059EC00013A0B920B99D1B9226C204642F020025D
:1059FC0022645A6822F4E0625A601A69636A1A7067
:105A0C00636A01336362638D013B9BB26385202320
:105A1C0084F83D3084F83E10FFF7F2FBBEE51A68BF
:105A2C0012F40072DBD1196821F480611960596895
:105A3C0021F4E06159601969636A1970636A013372
:105A4C006362638D013B9BB26385202384F83D30F8
:105A5C0094F83E3084F83E20402B04D1226320463B
:105A6C00FBF7F8FA9AE5082801D0202801D1002389
:105A7C0000E0122320462363FFF765FB8EE5002927
:105A8C003FF48CAD92057FF589ADE26A608D616A59
:105A9C0080B2042809D15A6822F480625A601B69CA
:105AAC000B70636A0133636223E7608D80B2032855
:105ABC000CD15868042A20F480605860EFD0022A78
:105ACC00EDD01A6822F480621A60E8E7608D80B22B
