:020000040800F2
:100000000050002025350008413200084332000826
:10001000453200084732000849320008000000005D
:100020000000000000000000000000004B3200084B
:100030004D320008000000004F3200085132000825
:100040006D3500086D3500086D3500086D35000808
:100050006D3500086D3500086D3500086D350008F8
:100060006D3500086D3500086D3500085532000803
:100070006D3500086D350008613200086D320008EA
:100080006D3500086D3500087932000885320008AA
:10009000913200086D3500086D3500086D35000897
:1000A00095320008A1320008A5320008A9320008E4
:1000B000AD320008B9320008C53200086D350008BD
:1000C0006D350008D1320008DD3200086D350008BA
:1000D0006D350008E93200086D3500086D350008FF
:1000E0006D3500086D3500086D3500080000000012
:1000F0000000000000000000000000000000000000
:0C01000000000000000000005FF808F1A3
:10010C0010B5054C237833B9044B13B10448AFF345
:10011C0000800123237010BD480200200000000065
:10012C00AC9B000808B5034B1BB103490348AFF364
:10013C00008008BD000000004C020020AC9B0008B1
:10014C00034613F8012B002AFBD1181A013870470B
:10015C0000220A4930B50B88094D013810F8014FBF
:10016C0014B902B10B8030BD5A1C92B2B2F5007FAB
:10017C00EC5414BF134600230122EFE77602002053
:10018C007E020020074A10B51188074C4B1C9BB20D
:10019C00B3F5007F138008BF0023605408BF1380A1
:1001AC0010BD00BF760200207E02002038B500246E
:1001BC000D460E4B01461C700D4B3F220D481C701A
:1001CC0009F02EF80B4B1F2229460B4883F83F40B1
:1001DC0009F026F83222084BDC77084B1A60102203
:1001EC00074B1A70074B1C7038BD00BFE40500208C
:1001FC00020500208F0500206F050020E00500207F
:10020C00E505002074020020014B1878704700BFF0
:10021C0001050020194B70B55B6806460D46144667
:10022C003BB347F2305316491648002A08BF1C4608
:10023C0009F04CF80F223146134808F0F1FF002367
:10024C00114A1249D37328460A2208F067FF0A2282
:10025C0020460F4908F062FF0E4B1B7863B10E4B22
:10026C00187810F0020003D00C2206200B4B1A70E9
:10027C0070BD4FF0FF30FBE70120F9E7680200206A
:10028C00C49B0008050000205F05002059050020D4
:10029C00430500208F050020E4050020E505002023
:1002AC00064B5B683BB1064B1B7813F0400F0CBF41
:1002BC000520072070474FF0FF3070476802002080
:1002CC00E4050020064A10B51188064C4B1C9BB265
:1002DC00802B138008BF0023605408BF138010BD0F
:1002EC007C0200207E0400202DE9FF471F463D4B79
:1002FC0004465B6888461546BDF83090002B6CD0E0
:10030C00394EDFF8E8A033789AF8001003F0400279
:10031C000A4365D01B0758D40A2201A9384608F0B5
:10032C00FDFE01A8FFF70CFF421ED2B2032A4AD8E9
:10033C002F48FFF70DFF9AF8003053B10A22694697
:10034C00204608F0EBFE6846FFF702FF2C20FFF773
:10035C0019FF01A8FFF7FCFE2648FFF7F9FE002263
:10036C0011462548DFF894C0038894B2A74216D8EA
:10037C0001B103803378224C23F00C0343F00C03BF
:10038C00337023683BB11F489847236801A89847EE
:10039C0023681D489847092004B0BDE8F0875C1C11
:1003AC00A4B2B4F5007F08BF0024691C18F80550EE
:1003BC0089B20CF803500132494514BF0D46002593
:1003CC0023460121D1E70B20E6E70D4B1B680BB947
:1003DC000820E1E70D489847FAE74FF0FF30DBE7DC
:1003EC000520D9E768020020E40500200205002062
:1003FC0067A10008C89B0008760200207E0200203E
:10040C00D0050020CB9B0008879D0008DE9B0008D0
:10041C0002460F4B0068516803C390680D4A186080
:10042C00002313700C4A13700C4A13800C4A13806F
:10043C000C4A13800C4A13800C4A13700C4A13702C
:10044C000C4A13700C4A13600C4A1360704700BFBF
:10045C0068020020E505002000050020780200203D
:10046C00760200207A0200207C020020E4050020A5
:10047C000205002001050020D4050020D005002035
:10048C00094A13680BB1013B1360084A136823B186
:10049C00013B13600BB9064A1370064A13680BB183
:1004AC00013B1360704700BFE0050020DC05002015
:1004BC0000050020D80500202DE9F84FA34AA44ED2
:1004CC00B2F800B0338800255B4506D0A14F3A78CE
:1004DC00103A022A23D8A6F800B09F4E9F4D3368DD
:1004EC00002B40F0508264239A4C33602378122BFB
:1004FC0000F24982DFE813F0CF037402B602BC02AB
:10050C00C602D9020A0314031E0354035C036D03D1
:10051C007B038A03C703CC033C025F026E020222F8
:10052C008F49904C0A609B45D7D08F4AD05C22787B
:10053C000D2A00F21882DFE812F00E005700C500F9
:10054C00160216028D01A201AA01B7011602D201F0
:10055C00EF010102E001002304219846DFF80CC2F0
:10056C00834ADFF810928CF8003011705FFA83FE2A
:10057C0059F82E10E1B9B8F1000F01D08CF800E059
:10058C000022774B75491A600B7813F0010F06D0D7
:10059C003E2804D162F300030B70774B1A6033884A
:1005AC0001339BB2802B338004BF00233380BAE726
:1005BC0091F804A00133824513D1B8F1000F01D09A
:1005CC008CF800E00B784978303B313903EB83032E
:1005DC0001EB430369490B8001232370052313703E
:1005EC00DDE74FF00108C1E7DFF880C161499CF8F5
:1005FC00002051F822205E49097812F801E0864566
:10060C0014D1DFF878C1BCF80030013B9BB2ACF8D8
:10061C0000300BB10D284DD19378D278303B03EBE1
:10062C008303303A02EB43032370B8E70022914670
:10063C00C1F57F4A8CF800200AF1D30ADFF834C1E7
:10064C005FFA82F85CF828C0BCF1000F0CD1B9F14C
:10065C00000F04D0494A1580444A82F800800022D9
:10066C00013B227033809AE79CF800E09CF8015023
:10067C00AEF1300E0EEB8E0E554405EB4E05ADB2C1
:10068C007F2D1BD81CF801E0864517D13B4B1D80F4
:10069C00B9F1000F02D0354B83F8008055B99CF8A6
:1006AC0002309CF80320303B03EB8303303A02EB1F
:1006BC00430323702E4B0131197070E74FF0010981
:1006CC000132BBE70A287FF46AAF0022274B227065
:1006DC001B78023B0D2B3FF662AF01A151F823F0C2
:1006EC00250700083D07000895070008AB05000822
:1006FC00C1070008C1070008FF0700080908000827
:10070C0021080008FF070008AB0500084B0800088B
:10071C00AB050008550800083B78022B7FF43FAF6F
:10072C0000220D4B1A600D4A137843F0200356E754
:10073C000A4A137819077FF532AF23F04803137078
:10074C000F4B1A880F4B1A8029E700BF7C02002040
:10075C007A020020E5050020E0050020E4050020D9
:10076C00DC050020000500207E040020650200202E
:10077C0064020020E89F0008D8050020FE04002039
:10078C0076020020780200209A4B1A603B78092BE5
:10079C00994B02BF1A7842F020021A701A7842F074
:1007AC0002021A70954B1B68002B3FF4F8AE032025
:1007BC009847F4E6DFF8408298F8003023F04003C5
:1007CC0088F800308D4B1B680BB1002098478C4B80
:1007DC001A78002A7FF4E3AE98F8003062F34103F4
:1007EC0088F800303B78092B3FF4D9AE12233B70CC
:1007FC00D5E6814A137823F04003F0E67E4A13785D
:10080C0023F0080313707D4B1B68002B3FF4C7AE1D
:10081C000A20CDE77A4B1B78002B7FF4C0AE754ACB
:10082C001360754A137823F0600343F06003137070
:10083C00724B1B68002B3FF4B2AE0720B8E76E4A30
:10084C00137823F04203CAE66B4A137823F0420371
:10085C001370CBE76B4A2C28126807D10623237040
:10086C00002A3FF49CAE6848904798E60021013B73
:10087C0021703380002A3FF492AE6448F4E72228BA
:10088C007FF48DAE072323700022614B5BE7222897
:10089C0003D05F4A1388102B01D10823C4E6591CDE
:1008AC0011805C4AD0547AE60A287FF478AE002393
:1008BC00574A23701188574A0F299BBF53544E49EE
:1008CC0013700A789FBF42F020020A70494A1360E5
:1008DC004A4B1B68002B3FF462AE042068E72C28BF
:1008EC007FF4BDAE464B1B782BB10D230022237039
:1008FC00494B1A7053E60B23C5E72C28FBD0A0F10B
:10090C003002092A3FF6ABAE434A137803EB83035C
:10091C0000EB4303303B62E63A2801D10C2383E61B
:10092C00A0F13002092A3FF69AAE394A138803EB3C
:10093C00830300EB4303303B138030E6374B9B685B
:10094C0003B19847324A1388013B9BB21380002BAA
:10095C007FF425AE23702B4B1B68002B3FF41FAE8E
:10096C002F4898471BE600232E4A2370136016E687
:10097C002A4B00201B689847224B1B680BB12A4856
:10098C009847112323702B78DA0740F1D381274A3B
:10099C00126872B923F00903254A2B70184B118881
:1009AC001B78244A118023B90122234B1A700A2385
:1009BC003360BDE8F88F194B01201B689847114B29
:1009CC001B680BB11D489847122323704FF4FA7320
:1009DC003360D8E7012300222370194B1A70D2E739
:1009EC00174A137873B3013BDBB2137063BB10234C
:1009FC00C8E700BFE0050020E4050020D405002076
:100A0C0002050020D0050020F69B00080B9C000876
:100A1C00FE0400204905002001050020680200208A
:100A2C001F9C0008DC050020329C0008D805002023
:100A3C007602002078020020E5050020489C000882
:100A4C0074020020042313702B78974823F02003A2
:100A5C002B70FFF77DFB954B1B680BB194489847A7
:100A6C0002238FE72B78980640F1BF80032389E798
:100A7C009048FFF76DFB8D4B1B680BB18E48984768
:100A8C0004237FE78D4F3B786BB18D48FFF760FBFC
:100A9C00864B1B680BB18B4898473B78002B0CBFDF
:100AAC00082305236EE78848F0E78848FFF750FBDA
:100ABC002220FFF767FB8648FFF74AFB2220FFF74F
:100ACC0061FB2C20FFF75EFB2220FFF75BFB8148CC
:100ADC00FFF73EFB2220FFF755FB2C20FFF752FBC4
:100AEC007D48FFF735FB2C20FFF74CFB7B48FFF7CD
:100AFC002FFB0D20FFF746FB0A20FFF743FB6B4B48
:100B0C001B680BB17648984706233BE77548FFF7FF
:100B1C001FFB664B1B680BB173489847072331E7E3
:100B2C007248FFF715FB614B1B680BB17048984777
:100B3C000F2327E72B78990701D50A2322E76D4F5E
:100B4C003B78002B3FF41FAF6B48FFF701FB2220D3
:100B5C00FFF718FB3846FFF7FBFA2220FFF712FBD2
:100B6C002C20FFF70FFB2220FFF70CFB6348FFF74D
:100B7C00EFFA2220FFF706FB0D20FFF703FB0A20FC
:100B8C00FFF700FB494B1B680BB15D4898472B786E
:100B9C0023F020032B700923237040F2DC5317E75A
:100BAC002B789A0621D50A2304222370554B15E77E
:100BBC000022554B55481A70FFF7CAFA3B4B1B687D
:100BCC000BB1534898472B7823F020032B700B2341
:100BDC00D8E62B789B0601D50C23D3E6494A13782B
:100BEC00013BDBB21370002BA7D10123CAE6494BA2
:100BFC001B78002B3FF4C7AE4748FFF7A9FA2B4BE5
:100C0C001B680BB1454898470D23BBE64448FFF7DA
:100C1C009FFA2220FFF7B6FA4248FFF799FA2220F2
:100C2C00FFF7B0FA2C20FFF7ADFA2220FFF7AAFA53
:100C3C003848FFF78DFA2220FFF7A4FA2C20FFF793
:100C4C00A1FA3948FFF784FA2C20FFF79BFA3748B2
:100C5C00FFF77EFA2C20FFF795FA3020FFF792FA77
:100C6C000D20FFF78FFA0A20FFF78CFA0F4B1B6849
:100C7C000BB12F4898472B7823F060032B700E2371
:100C8C002370C823A4E62B789F063FF551AFACE741
:100C9C000A4B1B780BB100239AE62B789807A4D546
:100CAC00590699D5F7E700BFB1A10008D00500207F
:100CBC005E9C0008A3A100086C9C000802050020A3
:100CCC00809C00089C9C00088E9C000859A1000880
:100CDC002305002003050020020000200000002056
:100CEC00B09C000845A10008C39C000831A1000875
:100CFC00D79C00088F05002099A100086F050020E3
:100D0C00EE9C000874020020490500208EA100080A
:100D1C00019D00085F05002073A10008129D0008CA
:100D2C0081A1000805000020590500204305002082
:100D3C00289D0008154C16492288098891423FF4D9
:100D4C0038AE144E5F07B05C02D53E2808BF0A20AF
:100D5C00114B5B68984700283FF42BAE2A78238808
:100D6C0051070AD5F15C3E2907D1052122F0050275
:100D7C0042F001022A70094A116001339BB2B3F5AB
:100D8C00007F08BF0023238013E600BF78020020F9
:100D9C00760200207E02002068020020D805002088
:100DAC00014B1860704700BFD4050020014B186040
:100DBC00704700BFD00500200022F0B5084BD4B21C
:100DCC00A14202F1010200D8F0BD5D791E686F1CD2
:100DDC005F71045D74555C79DD792C405C71EEE7D4
:100DEC00680C0020032802BF0122014B1A707047C7
:100DFC0030060020021E18BF01224FF4007101487A
:100E0C0003F04CB9000C01401FB514461A464FF0C4
:100E1C00FF330091CDE9014301460123024803F061
:100E2C00C3FB04B010BD00BF940E0020FFF7ECBF55
:100E3C0013B514461A46CDE90014012301460248A5
:100E4C0003F042FC02B010BD940E002013B5144602
:100E5C001A46CDE9001401230146024803F0FAFCBE
:100E6C0002B010BD940E002007B501228DF80700CA
:100E7C000DF10701034806F0E8FAB0FA80F04009DA
:100E8C0003B000BDA40C002010B50446FFF758F9C0
:100E9C0081B22046BDE8104007F086BF10B5164B56
:100EAC001B78F3B115490C78FF2C15D07E2C144B04
:100EBC0013D818550020621CD2B2012A0A7098541B
:100ECC000AD0134413F8022C0D2A05D113F8013C57
:100EDC000A2B01D1FF230B7010BD00220A701A706F
:100EEC00FAE7084B5A791968541C5C7188545A7982
:100EFC00D9790A405A71EFE7850700208607002050
:100F0C0087070020500C0020054B064A03F1100106
:100F1C0053F8040B8B4242F8040BF9D1704700BF15
:100F2C00900C0020800C00200122014B1A7070479D
:100F3C00470800200122014B1A7070474608002018
:100F4C0038B502681A4B04469A4212D1194A1A490A
:100F5C0013781A480133DBB2282B01BF002313701E
:100F6C00174A137808BF43F080031370082202F06D
:100F7C00BBFC2368B3F1804F18D1012211491248F0
:100F8C000B78124CE2541344027803F00F03013A2D
:100F9C0012F0FF0208BF05250B7003BFE2540133AA
:100FAC0003F00F03027004BF05700B7038BD00BF57
:100FBC00002C0140A00C0020900C00202C0F0020D5
:100FCC0048080020280800203A00002029080020AA
:100FDC00F0B5026883790C46D15C0546B22989B01C
:100FEC0018D89F291CD9A13911291FD8DFE811F075
:100FFC00280038008400D300F100650182010E0145
:10100C002B0148019F018F02AC02C902E6020303C7
:10101C002003E201F02900F0EA81F12900F04D8271
:10102C000222204602F07FF9FF2105E0A0210222D6
:10103C00204602F078F90D21204602F0BCF908E0B8
:10104C00A1210D22204602F06EF92046C84902F07B
:10105C00C5F92046217A09B0BDE8F04002F0ABB9E1
:10106C000D22A221204602F05EF9C24BC24DB3F90B
:10107C00001020462980C9B202F09DF969782046FB
:10108C0002F099F9BD4B2046B3F900102980C9B282
:10109C0002F091F96978204602F08DF9B84B2046A0
:1010AC00B3F900102980C9B202F085F9697820469D
:1010BC0002F081F9B34B2046B3F900102980C9B274
:1010CC0002F079F96978204602F075F9AE4B2046AA
:1010DC00B3F900102980C9B202F06DF96978204685
:1010EC0002F069F9A94BB3F9001029802046C9B266
:1010FC0002F061F969789FE7A54E1122A3212046E1
:10110C0002F011F99C4D318820462980C9B202F0B9
:10111C0052F96978204602F04EF9718820462980F0
:10112C00C9B202F048F96978204602F044F9B18856
:10113C0020462980C9B202F03EF96978204602F0B7
:10114C003AF9F18820462980C9B202F034F969785D
:10115C00204602F030F9318920462980C9B202F0CC
:10116C002AF96978204602F026F9718920462980EF
:10117C00C9B202F020F96978204602F01CF9B18955
:10118C0020462980C9B202F016F96978204602F08F
:10119C0012F9F189A9E70222A421204602F0C3F832
:1011AC000D21204602F007F9217A204602F003F9BE
:1011BC0000220121284602F036F96F4C00222070E3
:1011CC000121284602F02FF960702288714B1A8099
:1011DC00CBE00222A521204602F0A5F80D212046E5
:1011EC0002F0E9F8217A204602F0E5F8002201210C
:1011FC00284602F018F9604C002220700121284684
:10120C0002F011F960702288634BE0E70222A821FA
:10121C00204602F088F80D21204602F0CCF8217A05
:10122C00204602F0C8F800220121284602F0FBF803
:10123C00514C002220700121284602F0F4F8607015
:10124C002288564BC3E70222A921204602F06BF8F4
:10125C000D21204602F0AFF8217A204602F0ABF8BF
:10126C0000220121284602F0DEF8434C00222070B7
:10127C000121284602F0D7F860702288484BA6E777
:10128C000222AA21204602F04EF80D21204602F03F
:10129C0092F8217A204602F08EF80022012128468D
:1012AC0002F0C1F8344C002220700121284602F0D3
:1012BC00BAF8607022883B4B89E70222A6212046AF
:1012CC0002F031F80D21204602F075F8217A204603
:1012DC0002F071F800220121284602F0A4F8264CF5
:1012EC00002220700121284602F09DF860702288AF
:1012FC002D4B6CE70222A721204602F014F80D2199
:10130C00204602F058F8217A204602F054F80022C8
:10131C000121284602F087F8174C00222070012189
:10132C00284602F080F860702288204B4FE702229A
:10133C00AB21204601F0F7FF0D21204602F03BF8CF
:10134C00217A204602F037F800220121284602F0CB
:10135C006AF8094C002220700121284602F063F83B
:10136C006070B4F90020124B1A6009B0F0BD00BFD8
:10137C0098B60008440800204C08002042080020C1
:10138C00400800203E0800203C0800203A080020BD
:10139C00800C0020260800202408002026000020B5
:1013AC002400002000060020220000202000002045
:1013BC00180000200222B221204601F0B4FF0D21BA
:1013CC00204601F0F8FF217A204601F0F4FF0022BC
:1013DC000121284602F027F8A44C0022207001219C
:1013EC00284602F020F860702288A14BEFE6002519
:1013FC001D22204601F097FF9E4B01AF1B88ADF8D4
:10140C0004309D4B1B88ADF806309C4B1B88ADF807
:10141C0008309B4B1B88ADF80A309A4B1B88ADF8F3
:10142C000C3037F9026B2046F1B201F0C4FF0135E4
:10143C002046C6F3072101F0BEFF052DF1D1924DD8
:10144C002046297801F0B7FF6978204601F0B3FFF8
:10145C00A978204601F0AFFFE9780025204601F07D
:10146C00AAFF8A4B04AF1B88ADF81030884B1B8841
:10147C00ADF81230874B1B88ADF81430864B1B88A7
:10148C00ADF81630854B1B88ADF81830844B1B8893
:10149C00ADF81A30764B1B88ADF81C3037F9026B5F
:1014AC002046F1B201F087FF01352046C6F3072133
:1014BC0001F081FF072DF1D1CBE50026112220464A
:1014CC0001F031FF774B04AF1B680493764B1B681C
:1014DC000593764B1B680693754B1B68079357F85F
:1014EC00045B2046E9B201F066FFC5F307212046F4
:1014FC0001F061FFC5F30741204601F05CFF0136A6
:10150C002046290E01F057FF042EE8D1A1E5022256
:10151C00AC21204601F007FF0D21204601F04BFFC6
:10152C00217A204601F047FF00220121284601F0D4
:10153C007AFF4E4C002220700121284601F073FFE7
:10154C0060702288514B42E60222AD21204601F008
:10155C00EAFE0D21204601F02EFF217A204601F0F3
:10156C002AFF00220121284601F05DFF3F4C00229A
:10157C0020700121284601F056FF60702288444BF0
:10158C0025E60222AE21204601F0CDFE0D2120469B
:10159C0001F011FF217A204601F00DFF00220121FC
:1015AC00284601F040FF314C0022207001212846D2
:1015BC0001F039FF60702288364B08E60222AF2119
:1015CC00204601F0B0FE0D21204601F0F4FE217AF8
:1015DC00204601F0F0FE00220121284601F023FFF5
:1015EC00224C002220700121284601F01CFF607063
:1015FC002288294BEBE50222B021204601F093FE14
:10160C000D21204601F0D7FE217A204601F0D3FEB1
:10161C0000220121284601F006FF144C0022207004
:10162C000121284601F0FFFE607022881B4BCEE59D
:10163C000222B121204601F076FE0D21204601F058
:10164C00BAFE217A204601F0B6FE0022012128467E
:10165C0001F0E9FE054C002220700121284601F022
:10166C00E2FE607022880E4BB1E500BF4C080020F2
:10167C00120000202600002000060020240000207C
:10168C00220000202000002018000020FE05002071
:10169C00FC0500201E0000201C000020160000206D
:1016AC00140000202006002014060020180600203C
:1016BC0010060020F0B516464379027905469A4289
:1016CC000C46C3B017D001F0BBFEA0B12146284692
:1016DC00FFF77EFC0022617A02A8D3B299420CD8A3
:1016EC00C6B1FEF791FD4FF4807300930022637A2C
:1016FC0002A9FEF7F9FD43B0F0BDA77925687B1C64
:10170C00DBB2A371ED5D013200F8015BE5792B4092
:10171C00A371E2E702A807F047FBECE710B50C4B0E
:10172C000C4C1A780C4B0D4853F8221001222378DC
:10173C0002FA03F38B4308BF1A464FF4005102F030
:10174C00ADFC2378013303F01F03237010BD00BFE1
:10175C001E080020E9050020400000200010014078
:10176C00F0B5002485B0012001F0AAF921464023F0
:10177C0020221E20009401F0E1FA2046162380223C
:10178C001421009401F0DAFA402352222146502011
:10179C00009401F0D3FA7F4D2146282001F082FA03
:1017AC007D4902A807F092FD95E80E00009402A86E
:1017BC0001F062FA2146552001F074FA774902A82B
:1017CC0007F084FD95E80E00009402A801F054FA8D
:1017DC001921282001F066FA0821714B714D0DEB8F
:1017EC000100B3F90030704A07F0DCFC95E80E00FC
:1017FC00009402A801F040FA1921552001F052FA88
:10180C0008216A4B0DEB0100B3F90030664A07F072
:10181C00C9FC95E80E00009402A801F02DFA2521D0
:10182C00282001F03FFA0821614B0DEB0100B3F9C0
:10183C0000305D4A07F0B6FC95E80E00009402A853
:10184C0001F01AFA2521552001F02CFA0821594BE8
:10185C000DEB0100B3F90030534A07F0A3FC95E8F7
:10186C000E00009402A801F007FA3121282001F0A3
:10187C0019FA0821504B0DEB0100B3F900304A4A1C
:10188C0007F090FC95E80E00009402A801F0F4F922
:10189C003121552001F006FA08211E26474B0DEB8D
:1018AC000100B3F90030404A07F07CFC95E80E00CB
:1018BC0040F6FA75424F009402A801F0DDF93B881E
:1018CC0003227343B3FBF5F3C3F13C0310463C21F5
:1018DC000094DBB201F0ECF97B8806227343B3FB76
:1018EC00F5F3C3F13C0310463C210094DBB201F04C
:1018FC00DFF9BB8809227343B3FBF5F3C3F13C0357
:10190C0010463C210094DBB201F0D2F9FB880C228A
:10191C007343B3FBF5F3C3F13C0310463C21009435
:10192C00DBB201F0C5F93B890F227343B3FBF5F32E
:10193C00C3F13C0310463C210094DBB201F0B8F932
:10194C007B8912227343B3FBF5F3C3F13C031046BE
:10195C003C210094DBB201F0ABF9BB891522734337
:10196C00B3FBF5F3C3F13C0310463C210094DBB20E
:10197C0001F09EF9FB8918227343B3FBF5F3C3F115
:10198C003C033C2110460094DBB201F091F905B008
:10199C00F0BD00BFB8A100083E9D0008429D0008A4
:1019AC0044080020C4A10008469D00083E08002001
:1019BC00420800203C080020400800203A08002083
:1019CC00800C002013B5264C2378032B45D8DFE878
:1019DC0003F002151A27234A234B11781B788B42EC
:1019EC0008D022484B1C415C03F00F0321B10321AA
:1019FC002170137002B010BD0121F9E7FFF7B0FEA2
:101A0C0002232370F6E71A4803F018FF2028F1D1BF
:101A1C0001F07CF80028EDD00023164A1370F0E793
:101A2C00134803F00BFF2028E4D100F08FFF0028AF
:101A3C00E0D0114B114A0193114B124900931248FB
:101A4C00124B00F0CBFF0022114B12491A700B788D
:101A5C00227043F008030B70CCE70023D1E700BFE2
:101A6C00E8050020E70500202808002029080020B0
:101A7C00940E0020470800203A080020400800205F
:101A8C003C08002042080020440800203E080020AA
:101A9C004608002048080020074B084A1B6812889B
:101AAC005A63074A1288DA63064A12889A63064A0E
:101ABC0012881A64704700BF340D002026080020DD
:101ACC0022080020240800202008002013B50B4B0E
:101ADC00044600934FF4AA71094B0A4A0A4807F0CE
:101AEC0061FB4FF4AA7300220093204640F243138B
:101AFC000549FEF7F9FB02B010BD00BF8E9D000832
:101B0C00499D0008899D00083106002013B50A4B39
:101B1C00044600934FF4AA71084B094A094807F090
:101B2C0041FB4FF4AA73002200932046B3230549CE
:101B3C00FEF7DAFB02B010BD939E0008499D000829
:101B4C00899D0008310600202DE9F84300241F462A
:101B5C000C7014701C7047F23A53089D89462B8008
:101B6C0032490646904607F06EFB58B1043010F827
:101B7C00013FE2B213F0DF0F01D0262B36D1002348
:101B8C0009F8023030462A4907F05DFB60B10023AA
:101B9C00043010F8012FD9B212F0DF0F01D0262A31
:101BAC002ED1002308F801303046224907F04BFBB8
:101BBC0058B10023C21C12F8011FD8B211F0DF0F6C
:101BCC0001D0262926D100233B5430461A4907F070
:101BDC003AFB48B10023053010F8012F303AD1B24E
:101BEC0009291DD903B12B80BDE8F8832B2B08BF25
:101BFC00202309F8043001343F2CB8D12246BEE72B
:101C0C002B2A08BF202208F8032001333F2BC0D118
:101C1C001946C6E7F95401330F2BCCD11846D2E73D
:101C2C0003EB830302EB430293B2D5E7089F000852
:101C3C000E9F0008149F0008199F00082DE9F0431F
:101C4C00344BA9B01E785EB100221A7047F23152A3
:101C5C00314B3248198829B0BDE8F043FEF7DABAA7
:101C6C00DFF8BC9099F80030002B42D02D4F3B7818
:101C7C00FF2B3ED1FEF7C8FA2B4C80462B49204651
:101C8C0007F0E1FA0546002836D04022314608A874
:101C9C0007F0BEFA4022314618A807F0B9FA102214
:101CAC0031460DEB020007F0B3FA0DF10E03009371
:101CBC00204604AB18AA08A9FFF746FF9DF8103080
:101CCC0033B1164B0F22184604A907F0A9FAC673B4
:101CDC00BDF80E300BB1104A13804046FFF716FFCB
:101CEC00002318A908A889F800303B702370FEF770
:101CFC005DFA29B0BDE8F08320460D4907F0A3FA40
:101D0C0028B14046FFF7E2FE3D702570F1E73870D0
:101D1C002070EEE730060020280000202A0000206A
:101D2C00850700208607002087070020209F0008D9
:101D3C002A9F000802780346032A1CD8DFE802F029
:101D4C000F021407427842B903221A7005E0417859
:101D5C0001220029F9D1017082700020704742786D
:101D6C00012AFAD10222F0E7407800220128ECD1B6
:101D7C0018709A7070470122E7E7000008B5837865
:101D8C0013B183880A339BB20A4A83801378042BDD
:101D9C000DD900234FF400410748137002F078F975
:101DAC00064B08B9587008BD01225A70FBE7013385
:101DBC001370F8E7E6050020000C0140080800202D
:101DCC0073B5214C2378DB0929D023781F4D23F0E0
:101DDC00800323702B781E4E013B2B703378013B14
:101DEC003370FEF74DFB1B48FFF7C8FF33782BB958
:101DFC0002233370237843F0400323702E7876B996
:101E0C000A232B70237843F020032370FFF786FC02
:101E1C00114A13780133DBB2092B02D8137002B0CC
:101E2C0070BD0E4B16701C78002CF8D1FEF738FAEA
:101E3C000728F4D14FF480732246009320460923DF
:101E4C000749FEF751FAEAE7480800203C00002059
:101E5C003B000020080800201D08002085070020FA
:101E6C000900002083784BB98288642A06D9B2F520
:101E7C007A7F04D20121044A117083807047FDD00F
:101E8C00014A1370F9E700BF1E080020AE4A2DE985
:101E9C00F04113781B0740F1EF801378AB4923F026
:101EAC000803137040F6FF724C884B89C988141BC9
:101EBC00511A24EAE474D31A0029ACBF6218221C0C
:101ECC0023EAE3731A44012AB8BF0122A04DA148AA
:101EDC00A14E2F68D0F800C0A0493260A04A57EA42
:101EEC000C0EB2F90020B1F900100ED04FF05F0EBD
:101EFC0002EB82020EFB0722642701EB81010EFB31
:101F0C000C1192FBF7F291FBF7F1016001F57A608D
:101F1C00B0F5FA5F2A60934D08D94FF47A704243BA
:101F2C0092FBF1F240F23D214A432A606FF0C70167
:101F3C008D4A8E48B2F900204FF0000C4A438321A1
:101F4C0092FBF1F28A498B4F0A6001680A442968B6
:101F5C00312505FB0211322291FBF2F2026041F2B3
:101F6C00883291FBF2F1844A84481160844AC0F8AB
:101F7C0000C015683A7822B1012A7FD087F800C0DA
:101F8C0006E040F2DB5332689A4201DD01233B70DC
:101F9C0032227C4B7C4E6D1A1D6033687B4CEB1AE5
:101FAC0002FB03FC7A4B05F19502B2F5957FC3F861
:101FBC0000C0236800F2A580142202FB0533754A89
:101FCC009342B8BF134649F640429342A8BF13460A
:101FDC004FF47A77704A2360B2F9002035605A4387
:101FEC0092FBF7F26D4BB3F9003005FB03226C4BFF
:101FFC00B3F900300CFB032292FBF7F3694FB2F5F7
:10200C007A7F3B60C0F28280674A1288134442F2A6
:10201C00283201F58C5114319142644D4FF000027D
:10202C007CD9114622602B888B42A8BF0B4629888D
:10203C0048428342B8BF03468A42A8BF0A4682423E
:10204C0099B2B8BF0246002B59485A4BD5BF4942EA
:10205C00198001800023D6BF00210380198093B220
:10206C00002A5549554AD5BF5B4213800B8000238B
:10207C00D6BF00230B801380BDE8F08140F2DB5EFD
:10208C00D6F800804E4EF0453268DFF838E10ADCB5
:10209C00002AD4BF6FF06303642387F800C0CEF826
:1020AC000030336074E74FF47A756B43A5F5FA652D
:1020BC0005FB04330A2493FBF8F393FBF4F39C1A0B
:1020CC00414ACEF80030B2F90050404AB2F9002033
:1020DC005A4305FB04223E4C002AB8BF0332B4F924
:1020EC0000409210026024B1002AB8BF524292FB09
:1020FC00F4F4384AB2F900502544322DA8BF3225E9
:10210C00CFE70A22DB0093FBF2F361E712F57A7F4B
:10211C00D7BF254A002312889B1A78E7002B10D0D2
:10212C002D4A0068B2F900102C4A0144B2F9002083
:10213C00C8BFC918A2EB0002CEBFD218591A9A1AFE
:10214C0071E71A4673E700BF48080020900C002086
:10215C000806002004060020F80500204008002096
:10216C00440800202C0600203C08002024060020F7
:10217C0028060020EA0500200C060020F0050020AF
:10218C0018000020200600201C0600201406002049
:10219C0018060020C063FFFF000600202600002068
:1021AC002400002010060020200000202200002027
:1021BC0022080020200800202608002024080020E7
:1021CC00EC050020F4050020FC050020FE05002095
:1021DC0012000020140000201E0000201C00002013
:1021EC0010B594B0142200210CA807F011F8142299
:1021FC0000210DEB020007F00BF81022002101A8C2
:10220C0007F006F802244FF480330122CDE9114384
:10221C00CDE90A234FF4E0130AA80E92139304F0AD
:10222C0089F908B172B6FEE70F23CDE905344FF4F6
:10223C0080630790CDE90830214605A804F03CFBEB
:10224C0008B172B6FEE7122301934FF40043CDE9B7
:10225C00033001A804F0ECFB08B172B6FEE714B031
:10226C0010BD000080B5A74D98B001F09FF9FFF7A5
:10227C00B7FF1022002111A806F0CAFFAB6900229B
:10228C0043F01003AB61AB694FF4005103F0100342
:10229C000293029BAB699C4843F02003AB61AB6992
:1022AC00002403F020030393039BAB69012743F045
:1022BC000403AB61AB69022603F004030493049B93
:1022CC00AB6943F00803AB61AB6903F008030593FA
:1022DC00059B01F0E3FE00224FF400718B4801F0E6
:1022EC00DDFE4FF40053884811A9CDE91137CDE933
:1022FC00134601F0F9FD4FF40043844811A9CDE9D0
:10230C001134139401F0F0FD4FF400737F4811A9C0
:10231C00CDE91137CDE9134601F0E6FD6B69224694
:10232C003B436B616B6921463B400B200193019B46
:10233C0001F01EFC0B2001F04BFC224621460E2026
:10234C0001F016FC0E2001F043FC224621460F2022
:10235C0001F00EFC0F2001F03BFC6D4A6D4BCDE9FA
:10236C00114413604FF480731394936014734FF4FF
:10237C0060231475546008241046D361146101F075
:10238C0065FB08B172B6FEE7CDE91107139011A9F0
:10239C005F4801F0EFF908B172B6FEE75C4811A98D
:1023AC00CDE9117601F0E6F908B172B6FEE7032526
:1023BC00574811A91196129501F0DCF908B172B6C3
:1023CC00FEE711950425524811A9129501F0D2F996
:1023DC0008B172B6FEE7119505254D4811A9129565
:1023EC0001F0C8F908B172B6FEE711950625484808
:1023FC0011A9129501F0BEF908B172B6FEE711955C
:10240C000725434811A9129501F0B4F908B172B629
:10241C00FEE73F4811A9CDE9115401F0ABF9044690
:10242C0008B172B6FEE70CAE01461022304606F03B
:10243C00EFFE1422214611A806F0EAFE4723364887
:10244C00DFF8D8C008AFC0E900C3F92308947C605A
:10245C00C0E90334C0E90544846004F0CDFC08B144
:10246C0072B6FEE74FF4805831462B48CDF83080D9
:10247C0004F0A8FD08B172B6FEE7CDE9110011A970
:10248C00254804F096FE08B172B6FEE7CDE90800C7
:10249C003946214804F012FF054608B172B6FEE732
:1024AC0001461022304606F0B3FE1422294611A82C
:1024BC0006F0AEFE4FF047094FF08043184C0895DC
:1024CC00C4E9003944F61F6320467D60C4E9033536
:1024DC00A560A56104F090FC08B172B6FEE7314628
:1024EC002046CDF8308004F06DFD08B172B6FEE7E1
:1024FC00CDE9110011A9204604F05BFE90B172B633
:10250C00FEE700BF0010024000100140000C01402B
:10251C002C0F002000240140C40D0020002C014091
:10252C007C0D0020CDE908003946204604F0C6FE9B
:10253C00044608B172B6FEE701461022384606F092
:10254C0067FE14222146304606F062FE1C2221460C
:10255C0011A8A14D0694079406F05AFE9F4B2846ED
:10256C00C5E9003942F20F730DF1180AC5E90334BD
:10257C00AC60AC6104F040FC08B172B6FEE73946C1
:10258C002846CDF8208004F01DFD08B172B6FEE798
:10259C00284604F05DFC08B172B6FEE70023314614
:1025AC008D48CDE90C3304F004FE08B172B6FEE799
:1025BC00CDE906005146884804F080FE024608B179
:1025CC0072B6FEE760231390CDE91130159011A976
:1025DC00814804F095FC08B172B6FEE704227E48EF
:1025EC0011A904F08DFC08B172B6FEE708227A48F6
:1025FC0011A904F085FC08B172B6FEE70C227648EE
:10260C0011A904F07DFC044608B172B6FEE77248CD
:10261C0000F09AFD4FF4E1337148724DC0E9024469
:10262C00C0E900530C230461C0E90534C46104F013
:10263C00DDFE044608B172B6FEE706F041FB6A48BF
:10264C006A496B4BC0E90244C0E900134FF4804364
:10265C00C0E90644C0E90434046201F0FDFE0446FE
:10266C0008B172B6FEE71022014611A806F0D0FDA3
:10267C004723604D604A0C94C5E9002342F20F7366
:10268C0028467460C5E90334AC60AC6104F0B4FB5B
:10269C0008B172B6FEE74FF48053284611A9119386
:1026AC0004F090FC08B172B6FEE7002331465148A5
:1026BC00CDE90C3304F002FE044608B172B6FEE715
:1026CC004E4806F087FB4E4804F0A0FA4D4804F043
:1026DC009DFA414804F09AFA21463F4804F0ECFD7B
:1026EC0004213D4804F0E8FD08213B4804F0E4FDDA
:1026FC000C21394804F0E0FD4FF40051012242480E
:10270C0001F0CCFC414800F0D5F9414800F0CCF97F
:10271C00404800F0C3F900F051FB3F4800F0CCF802
:10272C003E4800F0CFF83E4800F0D2F800F0EEF84A
:10273C003C4A3D4B104613603C4B53603C4B936002
:10274C00FDF766FE3B48FEF731FB3B48FEF728FBE6
:10275C0001223A49224805F05AF8394B39493A488E
:10276C001C70FDF723FD394B394A3A493A4800F0C1
:10277C00C6FE3A4B3A4A3B493B4800F0C0FE40F299
:10278C0001223A4B1C703A4B1C803A4B1C803A4B42
:10279C001C803A4B1C803A4B1A809C709C80FFF733
:1027AC000FFBFDF789FEFFF749FA002229492A4859
:1027BC00FEF780FF01222B492B48FEF77BFFFFF72A
:1027CC006BF9FFF7FFF8FFF761FB2D48FFF74AFBAA
:1027DC00FFF7B0FAE3E700BF340D0020000400401F
:1027EC00A40C002000380140940E0020005800403A
:1027FC00801A0600EC0C002000080040C50D0008F3
:10280C00C40D00207C0D0020001001404708002062
:10281C00150E00083D0E000846080020390E000871
:10282C00590E000810080020010E0008750E000853
:10283C00A90E0008950E0008F10D00081C080020D8
:10284C0085070020309F0008439F0008500B002094
:10285C00500A0020740C0020680C00205009002045
:10286C00500800205C0C0020500C00204808002070
:10287C002608002022080020240800202008002020
:10288C00080800200268084B10B59A420AD1074C80
:10289C002078FDF717FD2146BDE8104001220448C1
:1028AC0004F0B5BF10BD00BF003801401C0800206B
:1028BC00A40C002072B6FEE7014B1860704700BFF5
:1028CC008C0F0020014B1860704700BF880F002050
:1028DC00014B1860704700BF840F0020044A10B4ED
:1028EC0014680B46A44601460122D02010BC604758
:1028FC00880F00201346044A10B41468CAB2A446C8
:10290C00014610BCD0206047840F002013B5002472
:10291C000DF107006B218DF80740FFF7DFFF042353
:10292C000DF107001A218DF80730FFF7D7FF0DF1D5
:10293C0007001C218DF80740FFF7D0FF1B210DF17C
:10294C000700FFF7CBFF02B010BD000008B51A4B13
:10295C0019681A4B08781A7818B9012A23D0002064
:10296C0008BD0020012A08701DD0022AF7D10120D1
:10297C001870134B13491A88D2BA0A605A88124934
:10298C00D2BA0A609A881149D2BA0A601A891049D7
:10299C00D2BA0A605A890F49D2BA9B890A600E4A88
:1029AC00DBBA1360DCE702220E211A7004483B22CA
:1029BC00FFF7A0FFD3E700BF8C0F002070000020B2
:1029CC005C0F0020800F00207C0F0020780F00206F
:1029DC00740F0020700F00206C0F002070B5DDE923
:1029EC00045410B10B4E3668068011B10A480068C9
:1029FC00088012B109490968118013B1084A12689C
:102A0C001A8015B1074B1B682B8014B1064B1B6841
:102A1C00238070BD800F00207C0F0020780F0020D9
:102A2C00740F0020700F00206C0F002013B5064BA4
:102A3C008DF807001C680122002378200DF1070196
:102A4C00A04702B010BD00BF9C13002013B5064B6D
:102A5C008DF807001C680122002378200DF1070176
:102A6C00A04702B010BD00BF98130020044B10B457
:102A7C001C68CAB2A44601464023782010BC6047AB
:102A8C009C130020044B10B41C68CAB2A446014627
:102A9C004023782010BC604798130020014B18602D
:102AAC00704700BF98130020014B1860704700BF9F
:102ABC009C130020014B1860704700BFA01300202E
:102ACC0000284FF4806214BFFF210021014806F05A
:102ADC009FBB00BF980F002038B5B0240A4D20468C
:102AEC00FFF7A4FF0020FFF7A1FF01341020FFF730
:102AFC009DFFE4B228468021FFF7B8FFB82C05F102
:102B0C008005ECD138BD00BF980F002038B51C4BA8
:102B1C001C4C1A682378117819B9012B0AD00020A3
:102B2C0038BD0021013B1170032BF8D8DFE803F00E
:102B3C00020B1015144B18785038C0B2FFF786FFF3
:102B4C0002232370EBE70020FFF780FF0323F8E755
:102B5C001020FFF77BFF0423F3E70B4D0B4B28787A
:102B6C00802103EBC010FFF78DFF01202B78207024
:102B7C000133DBB2072B2B70D1D900232B70CFE79D
:102B8C00A013002071000020900F0020980F00204F
:102B9C00030630B510D43F290ED80124CB08074DBD
:102BAC0000EBC3102B5C01F0070104FA01F1A24207
:102BBC000CBF0B438B432B5430BD00BF980F002030
:102BCC002DE9F04F044689B008A800E90E009DF8E5
:102BDC004830A4F120050293EBB25E2B47D8079B3B
:102BEC0023B3234413F8206C224AB2F8009009EB6B
:102BFC000603802B3BDC53889DF815B0019303EB47
:102C0C000B02402A33DC029B4FF00008B3FA83FA24
:102C1C000BFB05F54FEA5A1A6D00C34509D8154B45
:102C2C004E441E80204609B0BDE8F08F9DF814601C
:102C3C00DAE70027069A535B0493019B08EB030227
:102C4C00D3B20393BE4203D808F101080235E4E77E
:102C5C00049B07EB090003FA07F2130454BF524616
:102C6C00029A0399C0B2FFF793FF0137EAE70024F9
:102C7C00D8E700BF920F002070B586B003AC84E893
:102C8C000E009DF82860451E15F8010F40B1009606
:102C9C0094E80E00FFF794FF034628788342F3D0A4
:102CAC0006B070BD014B188059807047920F002000
:102CBC002DE9F74F9046A8EB0009A3EB010AB9F1F7
:102CCC00000F1E46B8BFC9F10009BAF1000FB8BF1A
:102CDC00CAF1000A804594BF4FF0FF33012305462B
:102CEC000C468E4294BF4FF0FF3B4FF0010B404619
:102CFC0031469DF830200093A9EB0A07FFF748FFF7
:102D0C00CAF10003454504D1B44202D103B0BDE879
:102D1C00F08F214628460193FFF73AFF019B79007B
:102D2C00B3EB470FBFBF0098A7EB0A072D18EDB206
:102D3C008945C2BF5C444F44E4B2E3E72DE9F0415E
:102D4C001446A042804628BFA046A042064638BF83
:102D5C00264699420C4628BF1C46994238BF194654
:102D6C000F469DF81820BC4201D83F2C01D9BDE874
:102D7C00F081454607E02B0607D428462146FFF78D
:102D8C0007FF0135EDB2B542F5D90134E4B2EAE7FB
:102D9C0010B504468120FFF749FE2046BDE81040DF
:102DAC00FFF744BE034628B10123AF20024A5371FA
:102DBC00FFF73CBEAE20F9E7920F002008B5642067
:102DCC0000F018FC0020FFF7EDFF2020FFF72EFE8F
:102DDC000020FFF72BFEB020FFF728FEC820FFF7DE
:102DEC0025FE0020FFF722FE1020FFF71FFE4020DB
:102DFC00FFF71CFEFF20FFF7CBFFA120FFF716FE0D
:102E0C00A620FFF713FEA820FFF710FE3F20FFF7C8
:102E1C000DFEA420FFF70AFED320FFF707FE0020CB
:102E2C00FFF704FED520FFF701FEF020FFF7FEFDB3
:102E3C00D920FFF7FBFD2220FFF7F8FDDA20FFF782
:102E4C00F5FD1220FFF7F2FDDB20FFF7EFFD202050
:102E5C00FFF7ECFD8D20FFF7E9FD1420FFF7E6FDF1
:102E6C000120FFF79FFF0020FFF72AFEFFF734FE3B
:102E7C000022034B1A805A8001221A7108BD00BF30
:102E8C00920F00200E4B82B09A6942F001029A61B7
:102E9C009A6902F001020092009ADA6942F08052BB
:102EAC00DA61DB69074A03F080530193019B536895
:102EBC0023F0E06343F08063536002B0704700BFBF
:102ECC00001002400000014030B5054687B01022CA
:102EDC00002102A806F09CF92A68204B9A423BD1AB
:102EEC0003F56C439A691E4842F400729A619A6920
:102EFC0002A902F400720092009A9A69194C42F0ED
:102F0C0004029A619B69FF2203F004030193019B65
:102F1C000323CDE9022300F0E7FF80204FF48072F9
:102F2C000023C4E903024FF480620F492046C4E930
:102F3C000013C4E90523A360E36100F06BFE08B144
:102F4C00FFF7B8FC002212202C621146656200F0DB
:102F5C000FFE122000F03CFE07B030BD00240140F3
:102F6C0000080140E80E00200800024030B505467C
:102F7C0087B01022002102A806F04AF92A682E4BCD
:102F8C009A4256D12D4C4FF44061A3692C4843F022
:102F9C000803A361A36903F008030093009B1223A9
:102FAC00CDE90213032302A9059300F09DFFE36909
:102FBC00802243F48003E361E369224803F4800335
:102FCC000193019B0023204CC4E900032046C4E973
:102FDC000323C4E90533A360E36100F01BFE08B1D1
:102FEC00FFF768FC1023194AAC636562184CC4E9FE
:102FFC000023002380222046C4E90232C4E90433B2
:10300C00C4E9063300F006FE08B1FFF753FC0022BA
:10301C00212011466C63656200F0AAFD212000F0AE
:10302C00D7FD00222220114600F0A2FD222000F044
:10303C00CFFD07B030BD00BF00580040001002406B
:10304C00000C014058000240500E00204400024089
:10305C000C0E00201FB50368374A93422CD1374B16
:10306C0018209A6942F400629A6100229B69114609
:10307C0003F400630093009B00F07AFD182000F02D
:10308C00A7FD00221920114600F072FD192000F056
:10309C009FFD00221A20114600F06AFD1A2000F054
:1030AC0097FD00221B20114600F062FD1B2005B08D
:1030BC005DF804EB00F08CBDB3F1804F11D103F53A
:1030CC000433DA691C2042F00102DA610022DB6968
:1030DC00114603F001030193019B00F049FD1C20F4
:1030EC00E5E7174A934210D1144B1D20DA6942F0E0
:1030FC000202DA610022DB69114603F0020302933B
:10310C00029B00F035FD1D20D1E70E4A934210D1F1
:10311C000A4B1E20DA6942F00402DA610022DB69F4
:10312C00114603F004030393039B00F021FD1E20C2
:10313C00BDE705B000BD00BF002C014000100240EF
:10314C00000400400008004010B5044686B0102270
:10315C00002102A806F05CF82268114B9A421CD19F
:10316C0003F503339A690F4842F008029A619B6990
:10317C00332203F008030193019B022302A9CDE93A
:10318C000223059300F0B0FE074A536823F4406312
:10319C0043F0E06343F40063536006B010BD00BF1E
:1031AC0000040040000C01400000014010B5044632
:1031BC0086B01022002102A806F02AF822681B4BC8
:1031CC009A4230D103F558439A69194842F4804227
:1031DC009A619A6902A902F480420092009A9A6953
:1031EC00002442F004029A619B694FF4007203F0D0
:1031FC0004030193019B0223CDE9022303230593CE
:10320C0000F072FE4FF48063094802A9CDE9023444
:10321C00049400F069FE25202246214600F0A8FC0B
:10322C00252000F0D5FC06B010BD00BF00380140D1
:10323C0000080140FEE7FEE7FEE7FEE7FEE7704709
:10324C007047704700F0C4B9014800F0B5BD00BF2D
:10325C00E80E0020014800F0AFBD00BF0C0E0020AE
:10326C00014800F0A9BD00BF500E0020014800F03D
:10327C0001BA00BF2C0F0020014802F071BB00BF47
:10328C0098220020FFF7F8BF014803F0EEBC00BF06
:10329C00C40D0020FFF7F8BFFFF7F6BFFFF7F4BF30
:1032AC00014803F0E2BC00BF7C0D0020014803F094
:1032BC00DCBC00BF340D0020014803F0D6BC00BFBD
:1032CC00EC0C0020014801F0BFBD00BF940E0020A3
:1032DC00014802F013BA00BF940E0020014804F01C
:1032EC0033B900BFA40C00200A4A0346106810B57D
:1032FC0008B9094810600949094C0344091B8B4261
:10330C0006D905F0B7FF0C2303604FF0FF3010BD5A
:10331C001360FCE7A4130020B82600200050002006
:10332C000004000070470346002030B5187258792D
:10333C001C68451C5D715525987125545879DC79AC
:10334C0001322040451C5D714E251C68D2B22554BB
:10335C005879DC792040451C5D7145251C68255445
:10336C005879DC792040451C5D7152251C68255428
:10337C005879DC7920401C68451C5D7122545879C1
:10338C00DC794A402040451C5D713A251C68255467
:10339C005879DC7920401C68451C5D7121545879A2
:1033AC00DC792040587107205872187A504080F010
:1033BC003600187230BD034610B5427A01324272A3
:1033CC005A790068541C5C7181545A79D87902403E
:1033DC005A711A7A81EA0200187210BD002337B5AF
:1033EC008DF807309DF80730CB5C13B9007A03B029
:1033FC0030BD437A9DF8074001334372437902682C
:10340C005D1C45710C5DD4544379C27913409DF811
:10341C0007204371531CDBB28DF807308B5C027AAA
:10342C0053400372DEE7034610B5C479807901443A
:10343C00214018689971405C11440C409C7110BD7E
:10344C00F0B50024052645790379AB4201D1002063
:10345C00F0BD827A072A50D8DFE802F0040F1C2254
:10346C00282D4F3E0268D25C552A01D1012282726E
:10347C00C279013313400371E6E70268D25C4E2A2D
:10348C0001D10222F3E7552AF2D000228272013BCD
:10349C00DBB2EDE70268D25C452A1BD10322E6E7DA
:1034AC000268D25C522A15D10422E0E70268D25C91
:1034BC0086724272DCE70268D25C3A2A0AD1072192
:1034CC00C2798172591C0A408271427A82F03602AA
:1034DC000272CDE78472DAE7427A0768013AD2B217
:1034EC00017A42721AB1FA5C51400172C0E78272E1
:1034FC00FA5C8A42BCD10120AAE78472B8E710B505
:10350C0002604FF07F440022446002818272C1E964
:10351C0000340A818A7210BDFFF704FF0B480C4976
:10352C000C4A002302E0D458C4500433C4188C4213
:10353C00F9D3094A094C002301E013600432A2427A
:10354C00FBD305F09DFEFEF78DFE704700000020BA
:10355C0048020020E0B6000848020020B8260020EF
:10356C00FEE7000038B50E4B05461A784FF47A7317
:10357C00B3FBF2F30B4A1068B0FBF3F000F036FB30
:10358C00044658B90F2D09D8024629464FF0FF3092
:10359C0000F0EEFA2046044B1D6038BD0120FCE71C
:1035AC0078000020740000207C000020074A08B539
:1035BC001368032043F01003136000F0C7FA0F20C8
:1035CC00FFF7D0FFFFF75EFC002008BD0020024093
:1035DC00034A044B11681B780B441360704700BFFF
:1035EC00A813002078000020014B1868704700BF1A
:1035FC00A813002038B50446FFF7F6FF0546631CF8
:10360C001EBF044B1B78E418FFF7EEFF431BA342CD
:10361C00FAD338BD78000020436A10B59A6A12F0CC
:10362C00500F1BD19A6A42F400729A621A6892681F
:10363C0002F46022B2F5602F0CD11A7B52B99A6A4F
:10364C0022F480729A629A6AD2045EBF9A6A42F03D
:10365C0001029A621846FDF757FC10BD1B6ABDE8C3
:10366C0010401B6B1847704708B5406AFFF7FBFF0B
:10367C0008BD7047036870B51D685E680446B006E7
:10368C0026D5A90724D5A26AD2065EBFA26A42F447
:10369C000072A2629A6802F46022B2F5602F10D117
:1036AC00227B72B95A6822F020025A60A36A23F472
:1036BC008073A362A36AD8045EBFA36A43F00103BC
:1036CC00A3622046FDF720FC6FF0120223681A60FB
:1036DC00310630D56A072ED5A36ADB065EBFA36A16
:1036EC0043F40053A36223689A6802F4E042B2F5F3
:1036FC00E04F0AD05A68500516D49A6802F460223A
:10370C00B2F5602F10D1227B72B95A6822F0800278
:10371C005A60A36A23F48053A362A36AD9055EBFDF
:10372C00A36A43F00103A362204600F00DFA6FF088
:10373C000C0223681A6072060CD5EB070AD5A36A33
:10374C00204643F48033A362FFF793FF6FF001022E
:10375C0023681A6070BD7047406A08B5836A43F0ED
:10376C0040038362C36A43F00403C362FFF7F3FFB1
:10377C0008BD0000002373B5019390F82430044673
:10378C00012B6CD0012380F824304D680268062D83
:10379C00086805EB850322D81F26556B053B9E4018
:1037AC0025EA060500FA03F32B43536309288B68BB
:1037BC0000EB40054FF0070129D9D6681E3DA94002
:1037CC0026EA0101AB400B43D360A0F11003012B9F
:1037DC0025D90020002384F8243002B070BD0C2DB4
:1037EC004FF01F0509D8166B233B9D4026EA0505B3
:1037FC0000FA03F32B431363D8E7D66A413B9D4091
:10380C0026EA050500FA03F32B43D362CEE71069D1
:10381C00A94020EA0101AB400B431361D9E7114BDE
:10382C009A4216D193681B02D3D49368102843F4A0
:10383C0000039360CDD10C4B0C4A1B68B3FBF2F325
:10384C000A2253430193019B002BC2D0019B013BE5
:10385C00F8E7A36A012043F02003A362BAE7022031
:10386C00BBE700BF002401407400002040420F0061
:10387C00002337B50193036804469A68D20702D532
:10388C00002003B030BD9A6842F001029A60144BDC
:10389C00144A1B68B3FBF2F30193019BE3B9FFF7E6
:1038AC00A3FE054623689B68DB07E9D4FFF79CFE63
:1038BC00401B0228F6D923689B6813F00103F1D151
:1038CC00A26A012042F01002A262E26A84F824305B
:1038DC0042F00102E262D4E7019B013BDCE700BF4E
:1038EC007400002040420F002DE9F0413F4B904600
:1038FC00026804469A420F4602D03D498A4203D1DF
:10390C005B6813F4702F6DD194F82430012B6BD0BD
:10391C000123204684F82430FFF7AAFF064600282E
:10392C005DD1A56A2168324B25F4706525F001053F
:10393C0045F480759942A56204D12C4A536813F45E
:10394C00702F3ED1A36A23F48013A3624B685A05EF
:10395C0005D5A36A23F4405343F48053A362A36AAE
:10396C00206A13F4805318BFE36A3A4618BF23F059
:10397C000603E362002384F824301E4B4C3183622F
:10398C001D4BC3621D4B03636FF0020341F84C3CAB
:10399C0051F8443C43F4807341F8443C434600F0F6
:1039AC0069F923689A6802F46022B2F5602F9A686C
:1039BC000CBF42F4A00242F480129A603046BDE87B
:1039CC00F081A36A43F48013A36253685B0541BF83
:1039DC00A06A20F4405040F48050A062BFE700235E
:1039EC0084F824300126E9E70226E7E700240140A9
:1039FC000028014025360008753600086537000898
:103A0C0038B5036804469A68D10701D4002038BD44
:103A1C009A6822F001029A60FFF7E6FD05462368DA
:103A2C009B68DB07F2D5FFF7DFFD401B0228F6D9B8
:103A3C0023689B68DA07F2D5A36A012043F01003D0
:103A4C00A362E36A43F00103E362E0E7F8B50446DE
:103A5C0000286DD0836A23B9C36280F82430FFF745
:103A6C0033FA2046FFF7CCFFA36A13F0100361D1A1
:103A7C0000285FD1A26A616822F4885222F0020207
:103A8C0042F00202E569A668A262227B2943B6F5E0
:103A9C00807F41EA420136D0771E7D427D412D0266
:103AAC00277D012F06D182BBA269013A45EA423239
:103ABC0042F400652268B6F5807F576827F46947A1
:103ACC0045EA0705556097681D4D05EA070545EA67
:103ADC000105956001D0012E02D12369013B1B0524
:103AEC00D56A25F470052B43D3629268154B1340AD
:103AFC00994213D10023E362A36A23F0030343F03A
:103B0C000103A362F8BD3546CAE7A26A42F020025F
:103B1C00A262E26A42F00102E262CBE7A36A23F0FE
:103B2C00120343F01003A362E36A43F00103E36260
:103B3C000120E7E7A36A43F01003A362F8E700BF94
:103B4C00FDF7E1FFFE0E1FFF70470000074903025F
:103B5C00CA6803F4E06322F4E0621204120C13430B
:103B6C0043F0BF6343F40033CB60704700ED00E0DB
:103B7C00154B30B5DC68C4F30224C4F10703251DD2
:103B8C00042B28BF0423062D4FF0FF3594BF0024CF
:103B9C00033C05FA03F321EA0303A54022EA0502DC
:103BAC00A340002843EA0203ACBF00F16040074A7F
:103BBC004FEA0313DBB2ABBF00F5614000F00F001E
:103BCC0080F80033135430BD00ED00E014ED00E03C
:103BDC00002807DB01234109034A00F01F00834042
:103BEC0042F82130704700BF00E100E00138B0F12D
:103BFC00807F0BD24FF0E023F021054A586182F808
:103C0C0023100020072298611A6170470120704729
:103C1C0000ED00E0034610B530B301681420134AE0
:103C2C000A44B2FBF0F292001A64114ADA630222DF
:103C3C0083F82120D3E901242243DC68086822435D
:103C4C001C696FF30D1022435C6922439C6922436B
:103C5C00DC69224302430A6000200122986383F846
:103C6C00200083F8212010BD0120FCE7F8FFFDBFE8
:103C7C0000000240F0B590F82040012C34D0012413
:103C8C0080F8204090F82140012CE5B24FF0000460
:103C9C0028D1022680F8216084630468266826F007
:103CAC0001062660D0E90F67BD407560636043680C
:103CBC00102BC36A0BBFA260A160E160E2604BB144
:103CCC00236843F00E0300202360236843F00103B4
:103CDC002360F0BD236823F004032360236843F0C2
:103CEC000A03F0E780F820400220F2E790F8212048
:103CFC000346022A06D0042282630120002283F8A4
:103D0C00202070470268C06B116821F00E01116011
:103D1C00116821F00101116001211A6C01FA02F203
:103D2C004260002083F82110E8E7000008B590F805
:103D3C002130022B03D004238363012008BD0368C8
:103D4C001A6822F00E021A601A6822F001021A6038
:103D5C00174A93421FD0143293421ED0143293420E
:103D6C001DD0143293421DD0143293421DD0143204
:103D7C00934214BF4FF080734FF480130D4A53607D
:103D8C00012380F82130002380F82030436B03B1ED
:103D9C0098470020D2E70123F0E71023EEE74FF419
:103DAC008073EBE74FF48053E8E74FF48033E5E79B
:103DBC00080002400000024070B40425C66B026C7F
:103DCC003468036895402542196832D04D0730D5C8
:103DDC001A6896065EBF1A6822F004021A603E4A00
:103DEC00934219D01432934218D01432934217D004
:103DFC001432934217D01432934217D01432934298
:103E0C0014BF4FF080634FF48003344A5360C36A8D
:103E1C00002B5ED070BC18470423F6E74023F4E770
:103E2C004FF48063F1E74FF48043EEE74FF48023C7
:103E3C00EBE702259540254235D08D0733D51A681E
:103E4C00940606D41A6822F00A021A60012280F83D
:103E5C002120214A934219D01432934218D01432A3
:103E6C00934217D01432934217D01432934217D086
:103E7C001432934214BF4FF000734FF40013174ADF
:103E8C005360002380F82030836AC1E70223F6E7F1
:103E9C002023F4E74FF40073F1E74FF40053EEE7FF
:103EAC004FF40033EBE708259540254211D0090764
:103EBC000FD5196821F00E011960012303FA02F2E3
:103ECC007260836380F82130002380F82030036B0C
:103EDC009EE770BC704700BF080002400000024023
:103EEC0090F82100704700002DE9F74F00244FF0A7
:103EFC000F0E2646DFF884C1614B00F104080A68F6
:103F0C0032FA06F502D103B0BDE8F08F012505FAAF
:103F1C0006F702EA070537EA020276D14A68032A55
:103F2C0007D8013A022A00F28380DFE802F091966A
:103F3C009C00122A00F0948069D8112A00F08A8023
:103F4C00FF2D94BF8146C1464FEA8602D9F8007016
:103F5C0088BF203A0EFA02FA27EA0A0704FA02F29C
:103F6C001743C9F80070D1F8049019F0805F4CD059
:103F7C00DCF8182026F0030742F00102CCF81820D8
:103F8C00DCF8182007F1804702F00102019207F5D6
:103F9C00803706F0030A019A4FEA8A0ABA680EFAC9
:103FAC000AFB22EA0B0B374A904260D002F5806282
:103FBC0090425ED002F5806290425CD002F5806245
:103FCC00904214BF0422032202FA0AF242EA0B02C4
:103FDC00BA609A6819F4801F14BF2A43AA439A60E6
:103FEC00DA6819F4001F14BF2A43AA43DA605A682E
:103FFC0019F4003F14BF2A43AA435A601A6819F4F3
:10400C00803F14BF2A43AA431A60013677E7DFF8D2
:10401C0078904A450CD014D8A9F580194A4507D098
:10402C0009F570294A4503D0A9F580194A4587D16D
:10403C008A68D2B1012A4FF008040CBF07614761AE
:10404C007EE7DFF848904A45F2D009F58039EDE774
:10405C00CC6875E7CC68043472E7CC6808346FE739
:10406C00CC680C346CE700246AE7042468E700226F
:10407C00AAE70122A8E70222A6E700BF001002402F
:10408C000004014000080140000022100000311023
:10409C0080680840003818BF012070470AB10161E0
:1040AC0070470904FBE7016800224B6913F4806335
:1040BC0010D06FF480634B612023026380F83D3095
:1040CC0080F83E20036C80F83C2043F0040303642A
:1040DC0001207047184670472DE9F84606460F46F2
:1040EC0091461D464FEA114A3368BAF1010F39D196
:1040FC005C6927EA0404A4B2B4FA84F46409A14507
:10410C0001D0002024E06A1CEFD0FFF76DFA089B69
:10411C00C01AA84201D8002DE6D1BAF1010F3368BC
:10412C0018D15B6927EA03039BB2B3FA83F35B09EB
:10413C009945D9D1002320220120336386F83D20F4
:10414C0086F83E30326C86F83C3042F02002326405
:10415C00BDE8F8869B69DB43C3F3400383F001039E
:10416C00DBB2E5E79C69E443C4F3400484F001044A
:10417C00E4B2C4E72DE9F04104460F4616469846D2
:10418C002568686927EA000080B2C0B16B695A05DE
:10419C0017D52B68202243F400732B606FF48063D7
:1041AC006B610023236384F83D2084F83E30236C3C
:1041BC0043F0040323640023012084F83C30BDE861
:1041CC00F081731CDDD0FFF70FFAA0EB0800B042B2
:1041DC0001D8002ED4D123685A6927EA020292B280
:1041EC00002ACDD000232022236384F83D2084F8BC
:1041FC003E30236C1343DDE770B504460D4616467E
:10420C0023685B691B0601D500201EE02046FFF7E2
:10421C004AFFC8B96A1CF3D0FFF7E6F9801BA84225
:10422C0001D8002DECD123685B6913F08003E7D132
:10423C002022236384F83D2084F83E30226C84F8DD
:10424C003C3042F020022264012070BD2DE9F04385
:10425C00154602689946136885B043F48073136061
:10426C00DDE90C780E463B4600224FF00111CDF8EB
:10427C0000800446FFF730FF236838B11B68DB056C
:10428C0002D54FF400732364032620E006F0FE06EB
:10429C001E613A46434620461849FFF76BFFA8B902
:1042AC00236803905A69394603929B6942460393EB
:1042BC002046039BFFF7A0FF064660B1236C042B3E
:1042CC0001BF2268136843F4007313600126304663
:1042DC0005B0BDE8F083B9F1010F236802D1EDB24E
:1042EC001D61F4E72A0A1A61394642462046FFF757
:1042FC0083FF0028E2D12368F1E700BF0200010030
:10430C002DE9FF479A46DDE90C78036815461A68D3
:10431C000E4642F480621A601A684FF0011142F4A2
:10432C0080721A603B460022CDF800800446FFF7ED
:10433C00D3FE236848B11B68DB0548BF4FF40073FC
:10434C004FF0030048BF236421E05FFA86F906F0C2
:10435C00FE061E613A46434620462949FFF70AFFEE
:10436C00A0B9236803905A69394603929B69424667
:10437C0003932046039BFFF73FFF58B1236C042B9C
:10438C0001BF2268136843F400731360012004B06A
:10439C00BDE8F087BAF1010F23681AD1EDB242469D
:1043AC00394620461D61FFF727FF02460028E5D15C
:1043BC00216820460B6843F480730B603B464FF03A
:1043CC000111CDF80080FFF787FE226860B11368F9
:1043DC00B2E72A0A1A61394642462046FFF70CFF1B
:1043EC000028CBD12368D9E749F00103136120469B
:1043FC0043463A46024904B0BDE8F047FFF7BABE5F
:10440C000200010070B504460D46164623685B6930
:10441C005B0701D500201EE02046FFF744FEC8B91B
:10442C006A1CF3D0FFF7E0F8801BA84201D8002DDE
:10443C00ECD123685B6913F00403E7D120222363DA
:10444C0084F83D2084F83E30226C84F83C3042F0F5
:10445C0020022264012070BD70B5044608B9012009
:10446C0070BD90F83D3003F0FF021BB980F83C2082
:10447C00FEF77CFD242384F83D3023681A6822F073
:10448C0001021A601A6842F400421A601A6822F497
:10449C0000421A6002F0ACFA3F4B65689D4294BF33
:1044AC003E4B3F4B98428CBF00230123002BD6D1AF
:1044BC00394E3C4BB542B0FBF3F388BF4FF49676C4
:1044CC002268516821F03F0141EA030182BF734326
:1044DC004FF47A76B3FBF6F35160116A013321F095
:1044EC003F010B431362D169431E2B4821F44F410A
:1044FC00854221F0FF0132D86D00B3FBF5F340F695
:10450C00FC700133034242D0C3F30B031943D16156
:10451C001168D4E9073021F0C00103430B43136049
:10452C009168D4E9030321F40341034321F0FF0113
:10453C000B439360D168D4E9053021F0FF010343AC
:10454C000B43D3601368002043F001031360202356
:10455C00206484F83D30206384F83E0080E7A06836
:10456C0050B905EB4505B3FBF5F30133C3F30B036E
:10457C007BB143F40043C9E719206843B3FBF0F364
:10458C000133C3F30B0323B143F44043BEE70423CD
:10459C00BCE70123BAE700BFA08601007F841E00A0
:1045AC00FF083D0040420F002DE9F74304469946B1
:1045BC000F4690460C9EFFF717F894F83D300546D1
:1045CC00202B03D0022003B0BDE8F0830090192308
:1045DC00012220463A49FFF77FFD0028F2D194F8DA
:1045EC003C30012BEED00123206884F83C3003686A
:1045FC004246D90758BF036839465CBF43F00103F4
:10460C000360036823F400630360212384F83D30C6
:10461C00402384F83E30002323640A9B20466362C7
:10462C00BDF82C306385638D2385264BE3624B46A6
:10463C00CDE90065FFF70AFE00282AD00120C2E769
:10464C00FFF7DAFD40B1236C042B01BF226813681D
:10465C0043F400731360F1E7636A27681A4612F893
:10466C00011B39616262628D218D013A92B26285C1
:10467C007A69481E80B2520720850AD548B15A780B
:10468C0002333A616362638D0239013B9BB221852F
:10469C006385238D2A4631462046002BD0D1FFF767
:1046AC00B1FE0028CFD12268136843F40073136065
:1046BC00202384F83C0084F83D3084F83E0082E7E7
:1046CC00020010000000FFFF2DE9FF479946002370
:1046DC00044602930F4690460C9EFEF785FF94F815
:1046EC003D308246202B16D146F2A812554B1B6842
:1046FC00B3FBF2F3192253430293029B013B029347
:10470C00029B53B92022236384F83D2084F83E3069
:10471C00236C13432364022066E022689369990793
:10472C00EBD494F83C30012BF5D0012384F83C30C9
:10473C0013680025DB0758BF136843495CBF43F07F
:10474C0001031360136823F400631360212384F8BE
:10475C003D30402384F83E30BDF834302564638509
:10476C00638D66629BB2E16223856764C4F84880FE
:10477C00C4F84C902565002B57D0606B40B333497F
:10478C004563816232491032C0E90B513146FFF763
:10479C0071FA064600283CD1232342460093394641
:1047AC004B462046CDF804A0FFF750FDF8B1606BE6
:1047BC00FFF7BCFA636B9E6223681A6822F480626E
:1047CC001A6066851A68268522F001021A600AE0D2
:1047DC00202384F83D3084F83E00236C84F83C00A0
:1047EC0043F080032364012004B0BDE8F087236804
:1047FC0003905A6903929A6984F83C000392039AD5
:10480C005A6842F480725A605A6842F400625A60E4
:10481C00EAE7202384F83D3084F83E50236C84F87A
:10482C003C5043F010032364DDE7202284F83D2044
:10483C0084F83E30226C84F83C3042F04002226412
:10484C00D1E700BF740000200000FFFF2D4B0008D3
:10485C00F34A00082DE9F04786B0044698460E4608
:10486C001746DDF838A0FEF7BFFE0023039394F83B
:10487C003D308146202B03D0022006B0BDE8F087E6
:10488C0046F2A812644B1B68B3FBF2F31922534394
:10489C000393039B013B0393039B4BB9202223639C
:1048AC0084F83D2084F83E30236C13432364E3E703
:1048BC0021688B699A07ECD494F83C30012BDBD03F
:1048CC00012384F83C300B680025DB0758BF0B68CC
:1048DC00524A5CBF43F001030B600B6823F4006386
:1048EC000B60222384F83D30402384F83E30BDF821
:1048FC003C3025646385638DC4F824A09BB2E262CE
:10490C0023856664A764C4F84C802565002B66D0AB
:10491C00A06B58B3424A45638262424A1031C0E9E7
:10492C000B525246FFF7A6F9824600284BD123239F
:10493C003A460093314643462046CDF80490FFF7A3
:10494C00DFFC00B3A06BFFF7F1F9A36BC3F828A051
:10495C0023681A6822F480621A60A4F82AA01A68E4
:10496C00A4F828A022F001021A600AE0202384F89F
:10497C003D3084F83E00236C84F83C0043F0800307
:10498C002364012079E7228D2368012A0BBF1A6862
:10499C005A6822F4806242F480520CBF1A605A604A
:1049AC000022049259690491996984F83C2004917D
:1049BC0004995A6842F480725A605A6842F4006250
:1049CC005A60002059E7202384F83D3084F83E508B
:1049DC00236C84F83C5043F010032364D1E7232369
:1049EC003A460093314643462046CDF80490FFF7F3
:1049FC0087FC0028C5D1236805905A6905929A69ED
:104A0C000592059A1A6842F400721A60202384F801
:104A1C003C0084F83D30D4E7740000200000FFFF18
:104A2C002D4B0008F34A00087047704770477047D9
:104A3C007047704790F83D2008B5036DD2B283B92A
:104A4C00C36C0268012B836C05D1DBB21361036D5F
:104A5C000233036508BDC3F307231361036D0133F0
:104A6C00F7E7036D012B03D1836C0268DBB2F4E72B
:104A7C00036D022B2FD1222A05D10268136843F44F
:104A8C0080731360EAE7438D9BB263B1212A0AD18C
:104A9C00436A026813F8011B11614362438D013BA9
:104AAC009BB24385D6E7438D9BB2002BD2D1212AF2
:104ABC00D0D10268516821F4E0615160116841F471
:104ACC00007111602022036380F83D2080F83E3095
:104ADC00FCF72AFABEE703685A69120644BF0022A3
:104AEC001A61B7E77047406A08B5436B0BB10022F7
:104AFC009A62836B0BB100229A620268136823F4EA
:104B0C008063136000232022438580F83D2080F8C9
:104B1C003E30036C43F010030364FFF7E3FF08BD62
:104B2C0070B5446A236894F83D1094F83E00E26A2C
:104B3C005D68C9B225F440755D60656BC0B20DB19E
:104B4C000026AE62A56B0DB10026AE6201F0210508
:104B5C00212D05D001F02205222D23D1202821D191
:104B6C005A68292922F400625A604FF000036385C9
:104B7C000DD1212323632823204684F83D30FFF7F1
:104B8C0055FF2268536843F44073536070BD2A2963
:104B9C00F7D1222323632823204684F83D30FFF7E6
:104BAC0046FFEEE794F83E100029EFD0618D89B2F4
:104BBC00012902BF196821F480611960596812F546
:104BCC00803F21F44071596006D0082A04D0B2F11C
:104BDC002A4F01D0202A03D1196841F400711960C1
:104BEC00596821F480515960596821F40061596069
:104BFC0000236385236C1BB12046FFF773FFC5E7C9
:104C0C00202184F83D1094F83E1084F83E30402961
:104C1C0004D120462363FCF78DF9B7E7082A01D0AD
:104C2C00202A05D1002320462363FFF7FEFEADE7C3
:104C3C001223F8E770470000002337B546F2A8119D
:104C4C0001932C4B406A1B6890F83D20B3FBF1F3A9
:104C5C0023214B4301930368D2B2019941BB016CF0
:104C6C0041F020010164446B0CB10021A162816B05
:104C7C0009B100258D621D6825F480651D60002535
:104C8C00458504B1656301B14D63196821F00101DB
:104C9C00196090F83D10602911D1202380F83D3027
:104CAC00002380F83E300364FFF7C4FF03B030BD2F
:104CBC0001990139019119688905CED4D3E702F025
:104CCC002802282A0ED1196841F0010119601968CF
:104CDC0041F4806119600023036380F83D20FFF7E5
:104CEC0001FFE3E7202380F83D30002380F83E30BD
:104CFC00F5E700BF7400002010B590F83D2090F847
:104D0C003E300446102BD9B2D2B2036801D04029F0
:104D1C0013D1222A11D1196821F400611960596844
:104D2C0011F4006106D1602A1EBF202284F83D20B8
:104D3C0084F83E100022226307E002F028012829A3
:104D4C00EDD10022226384F83D105A6812F40062FF
:104D5C004FD05A68606B22F400625A6090F8213090
:104D6C00012B374B2BD04363FEF7E0FF50B1226889
:104D7C00606B136823F001031360202384F83D302B
:104D8C00436B9847236C19071FBF2268536823F4A1
:104D9C00E063536094F83D30226CDBB252070DD5C2
:104DAC00282B0BD1274B2022E362002320462363C0
:104DBC0084F83D2084F83E30FFF73BFE10BDA06B1D
:104DCC004363FEF7B3FF0028DCD023685A69510611
:104DDC0005D51A69636A1A70636A013363622268C3
:104DEC00A06B136823F001031360202384F83D307B
:104DFC00C6E794F83D10602915D1202184F83D10A8
:104E0C0022645A69520605D51A69636A1A70636A74
:104E1C000133636222682046136823F00103136098
:104E2C00FFF708FFAEE75A69500605D51A69636AA1
:104E3C001A70636A013363622046FFF753FEA1E7E1
:104E4C00454C00080000FFFFF0B5044603688FB026
:104E5C005A68C66A90F83E0094F83D101028C5B206
:104E6C00C9B202D0402D40F0E5829F69586910F01C
:104E7C00010F07D1B6F52A0F02D0B6F12A4F51D146
:104E8C000FB0F0BD96054DD5E26AB2F52A0F0CD1E4
:104E9C000122E26294F83E20402A11D1226D52B9CF
:104EAC00626C02F0FE021A61EAE7E26AB2F12A4F82
:104EBC00F0D10822EDE7626C42F00102D2B2F2E7C7
:104ECC002269B2F5804F1AD194F83D20212A626CE8
:104EDC0011D102F0FE021A61626B0AB1926A2AB910
:104EEC00A26B002ACCD0926A002AC9D05A6842F42C
:104EFC0000625A60C4E742F00102D2B2EBE7226DC5
:104F0C0032B9626CD21102F0060242F0F002CAE72A
:104F1C00226D012AB4D1626CD21102F0060242F069
:104F2C00F102C0E7060703D5960501D5626CE4E7EC
:104F3C00860740F1F080960540F1ED8094F83E1024
:104F4C00E26A256B94F83D00C9B2222840F0DB8060
:104F5C00206D40B9402906D100905A6900929B6996
:104F6C000093009B8CE7216D89B92069B0F5404F07
:104F7C000DD101915A6901929A690192019A1A68AC
:104F8C0042F480721A60236D0133236578E7618DDA
:104F9C0089B251B902915A6902929A690292029AA3
:104FAC001A6842F400721A6019E0618D89B2012905
:104FBC0049D112F5803F1BD11A6822F480621A6025
:104FCC005A6812F400620CD01A6822F480621A60DB
:104FDC00002203925A6903929B690393039B00235B
:104FEC00D3E704925A6904929A690492049AD7E717
:104FFC00082A1CD0202A1AD0122D0DD1012A16D124
:10500C001A6822F480621A60002205925A6905928D
:10501C009B690593059BE2E7102AF1D8864941FA72
:10502C0002F2D707ECD41A6842F48062EBE71A68F4
:10503C0022F480621A60002206925A6906929A69DA
:10504C000692069AACE7618D89B2022938D1102AF2
:10505C0003D87A49D140CE0718D4196841F40061BD
:10506C00196000210791596907919969079107996E
:10507C00196821F48061196059680D05AFD5202A93
:10508C001BD8072A0ED8012AA9D111E0196841F4BE
:10509C0080611960002108915969089199690891FA
:1050AC000899E9E7A2F10801654ACA40D00796D5EC
:1050BC005A6842F480525A6091E712F5803FE3E758
:1050CC00196841F4806119605968090510D5202AC6
:1050DC0016D8072A06D8012A0AD15A6842F48052F7
:1050EC005A6005E0A2F10801554ACA40D207F4D42F
:1050FC00002209925A6909929B690993099B6EE7F0
:10510C0012F5803FE8E700220A925A690A929B69DD
:10511C000A930A9BB4E67F0740F194805E683605DB
:10512C003FF5AEAE070600F004063ED550053CD563
:10513C00002E3DD194F83D20258D94F83E10D2B22E
:10514C00E06AC9B2C5B9212A18D1082858D020283C
:10515C0056D010F5803F53D05A6822F4E0625A6062
:10516C0011232363002384F83E302023204684F847
:10517C003D30FFF759FC83E6212A05D040297FF406
:10518C007FAE222A7FF47CAE628D92B21AB95A6835
:10519C0022F48062ADE694F83E20402A16D12046D7
:1051AC000FB0BDE8F040FFF745BC002E3FF468AEF1
:1051BC0097057FF565AE212939D1E16A94F83D2038
:1051CC00212A7FF45DAE628D92B24AB1626A12F806
:1051DC00011B19616262638D013B9BB263854FE6D3
:1051EC0008290DD020290BD011F5803F08D0596823
:1051FC0021F4E06159601123236384F83E20B4E765
:10520C005A68204622F4E0625A601A6842F400722E
:10521C001A6000232022236384F83D2094F83E205A
:10522C0084F83E30402AA4D1FBF77EFE28E6402DC0
:10523C007FF426AEB3E700BFEBFFFEFF14000100C6
:10524C000101000159680E053FF51AAE450600F044
:10525C00040140F18680500540F18380002940F024
:10526C00838094F83D20222A7FF40AAEE06A628D96
:10527C0092B2032A14D91A69636A1A70636A0133E9
:10528C006362638D013B9BB26385638D9BB2032B81
:10529C007FF4F6AD2268536823F480635360EFE526
:1052AC00E56A022D3FF473AF012A3FF670AF0B9104
:1052BC0046F2A811794A1268B2FBF1F202EB8202B3
:1052CC000B920B9A013A0B920B99D1B9226C204696
:1052DC0042F0200222645A6822F4E0625A601A6991
:1052EC00636A1A70636A01336362638D013B9BB21C
:1052FC006385202384F83D3084F83E10FFF7F2FBE1
:10530C00BEE51A6812F40072DBD1196821F48061D1
:10531C001960596821F4E06159601969636A197060
:10532C00636A01336362638D013B9BB26385202307
:10533C0084F83D3094F83E3084F83E20402B04D164
:10534C0022632046FBF7F6FD9AE5082801D02028B9
:10535C0001D1002300E0122320462363FFF765FBF5
:10536C008EE500293FF48CAD92057FF589ADE26A9C
:10537C00608D616A80B2042809D15A6822F4806277
:10538C005A601B690B70636A0133636223E7608D9B
:10539C0080B203280CD15868042A20F4806058602D
:1053AC00EFD0022AEDD01A6822F480621A60E8E786
:1053BC00608D80B20228E4D1042A33D007D8012AA8
:1053CC0007D0022A2ED0186840F4007004E0102A8E
:1053DC00F9D1186820F4806018601B690B70616A41
:1053EC004B1C6362638D013B9BB2638523681B6915
:1053FC004B70636A216801336362638D013B9BB21E
:10540C0063854B6823F440734B60202384F83D3054
:10541C0094F83E30402B4FF0000384F83E3005D119
:10542C0023638EE7186840F48060D5E7082A90D093
:10543C00202A8DE7206C20B30025586987072FD5CB
:10544C0096052DD5226C02B19D6994F83D2002F091
:10545C002802282A18D15A682F0622F480625A6032
:10546C004FF0000354BFE268A269C5F3800181F0DC
:10547C0001012046C9B284F83C3092B2FFF7D8FA49
:10548C00FEE49D695869D9E700220C9259690C9188
:10549C009B6984F83C200C930C9BF1E47400002075
:1054AC00C60640F1B180950540F1AE8094F83D50B0
:1054BC005A68EDB222F4E0625A6000220D925A69E9
:1054CC000D921A6842F001021A600D9A1A6822F4C1
:1054DC0080621A605A68100520D505F0F702222A5E
:1054EC004AD1A06B0268526892B26285628D92B208
:1054FC001AB1226C42F0040222645A6822F400624F
:10550C005A60FEF7EDFC012808D0A06B794B436381
:10551C00FEF70CFC10B1A06B436B9847638D9BB2EC
:10552C0013B323685A69510709D51A69636A1A704B
:10553C00636A01336362638D013B9BB263852368AD
:10554C005A69520609D51A69636A1A70636A01337B
:10555C006362638D013B9BB26385638D9BB21BB110
:10556C00236C43F004032364236C13B320460FB065
:10557C00BDE8F040FFF7C0BB606B0268526892B2A6
:10558C006285628D92B21AB1226C42F004022264DE
:10559C005A6822F400625A60FEF7A2FC0128BDD0C2
:1055AC00606B544B4363FEF7C1FB0028B6D0606BB5
:1055BC00B2E72A2D06D123632823204684F83D30F8
:1055CC00FFF735FA94F83D30282B0CD14A4B2022AA
:1055DC00E36200232046236384F83D2084F83E30A8
:1055EC00FFF727FA4CE4236B222B02D0222D7FF4F9
:1055FC0047AC00232022236384F83D2084F83E30FE
:10560C002046FFF714FA3BE401F0F701212900F0E2
:10561C00040535D1070627D5560525D53DBB94F88D
:10562C003D00628DC0B292B2002A3FF429AC626A8E
:10563C0012F8015B1D616262628D013A92B2628561
:10564C00628D92B2002A7FF41BAC29287FF418AC2F
:10565C005A68204622F480625A602823216384F819
:10566C003D30FFF7E3F90BE4002D3FF409AC950551
:10567C007FF506AC628D92B2002A3FF401ACA5E531
:10568C00400627D5510525D53DBB94F83D20618DAD
:10569C00D2B289B200293FF4F3AB1969636A19706D
:1056AC00636A01336362638D013B9BB26385638DD7
:1056BC009BB2002B7FF4E4AB2A2A7FF4E1AB226887
:1056CC00536823F48063536022232363282384F8D4
:1056DC003D3095E7002D3FF4D3AB92057FF5D0AB71
:1056EC00628D92B2002A3FF4CBAB1A69636A1A70CE
:1056FC0049E600BF454C00080000FFFFF8B5036801
:10570C0004465F695E6890F83E2017F48075D2B24B
:10571C000AD016F4807507D06FF480710125596199
:10572C00196841F400411960B80506D5F10542BF6E
:10573C006FF4007145F002055961780536D5F10515
:10574C0034D5608D94F83D10202AD4F830C080B246
:10575C00C9B25FD100285DD101F0F700212804D037
:10576C00282957D1BCF1210F54D194F83D20E16A7E
:10577C00D2B2082901D020292AD1282A28D12E4A90
:10578C002046E2625A6822F4E0625A606FF480624A
:10579C005A611A6822F480621A6000232022236363
:1057AC0084F83D2084F83E30FFF743F93A053FD5A5
:1057BC00F3053DD56FF40062236845F008055A6186
:1057CC00236C20461D432564BDE8F840FFF794BACE
:1057DC00212A1BD11849E16222630021202284F87E
:1057EC003D2084F83E105A6822F4E0625A606FF44F
:1057FC0080625A611A6822F480621A605A69100633
:10580C0048BF19612046FFF711F9CFE76FF48062AA
:10581C005A61CBE76FF48061102A596145F0040599
:10582C0001D0402AC2D11A6842F400721A60BDE756
:10583C00002DC5D1F8BD00BF0000FFFF90F83D0062
:10584C007047F8B50446E0B190F8913203F0FF02CE
:10585C001BB980F8902203F039FB032384F89132B2
:10586C0000232546637155F8040B01F0F1FF95E810
:10587C000E00206801F0DCFF014628B1022384F8F9
:10588C00913201252846F8BD206801F0EBFF002875
:10589C00F4D102460127267904F11003C1B28E42DD
:1058AC0003F1280318D800210A4604F5A873C8B2DE
:1058BC00864203F128031BD895E80E00206801F0FE
:1058CC00D3FF05460028D9D101236073206884F8E2
:1058DC00913202F07FFAD5E743E9062203F8277CE0
:1058EC0003F8281C03F8252C43F8102C0130D5E7BD
:1058FC0043E9062203F8272C03F8280C03F8252C7F
:10590C0043F8102C0131D2E738B590F890320446A8
:10591C00012B10D0012580F89052006801F08FFF08
:10592C002946204603F0E1FB206802F051FA0020E2
:10593C0084F8900238BD0220FCE710B590F8902254
:10594C000446012A0AD00122417380F89022006893
:10595C0002F038FA002084F8900210BD0220FCE717
:10596C002DE9F04F044687B0006802F035FA10F4C8
:10597C00004500F025844FF02809C54E2068B0F88A
:10598C004430190402D407B0BDE8F08FB0F844706D
:10599C00B9B217F00F0740F0BF8011F0100126D1FB
:1059AC0003889BB2334043F400430380B0F850307B
:1059BC00227C9BB203EBC20300EB4303B3F8043429
:1059CC00626AC3F309031A44E3622046626203F07D
:1059DC00B4FA637B002BD1D0A26A002ACED1637BB0
:1059EC00216843F08003A1F84C306273C6E7058848
:1059FC00ABB215F4006521D0B0F8503094F85021BA
:105A0C009BB203EBC20300EB4303B3F80C34B4F8C2
:105A1C005621C3F30903C4F86C3104F5267102F066
:105A2C0022FC22682046138823F070031B051B0DF3
:105A3C0043F08003138003F071FA9FE71B049DD59C
:105A4C00038823F070031B051B0D43F080030380B8
:105A5C00B0F8503094F850219BB203EBC20300EB2A
:105A6C004303B3F80C34C3F30903C4F86C318BB1A2
:105A7C00D4F8641171B1B4F8562102F0F4FBD4F8E7
:105A8C006431D4F86C21294613442046C4F864319F
:105A9C0003F04AFA21680A88170593B23FF56EAFF6
:105AAC0003F44053B3F5405F3FF468AFB1F85020B6
:105ABC0001F20C4092B2835AD4F86051C3F309033B
:105ACC003E2D83521DD9835A6F09ED0608BF07F18D
