:020000040800F2
:100000000050002091630008155D0008175D00088E
:10001000195D00081B5D00081D5D00080000000060
:100020000000000000000000000000001F5D00084C
:10003000215D000800000000235D0008255D000828
:10004000D9630008D9630008D9630008D9630008A0
:10005000D9630008D9630008D9630008D963000890
:10006000D9630008D9630008D9630008295D000836
:10007000D9630008D9630008355D0008415D0008B8
:10008000D9630008D96300084D5D0008595D000878
:10009000655D0008D9630008D9630008D9630008CA
:1000A000695D0008755D0008795D00087D5D0008E8
:1000B000815D00088D5D0008995D0008D963000826
:1000C000D9630008A55D0008B15D0008D963000888
:1000D000D9630008BD5D0008D9630008D963000832
:1000E000D9630008D9630008D96300080000000044
:1000F0000000000000000000000000000000000000
:0C01000000000000000000005FF808F1A3
:1001100010B5054C237833B9044B13B10448AFF341
:1001200000800123237010BD880200200000000021
:10013000B0CB000808B5034B1BB103490348AFF32C
:10014000008008BD000000008C020020B0CB000839
:1001500010F8012B11F8013B012A28BF9A42F7D071
:10016000D01A7047034613F8012B002AFBD1181A46
:10017000013870477BB972B90029BEBF00204FF02B
:10018000004106E008BF00281CBF6FF000414FF09F
:10019000FF3000F0B9B9ADF1080C6DE904CE0029CB
:1001A00009DB002B1ADB00F035F8DDF804E0DDE9AF
:1001B000022304B07047404261EB4101002B1BDB7E
:1001C00000F028F8DDF804E0DDE9022304B0404245
:1001D00061EB4101524263EB43037047524263EBD0
:1001E000430300F017F8DDF804E0DDE9022304B072
:1001F000404261EB41017047524263EB430300F020
:1002000009F8DDF804E0DDE9022304B0524263EBB3
:10021000430370472DE9F047089D0F4604468E467C
:10022000002B48D18A42164661D9B2FA82F24AB10D
:10023000C2F1200301FA02FE20FA03F3964043EADA
:100240000E0E94404FEA164CBEFBFCF1B7B20CFB0D
:1002500011EE01FB07F0230C43EA0E43984209D943
:10026000F31801F1FF3E80F0ED80984240F2EA8001
:10027000023933441B1AB3FBFCF00CFB103300FBB8
:1002800007F7A4B244EA0344A74209D9341900F19C
:10029000FF3380F0D980A74240F2D6803444023840
:1002A00040EA01400021E41B1DB10023D440C5E910
:1002B0000043BDE8F0878B4206D90DB1C5E90001C6
:1002C00000210846BDE8F087B3FA83F1002947D141
:1002D000BB4202D3824200F20481841A67EB03021C
:1002E00001209646002DE4D0C5E9004EE1E7002A42
:1002F00000F09080B2FA82F2002A40F0A780881BBA
:100300000121370C1FFA86FEB0FBF7FC07FB1C002F
:10031000230C43EA00430EFB0CF0984207D9F31874
:100320000CF1FF3802D2984200F2E080C4461B1A5A
:10033000B3FBF7F007FB10330EFB00FEA4B244EA58
:100340000344A64507D9341900F1FF3302D2A6456C
:1003500000F2C9801846A4EB0E0440EA0C40A3E763
:10036000C1F120068B4022FA06FC4CEA030C27FA66
:1003700006FA4FEA1C49BAFBF9F88F4020FA06F357
:1003800009FB18AA1FFA8CFE3B4300FA01F708FB91
:100390000EF01C0C44EA0A44A04202FA01F20BD906
:1003A0001CEB040408F1FF3A80F09980A04240F26F
:1003B0009680A8F102086444241A98B2B4FBF9F3B9
:1003C00009FB134403FB0EFE40EA0444A64508D98A
:1003D0001CEB040403F1FF307FD2A6457DD9023B1C
:1003E000644443EA0840A4EB0E04A0FB028E74456B
:1003F0004346F14661D35ED055B1FA1A64EB090465
:1004000004FA06F622FA01F31E43CC40C5E9006463
:1004100000214EE743084FEA510C43EAC1710A0C30
:1004200042EA0C428BB2C407B2FBF6F143EA024344
:10043000BCFBF6FCB646304637461F22181A41EA86
:100440000C4161E7714615E7184629E7C2F1200320
:1004500021FA03F0964024FA03F397403B43370C0C
:10046000B0FBF7F807FB18001FFA86FE190C41EAEB
:10047000004108FB0EF0884204FA02F43AD97118E0
:1004800008F1FF3C01D288421ED8091AB1FBF7F8E7
:1004900008FB0EF007FB18119BB243EA01438342AD
:1004A0002FD2F31808F1FF31C8D28342C6D2A8F187
:1004B00002013344C2E747459ED2B8EB02036EEB1C
:1004C0000C0E0138F14697E7301A0144A8F1020CEE
:1004D000B1FBF7F808FB0EF0DCE7034681E7D046F6
:1004E0006AE70846FEE63444023834E7ACF1020C11
:1004F00033441CE7091AC446B1FBF7F808FB0EF0B9
:10050000C8E741469AE700BF704700BF00220A498A
:1005100030B50B88094D013810F8014F14B902B1FC
:100520000B8030BD5A1C92B2B2F5007FEC5414BF60
:10053000134600230122EFE7B6020020BE0200208E
:10054000074A10B51188074C4B1C9BB2B3F5007FCE
:10055000138008BF0023605408BF138010BD00BF84
:10056000B6020020BE02002038B500240D460D4B17
:1005700001461C700C4B08220C481C700BF06FFEDF
:100580000A4B082229460A481C720BF068FE3222E8
:10059000074B1C72074B1A601722074B1A70074B48
:1005A0001C7038BD2C070020C20600200A0700205E
:1005B00001070020280700202D070020B502002099
:1005C0002DE9F8430025904601220F461C461D4B9D
:1005D0001D4E1D701D4B01461A701D480822BDF8A6
:1005E000209035700BF03BFE194B1D7237B33B78F2
:1005F00023B30822394617480BF031FE154B1D7204
:100600000A22154940460BF089FD0A22134920466B
:100610000BF084FDB9F1000F4FF00A0214BF4846F9
:1006200050200F490BF07AFD32220E4B1A6017232F
:10063000002233700C4B1A70BDE8F8830024054B80
:100640001C70DDE72C0700202D070020C2060020CB
:10065000CC060020C3060020080000200600002071
:100660000000002028070020B5020020014B187868
:10067000704700BFC10600201E4B70B55B68064680
:100680000D461446002B30D047F230531A491B4810
:10069000002A08BF1C460BF021FE314600260F221F
:1006A00017480BF0DCFD164B0A2216492846DE736C
:1006B0000BF034FD0A22204613490BF02FFD134B9B
:1006C0001B78ABB1124A137813F002000CD023F060
:1006D000690313700F4B06201A880F4B1A801322E0
:1006E0000E4B1A700E4B1E6070BD4FF0FF30FBE7D3
:1006F0000120F9E7A8020020C8CB00080B00002069
:10070000F1060020EB060020D50600200A07002095
:100710002C070020B6020020B80200202D07002080
:10072000280700201F4B70B55B6805460E4614462F
:10073000002B32D047F230531B491C48002A08BF17
:100740001C460BF0CBFD294600250F2218480BF064
:1007500086FD174B0A2217493046DD730BF0DEFC8D
:100760000A22204614490BF0D9FC144B1B78BBB16C
:10077000134A137813F002000ED023F069031370AC
:10078000104B06201A88104B1A8013220F4B1D7035
:100790000F4B1A700F4B1D6070BD4FF0FF30FBE721
:1007A0000120F9E7A8020020CCCB00080B000020B4
:1007B000F1060020EB060020D50600200A070020E5
:1007C0002C070020B6020020B8020020B40200204E
:1007D0002D07002028070020004870470B0000204C
:1007E000064B5B683BB1064B1B7813F0400F0CBF08
:1007F0000520072070474FF0FF307047A802002007
:100800002C070020074A10B51188074C4B1C9BB2DF
:10081000B3F5007F138008BF0023605408BF138026
:1008200010BD00BFBC020020BE0400202DE9FF4720
:100830001F463D4B04465B6888461546BDF8309020
:10084000002B6CD0394EDFF8E8A033789AF800100E
:1008500003F040020A4365D01B0758D40A2201A9BD
:1008600038460BF05BFC01A8FFF77CFC421ED2B2BD
:10087000032A4AD82F48FFF749FE9AF8003053B1AF
:100880000A22694620460BF049FC6846FFF73EFE07
:100890002C20FFF755FE01A8FFF738FE2648FFF78A
:1008A00035FE002211462548DFF894C0038894B233
:1008B000A74216D801B103803378224C23F00C03F1
:1008C00043F00C03337023683BB11F4898472368FB
:1008D00001A8984723681D489847092004B0BDE83F
:1008E000F0875C1CA4B2B4F5007F08BF0024691C2B
:1008F00018F8055089B20CF803500132494514BF6D
:100900000D46002523460121D1E70B20E6E70D4BDC
:100910001B680BB90820E1E70D489847FAE74FF04C
:10092000FF30DBE70520D9E7A80200202C070020D4
:10093000C206002063D10008D0CB0008B602002018
:10094000BE02002014070020D3CB0008D9CD000838
:10095000E6CB000802460F4B5168006803C390685D
:100960003221186000230C4A13700C4A13700C4A91
:1009700013800C4A13800C4A13800C4A13800C4AD3
:1009800013700C4A13700C4A11600C4A13600C4A25
:1009900013607047A80200202D070020C006002029
:1009A000B8020020B6020020BA020020BC020020DB
:1009B0002C070020C206002028070020180700206E
:1009C00014070020114A13680BB1013B1360104A51
:1009D000136823B1013B13600BB90E4A13700E4A22
:1009E00013680BB1013B13600C4A13686BB1013BF8
:1009F000136053B90A490A78100706D563F3C30296
:100A0000084B0A701A88084B1A8070472807002084
:100A100024070020C0060020200700201C0700201B
:100A20002C070020B6020020B80200202DE9F84F64
:100A3000A64AA74EB2F800B0338800255B4506D021
:100A4000A44F3A78173A022A2AD8A6F800B0A24E44
:100A5000A24C3368002B40F0B98264239D4D336073
:100A60002B78192B00F2B282DFE813F0B804C00231
:100A7000D902E002EE02F302FC02010314031E039A
:100A800056035B036B03710385038B03BC03C50330
:100A9000D6032C043C047E04B5046D029C02AB0218
:100AA00002228F498F4C0A609B45D0D08E4AD05C81
:100AB00022780D2A00F24282DFE812F00E00550083
:100AC000CC0040024002B601CB01D401E10140025A
:100AD000FC0119022B020A02002304219846DFF8C8
:100AE0000CC2834ADFF80C928CF8003011705FFA68
:100AF00083FE59F82E10D1B9B8F1000F01D08CF84F
:100B000000E00022764B75491A600B7813F0010F54
:100B100000F092803E2840F08F8062F300030B705B
:100B2000754B1A604FF49672744B1A6084E091F81A
:100B300004A00133824513D1B8F1000F01D08CF825
:100B400000E00B784978303B313903EB830301EB4C
:100B500043036B490B8001232370052313706BE063
:100B60004FF00108C3E7DFF884C162499CF8002018
:100B700051F822205E49097812F801E0864514D127
:100B8000DFF87CC1BCF80030013B9BB2ACF8003010
:100B90000BB10D284DD19378D278303B03EB830312
:100BA000303A02EB4303237046E000229146C1F540
:100BB0007F4A8CF800200AF1D30ADFF838C15FFAC7
:100BC00082F85CF828C0BCF1000F0CD1B9F1000F1D
:100BD00004D04B4A1580454A82F800800022013B30
:100BE0002270338028E09CF800E09CF80150AEF1C0
:100BF000300E0EEB8E0E554405EB4E05ADB27F2D3B
:100C000024D81CF801E0864520D13D4B1D80B9F168
:100C1000000F02D0354B83F8008055B99CF80230A4
:100C20009CF80320303B03EB8303303A02EB430391
:100C300023702F4B01311970338801339BB2B3F508
:100C4000007F338004BF002333802DE74FF001097C
:100C50000132B2E70A28EFD100232370234B1B781F
:100C6000023B0F2BE8D801A252F823F0AD0C00088C
:100C7000090D0008310D0008390C00085B0D000853
:100C80005B0D0008890D0008930D0008B10D0008E8
:100C9000DB0D0008390C0008F30D0008390C0008C2
:100CA000FD0D0008090E0008090E00083A78152A03
:100CB000C2D8144BD340D807BED50022064B1A60C9
:100CC000064A137843F0200348E700BFBC02002027
:100CD000BA0200202D070020280700202C07002042
:100CE00024070020C0060020BE040020A50200202A
:100CF000A4020020E8CF0008200700201C070020E5
:100D0000BE06002054552000954A1378190709D5CE
:100D100023F009031370934B1A88934B1A80002217
:100D2000924B1A603B78152B86D10022904BFCE643
:100D30003B78102B80D100228D4B1A60884A1378A3
:100D400023F0220343F0220313708A4B1B68002B0D
:100D50003FF472AF032098476EE7814A137823F07F
:100D6000420313703B78113B052B3FF665AF814B77
:100D70001B680BB1002098477F4B1B78002B7FF43A
:100D80005BAF19233B7057E7754A137823F0400394
:100D9000E4E6734A137823F0080313700022734BC0
:100DA0001A60744B1B68002B3FF446AF0A20D2E751
:100DB000714B1B78002B7FF43FAF6D4A1360684A7C
:100DC000137823F0600343F060031370694B1B68D2
:100DD000002B3FF431AF0720BDE7614A137823F0C1
:100DE00040031370634B1B68002B3FF425AF0520B5
:100DF000B1E75B4A137823F04203AFE6584A137811
:100E000023F042031370BCE7554A1378180706D540
:100E100023F009031370534B1A88534B1A803B7805
:100E2000013B102B81D907E7544A2C28126807D1BF
:100E300006232370002A3FF4FFAE51489047FBE69B
:100E40000021013B21703380002A3FF4F5AE4D486C
:100E5000F4E722287FF4F0AE0723002223704A4BE8
:100E60001A80E9E6222803D0474A1388102B01D1C3
:100E7000082398E6591C1180444AD054DCE60A281D
:100E80007FF4DAAE0023404A237011883F4A0F29CD
:100E90009BBF5354324913700A789FBF42F020021F
:100EA0000A70334A1360334B1B68002B3FF4C4AE07
:100EB000042050E72C287FF491AE2F4B1B782BB1E8
:100EC0000D2300222370324B1A70B5E60B23C4E7C2
:100ED0002C28FBD0A0F13002092A3FF67FAE2C4A25
:100EE000137803EB830300EB4303303B36E63A28E9
:100EF00001D10C2357E6A0F13002092A3FF66EAE6D
:100F0000214A138803EB830300EB4303303B138038
:100F100092E6204B9B6803B198471B4A1388013B1C
:100F20009BB21380002B7FF487AE2370134B1B689A
:100F3000002B3FF481AE184898477DE60023174AFE
:100F40002370136078E6134B00201B6898470B4B07
:100F50001B680BB11248984718232B7036E000BF6E
:100F60002C070020B6020020B80200201C07002039
:100F70002807002018070020C206002014070020C0
:100F8000FECB000813CC0008BE060020DB060020C4
:100F9000C1060020A802002027CC0008240700205A
:100FA0003ACC00089F4B01201B6898479E4B1B685A
:100FB0000BB19E48984719232B704FF4FA73336096
:100FC00004E0012300222B70994B1A702378DA0772
:100FD00040F11E82974A126832B9974A23F00903FA
:100FE0001188964A23701180BDE8F88F904A1378D3
:100FF0002BB1013BDBB213701BB91723ADE7042300
:10100000137023788E4823F020032370FFF77EFAB5
:10101000854B1B680BB18B48984702239DE72378CB
:10102000990601D5032398E7012396E78648FFF741
:101030006DFA7D4B1B680BB184489847237823F0E9
:1010400020032370042388E723789A06ECD5052330
:1010500083E77F48FFF75AFA237823F020032370B1
:1010600006237AE723789B06DED5072375E7794BBD
:101070001B786BB17848FFF749FA6B4B1B680BB1D3
:1010800076489847237823F020032370082364E7E9
:101090007348F0E723789F06C6D56E4B1B78002B6C
:1010A0000CBF0F23092358E76E48FFF72FFA2220C1
:1010B000FFF746FA6C48FFF729FA2220FFF740FABB
:1010C0002C20FFF73DFA2220FFF73AFA6748FFF796
:1010D0001DFA2220FFF734FA2C20FFF731FA64487A
:1010E000FFF714FA2C20FFF72BFA6248FFF70EFAED
:1010F0000D20FFF725FA0A20FFF722FA4A4B1B685A
:101100000BB15D489847237823F0200323700A230E
:101110002B704FF4967352E723789E0684D50B23E9
:101120001BE75648FFF7F2F93F4B1B680BB15448D9
:101130009847237823F0200323700C232B70C823B7
:101140003DE7237898067FF56FAF0D2305E74D48FF
:10115000FFF7DCF94C48FFF7D9F94C48FFF7D6F90F
:10116000314B1B680BB14A489847237823F0200382
:1011700023700E23E2E7237899067FF555AF1623F7
:10118000EBE6444F3B78002B3FF420AF4248FFF79B
:10119000BDF92220FFF7D4F93846FFF7B7F922202E
:1011A000FFF7CEF92C20FFF7CBF92220FFF7C8F983
:1011B0003A48FFF7ABF92220FFF7C2F90D20FFF7FD
:1011C000BFF90A20FFF7BCF9174B1B680BB1344875
:1011D0009847237823F02003237010232B7040F2CC
:1011E000DC53ECE623789A067FF51EAF1123042228
:1011F0002B700F4BE9E600222A4B2B481A70FFF7A1
:1012000085F9094B1B680BB128489847237823F0D0
:10121000200323701223A0E623789B0648D51323CE
:101220009BE600BFA80200201407002050CC000855
:10123000B502002020070020B6020020B8020020DE
:10124000ADD1000866CC00089FD1000874CC00081E
:1012500088CC0008C20600209ACC0008B6CC000852
:10126000A8CC000855D10008CC060020C3060020F9
:101270000800002006000020CACC000841D1000868
:10128000DDCC000831D1000800000020D8CD0008D6
:10129000F1CC00080A07002095D1000801070020C2
:1012A00008CD0008DB0600208AD100081BCD00080D
:1012B0006D4A1378013BDBB21370002B3FF4B4AEE0
:1012C00011234AE6694B1B78002B3FF47FAE684838
:1012D000FFF71CF9674B1B680BB16748984714234D
:1012E0002B706CE66548FFF711F92220FFF728F90B
:1012F0006348FFF70BF92220FFF722F92C20FFF7B4
:101300001FF92220FFF71CF95848FFF7FFF82220A9
:10131000FFF716F92C20FFF713F95A48FFF7F6F8F4
:1013200059495748FEF714FF58B92C20FFF708F920
:101330005648FFF7EBF82C20FFF702F93020FFF7B3
:10134000FFF80D20FFF7FCF80A20FFF7F9F8494BEA
:101350001B680BB14E489847237823F06003237035
:1013600015232B7096232AE6237813F020060FD03E
:10137000002243F040032370464B1A7016232B7053
:10138000454B1B68002B3FF421AE072098471DE614
:1013900066F386139F0723707FF546AE3F493848B2
:1013A000FEF7D6FE3B4AA0B913780133DBB2012B1E
:1013B00002D813701423D0E51070334930480AF076
:1013C0008DFF32480378002BF4D135490AF086FFAF
:1013D000F0E71670EEE7334B1B780BB10023EEE518
:1013E000237898077FF520AE5906F7D42B49244877
:1013F000FEF7AEFE48B9244921480AF06FFF2348A2
:10140000037813B926490AF069FF13232B70E5E727
:10141000254D26492A88098891423FF4E5AD244E9E
:101420005F07B05C02D53E2808BF0A20214B5B68ED
:10143000984700283FF4D8AD22782B8851070AD569
:10144000F15C3E2907D1322122F0050242F001026F
:101450002270194A116001339BB2B3F5007F08BFB7
:1014600000232B80C0E500BFB5020020F10600205C
:101470006FD10008140700202CCD00087DD1000892
:101480000B000020EB060020C8CB0008D50600208A
:1014900042CD0008B402002018070020CCCB000881
:1014A00058CD0008C2060020B8020020B602002075
:1014B000BE020020A802002020070020014B186077
:1014C000704700BF18070020014B1860704700BF2D
:1014D000140700200022F0B5084BD4B2A14202F15B
:1014E000010200D8F0BD5D791E686F1C5F71045D5C
:1014F00074555C79DD792C405C71EEE7D40C0020EA
:10150000021E18BF01224FF40071014805F0ACBD66
:10151000000C01401FB514461A464FF0FF330091EE
:10152000CDE9014301460123024806F03DF804B02D
:1015300010BD00BFE80E0020FFF7ECBF13B5144646
:101540001A46CDE9001401230146024806F0BCF812
:1015500002B010BDE80E002013B514461A46CDE9BE
:10156000001401230146024806F074F902B010BDD0
:10157000E80E002007B501228DF807000DF10701E4
:10158000034808F064FFB0FA80F0400903B000BDE2
:10159000F80C002010B50446FEF7E4FD81B22046A9
:1015A000BDE810400AF000BC30B5154B1B78E3B124
:1015B000144D2C786CB914490D280B7801D00A28E9
:1015C00008D133B100221149CA5401232B70104BAA
:1015D0001A7030BD2E2BFCD85A1CD2B20A700B499F
:1015E000C8548C540A4B0522F2E70A4B5A79196801
:1015F000541C5C7188545A79D9790A405A71E8E7C9
:101600006E08002070080020710800207208002079
:101610006F080020B80A0020032810B518D11B4C11
:10162000237873B10C211A4B1A481A781A4B01FB14
:1016300002330F2299680AF012FE0023154A237024
:10164000D3730122154B1A700022154B1A7010BD6E
:101650000728F9D00D4A134B11781B780B4303432D
:10166000DBB2002BF3D10123137040F6B832BDE892
:1016700010400C210C4B1A80054B074A1B784B433A
:10168000D1184968D058FEF76FBF00BFA5080020E9
:10169000A60800207A00002034E70008A2080020F5
:1016A000A30800206E0800208A000020038830B5BF
:1016B0008B421FD2C38B8B4219D9002330F8024BC7
:1016C000A14211D3028891420ED80B48121BC55A71
:1016D0000230C35A091B5B1B500801FB0300B0FB1F
:1016E000F2F0284480B230BD02331E2BE6D14FF415
:1016F0007A70F8E70020F6E794E60008054B064A02
:1017000003F1100153F8040B8B4242F8040BF9D19A
:10171000704700BF88070020780700200122014B96
:101720001A707047660700200122014B1A7070473B
:10173000C007002002682F4B10B59A42044612D110
:101740002D4A2E4913782E480133DBB2282B01BFD6
:10175000002313702B4A137808BF43F080031370E3
:10176000082204F0FDFF2368B3F1804F1FD1264B00
:101770001A78012A0BD01A78022A08D01A78032A7C
:1017800005D01A78052A02D01A78042A08D1012433
:101790001E491F480A788454224402F00F020A703E
:1017A0001C490A78013A12F0FF0201D00A7010BDFC
:1017B00014220A701A78062A05D01A78072A02D04D
:1017C0001A78052AF3D11A781149062A0F4A02D04D
:1017D0001B78072B06D101201378C854034403F06B
:1017E0000F03137000201378C854013303F00F0364
:1017F0001370DCE7002C0140F50C00208807002066
:10180000800F0020F40C0020B1000020C107002050
:10181000C20700208C00002010B50D4B0D4C1A782B
:101820000D4B0E4853F822100122237802FA03F3DD
:101830008B4308BF1A464FF4005105F015FC23787E
:101840000133DBB2142B28BF0023237010BD00BF6F
:10185000F60C0020620700209000002000100140DC
:101860002DE9F0418C4B8D4C1B788AB0062B5FFA2A
:1018700083F840F02B810025012003F055FE402322
:10188000202229461E20009503F09EFF1623802269
:1018900014212846009503F097FF40235222294641
:1018A0005020009503F090FF7D4E2946282003F03C
:1018B0003FFF7C4902A80AF011FD96E80E00009552
:1018C00002A803F01FFF2946552003F031FF764997
:1018D00002A80AF003FD96E80E00009502A803F0A6
:1018E00011FF1921282003F023FF704B2021B3F9A9
:1018F00000306F4A02A80AF055FC94E80E000095EB
:1019000002A803F0FFFE1921552003F011FF694BD7
:101910002021B3F90030664A02A80AF043FC94E89B
:101920000E00009502A803F0EDFE2521282003F00B
:10193000FFFE614B2021B3F900305D4A02A80AF096
:1019400031FC94E80E00009502A803F0DBFE25218F
:10195000552003F0EDFE594B2021B3F90030544AD5
:1019600002A80AF01FFC94E80E00009502A803F0FC
:10197000C9FE3121282003F0DBFE514B2021B3F9B1
:1019800000304B4A02A80AF00DFC94E80E000095C6
:1019900002A81E2603F0B6FE3121552003F0C8FE32
:1019A000484B2021B3F90030414A02A80AF0FAFB63
:1019B00094E80E0040F6FA74434F009502A803F035
:1019C000A1FE3B8803227343B3FBF4F3C3F13C0352
:1019D00010463C21DBB2009503F0B0FE7B88424606
:1019E0007343B3FBF4F3C3F13C033C214046DBB249
:1019F000009503F0A3FEBB8809227343B3FBF4F305
:101A0000C3F13C0310463C21DBB2009503F096FE87
:101A1000FB880C227343B3FBF4F3C3F13C03104681
:101A20003C21DBB2009503F089FE3B890F22734312
:101A3000B3FBF4F3C3F13C0310463C21DBB2009549
:101A400003F07CFE7B8912227343B3FBF4F3C3F1F2
:101A50003C0310463C21DBB2009503F06FFEBB89CE
:101A600015227343B3FBF4F3C3F13C0310463C214E
:101A7000DBB2009503F062FE1822FB893C21734320
:101A8000B3FBF4F31046C3F13C030095DBB203F063
:101A900055FE0AB0BDE8F081B1000020C0D10008B9
:101AA000B4D100085ECD000862CD0008BE0700205A
:101AB00066CD0008B8070020BC070020B60700204C
:101AC000BA070020B407002078070020002003F0A8
:101AD0002BFD02210125084603F02AFE94E80E00A2
:101AE0004548009503F00EFE0221242003F020FE5D
:101AF000424B20211B68424A02A80AF053FB94E89B
:101B00000E00009502A803F0FDFD1121022003F054
:101B10000FFE94E80E003B48009503F0F3FD112101
:101B2000242003F005FE0522374B20211B6802A864
:101B300003EB430393FBF2F3344A0AF033FB94E8DC
:101B40000E00009502A803F0DDFD2021022003F025
:101B5000EFFD94E80E002E48009503F0D3FD202100
:101B6000242003F0E5FD64212A4E02A8326892FB8E
:101B7000F1F301FB1322002AB8BF52422021009248
:101B8000254A0AF00FFB94E80E00009502A803F026
:101B9000B9FD2F21022003F0CBFD94E80E001F4871
:101BA000009503F0AFFD24202F2103F0C1FD42F288
:101BB00026323368009503F58C531333934298BF54
:101BC000174894E80E0088BF164803F09BFD0124D7
:101BD0000E237F2219460020009403F0AFFD1D2341
:101BE0007F2219460020009403F0A8FD2C237F22B9
:101BF0001946002000944AE769CD0008A807002094
:101C00006ECD000877CD0008A40700207CCD000829
:101C100086CD0008380800208BCD000895CD00083F
:101C20009ACD0008A4CD000837B5434B434C1A7831
:101C3000012A05D01A78022A02D01A78032A16D16E
:101C40002278013A012A12D8002323703C4A3D4BE6
:101C500011781B788B4208D03B484B1C415C03F049
:101C60000F0399B103212170137003B030BD2278A6
:101C7000032A5ED801A151F822F000BF4D1C0008D4
:101C8000911C0008A71C0008C11C00080121EAE7FC
:101C90001B78052B04D104F049FB02232370E4E7F1
:101CA000FFF7DEFDF9E7294806F0C8FD2028DCD162
:101CB00003F060FC0028D8D00023254A1370EDE71C
:101CC000224806F0BEFD234D10B14FF47A732B600D
:101CD0001E4806F0B3FD202816D103F067FB98B12B
:101CE0001D4B1E4A01931E4B1E4900931E481F4B5D
:101CF00003F0A8FB00231E4A1E4913700A7842F025
:101D000008020A702B60C9E72B680133B3F5FA7F2C
:101D10002B60AAD90D4805F02DFC012004F0A6FB8C
:101D20000A4805F07FFB03F009FB03F031FB0023B9
:101D3000E8E70023B2E700BFB10000206107002000
:101D400060070020C1070020C2070020E80E002025
:101D5000660700205C070020B4070020BA070020B7
:101D6000B6070020BC070020BE070020B8070020EF
:101D7000C0070020F40C0020074B084A1B6812889B
:101D80005A63074A1288DA63064A12889A63064A37
:101D900012881A64704700BF880D00205208002086
:101DA0004E080020500800204C08002038B5564D41
:101DB0002B78834200F082802B78544C042B0BD17B
:101DC000042809D0524B1A68524B1A600023524A19
:101DD00023601380514A13800021514B1980514BCD
:101DE0001980514B1980514B1980FFF7C5FFFF2215
:101DF0004F4B19604F4B19604F4B19704F4B197077
:101E00004F4B287001381A704E4B062876D8DFE801
:101E100000F004172A3A5668730001201970FFF782
:101E20006FFB494AB2F90030002BC4BF47490B8011
:101E300000231380364A1168364A116023603DE062
:101E400001201870FFF75CFB3F4AB2F9003043B93C
:101E500040F213113D4BB3F90030002BD8BF0B46B5
:101E600013800023EAE74FF4FA60394A1170394AC7
:101E70001060394A01201170384A1160384A1170D7
:101E800002221A70DEE7032201201A70FFF738FBE6
:101E90002D4AB2F90030002BC4BF2C490B8000231F
:101EA00013801B4A236011681A4A11601A4A138072
:101EB0001A4A13802B4B1A682B4B1A6038BD042228
:101EC00000201A700025FFF71BFB1F4BB3F9002001
:101ED0001D80002AC4BF1D490A8004F019FA25603C
:101EE000ECE7052201201A70FFF70AFB03F084FBE0
:101EF000012003F09DFCB4E70622F3E7072201204E
:101F00001A70FFF7FDFAACE7B1000020F4070020DB
:101F10005C000020600000200E0800200C0800205B
:101F2000520800204E080020500800204C080020D5
:101F3000240800202C0800201D0800201C08002078
:101F4000B0000020F60C0020520000204E000020BF
:101F5000E4070020DC070020D8070020D407002079
:101F6000E507002098070020080800200138042811
:101F700004D8DFE800F006080A0C0E000020FFF786
:101F800015BF0120FBE70220F9E70320F7E7042053
:101F9000F5E70520F3E70000F0B5026883790C4609
:101FA000D15C0546A1F1A00391B0512B01F28080D4
:101FB000DFE813F052005C006C00B800070132014A
:101FC000AB01C801530171018E010A029D04BA04DC
:101FD000D704F40411052E0530024B05680586056B
:101FE000A405C205E00526067E087E087E087E0858
:101FF0007E087E0844064B026802620644074807D2
:1020000066078407A207C007DE078006A006DC0675
:10201000BE06E0067E086B0814082D080807260790
:102020007E087E087E087E087E087E087E087E0880
:102030007E087E087E087E087E087E087E087E0870
:102040007E087E087E087E087E087E087E087E0860
:102050007E087E0892026804A0210222204603F036
:10206000DFFE0D21204603F023FF08E0A1210D2211
:10207000204603F0D5FE2046C14903F02CFF204640
:10208000217A11B0BDE8F04003F012BF0D22A22169
:10209000204603F0C5FEBB4BBB4DB3F900102046F4
:1020A0002980C9B203F004FF6978204603F000FFDD
:1020B000B64B2046B3F900102980C9B203F0F8FEF0
:1020C0006978204603F0F4FEB14B2046B3F90010C6
:1020D0002980C9B203F0ECFE6978204603F0E8FEDF
:1020E000AC4B2046B3F900102980C9B203F0E0FEE2
:1020F0006978204603F0DCFEA74B2046B3F90010B8
:102100002980C9B203F0D4FE6978204603F0D0FEDE
:10211000A24BB3F900102980C9B2204603F0C8FED3
:1021200069789FE79E4E1122A321204603F078FE96
:10213000954D318820462980C9B203F0B9FE6978EF
:10214000204603F0B5FE718820462980C9B203F00D
:10215000AFFE6978204603F0ABFEB18820462980A7
:10216000C9B203F0A5FE6978204603F0A1FEF1880C
:1021700020462980C9B203F09BFE6978204603F00F
:1021800097FE318920462980C9B203F091FE697813
:10219000204603F08DFE718920462980C9B203F0E4
:1021A00087FE6978204603F083FEB18920462980A6
:1021B000C9B203F07DFE6978204603F079FEF1890B
:1021C000A9E70222A421204603F02AFE0D21204681
:1021D00003F06EFE217A204603F06AFE0022012100
:1021E000284603F09DFE684C0022012120702846FD
:1021F00003F096FE6070B4F900202388002A694934
:10220000694AB5BF5B4213800B800023B6BF002331
:102210000B80138011B0F0BD0222A521204603F0EF
:10222000FFFD0D21204603F043FE217A204603F0F6
:102230003FFE00220121284603F072FE524C00228C
:1022400001212070284603F06BFE6070B4F9002075
:102250002388002A5549564AD3E70222A82120465E
:1022600003F0DEFD0D21204603F022FE217A2046F8
:1022700003F01EFE00220121284603F051FE424CCD
:10228000002220700121284603F04AFE6070228857
:10229000484B1A80BEE70222A921204603F0C0FD68
:1022A0000D21204603F004FE217A204603F000FEB3
:1022B00000220121284603F033FE334C0022207017
:1022C0000121284603F02CFE607022883A4BE0E79B
:1022D0000222AA21204603F0A3FD0D21204603F08F
:1022E000E7FD217A204603F0E3FD00220121284684
:1022F00003F016FE244C002220700121284603F032
:102300000FFE607022882D4BC3E70222A6212046D3
:1023100003F086FD0D21204603F0CAFD217A2046F8
:1023200003F0C6FD00220121284603F0F9FD164CFA
:10233000002220700121284603F0F2FD60702288FF
:102340001F4BA6E70222A721204603F069FD0D21BD
:10235000204603F0ADFD217A204603F0A9FD0022BE
:102360000121284603F0DCFD074C002220700121EA
:10237000284603F0D5FD60702288124B89E700BF24
:1023800070E70008BE070020D00A0020BC0700202C
:10239000BA070020B8070020B6070020B4070020C5
:1023A000780700204E0800204C080020520800202A
:1023B0005008002066000020640000201E08002055
:1023C00070000020720000200222AB21204603F0A2
:1023D00027FD0D21204603F06BFD217A204603F0F6
:1023E00067FD00220121284603F09AFD344C0022AB
:1023F00020700121284603F093FD6070314AB4F942
:1024000000301360304A1278042A3FF403AF2F4A99
:102410001360FFE60222B221204603F001FD0D21E8
:10242000204603F045FD217A204603F041FD0022BD
:102430000121284603F074FD214C00222070012167
:10244000284603F06DFD6070E4E60222C1212046BB
:1024500003F0E6FC0D21204603F02AFD217A2046F8
:1024600003F026FD00220121284603F059FD144CFB
:10247000002220700121284603F052FD607022885E
:10248000134B06E70222C221204603F0C9FC0D21AE
:10249000204603F00DFD217A204603F009FD0022BD
:1024A0000121284603F03CFD054C0022207001214B
:1024B000284603F035FD60702288064BE9E600BF30
:1024C000D00A002060000020B10000205C00002045
:1024D000260000202400002000255C22F021204658
:1024E00003F09EFCBE4B03AF1B88ADF80C30BD4B18
:1024F0001B88ADF80E30BC4B1B88ADF81030BB4BC1
:102500001B88ADF81230BA4B1B88ADF8143037F980
:10251000026B2046F1B203F0CBFC01352046C6F336
:10252000072103F0C5FC052DF1D1B24D20462978D5
:1025300003F0BEFC6978204603F0BAFCA978204677
:1025400003F0B6FCE9780025204603F0B1FCAA4B65
:1025500009AF1B88ADF82430A84B1B88ADF8263096
:10256000A74B1B88ADF82830A64B1B88ADF82A3046
:10257000A54B1B88ADF82C30A44B1B88ADF82E3032
:10258000A34B1B68ADF8303037F9026B2046F1B22F
:1025900003F08EFC01352046C6F3072103F088FCCA
:1025A000072DF1D100259B4B06AF1B88ADF81830E5
:1025B000994B1B88ADF81A30984B1B88ADF81C302E
:1025C000974B1B88ADF81E30964B1B88ADF820301A
:1025D000954B1B88ADF8223037F8026B2046F1B2DC
:1025E00003F066FC01352046310A03F061FC062D3C
:1025F000F2D100258D4B01AF1B88ADF804308C4B18
:102600001B88ADF806308B4B1B88ADF808308A4B21
:102610001B88ADF80A3037F8026B2046F1B203F0A0
:1026200047FC01352046310A03F042FC042DF2D16B
:10263000824B0021B3F90050204603F039FC002101
:10264000204603F035FCE9B2204603F031FCC5F327
:102650000721204603F02CFC794B7A4AB3F900603D
:10266000B2F900501978204603F022FCC6F3072186
:10267000204603F01DFCE9B2204603F019FCC5F327
:102680000721714D204603F013FC2978204603F002
:102690000FFC6978204603F00BFCA978204603F074
:1026A00007FCE978204603F003FC684B684AB3F95D
:1026B0000060B2F900501978204603F0F9FBC6F328
:1026C0000721204603F0F4FBE9B2204603F0F0FBBB
:1026D000C5F307215F4D204603F0EAFB2978204629
:1026E00003F0E6FB69785C4D204603F0E1FBA97836
:1026F000204603F0DDFB69882046090A03F0D8FB79
:10270000A979204603F0D4FBE9882046090A03F0A2
:10271000CFFBA97A204603F0CBFB69894F4D090A0C
:10272000204603F0C5FB29882046C9B203F0C0FB50
:1027300029884B4DC1F30721204603F0B9FB2988B6
:102740002046C9B203F0B4FB2988464DC1F30721E6
:10275000204603F0ADFB29882046C9B203F0A8FB50
:102760002988414DC1F30721204603F0A1FB2978B8
:10277000204603F09DFB6978204603F099FB3B4D12
:102780000021204603F094FB0021204603F090FB3B
:102790002978204603F08CFB6978204603F088FBFB
:1027A000334B204693F90010324D4B1E594259418C
:1027B00003F07EFB304B2046197803F079FB2F4B5A
:1027C0002046197803F074FB2978204603F070FB4B
:1027D00069782B4D204603F06BFB29789DE400BF00
:1027E000660000201E080020640000207000002009
:1027F00072000020600000205200002050000020E5
:102800004A080020480800204C0000205A00002000
:10281000300000203E000020380000203A00002058
:10282000360000203C000020340000206E00002014
:102830006C0000202600002024000020580000200A
:1028400056000020540000203C0800204A000020D0
:10285000480000204600002078070020760700206E
:1028600074070020720700202C00002028000020A0
:102870004400002042000020B1000020E4070020B6
:102880004000002000261D22F121204603F0C8FA56
:10289000C74B09AF1B680993C64B1B680A93C64B0D
:1028A0001B680B93C54B1B680C93C54B1B680D93A2
:1028B000C44B1B680E93C44B1B680F9357F8045B03
:1028C0002046E9B203F0F4FAC5F30721204603F0ED
:1028D000EFFAC5F30741204603F0EAFA0136204635
:1028E000290E03F0E5FA072EE8D1FFF7C8BB022254
:1028F000AC21204603F094FA0D21204603F0D8FACB
:10290000217A204603F0D4FA00220121284603F060
:1029100007FBAE4C002220700121284603F000FB8B
:1029200060702288AA4BB4E40222AD21204603F055
:1029300077FA0D21204603F0BBFA217A204603F0F6
:10294000B7FA00220121284603F0EAFA9F4C002240
:1029500020700121284603F0E3FA607022889D4B25
:1029600097E40222AE21204603F05AFA0D212046B8
:1029700003F09EFA217A204603F09AFA0022012100
:10298000284603F0CDFA914C002220700121284600
:1029900003F0C6FA607022888F4B7AE40222AF21DE
:1029A000204603F03DFA0D21204603F081FA217AFA
:1029B000204603F07DFA00220121284603F0B0FAF8
:1029C000824C002220700121284603F0A9FA607091
:1029D0002288824B5DE40222B021204603F020FAD7
:1029E0000D21204603F064FA217A204603F060FAB4
:1029F00000220121284603F093FA744C0022207033
:102A00000121284603F08CFA60702288744B40E460
:102A10000222B121204603F003FA0D21204603F0E3
:102A200047FA217A204603F043FA00220121284682
:102A300003F076FA654C002220700121284603F04D
:102A40006FFA60702288674B23E40222B32120468C
:102A500003F0E6F90D21204603F02AFA217A2046F8
:102A600003F026FA00220121284603F059FA574CB8
:102A7000002220700121284603F052FA607022885B
:102A8000594B06E40222B421204603F0C9F90D2176
:102A9000204603F00DFA217A204603F009FA0022BD
:102AA0000121284603F03CFA484C00222070012105
:102AB000284603F035FA607022884C4BFFF7E9BBDB
:102AC0000222B521204603F0ABF90D21204603F088
:102AD000EFF9217A204603F0EBF900220121284684
:102AE00003F01EFA394C002220700121284603F021
:102AF00017FA607022883E4BFFF7CBBB0222B6214B
:102B0000204603F08DF90D21204603F0D1F9217AFA
:102B1000204603F0CDF900220121284603F000FAF7
:102B20002A4C002220700121284603F0F9F9607038
:102B30002288304BFFF7ADBB0222B721204603F0BD
:102B40006FF90D21204603F0B3F9217A204603F0F6
:102B5000AFF900220121284603F0E2F91B4C0022C4
:102B600020700121284603F0DBF960702288224B97
:102B7000FFF78FBB0222B821204603F051F90D2147
:102B8000204603F095F9217A204603F091F90022BE
:102B90000121284603F0C4F90C4C002220700121C9
:102BA000284603F0BDF960702288144BFFF771BB13
:102BB00030080020240800202808002020080020D9
:102BC00038080020F407002068000020D00A002008
:102BD00052000020500000204A0800204808002031
:102BE0004C0000205A0000203E0000203800002049
:102BF0003A000020360000203C0000203400002075
:102C00000222B921204603F00BF90D21204603F0E2
:102C10004FF9217A204603F04BF900220121284682
:102C200003F07EF9DD4C002220700121284603F0DC
:102C300077F960702288DA4BFFF72BBB0222C021A4
:102C4000204603F0EDF80D21204603F031F9217AFA
:102C5000204603F02DF900220121284603F060F9F7
:102C6000CE4C002220700121284603F059F96070F3
:102C70002288CC4BFFF70DBB0222C321204603F074
:102C8000CFF80D21204603F013F9217A204603F0F6
:102C90000FF900220121284603F042F9BF4C00221F
:102CA00020700121284603F03BF960702288BE4B5A
:102CB000FFF7EFBA0222CB21204603F0B1F80D2135
:102CC000204603F0F5F8217A204603F0F1F80022BF
:102CD0000121284603F024F9B04C00222070012184
:102CE000284603F01DF96070B4F90020AF4B1A605C
:102CF000FFF790BA0222CC21204603F091F80D2173
:102D0000204603F0D5F8217A204603F0D1F80022BE
:102D10000121284603F004F9A04C00222070012173
:102D2000284603F0FDF86070B4F90020A04BDEE700
:102D30000222CE21204603F073F80D21204603F035
:102D4000B7F8217A204603F0B3F800220121284683
:102D500003F0E6F8914C002220700121284603F090
:102D6000DFF86070B4F90020924BC0E70222CD2159
:102D7000FFF752BB0222CF21204603F051F80D216C
:102D8000204603F095F8217A204603F091F80022BE
:102D90000121284603F0C4F8804C00222070012154
:102DA000284603F0BDF86070238823B9FF22824BC8
:102DB0001A70FFF72FBA012B7FF42CAA7E4A1370EA
:102DC000FFF728BA0222D421204603F029F80D216A
:102DD000204603F06DF8217A204603F069F80022BE
:102DE0000121284603F09CF86C4C00222070012140
:102DF000284603F095F860702288704BFFF749BAB7
:102E00000222D521204603F00BF80D21204603F0C5
:102E10004FF8217A204603F04BF800220121284682
:102E200003F07EF85D4C002220700121284603F05B
:102E300077F860702288624BFFF72BBA0222C42118
:102E4000FFF7EABA0222C521204602F0E9FF0D2170
:102E5000204603F02DF8217A204603F029F80022BD
:102E60000121284603F05CF84C4C0022207001211F
:102E7000284603F055F860702288524BFFF709BAD4
:102E80000222C621204602F0CBFF0D21204603F08E
:102E90000FF8217A204603F00BF800220121284682
:102EA00003F03EF83D4C002220700121284603F03B
:102EB00037F860702288444BFFF7EBB90222C72134
:102EC000204602F0ADFF0D21204602F0F1FF217AED
:102ED000204602F0EDFF00220121284603F020F8F1
:102EE0002E4C002220700121284603F019F8607052
:102EF0002288364BFFF7CDB90222C821204602F0C6
:102F00008FFF0D21204602F0D3FF217A204602F0E8
:102F1000CFFF00220121284603F002F81F4C0022B7
:102F200020700121284602F0FBFF60702288284BA8
:102F3000FFF7AFB90222C921204602F071FF0D212F
:102F4000204602F0B5FF217A204602F0B1FF0022B0
:102F50000121284602F0E4FF104C002220700121DC
:102F6000284602F0DDFF607022881A4BFFF791B906
:102F7000194D04222B88CA21013320462B8002F0F0
:102F80004FFF0D21204602F093FF29882046090AB1
:102F900002F08EFF2978FFF765B800BFD00A002045
:102FA0006E0000206C00002058000020300000203F
:102FB0002C000020280000204400002042000020B7
:102FC0004000002056000020540000204A0000204D
:102FD0004800002046000020640700200422D2217F
:102FE000204602F01DFF0D21204602F061FF002265
:102FF0000121284602F094FFFEF7B8FF304B20462F
:10300000197802F055FF2F4B1978FFF72BB80222E1
:10301000D321204602F004FF0D21204602F048FF94
:10302000217A204602F044FF00220121284602F0C6
:1030300077FF254C002201212070284602F070FF06
:103040006070B4F90030214E0022012128463380FF
:1030500002F066FF002201212070284602F060FF86
:1030600031881B4B0AB2607012B91980194B3EE6C9
:1030700040F6B73021884A1E92B2824202D81980A7
:10308000FFF7C8B8C822FFF704B90222D1212046B1
:1030900002F0C6FE0D21204602F00AFF2046217AEA
:1030A00002F006FF1E220C4B1A8001220B4B7FE61A
:1030B0000222204602F0B4FEFF21FEF7D3BF00BF7C
:1030C000B1000020E4070020D00A00200E080020F4
:1030D0000C080020F40700205608002054080020A7
:1030E000F0B516464379027905469A420C46C3B0BC
:1030F0001DD002F022FFD0B1012E04BF0022154BDB
:103100002146284608BF1A70FEF746FF0022617A62
:1031100002A8D3B299420CD8C6B1FDF7A7FA4FF472
:10312000807300930022637A02A9FDF77FFB43B00E
:10313000F0BDA77925687B1CDBB2A371ED5D013280
:1031400000F8015BE5792B40A371E2E702A808F0E3
:103150002BFEECE7A30800202DE9F04FB04A8FB01A
:103160001378B3B10023AF49AF481370FCF7F0FFF9
:1031700047F2315247F23A5128B9AC480FB0BDE896
:10318000F04FFDF7CFBAA9480FB0BDE8F04FFDF7FB
:1031900073BAA7490B7803B3A64B1B88D3B9012098
:1031A0001370A54A0B701370A44AA5491370A54A61
:1031B00008701370A44AA5491370A54A0B701370C8
:1031C000A44AA5491380502305220093A348032352
:1031D000FDF7F6F90FB0BDE8F08F994A1378002B90
:1031E000F8D0DFF86CB29BF800406CB1994B1B88AB
:1031F000002BEFD19A499B488BF8003013700FB029
:10320000BDE8F04FFDF7B0B9DFF838A29AF800300A
:10321000002BDFD03B21894809F002F8874F0028B6
:1032200000F0598180463B4608F8014B1E4613F8D2
:10323000012B202AFAD03046FCF794FF00218A4A5D
:103240003044B0420AD010F8013C0A3BDBB2162BE6
:1032500004D822FA03F3DC0700F1BB803B2140468F
:1032600008F0DEFF4FF000090446002800F0B480AB
:1032700004F8019B3B21204608F0D2FF054608B127
:1032800005F8019B4346984613F8012B202AFAD0F3
:103290004046FCF767FF0021734A404440450AD08E
:1032A00010F8013C0A3BDBB2162B04D822FA03F3D8
:1032B000DB0700F19380002C00F09680A14614F803
:1032C000013B202BFAD04846FCF74CFF0021664A10
:1032D0004844484509D010F8013C0A3BDBB2162BA4
:1032E00003D822FA03F3DC077BD44846FCF73AFF05
:1032F0000738082807D80F2249464C4808F0AFFF86
:1033000000234A4AD3734DB32C4615F8013B202BBA
:10331000FAD02046FCF726FF0021534A2044A04261
:103320000AD010F8013C0A3BDBB2162B04D822FA73
:1033300003F3DB0700F1A280032220464B4908F08B
:103340007CFF38B103222046494908F076FF002867
:1033500040F097804549344808F0C0FF3378002B8F
:1033600000F09F800024314608223E4808F077FF95
:103370003C4B082241463A481C7208F070FF384B1B
:103380001C72FDF773F905463A4B05AA03F11806BE
:10339000144618685968083303C4B3422246F7D16B
:1033A0001B88002223801A232846009305A919238D
:1033B000FDF73CFA5022274B1A8001238BF800308E
:1033C00000231D4A3B7013701F4A8AF800301370A7
:1033D00000E700F8011D34E7054653E700F8011D3A
:1033E0005CE700F8011D74E7234A0C2303FB04F19A
:1033F00030468B1851580393FCF7AAFE1E4A8146AB
:10340000039B40B9094C0F222046996808F027FF1A
:1034100084F80F9077E70134052CE6D173E700BFFD
:10342000A2080020CCCB0008760000207A00002003
:10343000540800205608002071080020720800205F
:103440006E080020700800206F080020A5080020EA
:10345000580800205A080020AACD0008B3CD000863
:103460005C0800206508002009004000C8CB000867
:10347000B9CD0008C1CD000834E7000800F8011DEF
:103480004DE7032220461E4908F0D7FE38B103223B
:1034900020461C4908F0D1FE00287FF45FAF184990
:1034A00059E7FDF7E3F80546174B05AA03F11006A7
:1034B000144618685968083303C4B3422246F7D14A
:1034C000186814232060009313230022284605A9BE
:1034D000FDF7ACF974E7FDF7C9F805460B4B05AAF3
:1034E00003F12006144618685968083303C4B34230
:1034F0002246F7D118682423206000932323E4E7B1
:10350000CCCB0008BDCD0008DBCD0008EFCD000816
:1035100040F201230380002383708380C3807047BF
:1035200002780346032A1DD8DFE802F00F021407D1
:10353000427842B903221A7005E04178012200293D
:10354000F9D101708270002070474278012AFAD1C7
:103550000222F0E7407800220128ECD118709A701E
:10356000D87170470122E6E770B504464FF4004178
:103570001D4803F073FDA6781C4A1D491D4DAEB1D0
:1035800088B113780133DBB2072B137003D9012301
:1035900063700023137000230B702B78EBB1A388AA
:1035A0000A33A38070BD60701070F4E70B7816705A
:1035B000042B0FD9003818BF01200E706070002353
:1035C0002B70A3796BB1A388002BEBD0092B08D902
:1035D0000A3BE6E701330B70F1E7A38001232B7070
:1035E000DDE70023DDE700BF000C01405A070020A3
:1035F0005907002058070020F7B5694D2B78DB09E3
:1036000057D02B78674C23F080032B702378052B41
:1036100019D0FDF7D7F9644890F84230222B09D031
:10362000036862491A685B682023012280F84230EF
:1036300007F0EDF85E4B1B782BB15E490A88002A33
:1036400039D0013A0A805C4F5C48FFF78DFF3B7828
:1036500083B15B4A13786BB1013BDBB213704BB99A
:10366000584B1A7832B1584B197819B957488154C8
:1036700001221A70564A13880BB1013B1380554A38
:1036800013880BB1013B1380534A1378013B13F0AD
:10369000FF0303BF022313702B78137004BF43F0A2
:1036A00040032B704D4B1E78013E16F0FF0617D0DD
:1036B0001E7003B0F0BD4A4803780133DBB2042B1F
:1036C00094BF1A461346027040F6B8320A800C21A5
:1036D0004B43444AD1184968D058FCF745FFB2E73C
:1036E0000A221A702B7843F020032B70FEF794F80F
:1036F0002378052BDDD03C4A13780133DBB2092B4C
:1037000001D81370D5E7394D16702B783E783B2BD6
:103710009CBF01332B70002ECBD1FDF75DF83449EF
:10372000FCF716FD044640BBFDF75AF80728314E5A
:103730001DD12B78012B1DD9042B0FD9337833B928
:1037400047F2315247F23A512B48FCF7EBFF3378FE
:103750000133DBB2042B3370ABD90BE04FF4807331
:1037600022460093204609232449FDF75FF82B7871
:10377000042BE3D8002333709BE7FDF731F80728CB
:1037800097D12B78023B022B93D84FF480733246AB
:103790000093304609231A49FDF748F889E700BF2E
:1037A000F40C0020B1000020F80C0020B408002028
:1037B000A50800208A0000206E080020EC0C0020E4
:1037C0006F08002071080020700800207208002097
:1037D0005A080020560800208D0000208E0000208E
:1037E000A608002034E70008A4080020A308002051
:1037F000C8CB0008630700207A0000201A000020D0
:103800001100002038B5837804467BBB83886BBBEE
:1038100083795BB3C379B3B140F6B732A3889342DF
:1038200030D8A3F5FA62B2F57A7F2FD2224805F09C
:1038300005F820281DD100250720E571FEF7B6FA0E
:10384000A571A58015E01C4804F0F8FF202810D1D0
:10385000A379013B042B0DD8DFE803F0030C0E1015
:1038600012000120FEF7A2FA0023A371E379002BD6
:10387000D2D138BD0220F5E70320F3E70420F1E7B9
:103880000520EFE70023E371A380F2E7A3F57A7345
:10389000B3F57A7F08D2084804F0D0FF2028E8D199
:1038A00000250620E571C9E70023E371A379013300
:1038B000A3714FF4C873E7E7E80E0020C72AF8B5F4
:1038C000CCBF00240124C729D8BF01341D46864B34
:1038D000C728D8BF01341E78032E00F20281DFE82A
:1038E00016F004001A008800F200804AC729B2F9D5
:1038F00000202A6002DC01221A7044E07C4B7D4AE1
:10390000B3F90030322BD8BF4FF4AF735B42136072
:10391000794A136037E07949097802290ED1032CDE
:103920000CD14FF0E022926912F0010F0CBF4FF062
:10393000FF310121724A11701C7024E0714E7249EE
:1039400014BB32880868013292B2052A32800FD93E
:103950000028B4BF01214FF0FF316C4A348014803D
:103960006B4A14706B4A14606B4A11700222C3E7F1
:103970006A4B1860604B1A685E4B1A605B4B0860BC
:10398000B3F900302B60F8BD002333804FF47A7315
:103990005A43634C04FB0020624A126890FBF2F029
:1039A0000A2290FBF2F05D4A80EAE07410605E4A01
:1039B000A4EBE07414605D4AB2F900204243624314
:1039C000642492FBF3F25A4BB3F90030434393FB68
:1039D000F4F31A44574B474CB3F9003022609A4233
:1039E00002DD1A46236002E05B429A42F9DB424B59
:1039F000C3E7002C7FF47FAF41F288304E4B4F4A33
:103A00001B88B2F900101BB2C91A4D4A002381FB72
:103A10000001FCF7AFFB3F4E3D4A33681178034489
:103A200001293360334B1DD002292DD0002945D107
:103A30002E49B1F900102960374991F90010002989
:103A4000D4BF6FF0B301B421196033683D49002B36
:103A5000B8BF5B428B4296DD2C4B34601C80012347
:103A6000137090E72149B1F90010296027491C60C3
:103A70000B88346005339BB2B3F5FA6F01D20B802B
:103A800081E702230C80EBE71849B1F900102960A7
:103A9000214991F900100029D4BFB4216FF0B3017E
:103AA000196033682849002BB8BF5B428B427FF70F
:103AB0006AAF164B34601C800323D1E76FF0F90224
:103AC0002A601C605FE74FF4AF71012C094A29603E
:103AD00002D1002111602FE7094B93F900304B43CD
:103AE00017E7002208E700BF040800205A00002062
:103AF0004C000020F407002054070020B1000020F3
:103B00001000002050070020F0070020EE070020E2
:103B1000EC070020E807002045000020FC070020FB
:103B200018FCFFFF00080020F807002050000020CC
:103B300052000020460000209E070020B40700200D
:103B4000B8FF01008F5F01001FBF020000210C4B76
:103B500010B519600B4B0C4A1B68036014680B4AC4
:103B600094420B4A02DA0121117002E014F57A7FC7
:103B7000FADA1278002A18BF0023036010BD00BFD4
:103B8000F4070020600000203808002024FAFFFF1E
:103B90001C0800200C4B0D4A1B680D49036013885C
:103BA0000C489BB263B113889BB2042B91BF0023D6
:103BB0001388053B9BB213800B881BB203607047D0
:103BC00003600B80704700BF600000200C080020DD
:103BD0000E080020F40700202DE9F843984D2C78BA
:103BE000042C7CD8DFE814F005004B009100620142
:103BF0002100FFF763FE934B1A6805321A60924A60
:103C0000128812B2B2F5FA7F1CDB1A68B2F57A7F1D
:103C100018D3002201201A6004238C490A708C49B1
:103C200008708C490A602B700CE0864A894811683C
:103C300005311160002101601068F92804D84FF4A3
:103C40007A721A60BDE8F88340F2ED20146884426D
:103C500002D84FF4AF72F4E740F2DB5014688442AC
:103C600002D86FF0F902ECE77B4B11601960784BDA
:103C70001B78002BD7D10121784A1170D3E74FF47C
:103C8000AF721A600A22764C41F288302368724E75
:103C9000C3EBC30393FBF2F32360724B724A1B889E
:103CA000B2F900101BB2C91A704A002381FB00014F
:103CB000FCF760FA37686E4A074437603368002BB8
:103CC0003368B8BF5B429342624A0ADD0023136047
:103CD0005C4A33601360674A13705C4A13700223B6
:103CE000A1E7654B1B68002BB8BF5B42B3F5E17FD2
:103CF000D5BF4FF4AF710023604B1360D7BF93F96A
:103D0000003023604B4313609CE75D4CDFF838C103
:103D10001C605A4CDFF86C9194F90070D9F800904F
:103D2000012F0BBF584C594C268826880ABF584C87
:103D3000584C36B22488BCF800E018BF36B20FFAEF
:103D40008EFEBEF5FA7FD8BF4FF0000E24B2A4F568
:103D5000487409FB04F4DFF84081A6F5487CD8F8E4
:103D60000080C8BFAEF5FA7E08FB0C44DFF82CC11A
:103D7000384EDCF800C00CFB0E444FF0640C94FB92
:103D8000FCF47C43464FBC42B8BF3C46B4F5FA7FD6
:103D9000A8BF4FF4FA74C729346006DDC72804DDD4
:103DA000C72AC2BF0127334C2770264F3C68053411
:103DB0003C603C68B4F57A6FFFF444AF2D4C247836
:103DC000002C3FF43FAFDFF884C09CF80040002C8B
:103DD0007FF438AFC72ACCBF00240124C729D8BF3D
:103DE0000134C728D8BF0134002C3FF42BAF014465
:103DF0001144002919DD4FF47A745443294A02FB17
:103E0000004494FBF1F20A2192FBF1F226490A6088
:103E100001228CF8002040F2E2421A6000230E4A90
:103E2000336013603B600323FDE6C72805DDC82A25
:103E3000B4BF6FF063020022E8E76422E6E700BF48
:103E4000E4070020DC0700206A070020E5070020C7
:103E50000F000020F4070020E007002004080020E5
:103E6000240800209E070020B4070020B8FF0100AE
:103E70008F5F01004E070020300800204400002022
:103E800088FAFFFF2C000020700700206E0700203A
:103E9000680700206C070020300000202800002068
:103EA0000CFEFFFF18FCFFFFF0070020DFF800C149
:103EB000C72ADCF8004004F10504CCF80040CCBF70
:103EC00000240124C729D8BF0134C728D8BF013432
:103ED00084B1014411440029364F16DD4FF47A763F
:103EE0005643354A02FB00660A2296FBF1F696FB22
:103EF000F2F63E60DCF800203049F92A10D840F292
:103F0000E2421A6000230B609CE6C72802DC6422B0
:103F10003A60EFE7C72AD4BF6FF063020022F7E7E9
:103F2000DCF80020B2F5AF7F02D26FF0F902E8E7CB
:103F3000234ADCF80000B2F9002002F5AF72824299
:103F400018D96FF0F90240F6AC501A601D4B93F986
:103F500000201D4BB3F900305A431C4BB3F900301D
:103F60008342B8BF03469A42CDDC5B429342B8BF5E
:103F70001346C8E70023164A0B601360CCF80030E4
:103F80002B70144B14B101221A705BE6094A1268B7
:103F9000002AB4BF01214FF0FF310F4A11700F4AC0
:103FA00014700F4A14800F4A14600222ECE700BF1D
:103FB000DC070020F007002018FCFFFFF4070020BA
:103FC0004200002044000020400000204600002065
:103FD000E00700200408002045000020EC07002036
:103FE000EE070020E807002038B50C46054601889A
:103FF0000948FDF75BFB208069880848FDF756FB00
:104000006080A9880648FDF751FBA080E988054833
:10401000FDF74CFBE08038BD14E70008F4E600082B
:10402000D4E60008B4E6000837B5624C624A21784D
:10403000137899424BD02378DBB213702378012B8D
:104040000BD02378022B08D02378032B05D02378BC
:104050001BB12378042B40F09C80584804F0EEFB01
:104060002028FAD1012001F0E3FB002001F05CFAE6
:104070002378002B2DD10125514C1421162001F05D
:1040800057FB94E80E004F48009501F03BFB2221BE
:10409000272001F04DFB94E80E004B48009501F0FD
:1040A00031FB0024494B1C80494B1C80494B1C8030
:1040B000494B1C80FDF760FE01F042FA474A137835
:1040C00064F3C3031370464B1C60464B1C6003B083
:1040D00030BD2378012BDDB213D1394C14211620C9
:1040E00001F026FB94E80E003F48009501F00AFB22
:1040F0002221242001F01CFB94E80E003B4800958F
:10410000CDE72378022B14D101252D4C1421162044
:1041100001F00EFB94E80E003548009501F0F2FA2C
:104120002221042001F004FB94E80E0031480095A0
:10413000B5E72378032B14D10125214C1421162037
:1041400001F0F6FA94E80E002B48009501F0DAFA37
:104150002221242001F0ECFA94E80E002748009573
:104160009DE72378042B9CD10125154C14211620A2
:1041700001F0DEFA94E80E002148009501F0C2FA41
:104180002221242001F0D4FA94E80E001D48009565
:1041900085E72378052B9AD1084804F04FFB2028A7
:1041A000FAD101F029FA012003B0BDE8304001F056
:1041B0003FBB00BFB1000020B0000020E80E00208F
:1041C000C0D1000813CE000820CE000852080020FD
:1041D0004E080020500800204C080020F40C00205D
:1041E000240800202C08002028CE000835CE000826
:1041F0003ECE00084BCE00085DCE00086ACE000817
:1042000073CE000880CE000810B594B014220021AF
:104210000CA807F0FDFF142200210DEB020007F0AF
:10422000F7FF1022002101A807F0F2FF02244FF44B
:1042300080330122CDE91143CDE90A234FF4E01385
:104240000AA80E92139305F077F908B172B6FEE74B
:104250000F23CDE905344FF480630790CDE9083092
:10426000214605A805F02AFB08B172B6FEE7122325
:1042700001934FF40043CDE9033001A805F0DAFBC8
:1042800008B172B6FEE714B010BD00000268084B1A
:1042900010B59A420AD1074C2078FCF7B3FA2146B0
:1042A000BDE810400122044806F0B1BA10BD00BFBD
:1042B00000380140B4080020F80C00200368074AC9
:1042C000934209D11A685B682023012280F84230AA
:1042D0000349044806F09BBA704700BF003801400C
:1042E000B4080020F80C00208D4A2DE9F04F156825
:1042F0008C4ADFF834A214688C4A85B0B2F900B059
:104300008B4ADAF80030B2F9002003900292894A11
:10431000B2F9007043EA0502224300F0B2805A214C
:104320000A224B4302FB0B30642390FBF3F04D4316
:104330004C430190029802FB074402FB005594FB9A
:10434000F3F495FBF3F5019B7B4ACAF80030744BFC
:10435000B2F900801D60734B1C60784B1B68002B0A
:1043600000F09480434403EBD3735B1000934FF44D
:104370008F704FF06409714B009A1A60704A11688F
:1043800000FB01F292FBF9F681FB01024FEAE17CAE
:1043900000FB0CFC01FB02CC5DA3D3E90023A0FBD6
:1043A00001016144FBF7E6FE311A664E33889BB289
:1043B000952B6ED833889BB2272B31D8624B4FF4A4
:1043C0008F70C3F80080614B5549B3F90020604BF2
:1043D000029C1A605F4B604A1F60232303FB08F3B3
:1043E000136093FBF9F3564A0C60136000FB03F46F
:1043F00083FB0302DD1745434A4903FB02550F6067
:10440000A0FB030142A3D3E90023CAF800B029446A
:10441000FBF7B0FE94FBF9F4484B211AC3F8008077
:1044200033889BB2312B0AD9444A4C4B10681A6826
:10443000401A10444A4A186013683B44136033889A
:1044400001339BB2338033889BB2962B0DD164220B
:10445000424B44491B6893FBF2F30B80404B1B68B3
:1044600093FBF2F3404A1BB2138000233F4A1360D0
:104470003F4A13602B4B1A68364B1A6005B0BDE8F3
:10448000F08F3C46029DCDF804B05CE7CDF800808B
:104490006DE7304B00981A681C60324BA21AB3F9D2
:1044A00000306443C31A5B1A019905FB0544694354
:1044B00030482F4DB4FBF0F491FBF0F11B1B0B4483
:1044C000062192FBF1F21344284A03981360136803
:1044D00040F6262203F21351914298BF002303991C
:1044E000DA17A3FB013100FB0211D81841EB0106DA
:1044F000C01841EB060108A3D3E90023FBF73AFEFD
:1045000062232C685C4394FBF9F404442C60B5E707
:10451000420A1B0400000000404B4C000000000059
:10452000440700204007002048070020B80700206B
:10453000B6070020B4070020BE0700203C0700207B
:10454000380800209C070020B0070020BA07002090
:10455000AC070020380700203C080020340700206A
:1045600030070020A00700209E070020A40700209D
:10457000A8070020285122002DE9F041DFF89C8295
:10458000A74BD8F80040A74D001B1860C823296826
:10459000A54F091B594300F19502A44BB2F5957F35
:1045A00019603B685BD800EB80021344A04A934239
:1045B000B8BF134649F640429342A8BF13469D4AEE
:1045C0003B60B2F9002042F2107C53434FF47A7200
:1045D00093FBF2F3984A994EB2F900202C6000FB4D
:1045E0000233974A974CB2F9002001FB023393FB48
:1045F000FCFC954A9549C2F800C032780860022A4E
:1046000005D1934A1278901E01282DD962B33278D1
:10461000032A04D18E4A127812F0FD0F24D030788C
:104620002268042800D1FAB942F20F748948A342E3
:10463000B0F800E08848008800F3BD80874CA342B2
:1046400080F23D81864B874CB3F90030B4F90040CD
:10465000ACEB0E05ED1AACEB00031C1BB7E00A2215
:10466000DB0093FBF2F3AAE7794B1B78022B0DD109
:104670007D4A127812F0FD0F08D16246962AB8BF23
:10468000962220680028B8BF5242226032782568FE
:10469000042A0CEB0504ACEB05051EBF2A46254693
:1046A00014463278042A6CD09A1E012A6CD96F4ABB
:1046B0001288307804286AD0023B012B6AD96C4BEF
:1046C0001B88002D69DD66482A44B0F90050154466
:1046D000002C69DD634A2344B2F900401C44654B59
:1046E0001A7802F0FF03002A00F088800023624C51
:1046F0003B600B60254641F28830FFF7F5FD42F242
:104700002832D8F8003003F58C531433934204D97F
:1047100000242546594B3C601C60594B1A88594B64
:1047200092B2952A1B8873D8002422463C605942D5
:104730008A42B8BF0A46A342A8BF23468B42B8BFED
:104740000B46317850480129504900F0A380347855
:10475000022C00F09F803478032C00F09B8034788A
:10476000052C00F097803478042C00F0938000230F
:10477000424A3B6013601A465242028000220A807D
:104780008EE04FF4E17294E740F2023291E74FF489
:10479000E17396E740F2EE2393E71FBF3048AA1A71
:1047A000B0F90050551B93E799D02E4AE31AB2F99D
:1047B00000401C1B93E72A4B2A4CB3F90030B4F994
:1047C00000400EEB0C051D4400EB0C031C44002ABA
:1047D00085D06DB9002A754605DA6CB1AD1A14445E
:1047E0007DE70024F6E76D42002CF7D10446F5E79B
:1047F000002CF3D1002AF9DA4442EFE7244A127878
:10480000002A3FF478AF40F6B8343B600B6071E7A4
:104810009D422A46A8BF1A4689E700BF38080020F3
:104820003008002034080020240800202808002038
:10483000C063FFFF1E08002066000020B1000020BA
:1048400064000020F4070020200800202C0800202D
:10485000040800207200002070000020F1D8FFFF43
:104860004A08002048080020EC0700206E000020C5
:104870006C0000201D08002048F4FFFFA80700205E
:104880009C070020740000204E0800204C080020E7
:104890001C080020002A7FF76FAF0A8000220280E8
:1048A000002B9AB20849094BD5BF52421A800A80A0
:1048B0000023D6BF00220B801A80BDE8F081002AB9
:1048C0008FD1144615460AE75208002050080020F0
:1048D0002DE9F04F924A89B013781B0740F1B68159
:1048E0001378904C23F0080313708F4B22781978BB
:1048F0008E4F91428E4E0CD022781A703A688D4BB2
:104900001A6000238C4A337013608C4A13608C4AFF
:10491000137005228B4D8C4BE9881A606B886A896D
:10492000ADF810300B44ADF8142013440322B3FB50
:10493000F2F3ADF8121004A806A9ADF81630FFF78F
:1049400053FBBDF91820814BBDF818801A80BDF9C2
:104950001A207F4BBDF81A901A80BDF91C207D4BA0
:10496000BDF81CA01A8008EB09035344012BB8BF03
:104970000123794A79481360B5F90020784B7949C9
:104980001A80B5F90420784BD1F800C01A80B5F927
:104990000820764B1A80B5F90C20754B1A80B5F9B2
:1049A0000E20744B05681A80734B744A55EA0C0E3E
:1049B000B3F90030B2F900200ED04FF05F0E03EBD8
:1049C00083030EFB0533642502EB82020EFB0C22EF
:1049D00093FBF5F392FBF5F20A6002F57A62B2F509
:1049E000FA5F88BF2322036084BF5343644A41F2C5
:1049F000883088BF1360634BDFF88CB1B3F9005087
:104A00006FF031035D43832395FBF3F55F4B1D602E
:104A10005F4B1B88DBF800201BB201925D4AB2F9A4
:104A200000105D4AC91A81FB00010023FBF7A2FBBD
:104A30001421019B594A18441368CBF800001D4407
:104A40004F4B1B684B434FF4757101FB05335449C1
:104A50008B421CDC53498B421BDB4FF47A7193FB76
:104A6000F1F31360642293FBF2F33B604E4B4F4A29
:104A70001B68039300231360314A13702378013BB2
:104A8000042B0BD8DFE803F0073B42370700484B05
:104A9000E7E7484BE5E703A8FFF758F82378012B31
:104AA00005D02378022B02D02378052B35D13B6823
:104AB000002BCCBF01230023337033780BB10023CC
:104AC000039323783C49022B03D02378032B40F037
:104AD000B6803A4A13780133DBB2072B70D81370D3
:104AE000039BB1F9002013440393039809B0BDE878
:104AF000F04FFFF741BD03A8FFF74CF8CEE7524651
:104B00004946404603ABFEF7D9FEC7E75246494641
:104B1000404603ABFFF760F8C0E700233370D0E7EF
:104B2000F40C0020B10000204D07002038080020C0
:104B30001D08002034080020240800202C08002034
:104B40001C0800207807002068000020760700205D
:104B5000740700207207002000080020B007002022
:104B600070070020AC0700206E0700206C070020B3
:104B70006A07002068070020BE070020BA0700204F
:104B800044080020B60700209807002040080020B5
:104B90009E070020B4070020B8FF01003C08002059
:104BA000E7ECA43519135BCA60000020F40700206D
:104BB000A0BB0D006044F2FF100800204C0700204D
:104BC0000023244D1370244B2D68B3F90030234A81
:104BD000C3F164006B43146804FB0033642093FB4F
:104BE000F0F313601E4A1F4CB2F90000C01A1E4BAE
:104BF0001A680244A242B8BF22464CF25034A24284
:104C0000A8BF22461A60194BB3F90030534342F251
:104C1000107293FBF2F3164AB2F9002042434FF4AC
:104C20007A7092FBF0F21344124A9342B8BF1346D3
:104C300040F2DC529342A8BF13460B8050E700239A
:104C4000064A0B801360084A13604EE709B0BDE8BE
:104C5000F08F00BF2008002054000020180800201A
:104C60005A000020B03CFFFF14080020560000202E
:104C70005800002024FAFFFF80B5A74D9CB001F03A
:104C8000D1FBFFF7C1FA1022002115A807F0C0FAE6
:104C9000AB69002243F01003AB61AB694FF40051E4
:104CA00003F010030693069BAB699C4843F0200376
:104CB000AB61AB69002403F020030793079BAB694A
:104CC000012743F00403AB61AB69022603F0040340
:104CD0000893089BAB6943F00803AB61AB6903F031
:104CE00008030993099B02F0BFF900224FF40071F9
:104CF0008B4802F0B9F94FF40053884815A9CDE963
:104D00001537CDE9174602F067F84FF400438448A1
:104D100015A9CDE91534179402F05EF84FF400732D
:104D20007F4815A9CDE91537CDE9174602F054F8AB
:104D30006B6922463B436B616B6921463B400B200C
:104D40000593059B01F050FE0B2001F07DFE2246ED
:104D500021460E2001F048FE0E2001F075FE22468D
:104D600021460F2001F040FE0F2001F06DFE6D4A3C
:104D70006D4B082513604FF4807393604FF46023EC
:104D80001046CDE91544179414731475D36154601B
:104D9000156101F097FD08B172B6FEE70624CDE972
:104DA000150715A95F48179401F020FC08B172B6E9
:104DB000FEE75C4815A9CDE9157601F017FC08B1AE
:104DC00072B6FEE715960326564815A9169601F009
:104DD0000DFC08B172B6FEE715960426514815A9D8
:104DE000169601F003FC08B172B6FEE7159605268B
:104DF0004C4815A9169601F0F9FB08B172B6FEE70A
:104E0000484815A9CDE9156401F0F0FB08B172B668
:104E1000FEE715940724434815A9169401F0E6FB14
:104E200008B172B6FEE73F4815A9CDE9154501F076
:104E3000DDFB044608B172B6FEE710AE0146102253
:104E4000304607F0E5F91422214615A807F0E0F9ED
:104E500047233648DFF8D8C00CAFC0E900C3F923B8
:104E60000C947C60C0E90334C0E90544846004F01C
:104E7000C5FF08B172B6FEE74FF4805831462B48A3
:104E8000CDF8408005F0A0F808B172B6FEE7CDE994
:104E9000150015A9254805F08EF908B172B6FEE790
:104EA000CDE90C003946214805F00AFA054608B15B
:104EB00072B6FEE701461022304607F0A9F9142227
:104EC000294615A807F0A4F94FF047094FF0804391
:104ED000184C0C95C4E9003941F2873320467D60B7
:104EE000C4E90335A560A56104F088FF08B172B676
:104EF000FEE731462046CDF8408005F065F808B160
:104F000072B6FEE7CDE9150015A9204605F053F964
:104F100090B172B6FEE700BF0010024000100140E1
:104F2000000C0140800F002000240140180E0020DA
:104F3000002C0140D00D0020CDE90C003946204660
:104F400005F0BEF9044608B172B6FEE7014610222C
:104F5000384607F05DF914222146304607F058F92B
:104F60001C22214615A85B4D0A940B9407F050F9BA
:104F7000594B2846C5E9003942F20F730DF1280A52
:104F8000C5E90334AC60AC6104F038FF08B172B617
:104F9000FEE739462846CDF8308005F015F808B10F
:104FA00072B6FEE7284604F055FF08B172B6FEE778
:104FB000002331464748CDE9103305F0FCF808B12D
:104FC00072B6FEE7CDE90A005146424805F078F98D
:104FD000024608B172B6FEE760231790CDE915309E
:104FE000199015A93B4804F08DFF08B172B6FEE791
:104FF0000422384815A904F085FF08B172B6FEE70F
:105000000822344815A904F07DFF08B172B6FEE706
:105010000C22304815A904F075FF044608B172B699
:10502000FEE72C4800F000FE4FF4E1332B482C4DF6
:10503000C0E90244C0E900530C230461C0E905340F
:10504000C46105F0D5F9044608B172B6FEE706F072
:1050500037FE24482449254BC0E90244C0E9001327
:105060004FF48043C0E90644C0E90434046202F00E
:10507000D9F9044608B172B6FEE71022014615A818
:1050800007F0C6F847231A4D1A4A1094C5E90023C1
:1050900042F20F7328467460C5E90334AC60AC611A
:1050A00004F0ACFE08B172B6FEE74FF48053284618
:1050B00015A9159304F088FF08B172B6FEE7002326
:1050C00031460B48CDE9103305F0FAF8044698B1A3
:1050D00072B6FEE7880D002000040040F80C0020A6
:1050E00000380140E80E002000580040801A0600F9
:1050F000400D002000080040564806F06BFE564860
:1051000004F086FD554804F083FD554804F080FD09
:105110002146534805F0D2F80421514805F0CEF855
:1051200008214F4805F0CAF80C214D4805F0C6F893
:105130004FF4005101224B4801F096FF4A4800F01D
:10514000EDF94A4800F0E4F9494800F0DBF900F0D5
:105150007BFB204600F06CFB464800F0DDF846483B
:1051600000F0E0F8454800F0E3F800F0E7F8444AC2
:10517000444B10461360444B5360444B9360FBF721
:10518000E9FB4348FCF7A0F94248FCF797F90122F4
:105190004149424805F03BFB0122414B41491A700D
:1051A00050230522404800930323FBF709FA40F6F9
:1051B000B8323E4B3E491C703E4B3F481A803F4B35
:1051C0003F4A1C703F4B00F01EFE3F4B3F4A404899
:1051D000404900F018FE404B404A1C70404B41488B
:1051E0001C80414B1C80414B1C80414B1C80FEF7B6
:1051F0008FF9D2F8FC3043F08073C2F8FC303D4B9D
:105200005C601A683C4C42F001021A600390FEF7A1
:10521000F3F92378052B08D0FBF708FCFDF79CFF7A
:1052200001222C492A48FDF75BFF00222049224831
:10523000FDF756FFFCF7A0FDFCF7F6FCFFF748FB77
:105240000398FEF76DF90398FEF7DCFAFEF7ECFE23
:10525000DDE700BFD5140008180E0020D00D002097
:10526000880D002000100140660700201515000879
:105270003D150008C0070020391500085915000821
:10528000A80800200115000875150008A9150008D8
:105290009515000819160008B4080020F80C002025
:1052A0006E080020AACD0008B3CD0008A608002093
:1052B000E00C00208A000020D40C0020A50800206B
:1052C000D40A0020D40B0020B5090020B508002026
:1052D000B80A0020C40A0020F40C002000ED00E011
:1052E00052080020EC0C00204E080020500800203E
:1052F0004C080020001000E0B100002072B6FEE76C
:10530000044A10B414680B46A44601460122D0207A
:1053100010BC6047DC0F0020014B1860704700BFD5
:10532000E00F0020014B1860704700BFDC0F002029
:10533000014B1860704700BFD80F002013B5002440
:105340000DF107006B218DF80740FFF7D9FF04230B
:105350000DF1070019218DF80730FFF7D1FF022367
:105360000DF107001A218DF80730FFF7C9FF0DF185
:1053700007001C218DF80740FFF7C2FF1B210DF12C
:1053800007008DF80740FFF7BBFF02B010BD00001B
:105390000122044B1A70044B1B680BB100221A70D7
:1053A000704700BFB2000020E00F002010B51B4B7B
:1053B00019681B4B08781A7818B9012A23D00020E5
:1053C00010BD0020012A08701DD0022AF7D101204B
:1053D0001870144B14491A88D2BA0A605A881349B3
:1053E000D2BA0A609A881249D2BA0A601A89114957
:1053F000D2BA0A605A891049D2BA9B890A600F4A08
:10540000DBBA1360DCE702221A700D4B0E221C6817
:10541000D0203B230349A047D1E700BFE00F002085
:10542000B2000020B00F0020D40F0020D00F0020C9
:10543000CC0F0020C80F0020C40F0020C00F002098
:10544000D80F002070B5DDE9045410B10B4E36685A
:10545000068011B10A480068088012B1094909683C
:10546000118013B1084A12681A8015B1074B1B68E6
:105470002B8014B1064B1B68238070BDD40F002015
:10548000D00F0020CC0F0020C80F0020C40F002038
:10549000C00F002013B5064B8DF807001C680122D1
:1054A000002378200DF10701A04702B010BD00BF16
:1054B000F013002013B5064B8DF807001C6801227D
:1054C000002378200DF10701A04702B010BD00BFF6
:1054D000EC130020044B10B41C68CAB2A446014669
:1054E0004023782010BC6047F0130020044B10B418
:1054F0001C68CAB2A44601464023782010BC60470D
:10550000EC130020014B1860704700BFEC13002023
:10551000014B1860704700BFF0130020014B18606A
:10552000704700BFF413002000284FF4806214BFBE
:10553000FF210021014806F06BBE00BFEA0F0020EA
:1055400038B5B0240A4D2046FFF7A4FF0020FFF72E
:10555000A1FF01341020FFF79DFFE4B2284680210F
:10556000FFF7B8FFB82C05F18005ECD138BD00BFBE
:10557000EA0F002038B51C4B1C4C1A6823781178B0
:1055800019B9012B0AD0002038BD0021013B117050
:10559000032BF8D8DFE803F0020B1015144B187832
:1055A0005038C0B2FFF786FF02232370EBE70020DC
:1055B000FFF780FF0323F8E71020FFF77BFF0423AA
:1055C000F3E70B4D0B4B2878802103EBC010FFF75E
:1055D0008DFF01202B7820700133DBB2072B2B705D
:1055E000D1D900232B70CFE7F4130020B3000020A3
:1055F000EA130020EA0F00200022054B1A70012256
:10560000044B1A70044B1B6803B11A70704700BF3B
:10561000EA130020B3000020F4130020030630B585
:1056200010D43F290ED80124CB08074D00EBC3103E
:105630002B5C01F0070104FA01F1A2420CBF0B43FD
:105640008B432B5430BD00BFEA0F00202DE9F04FF3
:10565000044689B008A800E90E009DF84830A4F17E
:1056600020050293EBB25E2B47D8079B23B323445C
:1056700013F8206C224AB2F8009009EB0603802B45
:105680003BDC53889DF815B0019303EB0B02402AD5
:1056900033DC029B4FF00008B3FA83FA0BFB05F5ED
:1056A0004FEA5A1A6D00C34509D8154B4E441E8067
:1056B000204609B0BDE8F08F9DF81460DAE70027B6
:1056C000069A535B0493019B08EB0302D3B2039346
:1056D000BE4203D808F101080235E4E7049B07EB5A
:1056E000090003FA07F2130454BF5246029A0399C1
:1056F000C0B2FFF793FF0137EAE70024D8E700BF05
:10570000E40F002070B586B003AC84E80E009DF86D
:105710002860451E15F8010F40B1009694E80E0070
:10572000FFF794FF034628788342F3D006B070BD9C
:10573000014B188059807047E40F00202DE9F74F86
:105740009046A8EB0009A3EB010AB9F1000F1E4631
:10575000B8BFC9F10009BAF1000FB8BFCAF1000A19
:10576000804594BF4FF0FF33012305460C468E421F
:1057700094BF4FF0FF3B4FF0010B404631469DF880
:1057800030200093A9EB0A07FFF748FFCAF1000396
:10579000454504D1B44202D103B0BDE8F08F2146A3
:1057A00028460193FFF73AFF019B7900B3EB470FBF
:1057B000BFBF0098A7EB0A072D18EDB28945C2BFFD
:1057C0005C444F44E4B2E3E72DE9F0411446A042C3
:1057D000804628BFA046A042064638BF26469942CA
:1057E0000C4628BF1C46994238BF19460F469DF803
:1057F0001820BC4201D83F2C01D9BDE8F0814546B4
:1058000007E02B0607D428462146FFF707FF01359E
:10581000EDB2B542F5D90134E4B2EAE710B5044679
:105820008120FFF737FE2046BDE81040FFF732BE6B
:10583000034628B10123AF20024A5371FFF72ABE65
:10584000AE20F9E7E40F002008B5642000F00EFE5A
:105850000020FFF7EDFF2020FFF71CFE0020FFF7E0
:1058600019FEB020FFF716FEC820FFF713FE002038
:10587000FFF710FE1020FFF70DFE4020FFF70AFE95
:10588000FF20FFF7CBFFA120FFF704FEA620FFF7C4
:1058900001FEA820FFF7FEFD3F20FFF7FBFDA4203F
:1058A000FFF7F8FDD320FFF7F5FD0020FFF7F2FD2D
:1058B000D520FFF7EFFDF020FFF7ECFDD920FFF733
:1058C000E9FD2220FFF7E6FDDA20FFF7E3FD1220D5
:1058D000FFF7E0FDDB20FFF7DDFD2020FFF7DAFD1D
:1058E0008D20FFF7D7FD1420FFF7D4FD0120FFF72F
:1058F0009FFF0020FFF718FEFFF722FE0022034B58
:105900001A805A8001221A7108BD00BFE40F0020DE
:105910000E4B82B09A6942F001029A619A6902F0D4
:1059200001020092009ADA6942F08052DA61DB6982
:10593000074A03F080530193019B536823F0E0630F
:1059400043F08063536002B0704700BF0010024014
:105950000000014030B5054687B01022002102A8A2
:1059600006F056FC2A68204B9A423BD103F56C4363
:105970009A691E4842F400729A619A6902A902F477
:1059800000720092009A9A69194C42F004029A61DE
:105990009B69FF2203F004030193019B0323CDE9DC
:1059A000022301F019FA80204FF480720023C4E929
:1059B00003024FF480620F492046C4E90013C4E992
:1059C0000523A360E36101F073F808B1FFF796FCCB
:1059D000002212202C621146656201F005F81220A7
:1059E00001F032F807B030BD00240140000801404A
:1059F0003C0F00200800024030B5054687B0102259
:105A0000002102A806F004FC2A682E4B9A4256D1C7
:105A10002D4C4FF44061A3692C4843F00803A36167
:105A2000A36903F008030093009B1223CDE902133E
:105A3000032302A9059301F0CFF9E369802243F41F
:105A40008003E361E369224803F480030193019B2F
:105A50000023204CC4E900032046C4E90323C4E921
:105A60000533A360E36101F023F808B1FFF746FCBA
:105A70001023194AAC636562184CC4E90023002363
:105A800080222046C4E90232C4E90433C4E9063363
:105A900001F00EF808B1FFF731FC00222120114679
:105AA0006C63656200F0A0FF212000F0CDFF0022B2
:105AB0002220114600F098FF222000F0C5FF07B019
:105AC00030BD00BF0058004000100240000C0140F3
:105AD00058000240A40E002044000240600E002046
