:020000040800F2
:1000000000500020593B0008753800087738000878
:10001000793800087B3800087D38000800000000AF
:100020000000000000000000000000007F38000811
:100030008138000800000000833800088538000877
:10004000A13B0008A13B0008A13B0008A13B000820
:10005000A13B0008A13B0008A13B0008A13B000810
:10006000A13B0008A13B0008A13B0008893800081B
:10007000A13B0008A13B000895380008A138000802
:10008000A13B0008A13B0008AD380008B9380008C2
:10009000C5380008A13B0008A13B0008A13B0008AF
:1000A000C9380008D5380008D9380008DD380008FC
:1000B000E1380008ED380008F9380008A13B0008D5
:1000C000A13B00080539000811390008A13B0008D0
:1000D000A13B00081D390008A13B0008A13B000816
:1000E000A13B0008A13B0008A13B00080000000064
:1000F0000000000000000000000000000000000000
:0C01000000000000000000005FF808F1A3
:1001100010B5054C237833B9044B13B10448AFF341
:1001200000800123237010BD400200200000000069
:10013000E0A1000808B5034B1BB103490348AFF326
:10014000008008BD0000000044020020E0A100087B
:10015000034613F8012B002AFBD1181A0138704707
:1001600070B54FF0FF0C4CF4E06C1CEA11541DBF4D
:100170001CEA135594EA0C0F95EA0C0F00F0DEF818
:100180002C4481EA030621EA4C5123EA4C5350EAFD
:10019000013518BF52EA033541F4801143F480134E
:1001A00038D0A0FB02CE4FF00005E1FB02E506F0DF
:1001B0000042E0FB03E54FF00006E1FB03569CF034
:1001C000000F18BF4EF0010EA4F1FF04B6F5007F3A
:1001D00064F5407404D25FEA4E0E6D4146EB0606AC
:1001E00042EAC62141EA55514FEAC52040EA5E5035
:1001F0004FEACE2EB4F1FD0C88BFBCF5E06F1ED8DF
:10020000BEF1004F08BF5FEA500E50F1000041EB15
:10021000045170BD06F0004646EA010140EA0200C2
:1002200081EA0301B4EB5C04C2BFD4EB0C0541EAE4
:10023000045170BD41F480114FF0000E013C00F3F9
:10024000AB8014F1360FDEBF002001F0004170BD1D
:10025000C4F10004203C35DA0C341BDC04F1140436
:10026000C4F1200500FA05F320FA04F001FA05F2C2
:1002700040EA020001F0004221F0004110EBD3708F
:1002800021FA04F642EB06015EEA430E08BF20EABB
:10029000D37070BDC4F10C04C4F1200500FA04F35E
:1002A00020FA05F001FA04F240EA020001F00041F0
:1002B00010EBD37041F100015EEA430E08BF20EA63
:1002C000D37070BDC4F1200500FA05F24EEA020EAB
:1002D00020FA04F301FA05F243EA020321FA04F0DA
:1002E00001F0004121FA04F220EA020000EBD37091
:1002F0005EEA430E08BF20EAD37070BD94F0000F91
:100300000FD101F00046400041EB010111F4801FC4
:1003100008BF013CF7D041EA060195F0000F18BF75
:10032000704703F00046520043EB030313F4801FB1
:1003300008BF013DF7D043EA0603704794EA0C0F6B
:100340000CEA135518BF95EA0C0F0CD050EA410681
:1003500018BF52EA4306D1D181EA030101F00041FE
:100360004FF0000070BD50EA410606BF1046194626
:1003700052EA430619D094EA0C0F02D150EA013632
:1003800013D195EA0C0F05D152EA03361CBF104673
:1003900019460AD181EA030101F0004141F0FE4112
:1003A00041F470014FF0000070BD41F0FE4141F496
:1003B000780170BD81F0004102E000BF83F000438E
:1003C00030B54FEA41044FEA430594EA050F08BFF0
:1003D00090EA020F1FBF54EA000C55EA020C7FEAB4
:1003E000645C7FEA655C00F0E2804FEA5454D4EB31
:1003F0005555B8BF6D420CDD2C4480EA020281EAFB
:10040000030382EA000083EA010180EA020281EA32
:100410000303362D88BF30BD11F0004F4FEA013184
:100420004FF4801C4CEA113102D0404261EB410193
:1004300013F0004F4FEA03334CEA133302D0524219
:1004400063EB430394EA050F00F0A780A4F10104D5
:10045000D5F1200E0DDB02FA0EFC22FA05F280180F
:1004600041F1000103FA0EF2801843FA05F35941F5
:100470000EE0A5F120050EF1200E012A03FA0EFC74
:1004800028BF4CF0020C43FA05F3C01851EBE3719E
:1004900001F0004507D54FF0000EDCF1000C7EEBBB
:1004A00000006EEB0101B1F5801F1BD3B1F5001FF9
:1004B0000CD349085FEA30004FEA3C0C04F1010418
:1004C0004FEA445212F5800F80F09A80BCF1004F41
:1004D00008BF5FEA500C50F1000041EB045141EAC3
:1004E000050130BD5FEA4C0C404141EB0101013C8C
:1004F00028BFB1F5801FE9D291F0000F04BF01467B
:100500000020B1FA81F308BF2033A3F10B03B3F14C
:1005100020020CDA0C3208DD02F1140CC2F10C02DC
:1005200001FA0CF021FA02F10CE002F11402D8BF3A
:10053000C2F1200C01FA02F120FA0CFCDCBF41EA06
:100540000C019040E41AA2BF01EB0451294330BDD5
:100550006FEA04041F3C1CDA0C340EDC04F11404B2
:10056000C4F1200220FA04F001FA02F340EA030089
:1005700021FA04F345EA030130BDC4F10C04C4F1CF
:10058000200220FA02F001FA04F340EA03002946AF
:1005900030BD21FA04F0294630BD94F0000F83F4F9
:1005A000801306BF81F480110134013D4EE77FEADC
:1005B000645C18BF7FEA655C29D094EA050F08BF28
:1005C00090EA020F05D054EA000C04BF1946104609
:1005D00030BD91EA030F1EBF0021002030BD5FEA4D
:1005E000545C05D14000494128BF41F0004130BD75
:1005F00014F580043CBF01F5801130BD01F00045C9
:1006000045F0FE4141F470014FF0000030BD7FEA3B
:10061000645C1ABF194610467FEA655C1CBF0B4636
:10062000024650EA013406BF52EA033591EA030F4D
:1006300041F4002130BD00BF90F0000F04BF002145
:10064000704730B54FF4806404F132044FF0000578
:100650004FF0000150E700BF90F0000F04BF0021F1
:10066000704730B54FF4806404F1320410F0004557
:1006700048BF40424FF000013EE700BF42004FEA52
:10068000E2014FEA31014FEA02701FBF12F07F43CF
:1006900093F07F4F81F06051704732F07F4208BF86
:1006A000704793F07F4F04BF41F40021704730B58D
:1006B0004FF4607401F0004521F000411CE700BFD9
:1006C00050EA010208BF704730B54FF000050AE05C
:1006D00050EA010208BF704730B511F0004502D55D
:1006E000404261EB41014FF4806404F132045FEA5F
:1006F000915C3FF4D8AE4FF003025FEADC0C18BF08
:1007000003325FEADC0C18BF033202EBDC02C2F1F9
:10071000200300FA03FC20FA02F001FA03FE40EA8B
:100720000E0021FA02F11444BDE600BF4FEA410277
:1007300012F5001215D211D56FF47873B3EB625233
:1007400012D94FEAC12343F0004343EA505311F05A
:10075000004F23FA02F018BF404270474FF00000EC
:10076000704750EA013005D111F0004008BF6FF02A
:10077000004070474FF00000704700BF80F000401D
:1007800002E000BF81F0004142001FBF5FEA410369
:1007900092EA030F7FEA226C7FEA236C6AD04FEA69
:1007A0001262D2EB1363C1BFD218414048404140AE
:1007B000B8BF5B42192B88BF704710F0004F40F460
:1007C000000020F07F4018BF404211F0004F41F47C
:1007D000000121F07F4118BF494292EA030F3FD048
:1007E000A2F1010241FA03FC10EB0C00C3F120035B
:1007F00001FA03F100F0004302D5494260EB4000EA
:10080000B0F5000F13D3B0F1807F06D340084FEA54
:10081000310102F10102FE2A51D2B1F1004F40EB49
:10082000C25008BF20F0010040EA030070474900B1
:1008300040EB0000013A28BFB0F5000FEDD2B0FA4E
:1008400080FCACF1080CB2EB0C0200FA0CF0AABF71
:1008500000EBC25052421843BCBFD040184370470F
:1008600092F0000F81F4000106BF80F40000013215
:10087000013BB5E74FEA41037FEA226C18BF7FEAEC
:10088000236C21D092EA030F04D092F0000F08BF2E
:100890000846704790EA010F1CBF0020704712F015
:1008A0007F4F04D1400028BF40F00040704712F154
:1008B00000723CBF00F50000704700F0004343F0B9
:1008C000FE4040F4000070477FEA226216BF0846EF
:1008D0007FEA23630146420206BF5FEA412390EAB2
:1008E000010F40F4800070474FF0000304E000BFA8
:1008F00010F0004348BF40425FEA000C08BF704759
:1009000043F0964301464FF000001CE050EA01021C
:1009100008BF70474FF000030AE000BF50EA010231
:1009200008BF704711F0004302D5404261EB41011E
:100930005FEA010C02BF84460146002043F0B64343
:1009400008BFA3F18053A3F50003BCFA8CF2083A68
:10095000A3EBC25310DB01FA02FC634400FA02FC71
:10096000C2F12002BCF1004F20FA02F243EB020078
:1009700008BF20F00100704702F1200201FA02FCDA
:10098000C2F1200250EA4C0021FA02F243EB0200CD
:1009900008BF20EADC7070474FF0FF0C1CEAD05211
:1009A0001EBF1CEAD15392EA0C0F93EA0C0F6FD0D2
:1009B0001A4480EA010C400218BF5FEA41211ED0B0
:1009C0004FF0006343EA501043EA5111A0FB01319C
:1009D0000CF00040B1F5000F3EBF490041EAD37171
:1009E0005B0040EA010062F17F02FD2A1DD8B3F1ED
:1009F000004F40EBC25008BF20F00100704790F05C
:100A0000000F0CF0004C08BF49024CEA502040EAAD
:100A100051207F3AC2BFD2F1FF0340EAC250704773
:100A200040F400004FF00003013A5DDC12F1190FB1
:100A3000DCBF00F000407047C2F10002410021FA23
:100A400002F1C2F1200200FA02FC5FEA310040F13B
:100A5000000053EA4C0308BF20EADC70704792F0B4
:100A6000000F00F0004C02BF400010F4000F013AEC
:100A7000F9D040EA0C0093F0000F01F0004C02BFE7
:100A8000490011F4000F013BF9D041EA0C018FE756
:100A90000CEAD15392EA0C0F18BF93EA0C0F0AD05C
:100AA00030F0004C18BF31F0004CD8D180EA010082
:100AB00000F00040704790F0000F17BF90F0004F1B
:100AC000084691F0000F91F0004F14D092EA0C0FFD
:100AD00001D142020FD193EA0C0F03D14B0218BF90
:100AE000084608D180EA010000F0004040F0FE40D6
:100AF00040F40000704740F0FE4040F44000704772
:100B00004FF0FF0C1CEAD0521EBF1CEAD15392EAF0
:100B10000C0F93EA0C0F69D0A2EB030280EA010CE0
:100B200049024FEA402037D04FF0805343EA111179
:100B300043EA10130CF000408B4238BF5B0042F1D7
:100B40007D024FF4000C8B4224BF5B1A40EA0C007C
:100B5000B3EB510F24BFA3EB510340EA5C00B3EBAE
:100B6000910F24BFA3EB910340EA9C00B3EBD10F9C
:100B700024BFA3EBD10340EADC001B0118BF5FEAEE
:100B80001C1CE0D1FD2A3FF650AF8B4240EBC25017
:100B900008BF20F0010070470CF0004C4CEA5020D8
:100BA0007F32C2BFD2F1FF0340EAC250704740F427
:100BB00000004FF00003013A37E792F0000F00F019
:100BC000004C02BF400010F4000F013AF9D040EA97
:100BD0000C0093F0000F01F0004C02BF490011F42B
:100BE000000F013BF9D041EA0C0195E70CEAD15323
:100BF00092EA0C0F08D142027FF47DAF93EA0C0F0A
:100C00007FF470AF084676E793EA0C0F04D14B02ED
:100C10003FF44CAF08466EE730F0004C18BF31F09F
:100C2000004CCAD130F000427FF45CAF31F0004399
:100C30007FF43CAF5FE700BF4FEA4002B2F1FE4FE6
:100C40000FD34FF09E03B3EB12620DD94FEA00238E
:100C500043F0004310F0004F23FA02F018BF404267
:100C600070474FF00000704712F1610F01D142024E
:100C700005D110F0004008BF6FF0004070474FF002
:100C80000000704700220A4930B50B88094D013831
:100C900010F8014F14B902B10B8030BD5A1C92B24A
:100CA000B2F5007FEC5414BF134600230122EFE796
:100CB0006E02002076020020074A10B51188074C0A
:100CC0004B1C9BB2B3F5007F138008BF0023605418
:100CD00008BF138010BD00BF6E0200207602002006
:100CE00038B500240D460E4B01461C700D4B3F22BB
:100CF0000D481C7008F0B4FD0B4B1F2229460B4811
:100D000083F83F4008F0ACFD3222084BDC77084BFB
:100D10001A601022074B1A70074B1C7038BD00BFB9
:100D2000DC050020FA04002087050020670500206C
:100D3000D8050020DD0500206C0200202DE9F041DF
:100D40000025904601220F461C46174B174E1D707A
:100D5000174B01461A7017481F22357008F080FDA6
:100D6000144BDD77E7B13B78D3B11F2239461248E7
:100D700008F076FD104BDD770A221049404608F056
:100D8000EDFC0A2220460E4908F0E8FC32220D4B09
:100D90001A601023002233700B4B1A70BDE8F081EB
:100DA0000024054B1C70E7E7DC050020DD05002072
:100DB000FA0400201B050020FB0400200200002094
:100DC00000000020D80500206C020020014B18789C
:100DD000704700BFF9040020194B70B55B680646E8
:100DE0000D4614463BB347F2305316491648002AC5
:100DF00008BF1C4608F08AFD0F223146134808F050
:100E00002FFD0023114A1249D37328460A2208F005
:100E1000A5FC0A2220460F4908F0A0FC0E4B1B78C7
:100E200063B10E4B187810F0020003D00C2206209C
:100E30000B4B1A7070BD4FF0FF30FBE70120F9E754
:100E400060020020F8A100080500002057050020DE
:100E5000510500203B05002087050020DC0500200F
:100E6000DD050020064B5B683BB1064B1B7813F099
:100E7000400F0CBF0520072070474FF0FF30704730
:100E800060020020DC050020064A10B51188064CDF
:100E90004B1C9BB2802B138008BF0023605408BFFB
:100EA000138010BD74020020760400202DE9FF4756
:100EB0001F463D4B04465B6888461546BDF830909A
:100EC000002B6CD0394EDFF8E8A033789AF8001088
:100ED00003F040020A4365D01B0758D40A2201A937
:100EE000384608F03BFC01A8FFF732F9421ED2B2A7
:100EF000032A4AD82F48FFF7C5FE9AF8003053B1AD
:100F00000A226946204608F029FC6846FFF7BAFE27
:100F10002C20FFF7D1FE01A8FFF7B4FE2648FFF70B
:100F2000B1FE002211462548DFF894C0038894B230
:100F3000A74216D801B103803378224C23F00C036A
:100F400043F00C03337023683BB11F489847236874
:100F500001A8984723681D489847092004B0BDE8B8
:100F6000F0875C1CA4B2B4F5007F08BF0024691CA4
:100F700018F8055089B20CF803500132494514BFE6
:100F80000D46002523460121D1E70B20E6E70D4B56
:100F90001B680BB90820E1E70D489847FAE74FF0C6
:100FA000FF30DBE70520D9E760020020DC050020E8
:100FB000FA0400207BA70008FCA100086E020020B4
:100FC00076020020C8050020FFA100089FA30008AA
:100FD00012A2000802460F4B0068516803C39068D4
:100FE0000D4A1860002313700C4A13700C4A1380CA
:100FF0000C4A13800C4A13800C4A13800C4A13705D
:101000000C4A13700C4A13700C4A13600C4A13609C
:10101000704700BF60020020DD050020F8040020BA
:10102000700200206E020020720200207402002074
:10103000DC050020FA040020F9040020CC05002083
:10104000C8050020094A13680BB1013B1360084A28
:10105000136823B1013B13600BB9064A1370064AAB
:1010600013680BB1013B1360704700BFD805002027
:10107000D4050020F8040020D00500202DE9F84F09
:10108000A34AA44EB2F800B0338800255B4506D0D1
:10109000A14F3A78103A022A23D8A6F800B09F4E02
:1010A0009F4D3368002B40F0508264239A4C33608C
:1010B0002378122B00F24982DFE813F0CB0374028D
:1010C000B602BC02C602D502060310031A0350037F
:1010D0005803690377038603C303C8033C025F0216
:1010E0006E0202228F49904C0A609B45D7D08F4AEE
:1010F000D05C22780D2A00F21882DFE812F00E0090
:101100005700C500160216028D01A201AA01B701FF
:101110001602D201EF010102E001002304219846EA
:10112000DFF80CC2834ADFF810928CF8003011709F
:101130005FFA83FE59F82E10E1B9B8F1000F01D023
:101140008CF800E00022774B75491A600B7813F099
:10115000010F06D03E2804D162F300030B70774BD9
:101160001A60338801339BB2802B338004BF002385
:101170003380BAE791F804A00133824513D1B8F166
:10118000000F01D08CF800E00B784978303B313902
:1011900003EB830301EB430369490B8001232370B5
:1011A00005231370DDE74FF00108C1E7DFF880C1C8
:1011B00061499CF8002051F822205E49097812F814
:1011C00001E0864514D1DFF878C1BCF80030013B5E
:1011D0009BB2ACF800300BB10D284DD19378D2788A
:1011E000303B03EB8303303A02EB43032370B8E751
:1011F00000229146C1F57F4A8CF800200AF1D30AFB
:10120000DFF834C15FFA82F85CF828C0BCF1000F47
:101210000CD1B9F1000F04D0494A1580444A82F834
:1012200000800022013B227033809AE79CF800E0A6
:101230009CF80150AEF1300E0EEB8E0E554405EBCE
:101240004E05ADB27F2D1BD81CF801E0864517D1A5
:101250003B4B1D80B9F1000F02D0354B83F8008065
:1012600055B99CF802309CF80320303B03EB830314
:10127000303A02EB430323702E4B0131197070E7B3
:101280004FF001090132BBE70A287FF46AAF002260
:10129000274B22701B78023B0D2B3FF662AF01A15A
:1012A00051F823F0DD120008F51200084D13000874
:1012B000631100087913000879130008B7130008B8
:1012C000C1130008D9130008B71300086311000800
:1012D00003140008631100080D1400083B78022B6A
:1012E0007FF43FAF00220D4B1A600D4A137843F094
:1012F000200356E70A4A137819077FF532AF23F027
:10130000480313700F4B1A880F4B1A8029E700BF50
:101310007402002072020020DD050020D8050020A4
:10132000DC050020D4050020F8040020760400200D
:101330005D0200205C020020FCA50008D005002012
:10134000F60400206E020020700200209A4B1A6002
:101350003B78092B994B02BF1A7842F020021A7091
:101360001A7842F002021A70954B1B68002B3FF46A
:10137000F8AE03209847F4E6DFF8408298F8003092
:1013800023F0400388F800308D4B1B680BB1002020
:1013900098478C4B1A78002A7FF4E3AE98F8003017
:1013A00062F3410388F800303B78092B3FF4D9AE53
:1013B00012233B70D5E6814A137823F04003F0E610
:1013C0007E4A137823F0080313707D4B1B68002BB3
:1013D0003FF4C7AE0A20CDE77A4B1B78002B7FF491
:1013E000C0AE754A1360754A137823F0600343F06A
:1013F00060031370724B1B68002B3FF4B2AE0720E2
:10140000B8E76E4A137823F04203CAE66B4A1378B2
:1014100023F042031370CBE76B4A2C28126807D1E4
:1014200006232370002A3FF49CAE6848904798E654
:101430000021013B21703380002A3FF492AE6448C2
:10144000F4E722287FF48DAE072323700022614B3E
:101450005BE7222803D05F4A1388102B01D10823B1
:10146000C4E6591C11805C4AD0547AE60A287FF4FD
:1014700078AE0023574A23701188574A0F299BBF23
:1014800053544E4913700A789FBF42F020020A70ED
:10149000494A13604A4B1B68002B3FF462AE04209C
:1014A00068E72C287FF4BDAE464B1B782BB10D238B
:1014B00000222370494B1A7053E60B23C5E72C28F2
:1014C000FBD0A0F13002092A3FF6ABAE434A1378B5
:1014D00003EB830300EB4303303B62E63A2801D180
:1014E0000C2383E6A0F13002092A3FF69AAE394A6E
:1014F000138803EB830300EB4303303B138030E698
:10150000374B9B6803B19847324A1388013B9BB223
:101510001380002B7FF425AE23702B4B1B68002B10
:101520003FF41FAE2F4898471BE600232E4A237036
:10153000136016E62A4B00201B689847224B1B6855
:101540000BB12A489847112323702B78DA0740F112
:10155000CD81274A126872B923F00903254A2B70FE
:10156000184B11881B78244A118023B90122234B80
:101570001A700A233360BDE8F88F194B01201B68ED
:101580009847114B1B680BB11D48984712232370D5
:101590004FF4FA733360D8E7012300222370194B0C
:1015A0001A70D2E7174A137873B3013BDBB213709A
:1015B00063BB1023C8E700BFD8050020DC0500206E
:1015C000CC050020FA040020C80500202AA200084B
:1015D0003FA20008F604002041050020F904002085
:1015E0006002002053A20008D405002066A2000873
:1015F000D00500206E02002070020020DD050020D2
:101600007CA200086C020020042313702B789548FC
:1016100023F020032B70FFF735FB934B1B680BB1B6
:101620009248984702238FE72B78980640F1BB80B9
:10163000032389E78E48FFF725FB8B4B1B680BB113
:101640008C48984704237FE78B48FFF71BFB864BAA
:101650001B680BB189489847894B1B78002B0CBF3E
:101660000923052370E78748FFF70CFB2220FFF7CB
:1016700023FB8548FFF706FB2220FFF71DFB2C20EC
:10168000FFF71AFB2220FFF717FB8048FFF7FAFA53
:101690002220FFF711FB2C20FFF70EFB7C48FFF701
:1016A000F1FA2C20FFF708FB7A48FFF7EBFA0D2040
:1016B000FFF702FB0A20FFF7FFFA6B4B1B680BB129
:1016C0007548984706233FE77448FFF7DBFA664BF7
:1016D0001B680BB172489847072335E77148FFF73D
:1016E000D1FA614B1B680BB16F4898470F232BE76A
:1016F0002B78990701D50A2326E76C4F3B78002BFE
:101700003FF423AF6A48FFF7BDFA2220FFF7D4FA6F
:101710003846FFF7B7FA2220FFF7CEFA2C20FFF762
:10172000CBFA2220FFF7C8FA6248FFF7ABFA222073
:10173000FFF7C2FA0D20FFF7BFFA0A20FFF7BCFA45
:10174000494B1B680BB15C4898472B7823F020036A
:101750002B700923237040F2DC531BE72B789A0689
:1017600021D50A2304222370544B19E70022544B3D
:1017700054481A70FFF786FA3B4B1B680BB152486E
:1017800098472B7823F020032B700B23DCE62B7873
:101790009B0601D50C23D7E6484A1378013BDBB200
:1017A0001370002BA7D10123CEE6484B1B78002BEA
:1017B0003FF4CBAE4648FFF765FA2B4B1B680BB1E5
:1017C000444898470D23BFE64348FFF75BFA2220C1
:1017D000FFF772FA4148FFF755FA2220FFF76CFA3B
:1017E0002C20FFF769FA2220FFF766FA3748FFF747
:1017F00049FA2220FFF760FA2C20FFF75DFA3848FB
:10180000FFF740FA2C20FFF757FA3648FFF73AFA6D
:101810002C20FFF751FA3020FFF74EFA0D20FFF78A
:101820004BFA0A20FFF748FA0F4B1B680BB12E4802
:1018300098472B7823F060032B700E232370C82366
:10184000A8E62B789F063FF551AFACE70C4B1B7811
:101850000BB100239EE62B789807A4D5590699D59D
:10186000F7E700BFD3A70008C805002092A2000830
:10187000B7A70008A0A20008C5A70008B4A20008E6
:10188000FA0400206DA700081B050020FB040020BF
:101890000200002000000020C8A2000859A700088C
:1018A000DBA2000845A70008EFA20008870500207A
:1018B000ADA700086705002006A300086C02002001
:1018C00041050020A2A7000819A300085705002021
:1018D00087A700082AA3000895A700080500002094
:1018E000510500203B05002040A30008154C164977
:1018F0002288098891423FF43EAE144E5F07B05CE7
:1019000002D53E2808BF0A20114B5B689847002883
:101910003FF431AE2A78238851070AD5F15C3E297D
:1019200007D1052122F0050242F001022A70094A7E
:10193000116001339BB2B3F5007F08BF0023238001
:1019400019E600BF700200206E020020760200201F
:1019500060020020D0050020014B1860704700BFD6
:10196000CC050020014B1860704700BFC80500205F
:101970000022F0B5084BD4B2A14202F1010200D816
:10198000F0BD5D791E686F1C5F71045D74555C79F4
:10199000DD792C405C71EEE7240C0020032802BFA7
:1019A0000122014B1A707047F4050020021E18BF77
:1019B00001224FF40071014802F090BE000C01407A
:1019C0001FB514461A464FF0FF330091CDE901438D
:1019D00001460123024803F007F904B010BD00BF1F
:1019E000500E0020FFF7ECBF13B514461A46CDE9A0
:1019F000001401230146024803F086F902B010BD2D
:101A0000500E002013B514461A46CDE900140123E8
:101A10000146024803F03EFA02B010BD500E00200D
:101A200007B501228DF807000DF10701034806F004
:101A30002CF8B0FA80F0400903B000BD600C002023
:101A400010B50446FEF784FB81B22046BDE8104085
:101A500007F0CABC10B5164B1B78F3B115490C78CA
:101A6000FF2C15D07E2C144B13D818550020621C67
:101A7000D2B2012A0A7098540AD0134413F8022CE7
:101A80000D2A05D113F8013C0A2B01D1FF230B705D
:101A900010BD00220A701A70FAE7084B5A791968CB
:101AA000541C5C7188545A79D9790A405A71EFE70D
:101AB000490700204A0700204B0700200C0C00209B
:101AC000054B064A03F1100153F8040B8B4242F810
:101AD000040BF9D1704700BF4C0C00203C0C0020D7
:101AE0000122014B1A707047050800200122014BAA
:101AF0001A7070470408002038B502681A4B044673
:101B00009A4212D1194A1A4913781A480133DBB2A2
:101B1000282B01BF00231370174A137808BF43F026
:101B200080031370082202F0FFF92368B3F1804F9D
:101B300018D10122114912480B78124CE254134477
:101B4000027803F00F03013A12F0FF0208BF0525E7
:101B50000B7003BFE254013303F00F03027004BFA4
:101B600005700B7038BD00BF002C01405C0C0020DC
:101B70004C0C0020E80E002006080020E70700209B
:101B800032000020E807002070B5026883790C4617
:101B9000D15C0546A1F1F003042B00F2E880DFE8F8
:101BA00003F0030D1C68B700F0210222204601F06B
:101BB000DAFE0D21204601F01EFF08E0F1210D2282
:101BC000204601F0D0FE20466C4901F027FF204658
:101BD000217ABDE8704001F00EBF0D22F2212046AF
:101BE00001F0C1FE664B674DB3F900102046298015
:101BF000C9B201F000FF6978204601F0FCFE624B9B
:101C00002046B3F900102980C9B201F0F4FE6978CA
:101C1000204601F0F0FE5D4B2046B3F9001029800C
:101C2000C9B201F0E8FE6978204601F0E4FE584BA5
:101C30002046B3F900102980C9B201F0DCFE6978B2
:101C4000204601F0D8FE534B2046B3F900102980FE
:101C5000C9B201F0D0FE6978204601F0CCFE4E4BAF
:101C6000B3F9001029802046C9B201F0C4FE69789A
:101C7000A0E74A4E1122F321204601F074FE414DA7
:101C8000318820462980C9B201F0B5FE6978204626
:101C900001F0B1FE718820462980C9B201F0ABFE87
:101CA0006978204601F0A7FEB18820462980C9B294
:101CB00001F0A1FE6978204601F09DFEF1882046E2
:101CC0002980C9B201F097FE6978204601F093FEA1
:101CD000318920462980C9B201F08DFE69782046FD
:101CE00001F089FE718920462980C9B201F083FE86
:101CF0006978204601F07FFEB18920462980C9B26B
:101D000001F079FE6978204601F075FEF189A9E7B6
:101D10000222F421204601F026FE0D21204601F08A
:101D20006AFE217A204601F066FE00220121284643
:101D300001F099FE134C1A4B0022187001212070FB
:101D4000284601F090FE174B0022187001212070E8
:101D5000284601F088FE144B2070187000220121E3
:101D6000284601F080FE114B2070187070BD0222D1
:101D7000204601F0F8FDFF211CE700BFB8BC0008B9
:101D8000020800200808002000080020FE070020AC
:101D9000FC070020FA070020F80700203C0C002078
:101DA000E6070020E5070020E4070020E307002005
:101DB000F0B516464379027905469A420C46C3B0FF
:101DC00017D001F05DFEA0B121462846FFF7DCFEEA
:101DD0000022617A02A8D3B299420CD8C6B1FEF7AC
:101DE000F5FF4FF4807300930022637A02A9FFF796
:101DF0005DF843B0F0BDA77925687B1CDBB2A37109
:101E0000ED5D013200F8015BE5792B40A371E2E75B
:101E100002A807F0E9FAECE710B50C4B0C4C1A7865
:101E20000C4B0D4853F822100122237802FA03F3D9
:101E30008B4308BF1A464FF4005102F04FFC237841
:101E4000013303F01F03237010BD00BFE207002021
:101E5000E10500203800002000100140F0B500240A
:101E600085B0012001F04CF92146402320221E209C
:101E7000009401F083FA2046162380221421009456
:101E800001F07CFA4023522221465020009401F0B8
:101E900075FA7F4D2146282001F024FA7D4902A8D9
:101EA00007F034FD95E80E00009402A801F004FA52
:101EB0002146552001F016FA774902A807F026FDC1
:101EC00095E80E00009402A801F0F6F919212820E7
:101ED00001F008FA0821714B714D0DEB0100B3F9C7
:101EE0000030704A07F07EFC95E80E00009402A8CE
:101EF00001F0E2F91921552001F0F4F908216A4BAB
:101F00000DEB0100B3F90030664A07F06BFC95E871
:101F10000E00009402A801F0CFF92521282001F03D
:101F2000E1F90821614B0DEB0100B3F900305D4A86
:101F300007F058FC95E80E00009402A801F0BCF9E7
:101F40002521552001F0CEF90821594B0DEB010058
:101F5000B3F90030534A07F045FC95E80E000094B1
:101F600002A801F0A9F93121282001F0BBF90821CC
:101F7000504B0DEB0100B3F900304A4A07F032FC38
:101F800095E80E00009402A801F096F93121552041
:101F900001F0A8F908211E26474B0DEB0100B3F90B
:101FA0000030404A07F01EFC95E80E0040F6FA7536
:101FB000424F009402A801F07FF93B88032273434B
:101FC000B3FBF5F3C3F13C0310463C210094DBB2B4
:101FD00001F08EF97B8806227343B3FBF5F3C3F15E
:101FE0003C0310463C210094DBB201F081F9BB8830
:101FF00009227343B3FBF5F3C3F13C0310463C21C4
:102000000094DBB201F074F9FB880C227343B3FB3C
:10201000F5F3C3F13C0310463C210094DBB201F020
:1020200067F93B890F227343B3FBF5F3C3F13C031C
:1020300010463C210094DBB201F05AF97B89122250
:102040007343B3FBF5F3C3F13C0310463C2100940A
:10205000DBB201F04DF9BB8915227343B3FBF5F3F5
:10206000C3F13C0310463C210094DBB201F040F97F
:10207000FB8918227343B3FBF5F3C3F13C033C2106
:1020800010460094DBB201F033F905B0F0BD00BF9B
:10209000D8A7000856A300085AA300080208002089
:1020A000E4A700085EA30008FC0700200008002049
:1020B000FA070020FE070020F80700203C0C002053
:1020C00013B5264C2378032B45D8DFE803F002151F
:1020D0001A27234A234B11781B788B4208D02248B9
:1020E0004B1C415C03F00F0321B1032121701370DD
:1020F00002B010BD0121F9E7FFF7B0FE0223237003
:10210000F6E71A4803F0BAFE2028F1D101F01EF8D4
:102110000028EDD00023164A1370F0E7134803F0AF
:10212000ADFE2028E4D100F08FFE0028E0D0114B56
:10213000114A0193114B124900931248124B00F0BF
:1021400067FF0022114B12491A700B78227043F07E
:1021500008030B70CCE70023D1E700BFE0050020A7
:10216000DF050020E7070020E8070020500E0020D0
:1021700005080020F8070020FE070020FA070020CD
:102180000008002002080020FC07002004080020AE
:102190000608002030B542F20F7564240D4B187804
:1021A0000D4B684319780D4B69431A780C4B6A4301
:1021B0001B78B0FBF4F06B43B1FBF4F1B2FBF4F22B
:1021C000B3FBF4F3074C24686063E163A263236408
:1021D00030BD00BFE6070020E4070020E50700202F
:1021E000E3070020F00C002013B50B4B04460093CE
:1021F0004FF4AA71094B0A4A0A4807F0F3FA4FF460
:10220000AA730022009320464FF4A2730549FEF7FB
:102210004DFE02B010BD00BFA6A3000861A30008D8
:10222000A1A30008F505002013B50A4B044600934E
:102230004FF4AA71084B094A094807F0D3FA4FF442
:10224000AA73002200932046B3230549FEF72EFE11
:1022500002B010BDACA4000861A30008A1A300084F
:10226000F50500202DE9F84300241F460C7014707A
:102270001C7047F23A53089D89462B803249064626
:10228000904607F000FB58B1043010F8013FE2B26D
:1022900013F0DF0F01D0262B36D1002309F80230CE
:1022A00030462A4907F0EFFA60B10023043010F8F5
:1022B000012FD9B212F0DF0F01D0262A2ED1002330
:1022C00008F801303046224907F0DDFA58B1002302
:1022D000C21C12F8011FD8B211F0DF0F01D026295D
:1022E00026D100233B5430461A4907F0CCFA48B1B6
:1022F0000023053010F8012F303AD1B209291DD939
:1023000003B12B80BDE8F8832B2B08BF202309F8ED
:10231000043001343F2CB8D12246BEE72B2A08BF37
:10232000202208F8032001333F2BC0D11946C6E70D
:10233000F95401330F2BCCD11846D2E703EB8303BA
:1023400002EB430293B2D5E721A5000827A50008B8
:102350002DA5000832A500082DE9F043344BA9B0A3
:102360001E785EB100221A7047F23152314B32486A
:10237000198829B0BDE8F043FEF72EBDDFF8BC9008
:1023800099F80030002B42D02D4F3B78FF2B3ED1E7
:10239000FEF71CFD2B4C80462B49204607F073FAB4
:1023A0000546002836D04022314608A807F050FAEA
:1023B0004022314618A807F04BFA102231460DEBA7
:1023C000020007F045FA0DF10E030093204604AB1E
:1023D00018AA08A9FFF746FF9DF8103033B1164B35
:1023E0000F22184604A907F03BFAC673BDF80E3059
:1023F0000BB1104A13804046FFF716FF002318A9BF
:1024000008A889F800303B702370FEF769FC29B0FA
:10241000BDE8F08320460D4907F035FA28B1404663
:10242000FFF7E2FE3D702570F1E738702070EEE7AF
:10243000F405002020000020220000204907002091
:102440004A0700204B07002039A5000843A50008D3
:1024500002780346032A1CD8DFE802F00F021407B3
:10246000427842B903221A7005E04178012200291E
:10247000F9D101708270002070474278012AFAD1A8
:102480000222F0E7407800220128ECD118709A70FF
:1024900070470122E7E7000008B5837813B183880D
:1024A0000A339BB20A4A83801378042B0DD9002388
:1024B0004FF400410748137002F00AF9064B08B9BF
:1024C000587008BD01225A70FBE701331370F8E71A
:1024D000DE050020000C0140CC07002073B5214C24
:1024E0002378DB0929D023781F4D23F08003237044
:1024F0002B781E4E013B2B703378013B3370FEF777
:10250000A1FD1B48FFF7C8FF33782BB902233370B6
:10251000237843F0400323702E7876B90A232B707A
:10252000237843F020032370FFF776FC114A1378D9
:102530000133DBB2092B02D8137002B070BD0E4B11
:1025400016701C78002CF8D1FEF78CFC0728F4D10B
:102550004FF4807322460093204609230749FEF773
:10256000A5FCEAE706080020340000203300002024
:10257000CC070020E10700204907002009000020C7
:1025800083784BB98288642A06D9B2F57A7F04D25F
:102590000121044A117083807047FDD0014A1370F5
:1025A000F9E700BFE2070020394A70B513781B072E
:1025B0006CD5137823F008031370364BB3F9003051
:1025C0003BB141F26261344AB2F900204A4392FBC6
:1025D000F3F34FF4FA61314A3148B2F90020314C3B
:1025E0004A433149314D92FBF1F20168304E0A44C1
:1025F000312101FB0233322293FBF2F12D4B0160BA
:102600002D481B6802685B1A1A44A242B8BF2246D2
:1026100041F28834A242A8BF224636682C682B605B
:102620001C1B264D73432D68026002FB0533244AB0
:10263000126802FB043340F24B42934219DCA2F6CB
:102640009602934217DB642293FBF2F301F58C525E
:1026500042F2283114328A421A4D1B4C1B491C4A43
:102660000CD90023036000205B4228702070DBB28D
:102670000AE00A23EAE76FF00903E7E7002BF2DD3F
:10268000DBB22B70237000230B70137070BD00BF82
:1026900006080020FE07002002080020FA0700209C
:1026A000E405002078ECFFFFB8FF0100E8050020FA
:1026B0001C000020F0050020EC0500201800002080
:1026C00014000020E5070020E3070020E6070020B3
:1026D000E407002010B594B0142200210CA807F0E4
:1026E000B7F8142200210DEB020007F0B1F8102218
:1026F000002101A807F0ACF802244FF48033012236
:10270000CDE91143CDE90A234FF4E0130AA80E9254
:10271000139304F02FFA08B172B6FEE70F23CDE948
:1027200005344FF480630790CDE90830214605A8B1
:1027300004F0E2FB08B172B6FEE7122301934FF4F6
:102740000043CDE9033001A804F092FC08B172B651
:10275000FEE714B010BD000080B5A74D98B001F0A1
:1027600045FAFFF7B7FF1022002111A807F070F813
:10277000AB69002243F01003AB61AB694FF4005129
:1027800003F010030293029BAB699C4843F02003C3
:10279000AB61AB69002403F020030393039BAB6997
:1027A000012743F00403AB61AB69022603F0040385
:1027B0000493049BAB6943F00803AB61AB6903F07E
:1027C00008030593059B01F089FF00224FF4007177
:1027D0008B4801F083FF4FF40053884811A9CDE9DD
:1027E0001137CDE9134601F09FFE4FF400438448B2
:1027F00011A9CDE91134139401F096FE4FF4007342
:102800007F4811A9CDE91137CDE9134601F08CFEBF
:102810006B6922463B436B616B6921463B400B2051
:102820000193019B01F0C4FC0B2001F0F1FC224656
:1028300021460E2001F0BCFC0E2001F0E9FC2246EE
:1028400021460F2001F0B4FC0F2001F0E1FC6D4A9D
:102850006D4BCDE9114413604FF480731394936072
:1028600014734FF460231475546008241046D36128
:10287000146101F00BFC08B172B6FEE7CDE9110757
:10288000139011A95F4801F095FA08B172B6FEE7FE
:102890005C4811A9CDE9117601F08CFA08B172B645
:1028A000FEE70325574811A91196129501F082FA07
:1028B00008B172B6FEE711950425524811A9129588
:1028C00001F078FA08B172B6FEE7119505254D487A
:1028D00011A9129501F06EFA08B172B6FEE71195D2
:1028E0000625484811A9129501F064FA08B172B69C
:1028F000FEE711950725434811A9129501F05AFAF0
:1029000008B172B6FEE73F4811A9CDE9115401F0B4
:1029100051FA044608B172B6FEE70CAE0146102229
:10292000304606F095FF1422214611A806F090FFCC
:1029300047233648DFF8D8C008AFC0E900C3F92301
:1029400008947C60C0E90334C0E90544846004F065
:1029500073FD08B172B6FEE74FF4805831462B483C
:10296000CDF8308004F04EFE08B172B6FEE7CDE936
:10297000110011A9254804F03CFF08B172B6FEE72A
:10298000CDE908003946214804F0B8FF054608B1F2
:1029900072B6FEE701461022304606F059FF1422B7
:1029A000294611A806F054FF4FF047094FF0804325
:1029B000184C0895C4E9003944F61F6320467D6031
:1029C000C4E90335A560A56104F036FD08B172B60F
:1029D000FEE731462046CDF8308004F013FE08B102
:1029E00072B6FEE7CDE9110011A9204604F001FFFF
:1029F00090B172B6FEE700BF001002400010014027
:102A0000000C0140E80E002000240140800D002051
:102A1000002C0140380D0020CDE908003946204641
:102A200004F06CFF044608B172B6FEE701461022BE
:102A3000384606F00DFF14222146304606F008FF06
:102A40001C22214611A8A24D0694079406F000FF0F
:102A5000A04B2846C5E9003942F20F730DF1180A60
:102A6000C5E90334AC60AC6104F0E6FC08B172B6B1
:102A7000FEE739462846CDF8208004F0C3FD08B1B2
:102A800072B6FEE7284604F003FD08B172B6FEE711
:102A9000002331468E48CDE90C3304F0AAFE08B17C
:102AA00072B6FEE7CDE906005146894804F026FFDC
:102AB000024608B172B6FEE760231390CDE91130EB
:102AC000159011A9824804F03BFD08B172B6FEE7EB
:102AD00004227F4811A904F033FD08B172B6FEE765
:102AE00008227B4811A904F02BFD08B172B6FEE75D
:102AF0000C22774811A904F023FD044608B172B6F0
:102B0000FEE7734800F040FE4FF4E1337248734D26
:102B1000C0E90244C0E900530C230461C0E9053454
:102B2000C46104F083FF044608B172B6FEE706F004
:102B3000E7FB6B486B496C4BC0E90244C0E90013EA
:102B40004FF48043C0E90644C0E90434046201F054
:102B5000A3FF044608B172B6FEE71022014611A891
:102B600006F076FE4723614D614A0C94C5E90023C7
:102B700042F20F7328467460C5E90334AC60AC615F
:102B800004F05AFC08B172B6FEE74FF480532846B1
:102B900011A9119304F036FD08B172B6FEE70023C7
:102BA00031465248CDE90C3304F0A8FE044608B182
:102BB00072B6FEE74F4806F02DFC4F4804F046FB86
:102BC0004E4804F043FB424804F040FB2146404895
:102BD00004F092FE04213E4804F08EFE08213C4899
:102BE00004F08AFE0C213A4804F086FE4FF40051AE
:102BF0000122434801F072FD424800F07BFA42484E
:102C000000F072FA414800F069FA00F0F7FB404822
:102C100000F0CEF83F4800F0D1F83F4800F0D4F87B
:102C200000F0F0F83D4A3E4B104613603D4B5360B8
:102C30003D4B9360FEF7CEF93C48FEF793FE3C48CF
:102C4000FEF78AFE01223B49234805F000F90122E4
:102C5000394B3A491A703A4803230522FEF76EF8B9
:102C6000384B394A39493A4800F069FF394B3A4AFA
:102C70003A493B4800F063FF40F20122394B1C7097
:102C8000394B1C70394B1C70394B1C70394B1C7004
:102C9000394B1A809C709C80FFF720FCFEF7EEF900
:102CA000FFF75AFB002229492948FFF781F8012242
:102CB0002A492B48FFF77CF8FFF76CFAFFF700FA78
:102CC000FFF772FC2C48FFF75BFCFFF7C1FBE3E763
:102CD000F00C002000040040600C0020003801408F
:102CE000500E002000580040801A0600A80C00205A
:102CF0000008004071190008800D0020380D0020E8
:102D00000010014005080020C1190008E919000859
:102D100004080020E5190008051A0008D40700205F
:102D2000AD190008211A0008551A0008411A0008B8
:102D30009D190008E00700204907002049A5000868
:102D400052A500080C0B00200C0A0020300C0020BB
:102D5000240C00200C0900200C080020180C002076
:102D60000C0C002006080020E6070020E4070020E5
:102D7000E5070020E3070020CC0700200268084B8D
:102D800010B59A420AD1074C2078FEF77DF821460B
:102D9000BDE810400122044805F059B810BD00BF3D
:102DA00000380140E0070020600C002072B6FEE70A
:102DB000014B1860704700BF3C0F0020014B1860AA
:102DC000704700BF380F0020014B1860704700BFEC
:102DD000340F0020044A10B414680B46A446014680
:102DE0000122D02010BC6047380F00201346044A4F
:102DF00010B41468CAB2A446014610BCD020604783
:102E0000340F002013B500240DF107006B218DF85D
:102E10000740FFF7DFFF03230DF107001A218DF8AC
:102E20000730FFF7D7FF0DF107001C218DF8074091
:102E3000FFF7D0FF1B210DF10700FFF7CBFF02B01A
:102E400010BD0000000000002DE9F041644B654A10
:102E50001868117803782BB9012900F09E800020B2
:102E6000BDE8F08100230129037000F0968002295B
:102E7000F5D1012111705C4A10885788C0BA968834
:102E800015895489B2F80C8000F5E172B2F5617FC2
:102E9000FFBAF6BAEDBAE4BA98FAB8F813D9FDF762
:102EA00027FD4FF06251FDF777FDFDF7E7FB4AA3E1
:102EB000D3E90023FDF754F94C4B0022FDF750F9FC
:102EC000FDF734FC03B24A4A138007F5E173B3F50A
:102ED000617F6AD93846FDF70BFD4FF06251FDF76F
:102EE0005BFDFDF7CBFB3CA3D3E90023FDF738F9ED
:102EF00000223E4BFDF734F9FDF718FC00B23D4BC4
:102F0000188006F5E173B3F5617F50D93046FDF7BF
:102F1000EFFC4FF06251FDF73FFDFDF7AFFB2EA335
:102F2000D3E90023FDF71CF90022304BFDF718F917
:102F3000FDF7FCFB00B2304B188005F5E173B3F5EB
:102F4000617F36D92846FDF7D3FC2C49FDF7D8FD23
:102F50002B49FDF721FDFDF76FFE00B2294B1880CC
:102F600004F5AF73B3F52F7F25D92046FDF7C0FCDC
:102F70002249FDF7C5FD2249FDF70EFDFDF75CFE78
:102F800000B2214B214C188008F5AF73B3F52F7FA9
:102F900013D800232380012062E702230E2113703F
:102FA00011483B22FFF722FF59E70020A7E7002046
:102FB000C1E70020D2E70020E3E74046FDF798FC98
:102FC0000E49FDF79DFD0E49FDF7E6FCFDF734FEC9
:102FD0002080E0E7AFF300801F85EB51B89E2340CF
:102FE0003C0F002068000020180F0020000059400E
:102FF000300F00202E0F00202C0F00200000034374
:103000000000C8422A0F0020280F0020260F0020B1
:1030100070B5DDE9045418B10E4EB6F900600680B3
:1030200019B10D48B0F9000008801AB10B49B1F987
:10303000001011801BB10A4AB2F900201A801DB19C
:10304000084BB3F900302B801CB1074BB3F90030AB
:10305000238070BD300F00202E0F00202C0F002089
:103060002A0F0020280F0020260F002013B5064B42
:103070008DF807001C680122002378200DF107015C
:10308000A04702B010BD00BF4C13002013B5064B83
:103090008DF807001C680122002378200DF107013C
:1030A000A04702B010BD00BF48130020044B10B46D
:1030B0001C68CAB2A44601464023782010BC604771
:1030C0004C130020044B10B41C68CAB2A44601463D
:1030D0004023782010BC604748130020014B186043
:1030E000704700BF48130020014B1860704700BFB5
:1030F0004C130020014B1860704700BF5013002094
:1031000000284FF4806214BFFF210021014806F01F
:103110009FBB00BF480F002038B5B0240A4D2046A1
:10312000FFF7A4FF0020FFF7A1FF01341020FFF7F5
:103130009DFFE4B228468021FFF7B8FFB82C05F1C7
:103140008005ECD138BD00BF480F002038B51C4BBE
:103150001C4C1A682378117819B9012B0AD0002069
:1031600038BD0021013B1170032BF8D8DFE803F0D4
:10317000020B1015144B18785038C0B2FFF786FFB9
:1031800002232370EBE70020FFF780FF0323F8E71B
:103190001020FFF77BFF0423F3E70B4D0B4B287840
:1031A000802103EBC010FFF78DFF01202B782070EA
:1031B0000133DBB2072B2B70D1D900232B70CFE763
:1031C0005013002069000020400F0020480F00200D
:1031D000030630B510D43F290ED80124CB08074D83
:1031E00000EBC3102B5C01F0070104FA01F1A242CD
:1031F0000CBF0B438B432B5430BD00BF480F002046
:103200002DE9F04F044689B008A800E90E009DF8AA
:103210004830A4F120050293EBB25E2B47D8079B00
:1032200023B3234413F8206C224AB2F8009009EB30
:103230000603802B3BDC53889DF815B0019303EB0C
:103240000B02402A33DC029B4FF00008B3FA83FAEA
:103250000BFB05F54FEA5A1A6D00C34509D8154B0B
:103260004E441E80204609B0BDE8F08F9DF81460E2
:10327000DAE70027069A535B0493019B08EB0302ED
:10328000D3B20393BE4203D808F101080235E4E744
:10329000049B07EB090003FA07F2130454BF5246DC
:1032A000029A0399C0B2FFF793FF0137EAE70024BF
:1032B000D8E700BF420F002070B586B003AC84E8A9
:1032C0000E009DF82860451E15F8010F40B10096CC
:1032D00094E80E00FFF794FF034628788342F3D06A
:1032E00006B070BD014B188059807047420F002016
:1032F0002DE9F74F9046A8EB0009A3EB010AB9F1BD
:10330000000F1E46B8BFC9F10009BAF1000FB8BFDF
:10331000CAF1000A804594BF4FF0FF3301230546F0
:103320000C468E4294BF4FF0FF3B4FF0010B4046DE
:1033300031469DF830200093A9EB0A07FFF748FFBC
:10334000CAF10003454504D1B44202D103B0BDE83F
:10335000F08F214628460193FFF73AFF019B790041
:10336000B3EB470FBFBF0098A7EB0A072D18EDB2CC
:103370008945C2BF5C444F44E4B2E3E72DE9F04124
:103380001446A042804628BFA046A042064638BF49
:10339000264699420C4628BF1C46994238BF19461A
:1033A0000F469DF81820BC4201D83F2C01D9BDE83A
:1033B000F081454607E02B0607D428462146FFF753
:1033C00007FF0135EDB2B542F5D90134E4B2EAE7C1
:1033D00010B504468120FFF749FE2046BDE81040A5
:1033E000FFF744BE034628B10123AF20024A5371C0
:1033F000FFF73CBEAE20F9E7420F002008B564207D
:1034000000F018FC0020FFF7EDFF2020FFF72EFE54
:103410000020FFF72BFEB020FFF728FEC820FFF7A3
:1034200025FE0020FFF722FE1020FFF71FFE4020A0
:10343000FFF71CFEFF20FFF7CBFFA120FFF716FED2
:10344000A620FFF713FEA820FFF710FE3F20FFF78E
:103450000DFEA420FFF70AFED320FFF707FE002091
:10346000FFF704FED520FFF701FEF020FFF7FEFD79
:10347000D920FFF7FBFD2220FFF7F8FDDA20FFF748
:10348000F5FD1220FFF7F2FDDB20FFF7EFFD202016
:10349000FFF7ECFD8D20FFF7E9FD1420FFF7E6FDB7
:1034A0000120FFF79FFF0020FFF72AFEFFF734FE01
:1034B0000022034B1A805A8001221A7108BD00BFF6
:1034C000420F00200E4B82B09A6942F001029A61CD
:1034D0009A6902F001020092009ADA6942F0805281
:1034E000DA61DB69074A03F080530193019B53685B
:1034F00023F0E06343F08063536002B0704700BF85
:10350000001002400000014030B5054687B010228F
:10351000002102A806F09CF92A68204B9A423BD170
:1035200003F56C439A691E4842F400729A619A69E5
:1035300002A902F400720092009A9A69194C42F0B2
:1035400004029A619B69FF2203F004030193019B2B
:103550000323CDE9022300F0E7FF80204FF48072BF
:103560000023C4E903024FF480620F492046C4E9F6
:103570000013C4E90523A360E36100F06BFE08B10A
:10358000FFF714FC002212202C621146656200F045
:103590000FFE122000F03CFE07B030BD00240140B9
:1035A00000080140A40E00200800024030B5054686
:1035B00087B01022002102A806F04AF92A682E4B93
:1035C0009A4256D12D4C4FF44061A3692C4843F0E8
:1035D0000803A361A36903F008030093009B12236F
:1035E000CDE90213032302A9059300F09DFFE369CF
:1035F000802243F48003E361E369224803F48003FB
:103600000193019B0023204CC4E900032046C4E938
:103610000323C4E90533A360E36100F01BFE08B196
:10362000FFF7C4FB1023194AAC636562184CC4E968
:103630000023002380222046C4E90232C4E9043377
:10364000C4E9063300F006FE08B1FFF7AFFB002225
:10365000212011466C63656200F0AAFD212000F074
:10366000D7FD00222220114600F0A2FD222000F00A
:10367000CFFD07B030BD00BF005800400010024031
:10368000000C0140580002400C0E00204400024093
:10369000C80D00201FB50368374A93422CD1374B21
:1036A00018209A6942F400629A6100229B691146CF
:1036B00003F400630093009B00F07AFD182000F0F3
:1036C000A7FD00221920114600F072FD192000F01C
:1036D0009FFD00221A20114600F06AFD1A2000F01A
:1036E00097FD00221B20114600F062FD1B2005B053
:1036F0005DF804EB00F08CBDB3F1804F11D103F500
:103700000433DA691C2042F00102DA610022DB692D
:10371000114603F001030193019B00F049FD1C20B9
:10372000E5E7174A934210D1144B1D20DA6942F0A5
:103730000202DA610022DB69114603F00203029300
:10374000029B00F035FD1D20D1E70E4A934210D1B7
:103750000A4B1E20DA6942F00402DA610022DB69BA
:10376000114603F004030393039B00F021FD1E2088
:10377000BDE705B000BD00BF002C014000100240B5
:10378000000400400008004010B5044686B0102236
:10379000002102A806F05CF82268114B9A421CD165
:1037A00003F503339A690F4842F008029A619B6956
:1037B000332203F008030193019B022302A9CDE900
:1037C0000223059300F0B0FE074A536823F44063D8
:1037D00043F0E06343F40063536006B010BD00BFE4
:1037E00000040040000C01400000014010B50446F8
:1037F00086B01022002102A806F02AF822681B4B8E
:103800009A4230D103F558439A69194842F48042EC
:103810009A619A6902A902F480420092009A9A6918
:10382000002442F004029A619B694FF4007203F095
:1038300004030193019B0223CDE902230323059393
:1038400000F072FE4FF48063094802A9CDE902340A
:10385000049400F069FE25202246214600F0A8FCD1
:10386000252000F0D5FC06B010BD00BF0038014097
:1038700000080140FEE7FEE7FEE7FEE7FEE77047CF
:103880007047704700F0C4B9014800F0B5BD00BFF3
:10389000A40E0020014800F0AFBD00BFC80D0020FD
:1038A000014800F0A9BD00BF0C0E0020014800F047
:1038B00001BA00BFE80E0020014802F071BB00BF52
:1038C00048220020FFF7F8BF014803F0EEBC00BF1C
:1038D000800D0020FFF7F8BFFFF7F6BFFFF7F4BF3A
:1038E000014803F0E2BC00BF380D0020014803F09E
:1038F000DCBC00BFF00C0020014803F0D6BC00BFC8
:10390000A80C0020014801F0BFBD00BF500E0020F0
:10391000014802F013BA00BF500E0020014804F025
:1039200033B900BF600C00200A4A0346106810B586
:1039300008B9094810600949094C0344091B8B4226
:1039400006D905F0B7FF0C2303604FF0FF3010BD20
:103950001360FCE75413002068260020005000206C
:103960000004000070470346002030B518725879F3
:103970001C68451C5D715525987125545879DC7972
:1039800001322040451C5D714E251C68D2B2255481
:103990005879DC792040451C5D7145251C6825540B
:1039A0005879DC792040451C5D7152251C682554EE
:1039B0005879DC7920401C68451C5D712254587987
:1039C000DC794A402040451C5D713A251C6825542D
:1039D0005879DC7920401C68451C5D712154587968
:1039E000DC792040587107205872187A504080F0D6
:1039F0003600187230BD034610B5427A0132427269
:103A00005A790068541C5C7181545A79D879024003
:103A10005A711A7A81EA0200187210BD002337B574
:103A20008DF807309DF80730CB5C13B9007A03B0EE
:103A300030BD437A9DF807400133437243790268F1
:103A40005D1C45710C5DD4544379C27913409DF8D7
:103A500007204371531CDBB28DF807308B5C027A70
:103A600053400372DEE7034610B5C4798079014400
:103A7000214018689971405C11440C409C7110BD44
:103A8000F0B50024052645790379AB4201D1002029
:103A9000F0BD827A072A50D8DFE802F0040F1C221A
:103AA000282D4F3E0268D25C552A01D10122827234
:103AB000C279013313400371E6E70268D25C4E2AF3
:103AC00001D10222F3E7552AF2D000228272013B93
:103AD000DBB2EDE70268D25C452A1BD10322E6E7A0
:103AE0000268D25C522A15D10422E0E70268D25C57
:103AF00086724272DCE70268D25C3A2A0AD1072158
:103B0000C2798172591C0A408271427A82F036026F
:103B10000272CDE78472DAE7427A0768013AD2B2DC
:103B2000017A42721AB1FA5C51400172C0E78272A6
:103B3000FA5C8A42BCD10120AAE78472B8E710B5CA
:103B400002604FF07F440022446002818272C1E92A
:103B500000340A818A7210BDFFF704FF0B480C493C
:103B60000C4A002302E0D458C4500433C4188C42D9
:103B7000F9D3094A094C002301E013600432A24240
:103B8000FBD305F09DFEFEF7E7FD70470000002027
:103B90004002002000BD00084002002068260020EE
:103BA000FEE7000038B50E4B05461A784FF47A73DD
:103BB000B3FBF2F30B4A1068B0FBF3F000F036FBF6
:103BC000044658B90F2D09D8024629464FF0FF3058
:103BD00000F0EEFA2046044B1D6038BD0120FCE7E2
:103BE000700000206C00002074000020074A08B517
:103BF0001368032043F01003136000F0C7FA0F208E
:103C0000FFF7D0FFFFF75EFC002008BD0020024058
:103C1000034A044B11681B780B441360704700BFC4
:103C20005813002070000020014B1868704700BF37
:103C30005813002038B50446FFF7F6FF0546631C0D
:103C40001EBF044B1B78E418FFF7EEFF431BA34293
:103C5000FAD338BD70000020436A10B59A6A12F09A
:103C6000500F1BD19A6A42F400729A621A689268E5
:103C700002F46022B2F5602F0CD11A7B52B99A6A15
:103C800022F480729A629A6AD2045EBF9A6A42F003
:103C900001029A621846FDF713FF10BD1B6ABDE8CA
:103CA00010401B6B1847704708B5406AFFF7FBFFD1
:103CB00008BD7047036870B51D685E680446B006AD
:103CC00026D5A90724D5A26AD2065EBFA26A42F40D
:103CD0000072A2629A6802F46022B2F5602F10D1DD
:103CE000227B72B95A6822F020025A60A36A23F438
:103CF0008073A362A36AD8045EBFA36A43F0010382
:103D0000A3622046FDF7DCFE6FF0120223681A6002
:103D1000310630D56A072ED5A36ADB065EBFA36ADB
:103D200043F40053A36223689A6802F4E042B2F5B8
:103D3000E04F0AD05A68500516D49A6802F46022FF
:103D4000B2F5602F10D1227B72B95A6822F080023E
:103D50005A60A36A23F48053A362A36AD9055EBFA5
:103D6000A36A43F00103A362204600F00DFA6FF04E
:103D70000C0223681A6072060CD5EB070AD5A36AF9
:103D8000204643F48033A362FFF793FF6FF00102F4
:103D900023681A6070BD7047406A08B5836A43F0B3
:103DA00040038362C36A43F00403C362FFF7F3FF77
:103DB00008BD0000002373B5019390F82430044639
:103DC000012B6CD0012380F824304D680268062D49
:103DD000086805EB850322D81F26556B053B9E40DE
:103DE00025EA060500FA03F32B43536309288B6881
:103DF00000EB40054FF0070129D9D6681E3DA940C8
:103E000026EA0101AB400B43D360A0F11003012B64
:103E100025D90020002384F8243002B070BD0C2D79
:103E20004FF01F0509D8166B233B9D4026EA050578
:103E300000FA03F32B431363D8E7D66A413B9D4056
:103E400026EA050500FA03F32B43D362CEE7106997
:103E5000A94020EA0101AB400B431361D9E7114BA4
:103E60009A4216D193681B02D3D49368102843F466
:103E700000039360CDD10C4B0C4A1B68B3FBF2F3EB
:103E80000A2253430193019B002BC2D0019B013BAB
:103E9000F8E7A36A012043F02003A362BAE70220F7
:103EA000BBE700BF002401406C00002040420F002F
:103EB000002337B50193036804469A68D20702D5F8
:103EC000002003B030BD9A6842F001029A60144BA2
:103ED000144A1B68B3FBF2F30193019BE3B9FFF7AC
:103EE000A3FE054623689B68DB07E9D4FFF79CFE29
:103EF000401B0228F6D923689B6813F00103F1D117
:103F0000A26A012042F01002A262E26A84F8243020
:103F100042F00102E262D4E7019B013BDCE700BF13
:103F20006C00002040420F002DE9F0413F4B9046CD
:103F3000026804469A420F4602D03D498A4203D1A4
:103F40005B6813F4702F6DD194F82430012B6BD083
:103F50000123204684F82430FFF7AAFF06460028F4
:103F60005DD1A56A2168324B25F4706525F0010505
:103F700045F480759942A56204D12C4A536813F424
:103F8000702F3ED1A36A23F48013A3624B685A05B5
:103F900005D5A36A23F4405343F48053A362A36A74
:103FA000206A13F4805318BFE36A3A4618BF23F01F
:103FB0000603E362002384F824301E4B4C318362F5
:103FC0001D4BC3621D4B03636FF0020341F84C3C71
:103FD00051F8443C43F4807341F8443C434600F0BC
:103FE00069F923689A6802F46022B2F5602F9A6832
:103FF0000CBF42F4A00242F480129A603046BDE841
:10400000F081A36A43F48013A36253685B0541BF48
:10401000A06A20F4405040F48050A062BFE7002323
:1040200084F824300126E9E70226E7E7002401406E
:1040300000280140593C0008A93C0008993D0008AF
:1040400038B5036804469A68D10701D4002038BD0A
:104050009A6822F001029A60FFF7E6FD05462368A0
:104060009B68DB07F2D5FFF7DFFD401B0228F6D97E
:1040700023689B68DA07F2D5A36A012043F0100396
:10408000A362E36A43F00103E362E0E7F8B50446A4
:1040900000286DD0836A23B9C36280F82430FFF70B
:1040A00033FA2046FFF7CCFFA36A13F0100361D167
:1040B00000285FD1A26A616822F4885222F00202CD
:1040C00042F00202E569A668A262227B2943B6F5A6
:1040D000807F41EA420136D0771E7D427D412D022C
:1040E000277D012F06D182BBA269013A45EA4232FF
:1040F00042F400652268B6F5807F576827F4694767
:1041000045EA0705556097681D4D05EA070545EA2C
:104110000105956001D0012E02D12369013B1B05E9
:10412000D56A25F470052B43D3629268154B134072
:10413000994213D10023E362A36A23F0030343F0FF
:104140000103A362F8BD3546CAE7A26A42F0200225
:10415000A262E26A42F00102E262CBE7A36A23F0C4
:10416000120343F01003A362E36A43F00103E36226
:104170000120E7E7A36A43F01003A362F8E700BF5A
:10418000FDF7E1FFFE0E1FFF704700000749030225
:10419000CA6803F4E06322F4E0621204120C1343D1
:1041A00043F0BF6343F40033CB60704700ED00E0A1
:1041B000154B30B5DC68C4F30224C4F10703251D98
:1041C000042B28BF0423062D4FF0FF3594BF002495
:1041D000033C05FA03F321EA0303A54022EA0502A2
:1041E000A340002843EA0203ACBF00F16040074A45
:1041F0004FEA0313DBB2ABBF00F5614000F00F00E4
:1042000080F80033135430BD00ED00E014ED00E001
:10421000002807DB01234109034A00F01F00834007
:1042200042F82130704700BF00E100E00138B0F1F2
:10423000807F0BD24FF0E023F021054A586182F8CD
:1042400023100020072298611A61704701207047EF
:1042500000ED00E0034610B530B301681420134AA6
:104260000A44B2FBF0F292001A64114ADA630222A5
:1042700083F82120D3E901242243DC680868224323
:104280001C696FF30D1022435C6922439C69224331
:10429000DC69224302430A6000200122986383F80C
:1042A000200083F8212010BD0120FCE7F8FFFDBFAE
:1042B00000000240F0B590F82040012C34D00124D9
:1042C00080F8204090F82140012CE5B24FF0000426
:1042D00028D1022680F8216084630468266826F0CD
:1042E00001062660D0E90F67BD40756063604368D2
:1042F000102BC36A0BBFA260A160E160E2604BB10A
:10430000236843F00E0300202360236843F0010379
:104310002360F0BD236823F004032360236843F087
:104320000A03F0E780F820400220F2E790F821200D
:104330000346022A06D0042282630120002283F869
:10434000202070470268C06B116821F00E011160D7
:10435000116821F00101116001211A6C01FA02F2C9
:104360004260002083F82110E8E7000008B590F8CB
:104370002130022B03D004238363012008BD03688E
:104380001A6822F00E021A601A6822F001021A60FE
:10439000174A93421FD0143293421ED014329342D4
:1043A0001DD0143293421DD0143293421DD01432CA
:1043B000934214BF4FF080734FF480130D4A536043
:1043C000012380F82130002380F82030436B03B1B3
:1043D00098470020D2E70123F0E71023EEE74FF4DF
:1043E0008073EBE74FF48053E8E74FF48033E5E761
:1043F000080002400000024070B40425C66B026C45
:104400003468036895402542196832D04D0730D58D
:104410001A6896065EBF1A6822F004021A603E4AC5
:10442000934219D01432934218D01432934217D0C9
:104430001432934217D01432934217D0143293425D
:1044400014BF4FF080634FF48003344A5360C36A53
:10445000002B5ED070BC18470423F6E74023F4E736
:104460004FF48063F1E74FF48043EEE74FF480238D
:10447000EBE702259540254235D08D0733D51A68E4
:10448000940606D41A6822F00A021A60012280F803
:104490002120214A934219D01432934218D0143269
:1044A000934217D01432934217D01432934217D04C
:1044B0001432934214BF4FF000734FF40013174AA5
:1044C0005360002380F82030836AC1E70223F6E7B7
:1044D0002023F4E74FF40073F1E74FF40053EEE7C5
:1044E0004FF40033EBE708259540254211D009072A
:1044F0000FD5196821F00E011960012303FA02F2A9
:104500007260836380F82130002380F82030036BD1
:104510009EE770BC704700BF0800024000000240E8
:1045200090F82100704700002DE9F74F00244FF06C
:104530000F0E2646DFF884C1614B00F104080A68BB
:1045400032FA06F502D103B0BDE8F08F012505FA75
:1045500006F702EA070537EA020276D14A68032A1B
:1045600007D8013A022A00F28380DFE802F0919630
:104570009C00122A00F0948069D8112A00F08A80E9
:10458000FF2D94BF8146C1464FEA8602D9F80070DC
:1045900088BF203A0EFA02FA27EA0A0704FA02F262
:1045A0001743C9F80070D1F8049019F0805F4CD01F
:1045B000DCF8182026F0030742F00102CCF818209E
:1045C000DCF8182007F1804702F00102019207F59C
:1045D000803706F0030A019A4FEA8A0ABA680EFA8F
:1045E0000AFB22EA0B0B374A904260D002F5806248
:1045F00090425ED002F5806290425CD002F580620B
:10460000904214BF0422032202FA0AF242EA0B0289
:10461000BA609A6819F4801F14BF2A43AA439A60AB
:10462000DA6819F4001F14BF2A43AA43DA605A68F3
:1046300019F4003F14BF2A43AA435A601A6819F4B8
:10464000803F14BF2A43AA431A60013677E7DFF898
:1046500078904A450CD014D8A9F580194A4507D05E
:1046600009F570294A4503D0A9F580194A4587D133
:104670008A68D2B1012A4FF008040CBF0761476174
:104680007EE7DFF848904A45F2D009F58039EDE73A
:10469000CC6875E7CC68043472E7CC6808346FE7FF
:1046A000CC680C346CE700246AE7042468E7002235
:1046B000AAE70122A8E70222A6E700BF00100240F5
:1046C00000040140000801400000221000003110E9
:1046D00080680840003818BF012070470AB10161A6
:1046E00070470904FBE7016800224B6913F48063FB
:1046F00010D06FF480634B612023026380F83D305B
:1047000080F83E20036C80F83C2043F004030364EF
:1047100001207047184670472DE9F84606460F46B7
:1047200091461D464FEA114A3368BAF1010F39D15B
:104730005C6927EA0404A4B2B4FA84F46409A145CC
:1047400001D0002024E06A1CEFD0FFF76DFA089B2F
:10475000C01AA84201D8002DE6D1BAF1010F336882
:1047600018D15B6927EA03039BB2B3FA83F35B09B1
:104770009945D9D1002320220120336386F83D20BA
:1047800086F83E30326C86F83C3042F020023264CB
:10479000BDE8F8869B69DB43C3F3400383F0010364
:1047A000DBB2E5E79C69E443C4F3400484F0010410
:1047B000E4B2C4E72DE9F04104460F461646984698
:1047C0002568686927EA000080B2C0B16B695A05A4
:1047D00017D52B68202243F400732B606FF480639D
:1047E0006B610023236384F83D2084F83E30236C02
:1047F00043F0040323640023012084F83C30BDE827
:10480000F081731CDDD0FFF70FFAA0EB0800B04277
:1048100001D8002ED4D123685A6927EA020292B245
:10482000002ACDD000232022236384F83D2084F881
:104830003E30236C1343DDE770B504460D46164643
:1048400023685B691B0601D500201EE02046FFF7A8
:104850004AFFC8B96A1CF3D0FFF7E6F9801BA842EB
:1048600001D8002DECD123685B6913F08003E7D1F8
:104870002022236384F83D2084F83E30226C84F8A3
:104880003C3042F020022264012070BD2DE9F0434B
:10489000154602689946136885B043F48073136027
:1048A000DDE90C780E463B4600224FF00111CDF8B1
:1048B00000800446FFF730FF236838B11B68DB0532
:1048C00002D54FF400732364032620E006F0FE06B1
:1048D0001E613A46434620461849FFF76BFFA8B9C8
:1048E000236803905A69394603929B6942460393B1
:1048F0002046039BFFF7A0FF064660B1236C042B04
:1049000001BF2268136843F4007313600126304628
:1049100005B0BDE8F083B9F1010F236802D1EDB213
:104920001D61F4E72A0A1A61394642462046FFF71C
:1049300083FF0028E2D12368F1E700BF02000100F5
:104940002DE9FF479A46DDE90C78036815461A6899
:104950000E4642F480621A601A684FF0011142F468
:1049600080721A603B460022CDF800800446FFF7B3
:10497000D3FE236848B11B68DB0548BF4FF40073C2
:104980004FF0030048BF236421E05FFA86F906F088
:10499000FE061E613A46434620462949FFF70AFFB4
:1049A000A0B9236803905A69394603929B6942462D
:1049B00003932046039BFFF73FFF58B1236C042B62
:1049C00001BF2268136843F400731360012004B030
:1049D000BDE8F087BAF1010F23681AD1EDB2424663
:1049E000394620461D61FFF727FF02460028E5D122
:1049F000216820460B6843F480730B603B464FF000
:104A00000111CDF80080FFF787FE226860B11368BE
:104A1000B2E72A0A1A61394642462046FFF70CFFE0
:104A20000028CBD12368D9E749F001031361204660
:104A300043463A46024904B0BDE8F047FFF7BABE24
:104A40000200010070B504460D46164623685B69F6
:104A50005B0701D500201EE02046FFF744FEC8B9E1
:104A60006A1CF3D0FFF7E0F8801BA84201D8002DA4
:104A7000ECD123685B6913F00403E7D120222363A0
:104A800084F83D2084F83E30226C84F83C3042F0BB
:104A900020022264012070BD70B5044608B90120CF
:104AA00070BD90F83D3003F0FF021BB980F83C2048
:104AB000FEF77CFD242384F83D3023681A6822F039
:104AC00001021A601A6842F400421A601A6822F45D
:104AD00000421A6002F0ACFA3F4B65689D4294BFF9
:104AE0003E4B3F4B98428CBF00230123002BD6D175
:104AF000394E3C4BB542B0FBF3F388BF4FF496768A
:104B00002268516821F03F0141EA030182BF7343EB
:104B10004FF47A76B3FBF6F35160116A013321F05A
:104B20003F010B431362D169431E2B4821F44F41CF
:104B3000854221F0FF0132D86D00B3FBF5F340F65A
:104B4000FC700133034242D0C3F30B031943D1611C
:104B50001168D4E9073021F0C00103430B4313600F
:104B60009168D4E9030321F40341034321F0FF01D9
:104B70000B439360D168D4E9053021F0FF01034372
:104B80000B43D3601368002043F00103136020231C
:104B9000206484F83D30206384F83E0080E7A068FC
:104BA00050B905EB4505B3FBF5F30133C3F30B0334
:104BB0007BB143F40043C9E719206843B3FBF0F32A
:104BC0000133C3F30B0323B143F44043BEE7042393
:104BD000BCE70123BAE700BFA08601007F841E0066
:104BE000FF083D0040420F002DE9F7430446994677
:104BF0000F4690460C9EFFF717F894F83D30054697
:104C0000202B03D0022003B0BDE8F08300901923CD
:104C1000012220463A49FFF77FFD0028F2D194F89F
:104C20003C30012BEED00123206884F83C3003682F
:104C30004246D90758BF036839465CBF43F00103B9
:104C40000360036823F400630360212384F83D308C
:104C5000402384F83E30002323640A9B204663628D
:104C6000BDF82C306385638D2385264BE3624B466C
:104C7000CDE90065FFF70AFE00282AD00120C2E72F
:104C8000FFF7DAFD40B1236C042B01BF22681368E3
:104C900043F400731360F1E7636A27681A4612F859
:104CA000011B39616262628D218D013A92B2628587
:104CB0007A69481E80B2520720850AD548B15A78D1
:104CC00002333A616362638D0239013B9BB22185F5
:104CD0006385238D2A4631462046002BD0D1FFF72D
:104CE000B1FE0028CFD12268136843F4007313602B
:104CF000202384F83C0084F83D3084F83E0082E7AD
:104D0000020010000000FFFF2DE9FF479946002335
:104D1000044602930F4690460C9EFEF785FF94F8DA
:104D20003D308246202B16D146F2A812554B1B6807
:104D3000B3FBF2F3192253430293029B013B02930C
:104D4000029B53B92022236384F83D2084F83E302F
:104D5000236C13432364022066E022689369990759
:104D6000EBD494F83C30012BF5D0012384F83C308F
:104D700013680025DB0758BF136843495CBF43F045
:104D800001031360136823F400631360212384F884
:104D90003D30402384F83E30BDF8343025646385CF
:104DA000638D66629BB2E16223856764C4F84880C4
:104DB000C4F84C902565002B57D0606B40B3334945
:104DC0004563816232491032C0E90B513146FFF729
:104DD00071FA064600283CD1232342460093394607
:104DE0004B462046CDF804A0FFF750FDF8B1606BAC
:104DF000FFF7BCFA636B9E6223681A6822F4806234
:104E00001A6066851A68268522F001021A600AE097
:104E1000202384F83D3084F83E00236C84F83C0065
:104E200043F080032364012004B0BDE8F0872368C9
:104E300003905A6903929A6984F83C000392039A9A
:104E40005A6842F480725A605A6842F400625A60AA
:104E5000EAE7202384F83D3084F83E50236C84F840
:104E60003C5043F010032364DDE7202284F83D200A
:104E700084F83E30226C84F83C3042F040022264D8
:104E8000D1E700BF6C0000200000FFFF6151000867
:104E9000275100082DE9F04786B0044698460E4693
:104EA0001746DDF838A0FEF7BFFE0023039394F801
:104EB0003D308146202B03D0022006B0BDE8F087AC
:104EC00046F2A812644B1B68B3FBF2F3192253435A
:104ED0000393039B013B0393039B4BB92022236362
:104EE00084F83D2084F83E30236C13432364E3E7C9
:104EF00021688B699A07ECD494F83C30012BDBD005
:104F0000012384F83C300B680025DB0758BF0B6891
:104F1000524A5CBF43F001030B600B6823F400634B
:104F20000B60222384F83D30402384F83E30BDF8E6
:104F30003C3025646385638DC4F824A09BB2E26293
:104F400023856664A764C4F84C802565002B66D071
:104F5000A06B58B3424A45638262424A1031C0E9AD
:104F60000B525246FFF7A6F9824600284BD1232365
:104F70003A460093314643462046CDF80490FFF769
:104F8000DFFC00B3A06BFFF7F1F9A36BC3F828A017
:104F900023681A6822F480621A60A4F82AA01A68AA
:104FA000A4F828A022F001021A600AE0202384F865
:104FB0003D3084F83E00236C84F83C0043F08003CD
:104FC0002364012079E7228D2368012A0BBF1A6828
:104FD0005A6822F4806242F480520CBF1A605A6010
:104FE0000022049259690491996984F83C20049143
:104FF00004995A6842F480725A605A6842F4006216
:105000005A60002059E7202384F83D3084F83E5050
:10501000236C84F83C5043F010032364D1E723232E
:105020003A460093314643462046CDF80490FFF7B8
:1050300087FC0028C5D1236805905A6905929A69B2
:105040000592059A1A6842F400721A60202384F8C7
:105050003C0084F83D30D4E76C0000200000FFFFE6
:10506000615100082751000870477047704770472A
:105070007047704790F83D2008B5036DD2B283B9F0
:10508000C36C0268012B836C05D1DBB21361036D25
:105090000233036508BDC3F307231361036D0133B6
:1050A000F7E7036D012B03D1836C0268DBB2F4E7F1
:1050B000036D022B2FD1222A05D10268136843F415
:1050C00080731360EAE7438D9BB263B1212A0AD152
:1050D000436A026813F8011B11614362438D013B6F
:1050E0009BB24385D6E7438D9BB2002BD2D1212AB8
:1050F000D0D10268516821F4E0615160116841F437
:10510000007111602022036380F83D2080F83E305A
:10511000FCF7E6FCBEE703685A69120644BF0022AA
:105120001A61B7E77047406A08B5436B0BB10022BC
:105130009A62836B0BB100229A620268136823F4AF
:105140008063136000232022438580F83D2080F88F
:105150003E30036C43F010030364FFF7E3FF08BD28
:1051600070B5446A236894F83D1094F83E00E26AF2
:105170005D68C9B225F440755D60656BC0B20DB164
:105180000026AE62A56B0DB10026AE6201F02105CE
:10519000212D05D001F02205222D23D1202821D157
:1051A0005A68292922F400625A604FF0000363858F
:1051B0000DD1212323632823204684F83D30FFF7B7
:1051C00055FF2268536843F44073536070BD2A2929
:1051D000F7D1222323632823204684F83D30FFF7AC
:1051E00046FFEEE794F83E100029EFD0618D89B2BA
:1051F000012902BF196821F480611960596812F50C
:10520000803F21F44071596006D0082A04D0B2F1E1
:105210002A4F01D0202A03D1196841F40071196086
:10522000596821F480515960596821F4006159602E
:1052300000236385236C1BB12046FFF773FFC5E78E
:10524000202184F83D1094F83E1084F83E30402927
:1052500004D120462363FCF749FCB7E7082A01D0B4
:10526000202A05D1002320462363FFF7FEFEADE789
:105270001223F8E770470000002337B546F2A81163
:1052800001932C4B406A1B6890F83D20B3FBF1F36F
:1052900023214B4301930368D2B2019941BB016CB6
:1052A00041F020010164446B0CB10021A162816BCB
:1052B00009B100258D621D6825F480651D600025FB
:1052C000458504B1656301B14D63196821F00101A1
:1052D000196090F83D10602911D1202380F83D30ED
:1052E000002380F83E300364FFF7C4FF03B030BDF5
:1052F00001990139019119688905CED4D3E702F0EB
:105300002802282A0ED1196841F001011960196894
:1053100041F4806119600023036380F83D20FFF7AA
:1053200001FFE3E7202380F83D30002380F83E3082
:10533000F5E700BF6C00002010B590F83D2090F814
:105340003E300446102BD9B2D2B2036801D04029B6
:1053500013D1222A11D1196821F40061196059680A
:1053600011F4006106D1602A1EBF202284F83D207E
:1053700084F83E100022226307E002F02801282969
:10538000EDD10022226384F83D105A6812F40062C5
:105390004FD05A68606B22F400625A6090F8213056
:1053A000012B374B2BD04363FEF7E0FF50B122684F
:1053B000606B136823F001031360202384F83D30F1
:1053C000436B9847236C19071FBF2268536823F467
:1053D000E063536094F83D30226CDBB252070DD588
:1053E000282B0BD1274B2022E36200232046236386
:1053F00084F83D2084F83E30FFF73BFE10BDA06BE3
:105400004363FEF7B3FF0028DCD023685A695106D6
:1054100005D51A69636A1A70636A01336362226888
:10542000A06B136823F001031360202384F83D3040
:10543000C6E794F83D10602915D1202184F83D106D
:1054400022645A69520605D51A69636A1A70636A3A
:105450000133636222682046136823F0010313605E
:10546000FFF708FFAEE75A69500605D51A69636A67
:105470001A70636A013363622046FFF753FEA1E7A7
:10548000795200080000FFFFF0B5044603688FB0B2
:105490005A68C66A90F83E0094F83D101028C5B2CC
:1054A000C9B202D0402D40F0E5829F69586910F0E2
:1054B000010F07D1B6F52A0F02D0B6F12A4F51D10C
:1054C0000FB0F0BD96054DD5E26AB2F52A0F0CD1AA
:1054D0000122E26294F83E20402A11D1226D52B995
:1054E000626C02F0FE021A61EAE7E26AB2F12A4F48
:1054F000F0D10822EDE7626C42F00102D2B2F2E78D
:105500002269B2F5804F1AD194F83D20212A626CAD
:1055100011D102F0FE021A61626B0AB1926A2AB9D5
:10552000A26B002ACCD0926A002AC9D05A6842F4F1
:1055300000625A60C4E742F00102D2B2EBE7226D8A
:1055400032B9626CD21102F0060242F0F002CAE7F0
:10555000226D012AB4D1626CD21102F0060242F02F
:10556000F102C0E7060703D5960501D5626CE4E7B2
:10557000860740F1F080960540F1ED8094F83E10EA
:10558000E26A256B94F83D00C9B2222840F0DB8026
:10559000206D40B9402906D100905A6900929B695C
:1055A0000093009B8CE7216D89B92069B0F5404FCD
:1055B0000DD101915A6901929A690192019A1A6872
:1055C00042F480721A60236D0133236578E7618DA0
:1055D00089B251B902915A6902929A690292029A69
:1055E0001A6842F400721A6019E0618D89B20129CB
:1055F00049D112F5803F1BD11A6822F480621A60EB
:105600005A6812F400620CD01A6822F480621A60A0
:10561000002203925A6903929B690393039B002320
:10562000D3E704925A6904929A690492049AD7E7DC
:10563000082A1CD0202A1AD0122D0DD1012A16D1E9
:105640001A6822F480621A60002205925A69059253
:105650009B690593059BE2E7102AF1D8864941FA38
:1056600002F2D707ECD41A6842F48062EBE71A68BA
:1056700022F480621A60002206925A6906929A69A0
:105680000692069AACE7618D89B2022938D1102AB8
:1056900003D87A49D140CE0718D4196841F4006183
:1056A0001960002107915969079199690791079934
:1056B000196821F48061196059680D05AFD5202A59
:1056C0001BD8072A0ED8012AA9D111E0196841F484
:1056D00080611960002108915969089199690891C0
:1056E0000899E9E7A2F10801654ACA40D00796D5B2
:1056F0005A6842F480525A6091E712F5803FE3E71E
:10570000196841F4806119605968090510D5202A8B
:1057100016D8072A06D8012A0AD15A6842F48052BC
:105720005A6005E0A2F10801554ACA40D207F4D4F4
:10573000002209925A6909929B690993099B6EE7B5
:1057400012F5803FE8E700220A925A690A929B69A3
:105750000A930A9BB4E67F0740F194805E683605A1
:105760003FF5AEAE070600F004063ED550053CD529
:10577000002E3DD194F83D20258D94F83E10D2B2F4
:10578000E06AC9B2C5B9212A18D1082858D0202802
:1057900056D010F5803F53D05A6822F4E0625A6028
:1057A00011232363002384F83E302023204684F80D
:1057B0003D30FFF759FC83E6212A05D040297FF4CC
:1057C0007FAE222A7FF47CAE628D92B21AB95A68FB
:1057D00022F48062ADE694F83E20402A16D120469D
:1057E0000FB0BDE8F040FFF745BC002E3FF468AEB7
:1057F00097057FF565AE212939D1E16A94F83D20FE
:10580000212A7FF45DAE628D92B24AB1626A12F8CB
:10581000011B19616262638D013B9BB263854FE698
:1058200008290DD020290BD011F5803F08D05968E8
:1058300021F4E06159601123236384F83E20B4E72A
:105840005A68204622F4E0625A601A6842F40072F4
:105850001A6000232022236384F83D2094F83E2020
:1058600084F83E30402AA4D1FCF73AF928E6402DCE
:105870007FF426AEB3E700BFEBFFFEFF140001008C
:105880000101000159680E053FF51AAE450600F00A
:10589000040140F18680500540F18380002940F0EA
:1058A000838094F83D20222A7FF40AAEE06A628D5C
:1058B00092B2032A14D91A69636A1A70636A0133AF
:1058C0006362638D013B9BB26385638D9BB2032B47
:1058D0007FF4F6AD2268536823F480635360EFE5EC
:1058E000E56A022D3FF473AF012A3FF670AF0B91CA
:1058F00046F2A811794A1268B2FBF1F202EB820279
:105900000B920B9A013A0B920B99D1B9226C20465B
:1059100042F0200222645A6822F4E0625A601A6956
:10592000636A1A70636A01336362638D013B9BB2E1
:105930006385202384F83D3084F83E10FFF7F2FBA6
:10594000BEE51A6812F40072DBD1196821F4806197
:105950001960596821F4E06159601969636A197026
:10596000636A01336362638D013B9BB263852023CD
:1059700084F83D3094F83E3084F83E20402B04D12A
:1059800022632046FCF7B2F89AE5082801D02028C7
:1059900001D1002300E0122320462363FFF765FBBB
:1059A0008EE500293FF48CAD92057FF589ADE26A62
:1059B000608D616A80B2042809D15A6822F480623D
:1059C0005A601B690B70636A0133636223E7608D61
:1059D00080B203280CD15868042A20F480605860F3
:1059E000EFD0022AEDD01A6822F480621A60E8E74C
:1059F000608D80B20228E4D1042A33D007D8012A6E
:105A000007D0022A2ED0186840F4007004E0102A53
:105A1000F9D1186820F4806018601B690B70616A06
:105A20004B1C6362638D013B9BB2638523681B69DA
:105A30004B70636A216801336362638D013B9BB2E3
:105A400063854B6823F440734B60202384F83D301A
:105A500094F83E30402B4FF0000384F83E3005D1DF
:105A600023638EE7186840F48060D5E7082A90D059
:105A7000202A8DE7206C20B30025586987072FD591
:105A800096052DD5226C02B19D6994F83D2002F057
:105A90002802282A18D15A682F0622F480625A60F8
:105AA0004FF0000354BFE268A269C5F3800181F0A2
:105AB00001012046C9B284F83C3092B2FFF7D8FA0F
:105AC000FEE49D695869D9E700220C9259690C914E
:105AD0009B6984F83C200C930C9BF1E46C00002043
