:020000040800F2
:1000000000500020B93B0008D5380008D738000858
:10001000D9380008DB380008DD380008000000008F
:10002000000000000000000000000000DF380008B1
:10003000E138000800000000E3380008E538000857
:10004000013C0008013C0008013C0008013C00089C
:10005000013C0008013C0008013C0008013C00088C
:10006000013C0008013C0008013C0008E938000898
:10007000013C0008013C0008F5380008013900087F
:10008000013C0008013C00080D390008193900083E
:1000900025390008013C0008013C0008013C00082B
:1000A0002939000835390008393900083D39000878
:1000B000413900084D39000859390008013C000851
:1000C000013C00086539000871390008013C00084E
:1000D000013C00087D390008013C0008013C000893
:1000E000013C0008013C0008013C00080000000041
:1000F0000000000000000000000000000000000000
:0C01000000000000000000005FF808F1A3
:1001100010B5054C237833B9044B13B10448AFF341
:1001200000800123237010BD340200200000000075
:1001300040A2000808B5034B1BB103490348AFF3C5
:10014000008008BD000000003802002040A2000826
:10015000034613F8012B002AFBD1181A0138704707
:1001600070B54FF0FF0C4CF4E06C1CEA11541DBF4D
:100170001CEA135594EA0C0F95EA0C0F00F0DEF818
:100180002C4481EA030621EA4C5123EA4C5350EAFD
:10019000013518BF52EA033541F4801143F480134E
:1001A00038D0A0FB02CE4FF00005E1FB02E506F0DF
:1001B0000042E0FB03E54FF00006E1FB03569CF034
:1001C000000F18BF4EF0010EA4F1FF04B6F5007F3A
:1001D00064F5407404D25FEA4E0E6D4146EB0606AC
:1001E00042EAC62141EA55514FEAC52040EA5E5035
:1001F0004FEACE2EB4F1FD0C88BFBCF5E06F1ED8DF
:10020000BEF1004F08BF5FEA500E50F1000041EB15
:10021000045170BD06F0004646EA010140EA0200C2
:1002200081EA0301B4EB5C04C2BFD4EB0C0541EAE4
:10023000045170BD41F480114FF0000E013C00F3F9
:10024000AB8014F1360FDEBF002001F0004170BD1D
:10025000C4F10004203C35DA0C341BDC04F1140436
:10026000C4F1200500FA05F320FA04F001FA05F2C2
:1002700040EA020001F0004221F0004110EBD3708F
:1002800021FA04F642EB06015EEA430E08BF20EABB
:10029000D37070BDC4F10C04C4F1200500FA04F35E
:1002A00020FA05F001FA04F240EA020001F00041F0
:1002B00010EBD37041F100015EEA430E08BF20EA63
:1002C000D37070BDC4F1200500FA05F24EEA020EAB
:1002D00020FA04F301FA05F243EA020321FA04F0DA
:1002E00001F0004121FA04F220EA020000EBD37091
:1002F0005EEA430E08BF20EAD37070BD94F0000F91
:100300000FD101F00046400041EB010111F4801FC4
:1003100008BF013CF7D041EA060195F0000F18BF75
:10032000704703F00046520043EB030313F4801FB1
:1003300008BF013DF7D043EA0603704794EA0C0F6B
:100340000CEA135518BF95EA0C0F0CD050EA410681
:1003500018BF52EA4306D1D181EA030101F00041FE
:100360004FF0000070BD50EA410606BF1046194626
:1003700052EA430619D094EA0C0F02D150EA013632
:1003800013D195EA0C0F05D152EA03361CBF104673
:1003900019460AD181EA030101F0004141F0FE4112
:1003A00041F470014FF0000070BD41F0FE4141F496
:1003B000780170BD81F0004102E000BF83F000438E
:1003C00030B54FEA41044FEA430594EA050F08BFF0
:1003D00090EA020F1FBF54EA000C55EA020C7FEAB4
:1003E000645C7FEA655C00F0E2804FEA5454D4EB31
:1003F0005555B8BF6D420CDD2C4480EA020281EAFB
:10040000030382EA000083EA010180EA020281EA32
:100410000303362D88BF30BD11F0004F4FEA013184
:100420004FF4801C4CEA113102D0404261EB410193
:1004300013F0004F4FEA03334CEA133302D0524219
:1004400063EB430394EA050F00F0A780A4F10104D5
:10045000D5F1200E0DDB02FA0EFC22FA05F280180F
:1004600041F1000103FA0EF2801843FA05F35941F5
:100470000EE0A5F120050EF1200E012A03FA0EFC74
:1004800028BF4CF0020C43FA05F3C01851EBE3719E
:1004900001F0004507D54FF0000EDCF1000C7EEBBB
:1004A00000006EEB0101B1F5801F1BD3B1F5001FF9
:1004B0000CD349085FEA30004FEA3C0C04F1010418
:1004C0004FEA445212F5800F80F09A80BCF1004F41
:1004D00008BF5FEA500C50F1000041EB045141EAC3
:1004E000050130BD5FEA4C0C404141EB0101013C8C
:1004F00028BFB1F5801FE9D291F0000F04BF01467B
:100500000020B1FA81F308BF2033A3F10B03B3F14C
:1005100020020CDA0C3208DD02F1140CC2F10C02DC
:1005200001FA0CF021FA02F10CE002F11402D8BF3A
:10053000C2F1200C01FA02F120FA0CFCDCBF41EA06
:100540000C019040E41AA2BF01EB0451294330BDD5
:100550006FEA04041F3C1CDA0C340EDC04F11404B2
:10056000C4F1200220FA04F001FA02F340EA030089
:1005700021FA04F345EA030130BDC4F10C04C4F1CF
:10058000200220FA02F001FA04F340EA03002946AF
:1005900030BD21FA04F0294630BD94F0000F83F4F9
:1005A000801306BF81F480110134013D4EE77FEADC
:1005B000645C18BF7FEA655C29D094EA050F08BF28
:1005C00090EA020F05D054EA000C04BF1946104609
:1005D00030BD91EA030F1EBF0021002030BD5FEA4D
:1005E000545C05D14000494128BF41F0004130BD75
:1005F00014F580043CBF01F5801130BD01F00045C9
:1006000045F0FE4141F470014FF0000030BD7FEA3B
:10061000645C1ABF194610467FEA655C1CBF0B4636
:10062000024650EA013406BF52EA033591EA030F4D
:1006300041F4002130BD00BF90F0000F04BF002145
:10064000704730B54FF4806404F132044FF0000578
:100650004FF0000150E700BF90F0000F04BF0021F1
:10066000704730B54FF4806404F1320410F0004557
:1006700048BF40424FF000013EE700BF42004FEA52
:10068000E2014FEA31014FEA02701FBF12F07F43CF
:1006900093F07F4F81F06051704732F07F4208BF86
:1006A000704793F07F4F04BF41F40021704730B58D
:1006B0004FF4607401F0004521F000411CE700BFD9
:1006C00050EA010208BF704730B54FF000050AE05C
:1006D00050EA010208BF704730B511F0004502D55D
:1006E000404261EB41014FF4806404F132045FEA5F
:1006F000915C3FF4D8AE4FF003025FEADC0C18BF08
:1007000003325FEADC0C18BF033202EBDC02C2F1F9
:10071000200300FA03FC20FA02F001FA03FE40EA8B
:100720000E0021FA02F11444BDE600BF4FEA410277
:1007300012F5001215D211D56FF47873B3EB625233
:1007400012D94FEAC12343F0004343EA505311F05A
:10075000004F23FA02F018BF404270474FF00000EC
:10076000704750EA013005D111F0004008BF6FF02A
:10077000004070474FF00000704700BF80F000401D
:1007800002E000BF81F0004142001FBF5FEA410369
:1007900092EA030F7FEA226C7FEA236C6AD04FEA69
:1007A0001262D2EB1363C1BFD218414048404140AE
:1007B000B8BF5B42192B88BF704710F0004F40F460
:1007C000000020F07F4018BF404211F0004F41F47C
:1007D000000121F07F4118BF494292EA030F3FD048
:1007E000A2F1010241FA03FC10EB0C00C3F120035B
:1007F00001FA03F100F0004302D5494260EB4000EA
:10080000B0F5000F13D3B0F1807F06D340084FEA54
:10081000310102F10102FE2A51D2B1F1004F40EB49
:10082000C25008BF20F0010040EA030070474900B1
:1008300040EB0000013A28BFB0F5000FEDD2B0FA4E
:1008400080FCACF1080CB2EB0C0200FA0CF0AABF71
:1008500000EBC25052421843BCBFD040184370470F
:1008600092F0000F81F4000106BF80F40000013215
:10087000013BB5E74FEA41037FEA226C18BF7FEAEC
:10088000236C21D092EA030F04D092F0000F08BF2E
:100890000846704790EA010F1CBF0020704712F015
:1008A0007F4F04D1400028BF40F00040704712F154
:1008B00000723CBF00F50000704700F0004343F0B9
:1008C000FE4040F4000070477FEA226216BF0846EF
:1008D0007FEA23630146420206BF5FEA412390EAB2
:1008E000010F40F4800070474FF0000304E000BFA8
:1008F00010F0004348BF40425FEA000C08BF704759
:1009000043F0964301464FF000001CE050EA01021C
:1009100008BF70474FF000030AE000BF50EA010231
:1009200008BF704711F0004302D5404261EB41011E
:100930005FEA010C02BF84460146002043F0B64343
:1009400008BFA3F18053A3F50003BCFA8CF2083A68
:10095000A3EBC25310DB01FA02FC634400FA02FC71
:10096000C2F12002BCF1004F20FA02F243EB020078
:1009700008BF20F00100704702F1200201FA02FCDA
:10098000C2F1200250EA4C0021FA02F243EB0200CD
:1009900008BF20EADC7070474FF0FF0C1CEAD05211
:1009A0001EBF1CEAD15392EA0C0F93EA0C0F6FD0D2
:1009B0001A4480EA010C400218BF5FEA41211ED0B0
:1009C0004FF0006343EA501043EA5111A0FB01319C
:1009D0000CF00040B1F5000F3EBF490041EAD37171
:1009E0005B0040EA010062F17F02FD2A1DD8B3F1ED
:1009F000004F40EBC25008BF20F00100704790F05C
:100A0000000F0CF0004C08BF49024CEA502040EAAD
:100A100051207F3AC2BFD2F1FF0340EAC250704773
:100A200040F400004FF00003013A5DDC12F1190FB1
:100A3000DCBF00F000407047C2F10002410021FA23
:100A400002F1C2F1200200FA02FC5FEA310040F13B
:100A5000000053EA4C0308BF20EADC70704792F0B4
:100A6000000F00F0004C02BF400010F4000F013AEC
:100A7000F9D040EA0C0093F0000F01F0004C02BFE7
:100A8000490011F4000F013BF9D041EA0C018FE756
:100A90000CEAD15392EA0C0F18BF93EA0C0F0AD05C
:100AA00030F0004C18BF31F0004CD8D180EA010082
:100AB00000F00040704790F0000F17BF90F0004F1B
:100AC000084691F0000F91F0004F14D092EA0C0FFD
:100AD00001D142020FD193EA0C0F03D14B0218BF90
:100AE000084608D180EA010000F0004040F0FE40D6
:100AF00040F40000704740F0FE4040F44000704772
:100B00004FF0FF0C1CEAD0521EBF1CEAD15392EAF0
:100B10000C0F93EA0C0F69D0A2EB030280EA010CE0
:100B200049024FEA402037D04FF0805343EA111179
:100B300043EA10130CF000408B4238BF5B0042F1D7
:100B40007D024FF4000C8B4224BF5B1A40EA0C007C
:100B5000B3EB510F24BFA3EB510340EA5C00B3EBAE
:100B6000910F24BFA3EB910340EA9C00B3EBD10F9C
:100B700024BFA3EBD10340EADC001B0118BF5FEAEE
:100B80001C1CE0D1FD2A3FF650AF8B4240EBC25017
:100B900008BF20F0010070470CF0004C4CEA5020D8
:100BA0007F32C2BFD2F1FF0340EAC250704740F427
:100BB00000004FF00003013A37E792F0000F00F019
:100BC000004C02BF400010F4000F013AF9D040EA97
:100BD0000C0093F0000F01F0004C02BF490011F42B
:100BE000000F013BF9D041EA0C0195E70CEAD15323
:100BF00092EA0C0F08D142027FF47DAF93EA0C0F0A
:100C00007FF470AF084676E793EA0C0F04D14B02ED
:100C10003FF44CAF08466EE730F0004C18BF31F09F
:100C2000004CCAD130F000427FF45CAF31F0004399
:100C30007FF43CAF5FE700BF4FEA4002B2F1FE4FE6
:100C40000FD34FF09E03B3EB12620DD94FEA00238E
:100C500043F0004310F0004F23FA02F018BF404267
:100C600070474FF00000704712F1610F01D142024E
:100C700005D110F0004008BF6FF0004070474FF002
:100C80000000704700220A4930B50B88094D013831
:100C900010F8014F14B902B10B8030BD5A1C92B24A
:100CA000B2F5007FEC5414BF134600230122EFE796
:100CB000620200206A020020074A10B51188074C22
:100CC0004B1C9BB2B3F5007F138008BF0023605418
:100CD00008BF138010BD00BF620200206A0200201E
:100CE00038B500240D460E4B01461C700D4B3F22BB
:100CF0000D481C7008F0E4FD0B4B1F2229460B48E1
:100D000083F83F4008F0DCFD3222084BDC77084BCB
:100D10001A601022074B1A70074B1C7038BD00BFB9
:100D2000D0050020EE0400207B0500205B0500209C
:100D3000CC050020D105002060020020014B18786E
:100D4000704700BFED040020194B70B55B68064684
:100D50000D4614463BB347F2305316491648002A55
:100D600008BF1C4608F002FE0F223146134808F067
:100D7000A7FD0023114A1249D37328460A2208F01E
:100D80001DFD0A2220460F4908F018FD0E4B1B7866
:100D900063B10E4B187810F0020003D00C2206202D
:100DA0000B4B1A7070BD4FF0FF30FBE70120F9E7E5
:100DB0005402002058A20008050000204B05002026
:100DC000450500202F0500207B050020D0050020D0
:100DD000D1050020064B5B683BB1064B1B7813F036
:100DE000400F0CBF0520072070474FF0FF307047C1
:100DF00054020020D0050020064A10B51188064C88
:100E00004B1C9BB2802B138008BF0023605408BF8B
:100E1000138010BD680200206A0400202DE9FF47FE
:100E20001F463D4B04465B6888461546BDF830902A
:100E3000002B6CD0394EDFF8E8A033789AF8001018
:100E400003F040020A4365D01B0758D40A2201A9C7
:100E5000384608F0B3FC01A8FFF77AF9421ED2B277
:100E6000032A4AD82F48FFF70DFF9AF8003053B1F4
:100E70000A226946204608F0A1FC6846FFF702FFF7
:100E80002C20FFF719FF01A8FFF7FCFE2648FFF70B
:100E9000F9FE002211462548DFF894C0038894B279
:100EA000A74216D801B103803378224C23F00C03FB
:100EB00043F00C03337023683BB11F489847236805
:100EC00001A8984723681D489847092004B0BDE849
:100ED000F0875C1CA4B2B4F5007F08BF0024691C35
:100EE00018F8055089B20CF803500132494514BF77
:100EF0000D46002523460121D1E70B20E6E70D4BE7
:100F00001B680BB90820E1E70D489847FAE74FF056
:100F1000FF30DBE70520D9E754020020D005002090
:100F2000EE040020DFA700085CA200086202002097
:100F30006A020020BC0500205FA20008FFA3000891
:100F400072A2000802460F4B0068516803C3906804
:100F50000D4A1860002313700C4A13700C4A13805A
:100F60000C4A13800C4A13800C4A13800C4A1370ED
:100F70000C4A13700C4A13700C4A13600C4A13602D
:100F8000704700BF54020020D1050020EC0400206F
:100F90006402002062020020660200206802002035
:100FA000D0050020EE040020ED040020C005002044
:100FB000BC050020094A13680BB1013B1360084AC5
:100FC000136823B1013B13600BB9064A1370064A3C
:100FD00013680BB1013B1360704700BFCC050020C4
:100FE000C8050020EC040020C40500202DE9F84FBE
:100FF000A34AA44EB2F800B0338800255B4506D062
:10100000A14F3A78103A022A23D8A6F800B09F4E92
:101010009F4D3368002B40F0508264239A4C33601C
:101020002378122B00F24982DFE813F0CB0374021D
:10103000B602BC02C602D502060310031A0350030F
:101040005803690377038603C303C8033C025F02A6
:101050006E0202228F49904C0A609B45D7D08F4A7E
:10106000D05C22780D2A00F21882DFE812F00E0020
:101070005700C500160216028D01A201AA01B70190
:101080001602D201EF010102E0010023042198467B
:10109000DFF80CC2834ADFF810928CF80030117030
:1010A0005FFA83FE59F82E10E1B9B8F1000F01D0B4
:1010B0008CF800E00022774B75491A600B7813F02A
:1010C000010F06D03E2804D162F300030B70774B6A
:1010D0001A60338801339BB2802B338004BF002316
:1010E0003380BAE791F804A00133824513D1B8F1F7
:1010F000000F01D08CF800E00B784978303B313993
:1011000003EB830301EB430369490B800123237045
:1011100005231370DDE74FF00108C1E7DFF880C158
:1011200061499CF8002051F822205E49097812F8A4
:1011300001E0864514D1DFF878C1BCF80030013BEE
:101140009BB2ACF800300BB10D284DD19378D2781A
:10115000303B03EB8303303A02EB43032370B8E7E1
:1011600000229146C1F57F4A8CF800200AF1D30A8B
:10117000DFF834C15FFA82F85CF828C0BCF1000FD8
:101180000CD1B9F1000F04D0494A1580444A82F8C5
:1011900000800022013B227033809AE79CF800E037
:1011A0009CF80150AEF1300E0EEB8E0E554405EB5F
:1011B0004E05ADB27F2D1BD81CF801E0864517D136
:1011C0003B4B1D80B9F1000F02D0354B83F80080F6
:1011D00055B99CF802309CF80320303B03EB8303A5
:1011E000303A02EB430323702E4B0131197070E744
:1011F0004FF001090132BBE70A287FF46AAF0022F1
:10120000274B22701B78023B0D2B3FF662AF01A1EA
:1012100051F823F04D12000865120008BD120008B5
:10122000D3100008E9120008E9120008271300088B
:10123000311300084913000827130008D3100008D1
:1012400073130008D31000087D1300083B78022BAD
:101250007FF43FAF00220D4B1A600D4A137843F024
:10126000200356E70A4A137819077FF532AF23F0B7
:10127000480313700F4B1A880F4B1A8029E700BFE1
:101280006802002066020020D1050020CC05002065
:10129000D0050020C8050020EC0400206A040020CE
:1012A000510200205002002060A60008C405002062
:1012B000EA04002062020020640200209A4B1A60B7
:1012C0003B78092B994B02BF1A7842F020021A7022
:1012D0001A7842F002021A70954B1B68002B3FF4FB
:1012E000F8AE03209847F4E6DFF8408298F8003023
:1012F00023F0400388F800308D4B1B680BB10020B1
:1013000098478C4B1A78002A7FF4E3AE98F80030A7
:1013100062F3410388F800303B78092B3FF4D9AEE3
:1013200012233B70D5E6814A137823F04003F0E6A0
:101330007E4A137823F0080313707D4B1B68002B43
:101340003FF4C7AE0A20CDE77A4B1B78002B7FF421
:10135000C0AE754A1360754A137823F0600343F0FA
:1013600060031370724B1B68002B3FF4B2AE072072
:10137000B8E76E4A137823F04203CAE66B4A137843
:1013800023F042031370CBE76B4A2C28126807D175
:1013900006232370002A3FF49CAE6848904798E6E5
:1013A0000021013B21703380002A3FF492AE644853
:1013B000F4E722287FF48DAE072323700022614BCF
:1013C0005BE7222803D05F4A1388102B01D1082342
:1013D000C4E6591C11805C4AD0547AE60A287FF48E
:1013E00078AE0023574A23701188574A0F299BBFB4
:1013F00053544E4913700A789FBF42F020020A707E
:10140000494A13604A4B1B68002B3FF462AE04202C
:1014100068E72C287FF4BDAE464B1B782BB10D231B
:1014200000222370494B1A7053E60B23C5E72C2882
:10143000FBD0A0F13002092A3FF6ABAE434A137845
:1014400003EB830300EB4303303B62E63A2801D110
:101450000C2383E6A0F13002092A3FF69AAE394AFE
:10146000138803EB830300EB4303303B138030E628
:10147000374B9B6803B19847324A1388013B9BB2B4
:101480001380002B7FF425AE23702B4B1B68002BA1
:101490003FF41FAE2F4898471BE600232E4A2370C7
:1014A000136016E62A4B00201B689847224B1B68E6
:1014B0000BB12A489847112323702B78DA0740F1A3
:1014C000CD81274A126872B923F00903254A2B708F
:1014D000184B11881B78244A118023B90122234B11
:1014E0001A700A233360BDE8F88F194B01201B687E
:1014F0009847114B1B680BB11D4898471223237066
:101500004FF4FA733360D8E7012300222370194B9C
:101510001A70D2E7174A137873B3013BDBB213702A
:1015200063BB1023C8E700BFCC050020D005002016
:10153000C0050020EE040020BC0500208AA200089F
:101540009FA20008EA04002035050020ED040020D9
:1015500054020020B3A20008C8050020C6A200085B
:10156000C40500206202002064020020D105002092
:10157000DCA2000860020020042313702B78954839
:1015800023F020032B70FFF77DFB934B1B680BB1FF
:101590009248984702238FE72B78980640F1BB804A
:1015A000032389E78E48FFF76DFB8B4B1B680BB15C
:1015B0008C48984704237FE78B48FFF763FB864BF3
:1015C0001B680BB189489847894B1B78002B0CBFCF
:1015D0000923052370E78748FFF754FB2220FFF714
:1015E0006BFB8548FFF74EFB2220FFF765FB2C20A5
:1015F000FFF762FB2220FFF75FFB8048FFF742FB0B
:101600002220FFF759FB2C20FFF756FB7C48FFF701
:1016100039FB2C20FFF750FB7A48FFF733FB0D20F6
:10162000FFF74AFB0A20FFF747FB6B4B1B680BB128
:101630007548984706233FE77448FFF723FB664B3E
:101640001B680BB172489847072335E77148FFF7CD
:1016500019FB614B1B680BB16F4898470F232BE7B1
:101660002B78990701D50A2326E76C4F3B78002B8E
:101670003FF423AF6A48FFF705FB2220FFF71CFB6E
:101680003846FFF7FFFA2220FFF716FB2C20FFF762
:1016900013FB2220FFF710FB6248FFF7F3FA22202A
:1016A000FFF70AFB0D20FFF707FB0A20FFF704FBFB
:1016B000494B1B680BB15C4898472B7823F02003FB
:1016C0002B700923237040F2DC531BE72B789A061A
:1016D00021D50A2304222370544B19E70022544BCE
:1016E00054481A70FFF7CEFA3B4B1B680BB15248B7
:1016F00098472B7823F020032B700B23DCE62B7804
:101700009B0601D50C23D7E6484A1378013BDBB290
:101710001370002BA7D10123CEE6484B1B78002B7A
:101720003FF4CBAE4648FFF7ADFA2B4B1B680BB12D
:10173000444898470D23BFE64348FFF7A3FA222009
:10174000FFF7BAFA4148FFF79DFA2220FFF7B4FAF3
:101750002C20FFF7B1FA2220FFF7AEFA3748FFF747
:1017600091FA2220FFF7A8FA2C20FFF7A5FA3848B3
:10177000FFF788FA2C20FFF79FFA3648FFF782FA26
:101780002C20FFF799FA3020FFF796FA0D20FFF78B
:1017900093FA0A20FFF790FA0F4B1B680BB12E4803
:1017A00098472B7823F060032B700E232370C823F7
:1017B000A8E62B789F063FF551AFACE70C4B1B78A2
:1017C0000BB100239EE62B789807A4D5590699D52E
:1017D000F7E700BF37A80008BC050020F2A2000808
:1017E0001BA8000800A3000829A8000814A30008EB
:1017F000EE040020D1A700080F050020EF04002010
:10180000020000200000002028A30008BDA7000857
:101810003BA30008A9A700084FA300087B050020F0
:1018200011A800085B05002066A3000860020020E4
:101830003505002006A8000879A300084B05002004
:10184000EBA700088AA30008F9A7000805000020FC
:10185000450500202F050020A0A30008154C1649BF
:101860002288098891423FF43EAE144E5F07B05C77
:1018700002D53E2808BF0A20114B5B689847002814
:101880003FF431AE2A78238851070AD5F15C3E290E
:1018900007D1052122F0050242F001022A70094A0F
:1018A000116001339BB2B3F5007F08BF0023238092
:1018B00019E600BF64020020620200206A020020D4
:1018C00054020020C4050020014B1860704700BF7F
:1018D000C0050020014B1860704700BFBC05002008
:1018E0000022F0B5084BD4B2A14202F1010200D8A7
:1018F000F0BD5D791E686F1C5F71045D74555C7985
:10190000DD792C405C71EEE71C0C0020032802BF3F
:101910000122014B1A707047EC050020021E18BF0F
:1019200001224FF40071014802F008BF000C014091
:101930001FB514461A464FF0FF330091CDE901431D
:1019400001460123024803F07FF904B010BD00BF37
:10195000480E0020FFF7ECBF13B514461A46CDE938
:10196000001401230146024803F0FEF902B010BD45
:10197000480E002013B514461A46CDE90014012381
:101980000146024803F0B6FA02B010BD480E00202E
:1019900007B501228DF807000DF10701034806F095
:1019A000A4F8B0FA80F0400903B000BD580C002044
:1019B00010B50446FEF7CCFB81B22046BDE81040CE
:1019C00007F042BD10B5164B1B78F3B115490C78E2
:1019D000FF2C15D07E2C144B13D818550020621CF8
:1019E000D2B2012A0A7098540AD0134413F8022C78
:1019F0000D2A05D113F8013C0A2B01D1FF230B70EE
:101A000010BD00220A701A70FAE7084B5A7919685B
:101A1000541C5C7188545A79D9790A405A71EFE79D
:101A2000410700204207002043070020040C00204B
:101A3000054B064A03F1100153F8040B8B4242F8A0
:101A4000040BF9D1704700BF440C0020340C002077
:101A50000122014B1A707047FD0700200122014B43
:101A60001A707047FC07002038B502681A4B04460C
:101A70009A4212D1194A1A4913781A480133DBB233
:101A8000282B01BF00231370174A137808BF43F0B7
:101A900080031370082202F077FA2368B3F1804FB5
:101AA00018D10122114912480B78124CE254134408
:101AB000027803F00F03013A12F0FF0208BF052578
:101AC0000B7003BFE254013303F00F03027004BF35
:101AD00005700B7038BD00BF002C0140540C002075
:101AE000440C0020E00E0020FE070020DF0700204D
:101AF00028000020E007002070B5026883790C46BA
:101B0000D15C0546A1F1F003062B00F24681DFE827
:101B100013F00700110020006C00BB00EA00260152
:101B2000F0210222204601F04EFF0D21204601F057
:101B300092FF08E0F1210D22204601F044FF2046EB
:101B4000994901F09BFF2046217ABDE8704001F0E1
:101B500082BF0D22F221204601F035FF934B944DB8
:101B6000B3F9001020462980C9B201F074FF6978EA
:101B7000204601F070FF8F4B2046B3F900102980FA
:101B8000C9B201F068FF6978204601F064FF8A4B12
:101B90002046B3F900102980C9B201F05CFF6978D2
:101BA000204601F058FF854B2046B3F900102980EC
:101BB000C9B201F050FF6978204601F04CFF804B1C
:101BC0002046B3F900102980C9B201F044FF6978BA
:101BD000204601F040FF7B4BB3F9001029802046DE
:101BE000C9B201F038FF6978A0E7774E1122F321DE
:101BF000204601F0E8FE6E4D318820462980C9B2AA
:101C000001F029FF6978204601F025FF7188204600
:101C10002980C9B201F01FFF6978204601F01BFF3F
:101C2000B18820462980C9B201F015FF69782046A5
:101C300001F011FFF18820462980C9B201F00BFFA5
:101C40006978204601F007FF318920462980C9B212
:101C500001F001FF6978204601F0FDFE7189204600
:101C60002980C9B201F0F7FE6978204601F0F3FE41
:101C7000B18920462980C9B201F0EDFE697820467D
:101C800001F0E9FEF189A9E70222F421204601F0E2
:101C90009AFE0D21204601F0DEFE217A204601F059
:101CA000DAFE00220121284601F00DFF404C474B8F
:101CB0000022187001212070284601F004FF444BD7
:101CC0000022187001212070284601F0FCFE414BD3
:101CD0002070187000220121284601F0F4FE3E4BCE
:101CE000207018703AE00222F521204601F06BFEC8
:101CF0000D21204601F0AFFE217A204601F0ABFE17
:101D000000220121284601F0DEFE294C002201219B
:101D10002070284601F0D7FE6070304B22880121E8
:101D20001A802846002201F0CEFE002201212070F8
:101D3000284601F0C8FE6070294B228801211A80D4
:101D40002846002201F0BFFE002220700121284613
:101D500001F0B9FE60702288224B1A8070BD022209
:101D6000F621204601F02FFE0D21204601F073FEE2
:101D7000217A204601F06FFE00220121284601F061
:101D8000A2FE0B4C184B207018700022012128462F
:101D900001F099FE154B2070A3E70222204601F0C6
:101DA00012FEFF21C2E600BF1CBD0008FA0700209A
:101DB00000080020F8070020F6070020F4070020A4
:101DC000F2070020F0070020340C0020DE0700207E
:101DD000DD070020DC070020DB07002014000020C6
:101DE000EA050020E8050020130000201200002072
:101DF000F0B516464379027905469A420C46C3B0BF
:101E000017D001F06DFEA0B121462846FFF774FE01
:101E10000022617A02A8D3B299420CD8C6B1FEF76B
:101E20008DFF4FF4807300930022637A02A9FEF7BE
:101E3000F5FF43B0F0BDA77925687B1CDBB2A37129
:101E4000ED5D013200F8015BE5792B40A371E2E71B
:101E500002A807F0F9FAECE710B50C4B0C4C1A7815
:101E60000C4B0D4853F822100122237802FA03F399
:101E70008B4308BF1A464FF4005102F05FFC2378F1
:101E8000013303F01F03237010BD00BFDA070020E9
:101E9000D50500202C00002000100140F0B50024E2
:101EA00085B0012001F05CF92146402320221E204C
:101EB000009401F093FA2046162380221421009406
:101EC00001F08CFA4023522221465020009401F068
:101ED00085FA7F4D2146282001F034FA7D4902A879
:101EE00007F044FD95E80E00009402A801F014FAF2
:101EF0002146552001F026FA774902A807F036FD61
:101F000095E80E00009402A801F006FA1921282095
:101F100001F018FA0821714B714D0DEB0100B3F976
:101F20000030704A07F08EFC95E80E00009402A87D
:101F300001F0F2F91921552001F004FA08216A4B49
:101F40000DEB0100B3F90030664A07F07BFC95E821
:101F50000E00009402A801F0DFF92521282001F0ED
:101F6000F1F90821614B0DEB0100B3F900305D4A36
:101F700007F068FC95E80E00009402A801F0CCF987
:101F80002521552001F0DEF90821594B0DEB010008
:101F9000B3F90030534A07F055FC95E80E00009461
:101FA00002A801F0B9F93121282001F0CBF908216C
:101FB000504B0DEB0100B3F900304A4A07F042FCE8
:101FC00095E80E00009402A801F0A6F931215520F1
:101FD00001F0B8F908211E26474B0DEB0100B3F9BB
:101FE0000030404A07F02EFC95E80E0040F6FA75E6
:101FF000424F009402A801F08FF93B8803227343FB
:10200000B3FBF5F3C3F13C0310463C210094DBB273
:1020100001F09EF97B8806227343B3FBF5F3C3F10D
:102020003C0310463C210094DBB201F091F9BB88DF
:1020300009227343B3FBF5F3C3F13C0310463C2183
:102040000094DBB201F084F9FB880C227343B3FBEC
:10205000F5F3C3F13C0310463C210094DBB201F0E0
:1020600077F93B890F227343B3FBF5F3C3F13C03CC
:1020700010463C210094DBB201F06AF97B89122200
:102080007343B3FBF5F3C3F13C0310463C210094CA
:10209000DBB201F05DF9BB8915227343B3FBF5F3A5
:1020A000C3F13C0310463C210094DBB201F050F92F
:1020B000FB8918227343B3FBF5F3C3F13C033C21C6
:1020C00010460094DBB201F043F905B0F0BD00BF4B
:1020D0003CA80008B6A30008BAA30008FA0700202D
:1020E00048A80008BEA30008F4070020F807002055
:1020F000F2070020F6070020F0070020340C002033
:1021000013B5264C2378032B45D8DFE803F00215DE
:102110001A27234A234B11781B788B4208D0224878
:102120004B1C415C03F00F0321B10321217013709C
:1021300002B010BD0121F9E7FFF7B0FE02232370C2
:10214000F6E71A4803F0CAFE2028F1D101F02EF874
:102150000028EDD00023164A1370F0E7134803F06F
:10216000BDFE2028E4D100F09FFE0028E0D0114BF6
:10217000114A0193114B124900931248124B00F07F
:1021800077FF0022114B12491A700B78227043F02E
:1021900008030B70CCE70023D1E700BFD405002073
:1021A000D3050020DF070020E0070020480E0020B4
:1021B000FD070020F0070020F6070020F2070020AE
:1021C000F8070020FA070020F4070020FC07002091
:1021D000FE07002030B540F6C41564240D4B187876
:1021E0000D4B684319780D4B69431A780C4B6A43C1
:1021F0001B78B0FBF4F06B43B1FBF4F1B2FBF4F2EB
:10220000B3FBF4F3074C24686063E163A2632364C7
:1022100030BD00BFDE070020DC070020DD07002006
:10222000DB070020E80C002013B50B4B044600939D
:102230004FF4AA71094B0A4A0A4807F003FB4FF40E
:10224000AA730022009320464FF4A2730549FEF7BB
:10225000E5FD02B010BD00BF06A40008C1A3000840
:1022600001A40008ED05002013B50A4B04460093B5
:102270004FF4AA71084B094A094807F0E3FA4FF4F2
:10228000AA73002200932046B3230549FEF7C6FD3A
:1022900002B010BD0CA50008C1A3000801A40008ED
:1022A000ED0500202DE9F84300241F460C70147042
:1022B0001C7047F23A53089D89462B8032490646E6
:1022C000904607F010FB58B1043010F8013FE2B21D
:1022D00013F0DF0F01D0262B36D1002309F802308E
:1022E00030462A4907F0FFFA60B10023043010F8A5
:1022F000012FD9B212F0DF0F01D0262A2ED10023F0
:1023000008F801303046224907F0EDFA58B10023B1
:10231000C21C12F8011FD8B211F0DF0F01D026291C
:1023200026D100233B5430461A4907F0DCFA48B165
:102330000023053010F8012F303AD1B209291DD9F8
:1023400003B12B80BDE8F8832B2B08BF202309F8AD
:10235000043001343F2CB8D12246BEE72B2A08BFF7
:10236000202208F8032001333F2BC0D11946C6E7CD
:10237000F95401330F2BCCD11846D2E703EB83037A
:1023800002EB430293B2D5E781A5000887A50008B8
:102390008DA5000892A500082DE9F043344BA9B0A3
:1023A0001E785EB100221A7047F23152314B32482A
:1023B000198829B0BDE8F043FEF7C6BCDFF8BC9031
:1023C00099F80030002B42D02D4F3B78FF2B3ED1A7
:1023D000FEF7B4FC2B4C80462B49204607F083FACD
:1023E0000546002836D04022314608A807F060FA9A
:1023F0004022314618A807F05BFA102231460DEB57
:10240000020007F055FA0DF10E030093204604ABCD
:1024100018AA08A9FFF746FF9DF8103033B1164BF4
:102420000F22184604A907F04BFAC673BDF80E3008
:102430000BB1104A13804046FFF716FF002318A97E
:1024400008A889F800303B702370FEF749FC29B0DA
:10245000BDE8F08320460D4907F045FA28B1404613
:10246000FFF7E2FE3D702570F1E738702070EEE76F
:10247000EC05002016000020180000204107002075
:10248000420700204307002099A50008A3A50008E3
:1024900002780346032A1CD8DFE802F00F02140773
:1024A000427842B903221A7005E0417801220029DE
:1024B000F9D101708270002070474278012AFAD168
:1024C0000222F0E7407800220128ECD118709A70BF
:1024D00070470122E7E7000008B5837813B18388CD
:1024E0000A339BB20A4A83801378042B0DD9002348
:1024F0004FF400410748137002F01AF9064B08B96F
:10250000587008BD01225A70FBE701331370F8E7D9
:10251000D2050020000C0140C407002073B5214CF7
:102520002378DB0929D023781F4D23F08003237003
:102530002B781E4E013B2B703378013B3370FEF736
:1025400039FD1B48FFF7C8FF33782BB902233370DE
:10255000237843F0400323702E7876B90A232B703A
:10256000237843F020032370FFF776FC114A137899
:102570000133DBB2092B02D8137002B070BD0E4BD1
:1025800016701C78002CF8D1FEF724FC0728F4D133
:102590004FF4807322460093204609230749FEF733
:1025A0003DFCEAE7FE0700202A0000202900002069
:1025B000C4070020D907002041070020090000209F
:1025C00083784BB98288642A06D9B2F57A7F04D21F
:1025D0000121044A117083807047FDD0014A1370B5
:1025E000F9E700BFDA0700203F4A70B513781B07F0
:1025F00079D5137823F0080313703C4BB3F900200E
:102600003AB141F262613A4BB3F900304B4393FB6C
:10261000F2F2384B3849B3F90030384E4B43384961
:1026200093FBF1F3374908680344312000FB032290
:10263000322392FBF3F2344B34481C680368A41A2B
:102640000A60334923448B42B8BF0B4641F28831BC
:102650008B42A8BF0B4631683460651A2D49036070
:10266000B1F900602C49B1F90010614303FB061178
:102670002A4BB3F9003005FB03116423632991FB56
:10268000F3F31ADD264909780B44264909788B4271
:10269000A8BF0B4642F2283102F58C5214328A420E
:1026A000214D224C2249234A15D9002303600020E2
:1026B0005B4228702070DBB213E0633109DA1849FD
:1026C00009785B1A1749097849428B42B8BF0B4613
:1026D000E0E70023DEE7002BE9DDDBB22B7023709F
:1026E00000230B70137070BDFE070020F60700205A
:1026F000FA070020F207002030F8FFFFDC05002079
:10270000B8FF0100D8050020E4050020E005002006
:1027100078ECFFFFEA05002014000020E805002007
:102720001200002013000020DD070020DB0700203E
:10273000DE070020DC07002010B594B01422002131
:102740000CA807F0B5F8142200210DEB020007F0E9
:10275000AFF81022002101A807F0AAF802244FF4D4
:1027600080330122CDE91143CDE90A234FF4E01370
:102770000AA80E92139304F02DFA08B172B6FEE780
:102780000F23CDE905344FF480630790CDE908307D
:10279000214605A804F0E0FB08B172B6FEE712235B
:1027A00001934FF40043CDE9033001A804F090FCFD
:1027B00008B172B6FEE714B010BD000080B5A74D99
:1027C00098B001F043FAFFF7B7FF1022002111A8DB
:1027D00007F06EF8AB69002243F01003AB61AB6900
:1027E0004FF4005103F010030293029BAB699C4825
:1027F00043F02003AB61AB69002403F02003039393
:10280000039BAB69012743F00403AB61AB6902266C
:1028100003F004030493049BAB6943F00803AB612A
:10282000AB6903F008030593059B01F087FF0022C5
:102830004FF400718B4801F081FF4FF4005388483A
:1028400011A9CDE91137CDE9134601F09DFE4FF4F2
:102850000043844811A9CDE91134139401F094FE8A
:102860004FF400737F4811A9CDE91137CDE9134624
:1028700001F08AFE6B6922463B436B616B6921461E
:102880003B400B200193019B01F0C2FC0B2001F0A7
:10289000EFFC224621460E2001F0BAFC0E2001F08A
:1028A000E7FC224621460F2001F0B2FC0F2001F088
:1028B000DFFC6D4A6D4BCDE9114413604FF480731A
:1028C0001394936014734FF46023147554600824B8
:1028D0001046D361146101F009FC08B172B6FEE73D
:1028E000CDE91107139011A95F4801F093FA08B1DF
:1028F00072B6FEE75C4811A9CDE9117601F08AFABB
:1029000008B172B6FEE70325574811A91196129532
:1029100001F080FA08B172B6FEE71195042552481D
:1029200011A9129501F076FA08B172B6FEE7119579
:1029300005254D4811A9129501F06CFA08B172B63F
:10294000FEE711950625484811A9129501F062FA93
:1029500008B172B6FEE711950725434811A91295F3
:1029600001F058FA08B172B6FEE73F4811A9CDE967
:10297000115401F04FFA044608B172B6FEE70CAEEE
:1029800001461022304606F093FF1422214611A87A
:1029900006F08EFF47233648DFF8D8C008AFC0E9FD
:1029A00000C3F92308947C60C0E90334C0E90544FE
:1029B000846004F071FD08B172B6FEE74FF48058F0
:1029C00031462B48CDF8308004F04CFE08B172B689
:1029D000FEE7CDE9110011A9254804F03AFF08B13E
:1029E00072B6FEE7CDE908003946214804F0B6FF8B
:1029F000054608B172B6FEE701461022304606F0E1
:102A000057FF1422294611A806F052FF4FF047093C
:102A10004FF08043184C0895C4E9003944F61F6311
:102A200020467D60C4E90335A560A56104F034FD4E
:102A300008B172B6FEE731462046CDF8308004F08A
:102A400011FE08B172B6FEE7CDE9110011A92046CA
:102A500004F0FFFE90B172B6FEE700BF0010024026
:102A600000100140000C0140E00E00200024014055
:102A7000780D0020002C0140300D0020CDE9080029
:102A80003946204604F06AFF044608B172B6FEE7F4
:102A900001461022384606F00BFF1422214630462C
:102AA00006F006FF1C22214611A8A14D06940794AA
:102AB00006F0FEFE9F4B2846C5E9003942F20F732F
:102AC0000DF1180AC5E90334AC60AC6104F0E4FC14
:102AD00008B172B6FEE739462846CDF8208004F0EA
:102AE000C1FD08B172B6FEE7284604F001FD08B149
:102AF00072B6FEE7002331468D48CDE90C3304F071
:102B0000A8FE08B172B6FEE7CDE906005146884836
:102B100004F024FF024608B172B6FEE7602313906A
:102B2000CDE91130159011A9814804F039FD08B1A3
:102B300072B6FEE704227E4811A904F031FD08B107
:102B400072B6FEE708227A4811A904F029FD08B1FF
:102B500072B6FEE70C22764811A904F021FD044666
:102B600008B172B6FEE7724800F03EFE4FF4E13362
:102B70007148724DC0E90244C0E900530C2304615E
:102B8000C0E90534C46104F081FF044608B172B69F
:102B9000FEE706F0E5FB6A486A496B4BC0E9024470
:102BA000C0E900134FF48043C0E90644C0E904348F
:102BB000046201F0A1FF044608B172B6FEE71022DC
:102BC000014611A806F074FE4723604D604A0C943C
:102BD000C5E9002342F20F7328467460C5E9033447
:102BE000AC60AC6104F058FC08B172B6FEE74FF47B
:102BF0008053284611A9119304F034FD08B172B630
:102C0000FEE7002331465148CDE90C3304F0A6FE1F
:102C1000044608B172B6FEE74E4806F02BFC4E485B
:102C200004F044FB4D4804F041FB414804F03EFBF6
:102C300021463F4804F090FE04213D4804F08CFEFC
:102C400008213B4804F088FE0C21394804F084FE3A
:102C50004FF400510122424801F070FD414800F05C
:102C600079FA414800F070FA404800F067FA00F045
:102C7000F5FB3F4800F0CCF83E4800F0CFF83E4866
:102C800000F0D2F800F0EEF83C4A3D4B10461360DD
:102C90003C4B53603C4B9360FEF754F93B48FEF7C6
:102CA00019FE3B48FEF710FE01223A49224805F082
:102CB000FEF8394B39493A481C70FEF711F8394B88
:102CC000394A3A493A4800F06AFF3A4B3A4A3B4996
:102CD0003B4800F064FF40F201223A4B1C703A4B33
:102CE0001C703A4B1C703A4B1C703A4B1C703A4BA0
:102CF0001A809C709C80FFF711FCFEF777F9FFF7B4
:102D00004BFB002229492A48FFF772F801222B4980
:102D10002B48FFF76DF8FFF75DFAFFF7F1F9FFF7C2
:102D200063FC2D48FFF74CFCFFF7B2FBE3E700BF65
:102D3000E80C002000040040580C0020003801403E
:102D4000480E002000580040801A0600A00C002009
:102D500000080040E1180008780D0020300D002028
:102D600000100140FD070020311900085919000822
:102D7000FC0700205519000875190008CC07002031
:102D80001D19000891190008C5190008B11900089B
:102D90000D190008D807002041070020A9A5000848
:102DA000BCA50008040B0020040A0020280C002009
:102DB0001C0C00200409002004080020100C002036
:102DC000040C0020FE070020DE070020DC070020A6
:102DD000DD070020DB070020C40700200268084B45
:102DE00010B59A420AD1074C2078FEF705F8214623
:102DF000BDE810400122044805F059B810BD00BFDD
:102E000000380140D8070020580C002072B6FEE7B9
:102E1000014B1860704700BF340F0020014B186051
:102E2000704700BF300F0020014B1860704700BF93
:102E30002C0F0020044A10B414680B46A446014627
:102E40000122D02010BC6047300F00201346044AF6
:102E500010B41468CAB2A446014610BCD020604722
:102E60002C0F002013B500240DF107006B218DF805
:102E70000740FFF7DFFF04230DF107001A218DF84B
:102E80000730FFF7D7FF0DF107001C218DF8074031
:102E9000FFF7D0FF1B210DF10700FFF7CBFF02B0BA
:102EA00010BD0000000000002DE9F041644B654AB0
:102EB0001868117803782BB9012900F09E80002052
:102EC000BDE8F08100230129037000F096800229FB
:102ED000F5D1012111705C4A10885788C0BA9688D4
:102EE00015895489B2F80C8000F5E172B2F5617F62
:102EF000FFBAF6BAEDBAE4BA98FAB8F813D9FDF702
:102F0000F7FC4FF06251FDF747FDFDF7B7FB4AA311
:102F1000D3E90023FDF724F94C4B0022FDF720F9FB
:102F2000FDF704FC03B24A4A138007F5E173B3F5D9
:102F3000617F6AD93846FDF7DBFC4FF06251FDF73F
:102F40002BFDFDF79BFB3CA3D3E90023FDF708F91C
:102F500000223E4BFDF704F9FDF7E8FB00B23D4BC4
:102F6000188006F5E173B3F5617F50D93046FDF75F
:102F7000BFFC4FF06251FDF70FFDFDF77FFB2EA365
:102F8000D3E90023FDF7ECF80022304BFDF7E8F819
:102F9000FDF7CCFB00B2304B188005F5E173B3F5BB
:102FA000617F36D92846FDF7A3FC2C49FDF7A8FD23
:102FB0002B49FDF7F1FCFDF73FFE00B2294B1880CD
:102FC00004F5AF73B3F52F7F25D92046FDF790FCAC
:102FD0002249FDF795FD2249FDF7DEFCFDF72CFEA9
:102FE00000B2214B214C188008F5AF73B3F52F7F49
:102FF00013D800232380012062E702230E211370DF
:1030000011483B22FFF722FF59E70020A7E70020E5
:10301000C1E70020D2E70020E3E74046FDF768FC67
:103020000E49FDF76DFD0E49FDF7B6FCFDF704FEF8
:103030002080E0E7AFF300801F85EB51B89E23406E
:10304000340F00205C000020100F002000005940C9
:10305000280F0020260F0020240F0020000003432B
:103060000000C842220F0020200F00201E0F002069
:1030700070B5DDE9045418B10E4EB6F90060068053
:1030800019B10D48B0F9000008801AB10B49B1F927
:10309000001011801BB10A4AB2F900201A801DB13C
:1030A000084BB3F900302B801CB1074BB3F900304B
:1030B000238070BD280F0020260F0020240F002041
:1030C000220F0020200F00201E0F002013B5064BFA
:1030D0008DF807001C680122002378200DF10701FC
:1030E000A04702B010BD00BF4413002013B5064B2B
:1030F0008DF807001C680122002378200DF10701DC
:10310000A04702B010BD00BF40130020044B10B414
:103110001C68CAB2A44601464023782010BC604710
:1031200044130020044B10B41C68CAB2A4460146E4
:103130004023782010BC604740130020014B1860EA
:10314000704700BF40130020014B1860704700BF5C
:1031500044130020014B1860704700BF4813002043
:1031600000284FF4806214BFFF210021014806F0BF
:103170009FBB00BF400F002038B5B0240A4D204649
:10318000FFF7A4FF0020FFF7A1FF01341020FFF795
:103190009DFFE4B228468021FFF7B8FFB82C05F167
:1031A0008005ECD138BD00BF400F002038B51C4B66
:1031B0001C4C1A682378117819B9012B0AD0002009
:1031C00038BD0021013B1170032BF8D8DFE803F074
:1031D000020B1015144B18785038C0B2FFF786FF59
:1031E00002232370EBE70020FFF780FF0323F8E7BB
:1031F0001020FFF77BFF0423F3E70B4D0B4B2878E0
:10320000802103EBC010FFF78DFF01202B78207089
:103210000133DBB2072B2B70D1D900232B70CFE702
:10322000481300205D000020380F0020400F0020D0
:10323000030630B510D43F290ED80124CB08074D22
:1032400000EBC3102B5C01F0070104FA01F1A2426C
:103250000CBF0B438B432B5430BD00BF400F0020ED
:103260002DE9F04F044689B008A800E90E009DF84A
:103270004830A4F120050293EBB25E2B47D8079BA0
:1032800023B3234413F8206C224AB2F8009009EBD0
:103290000603802B3BDC53889DF815B0019303EBAC
:1032A0000B02402A33DC029B4FF00008B3FA83FA8A
:1032B0000BFB05F54FEA5A1A6D00C34509D8154BAB
:1032C0004E441E80204609B0BDE8F08F9DF8146082
:1032D000DAE70027069A535B0493019B08EB03028D
:1032E000D3B20393BE4203D808F101080235E4E7E4
:1032F000049B07EB090003FA07F2130454BF52467C
:10330000029A0399C0B2FFF793FF0137EAE700245E
:10331000D8E700BF3A0F002070B586B003AC84E850
:103320000E009DF82860451E15F8010F40B100966B
:1033300094E80E00FFF794FF034628788342F3D009
:1033400006B070BD014B1880598070473A0F0020BD
:103350002DE9F74F9046A8EB0009A3EB010AB9F15C
:10336000000F1E46B8BFC9F10009BAF1000FB8BF7F
:10337000CAF1000A804594BF4FF0FF330123054690
:103380000C468E4294BF4FF0FF3B4FF0010B40467E
:1033900031469DF830200093A9EB0A07FFF748FF5C
:1033A000CAF10003454504D1B44202D103B0BDE8DF
:1033B000F08F214628460193FFF73AFF019B7900E1
:1033C000B3EB470FBFBF0098A7EB0A072D18EDB26C
:1033D0008945C2BF5C444F44E4B2E3E72DE9F041C4
:1033E0001446A042804628BFA046A042064638BFE9
:1033F000264699420C4628BF1C46994238BF1946BA
:103400000F469DF81820BC4201D83F2C01D9BDE8D9
:10341000F081454607E02B0607D428462146FFF7F2
:1034200007FF0135EDB2B542F5D90134E4B2EAE760
:1034300010B504468120FFF749FE2046BDE8104044
:10344000FFF744BE034628B10123AF20024A53715F
:10345000FFF73CBEAE20F9E73A0F002008B5642024
:1034600000F018FC0020FFF7EDFF2020FFF72EFEF4
:103470000020FFF72BFEB020FFF728FEC820FFF743
:1034800025FE0020FFF722FE1020FFF71FFE402040
:10349000FFF71CFEFF20FFF7CBFFA120FFF716FE72
:1034A000A620FFF713FEA820FFF710FE3F20FFF72E
:1034B0000DFEA420FFF70AFED320FFF707FE002031
:1034C000FFF704FED520FFF701FEF020FFF7FEFD19
:1034D000D920FFF7FBFD2220FFF7F8FDDA20FFF7E8
:1034E000F5FD1220FFF7F2FDDB20FFF7EFFD2020B6
:1034F000FFF7ECFD8D20FFF7E9FD1420FFF7E6FD57
:103500000120FFF79FFF0020FFF72AFEFFF734FEA0
:103510000022034B1A805A8001221A7108BD00BF95
:103520003A0F00200E4B82B09A6942F001029A6174
:103530009A6902F001020092009ADA6942F0805220
:10354000DA61DB69074A03F080530193019B5368FA
:1035500023F0E06343F08063536002B0704700BF24
:10356000001002400000014030B5054687B010222F
:10357000002102A806F09CF92A68204B9A423BD110
:1035800003F56C439A691E4842F400729A619A6985
:1035900002A902F400720092009A9A69194C42F052
:1035A00004029A619B69FF2203F004030193019BCB
:1035B0000323CDE9022300F0E7FF80204FF480725F
:1035C0000023C4E903024FF480620F492046C4E996
:1035D0000013C4E90523A360E36100F06BFE08B1AA
:1035E000FFF714FC002212202C621146656200F0E5
:1035F0000FFE122000F03CFE07B030BD0024014059
:10360000000801409C0E00200800024030B505462D
:1036100087B01022002102A806F04AF92A682E4B32
:103620009A4256D12D4C4FF44061A3692C4843F087
:103630000803A361A36903F008030093009B12230E
:10364000CDE90213032302A9059300F09DFFE3696E
:10365000802243F48003E361E369224803F480039A
:103660000193019B0023204CC4E900032046C4E9D8
:103670000323C4E90533A360E36100F01BFE08B136
:10368000FFF7C4FB1023194AAC636562184CC4E908
:103690000023002380222046C4E90232C4E9043317
:1036A000C4E9063300F006FE08B1FFF7AFFB0022C5
:1036B000212011466C63656200F0AAFD212000F014
:1036C000D7FD00222220114600F0A2FD222000F0AA
:1036D000CFFD07B030BD00BF0058004000100240D1
:1036E000000C014058000240040E0020440002403B
:1036F000C00D00201FB50368374A93422CD1374BC9
:1037000018209A6942F400629A6100229B6911466E
:1037100003F400630093009B00F07AFD182000F092
:10372000A7FD00221920114600F072FD192000F0BB
:103730009FFD00221A20114600F06AFD1A2000F0B9
:1037400097FD00221B20114600F062FD1B2005B0F2
:103750005DF804EB00F08CBDB3F1804F11D103F59F
:103760000433DA691C2042F00102DA610022DB69CD
:10377000114603F001030193019B00F049FD1C2059
:10378000E5E7174A934210D1144B1D20DA6942F045
:103790000202DA610022DB69114603F002030293A0
:1037A000029B00F035FD1D20D1E70E4A934210D157
:1037B0000A4B1E20DA6942F00402DA610022DB695A
:1037C000114603F004030393039B00F021FD1E2028
:1037D000BDE705B000BD00BF002C01400010024055
:1037E000000400400008004010B5044686B01022D6
:1037F000002102A806F05CF82268114B9A421CD105
:1038000003F503339A690F4842F008029A619B69F5
:10381000332203F008030193019B022302A9CDE99F
:103820000223059300F0B0FE074A536823F4406377
:1038300043F0E06343F40063536006B010BD00BF83
:1038400000040040000C01400000014010B5044697
:1038500086B01022002102A806F02AF822681B4B2D
:103860009A4230D103F558439A69194842F480428C
:103870009A619A6902A902F480420092009A9A69B8
:10388000002442F004029A619B694FF4007203F035
:1038900004030193019B0223CDE902230323059333
:1038A00000F072FE4FF48063094802A9CDE90234AA
:1038B000049400F069FE25202246214600F0A8FC71
:1038C000252000F0D5FC06B010BD00BF0038014037
:1038D00000080140FEE7FEE7FEE7FEE7FEE770476F
:1038E0007047704700F0C4B9014800F0B5BD00BF93
:1038F0009C0E0020014800F0AFBD00BFC00D0020AD
:10390000014800F0A9BD00BF040E0020014800F0EE
:1039100001BA00BFE00E0020014802F071BB00BFF9
:1039200040220020FFF7F8BF014803F0EEBC00BFC3
:10393000780D0020FFF7F8BFFFF7F6BFFFF7F4BFE1
:10394000014803F0E2BC00BF300D0020014803F045
:10395000DCBC00BFE80C0020014803F0D6BC00BF6F
:10396000A00C0020014801F0BFBD00BF480E0020A0
:10397000014802F013BA00BF480E0020014804F0CD
:1039800033B900BF580C00200A4A0346106810B52E
:1039900008B9094810600949094C0344091B8B42C6
:1039A00006D905F0B7FF0C2303604FF0FF3010BDC0
:1039B0001360FCE74C13002060260020005000201C
:1039C0000004000070470346002030B51872587993
:1039D0001C68451C5D715525987125545879DC7912
:1039E00001322040451C5D714E251C68D2B2255421
:1039F0005879DC792040451C5D7145251C682554AB
:103A00005879DC792040451C5D7152251C6825548D
:103A10005879DC7920401C68451C5D712254587926
:103A2000DC794A402040451C5D713A251C682554CC
:103A30005879DC7920401C68451C5D712154587907
:103A4000DC792040587107205872187A504080F075
:103A50003600187230BD034610B5427A0132427208
:103A60005A790068541C5C7181545A79D8790240A3
:103A70005A711A7A81EA0200187210BD002337B514
:103A80008DF807309DF80730CB5C13B9007A03B08E
:103A900030BD437A9DF80740013343724379026891
:103AA0005D1C45710C5DD4544379C27913409DF877
:103AB00007204371531CDBB28DF807308B5C027A10
:103AC00053400372DEE7034610B5C47980790144A0
:103AD000214018689971405C11440C409C7110BDE4
:103AE000F0B50024052645790379AB4201D10020C9
:103AF000F0BD827A072A50D8DFE802F0040F1C22BA
:103B0000282D4F3E0268D25C552A01D101228272D3
:103B1000C279013313400371E6E70268D25C4E2A92
:103B200001D10222F3E7552AF2D000228272013B32
:103B3000DBB2EDE70268D25C452A1BD10322E6E73F
:103B40000268D25C522A15D10422E0E70268D25CF6
:103B500086724272DCE70268D25C3A2A0AD10721F7
:103B6000C2798172591C0A408271427A82F036020F
:103B70000272CDE78472DAE7427A0768013AD2B27C
:103B8000017A42721AB1FA5C51400172C0E7827246
:103B9000FA5C8A42BCD10120AAE78472B8E710B56A
:103BA00002604FF07F440022446002818272C1E9CA
:103BB00000340A818A7210BDFFF704FF0B480C49DC
:103BC0000C4A002302E0D458C4500433C4188C4279
:103BD000F9D3094A094C002301E013600432A242E0
:103BE000FBD305F09DFEFEF7E9FD704700000020C5
:103BF0003402002064BD000834020020602600204A
:103C0000FEE7000038B50E4B05461A784FF47A737C
:103C1000B3FBF2F30B4A1068B0FBF3F000F036FB95
:103C2000044658B90F2D09D8024629464FF0FF30F7
:103C300000F0EEFA2046044B1D6038BD0120FCE781
:103C4000640000206000002068000020074A08B5DA
:103C50001368032043F01003136000F0C7FA0F202D
:103C6000FFF7D0FFFFF75EFC002008BD00200240F8
:103C7000034A044B11681B780B441360704700BF64
:103C80005013002064000020014B1868704700BFEB
:103C90005013002038B50446FFF7F6FF0546631CB5
:103CA0001EBF044B1B78E418FFF7EEFF431BA34233
:103CB000FAD338BD64000020436A10B59A6A12F046
:103CC000500F1BD19A6A42F400729A621A68926885
:103CD00002F46022B2F5602F0CD11A7B52B99A6AB5
:103CE00022F480729A629A6AD2045EBF9A6A42F0A3
:103CF00001029A621846FDF79BFE10BD1B6ABDE8E3
:103D000010401B6B1847704708B5406AFFF7FBFF70
:103D100008BD7047036870B51D685E680446B0064C
:103D200026D5A90724D5A26AD2065EBFA26A42F4AC
:103D30000072A2629A6802F46022B2F5602F10D17C
:103D4000227B72B95A6822F020025A60A36A23F4D7
:103D50008073A362A36AD8045EBFA36A43F0010321
:103D6000A3622046FDF764FE6FF0120223681A601A
:103D7000310630D56A072ED5A36ADB065EBFA36A7B
:103D800043F40053A36223689A6802F4E042B2F558
:103D9000E04F0AD05A68500516D49A6802F460229F
:103DA000B2F5602F10D1227B72B95A6822F08002DE
:103DB0005A60A36A23F48053A362A36AD9055EBF45
:103DC000A36A43F00103A362204600F00DFA6FF0EE
:103DD0000C0223681A6072060CD5EB070AD5A36A99
:103DE000204643F48033A362FFF793FF6FF0010294
:103DF00023681A6070BD7047406A08B5836A43F053
:103E000040038362C36A43F00403C362FFF7F3FF16
:103E100008BD0000002373B5019390F824300446D8
:103E2000012B6CD0012380F824304D680268062DE8
:103E3000086805EB850322D81F26556B053B9E407D
:103E400025EA060500FA03F32B43536309288B6820
:103E500000EB40054FF0070129D9D6681E3DA94067
:103E600026EA0101AB400B43D360A0F11003012B04
:103E700025D90020002384F8243002B070BD0C2D19
:103E80004FF01F0509D8166B233B9D4026EA050518
:103E900000FA03F32B431363D8E7D66A413B9D40F6
:103EA00026EA050500FA03F32B43D362CEE7106937
:103EB000A94020EA0101AB400B431361D9E7114B44
:103EC0009A4216D193681B02D3D49368102843F406
:103ED00000039360CDD10C4B0C4A1B68B3FBF2F38B
:103EE0000A2253430193019B002BC2D0019B013B4B
:103EF000F8E7A36A012043F02003A362BAE7022097
:103F0000BBE700BF002401406000002040420F00DA
:103F1000002337B50193036804469A68D20702D597
:103F2000002003B030BD9A6842F001029A60144B41
:103F3000144A1B68B3FBF2F30193019BE3B9FFF74B
:103F4000A3FE054623689B68DB07E9D4FFF79CFEC8
:103F5000401B0228F6D923689B6813F00103F1D1B6
:103F6000A26A012042F01002A262E26A84F82430C0
:103F700042F00102E262D4E7019B013BDCE700BFB3
:103F80006000002040420F002DE9F0413F4B904679
:103F9000026804469A420F4602D03D498A4203D144
:103FA0005B6813F4702F6DD194F82430012B6BD023
:103FB0000123204684F82430FFF7AAFF0646002894
:103FC0005DD1A56A2168324B25F4706525F00105A5
:103FD00045F480759942A56204D12C4A536813F4C4
:103FE000702F3ED1A36A23F48013A3624B685A0555
:103FF00005D5A36A23F4405343F48053A362A36A14
:10400000206A13F4805318BFE36A3A4618BF23F0BE
:104010000603E362002384F824301E4B4C31836294
:104020001D4BC3621D4B03636FF0020341F84C3C10
:1040300051F8443C43F4807341F8443C434600F05B
:1040400069F923689A6802F46022B2F5602F9A68D1
:104050000CBF42F4A00242F480129A603046BDE8E0
:10406000F081A36A43F48013A36253685B0541BFE8
:10407000A06A20F4405040F48050A062BFE70023C3
:1040800084F824300126E9E70226E7E7002401400E
:1040900000280140B93C0008093D0008F93D00082E
:1040A00038B5036804469A68D10701D4002038BDAA
:1040B0009A6822F001029A60FFF7E6FD0546236840
:1040C0009B68DB07F2D5FFF7DFFD401B0228F6D91E
:1040D00023689B68DA07F2D5A36A012043F0100336
:1040E000A362E36A43F00103E362E0E7F8B5044644
:1040F00000286DD0836A23B9C36280F82430FFF7AB
:1041000033FA2046FFF7CCFFA36A13F0100361D106
:1041100000285FD1A26A616822F4885222F002026C
:1041200042F00202E569A668A262227B2943B6F545
:10413000807F41EA420136D0771E7D427D412D02CB
:10414000277D012F06D182BBA269013A45EA42329E
:1041500042F400652268B6F5807F576827F4694706
:1041600045EA0705556097681D4D05EA070545EACC
:104170000105956001D0012E02D12369013B1B0589
:10418000D56A25F470052B43D3629268154B134012
:10419000994213D10023E362A36A23F0030343F09F
:1041A0000103A362F8BD3546CAE7A26A42F02002C5
:1041B000A262E26A42F00102E262CBE7A36A23F064
:1041C000120343F01003A362E36A43F00103E362C6
:1041D0000120E7E7A36A43F01003A362F8E700BFFA
:1041E000FDF7E1FFFE0E1FFF7047000007490302C5
:1041F000CA6803F4E06322F4E0621204120C134371
:1042000043F0BF6343F40033CB60704700ED00E040
:10421000154B30B5DC68C4F30224C4F10703251D37
:10422000042B28BF0423062D4FF0FF3594BF002434
:10423000033C05FA03F321EA0303A54022EA050241
:10424000A340002843EA0203ACBF00F16040074AE4
:104250004FEA0313DBB2ABBF00F5614000F00F0083
:1042600080F80033135430BD00ED00E014ED00E0A1
:10427000002807DB01234109034A00F01F008340A7
:1042800042F82130704700BF00E100E00138B0F192
:10429000807F0BD24FF0E023F021054A586182F86D
:1042A00023100020072298611A617047012070478F
:1042B00000ED00E0034610B530B301681420134A46
:1042C0000A44B2FBF0F292001A64114ADA63022245
:1042D00083F82120D3E901242243DC6808682243C3
:1042E0001C696FF30D1022435C6922439C692243D1
:1042F000DC69224302430A6000200122986383F8AC
:10430000200083F8212010BD0120FCE7F8FFFDBF4D
:1043100000000240F0B590F82040012C34D0012478
:1043200080F8204090F82140012CE5B24FF00004C5
:1043300028D1022680F8216084630468266826F06C
:1043400001062660D0E90F67BD4075606360436871
:10435000102BC36A0BBFA260A160E160E2604BB1A9
:10436000236843F00E0300202360236843F0010319
:104370002360F0BD236823F004032360236843F027
:104380000A03F0E780F820400220F2E790F82120AD
:104390000346022A06D0042282630120002283F809
:1043A000202070470268C06B116821F00E01116077
:1043B000116821F00101116001211A6C01FA02F269
:1043C0004260002083F82110E8E7000008B590F86B
:1043D0002130022B03D004238363012008BD03682E
:1043E0001A6822F00E021A601A6822F001021A609E
:1043F000174A93421FD0143293421ED01432934274
:104400001DD0143293421DD0143293421DD0143269
:10441000934214BF4FF080734FF480130D4A5360E2
:10442000012380F82130002380F82030436B03B152
:1044300098470020D2E70123F0E71023EEE74FF47E
:104440008073EBE74FF48053E8E74FF48033E5E700
:10445000080002400000024070B40425C66B026CE4
:104460003468036895402542196832D04D0730D52D
:104470001A6896065EBF1A6822F004021A603E4A65
:10448000934219D01432934218D01432934217D069
:104490001432934217D01432934217D014329342FD
:1044A00014BF4FF080634FF48003344A5360C36AF3
:1044B000002B5ED070BC18470423F6E74023F4E7D6
:1044C0004FF48063F1E74FF48043EEE74FF480232D
:1044D000EBE702259540254235D08D0733D51A6884
:1044E000940606D41A6822F00A021A60012280F8A3
:1044F0002120214A934219D01432934218D0143209
:10450000934217D01432934217D01432934217D0EB
:104510001432934214BF4FF000734FF40013174A44
:104520005360002380F82030836AC1E70223F6E756
:104530002023F4E74FF40073F1E74FF40053EEE764
:104540004FF40033EBE708259540254211D00907C9
:104550000FD5196821F00E011960012303FA02F248
:104560007260836380F82130002380F82030036B71
:104570009EE770BC704700BF080002400000024088
:1045800090F82100704700002DE9F74F00244FF00C
:104590000F0E2646DFF884C1614B00F104080A685B
:1045A00032FA06F502D103B0BDE8F08F012505FA15
:1045B00006F702EA070537EA020276D14A68032ABB
:1045C00007D8013A022A00F28380DFE802F09196D0
:1045D0009C00122A00F0948069D8112A00F08A8089
:1045E000FF2D94BF8146C1464FEA8602D9F800707C
:1045F00088BF203A0EFA02FA27EA0A0704FA02F202
:104600001743C9F80070D1F8049019F0805F4CD0BE
:10461000DCF8182026F0030742F00102CCF818203D
:10462000DCF8182007F1804702F00102019207F53B
:10463000803706F0030A019A4FEA8A0ABA680EFA2E
:104640000AFB22EA0B0B374A904260D002F58062E7
:1046500090425ED002F5806290425CD002F58062AA
:10466000904214BF0422032202FA0AF242EA0B0229
:10467000BA609A6819F4801F14BF2A43AA439A604B
:10468000DA6819F4001F14BF2A43AA43DA605A6893
:1046900019F4003F14BF2A43AA435A601A6819F458
:1046A000803F14BF2A43AA431A60013677E7DFF838
:1046B00078904A450CD014D8A9F580194A4507D0FE
:1046C00009F570294A4503D0A9F580194A4587D1D3
:1046D0008A68D2B1012A4FF008040CBF0761476114
:1046E0007EE7DFF848904A45F2D009F58039EDE7DA
:1046F000CC6875E7CC68043472E7CC6808346FE79F
:10470000CC680C346CE700246AE7042468E70022D4
:10471000AAE70122A8E70222A6E700BF0010024094
:104720000004014000080140000022100000311088
:1047300080680840003818BF012070470AB1016145
:1047400070470904FBE7016800224B6913F480639A
:1047500010D06FF480634B612023026380F83D30FA
:1047600080F83E20036C80F83C2043F0040303648F
:1047700001207047184670472DE9F84606460F4657
:1047800091461D464FEA114A3368BAF1010F39D1FB
:104790005C6927EA0404A4B2B4FA84F46409A1456C
:1047A00001D0002024E06A1CEFD0FFF76DFA089BCF
:1047B000C01AA84201D8002DE6D1BAF1010F336822
:1047C00018D15B6927EA03039BB2B3FA83F35B0951
:1047D0009945D9D1002320220120336386F83D205A
:1047E00086F83E30326C86F83C3042F0200232646B
:1047F000BDE8F8869B69DB43C3F3400383F0010304
:10480000DBB2E5E79C69E443C4F3400484F00104AF
:10481000E4B2C4E72DE9F04104460F461646984637
:104820002568686927EA000080B2C0B16B695A0543
:1048300017D52B68202243F400732B606FF480633C
:104840006B610023236384F83D2084F83E30236CA1
:1048500043F0040323640023012084F83C30BDE8C6
:10486000F081731CDDD0FFF70FFAA0EB0800B04217
:1048700001D8002ED4D123685A6927EA020292B2E5
:10488000002ACDD000232022236384F83D2084F821
:104890003E30236C1343DDE770B504460D461646E3
:1048A00023685B691B0601D500201EE02046FFF748
:1048B0004AFFC8B96A1CF3D0FFF7E6F9801BA8428B
:1048C00001D8002DECD123685B6913F08003E7D198
:1048D0002022236384F83D2084F83E30226C84F843
:1048E0003C3042F020022264012070BD2DE9F043EB
:1048F000154602689946136885B043F480731360C7
:10490000DDE90C780E463B4600224FF00111CDF850
:1049100000800446FFF730FF236838B11B68DB05D1
:1049200002D54FF400732364032620E006F0FE0650
:104930001E613A46434620461849FFF76BFFA8B967
:10494000236803905A69394603929B694246039350
:104950002046039BFFF7A0FF064660B1236C042BA3
:1049600001BF2268136843F40073136001263046C8
:1049700005B0BDE8F083B9F1010F236802D1EDB2B3
:104980001D61F4E72A0A1A61394642462046FFF7BC
:1049900083FF0028E2D12368F1E700BF0200010095
:1049A0002DE9FF479A46DDE90C78036815461A6839
:1049B0000E4642F480621A601A684FF0011142F408
:1049C00080721A603B460022CDF800800446FFF753
:1049D000D3FE236848B11B68DB0548BF4FF4007362
:1049E0004FF0030048BF236421E05FFA86F906F028
:1049F000FE061E613A46434620462949FFF70AFF54
:104A0000A0B9236803905A69394603929B694246CC
:104A100003932046039BFFF73FFF58B1236C042B01
:104A200001BF2268136843F400731360012004B0CF
:104A3000BDE8F087BAF1010F23681AD1EDB2424602
:104A4000394620461D61FFF727FF02460028E5D1C1
:104A5000216820460B6843F480730B603B464FF09F
:104A60000111CDF80080FFF787FE226860B113685E
:104A7000B2E72A0A1A61394642462046FFF70CFF80
:104A80000028CBD12368D9E749F001031361204600
:104A900043463A46024904B0BDE8F047FFF7BABEC4
:104AA0000200010070B504460D46164623685B6996
:104AB0005B0701D500201EE02046FFF744FEC8B981
:104AC0006A1CF3D0FFF7E0F8801BA84201D8002D44
:104AD000ECD123685B6913F00403E7D12022236340
:104AE00084F83D2084F83E30226C84F83C3042F05B
:104AF00020022264012070BD70B5044608B901206F
:104B000070BD90F83D3003F0FF021BB980F83C20E7
:104B1000FEF77CFD242384F83D3023681A6822F0D8
:104B200001021A601A6842F400421A601A6822F4FC
:104B300000421A6002F0ACFA3F4B65689D4294BF98
:104B40003E4B3F4B98428CBF00230123002BD6D114
:104B5000394E3C4BB542B0FBF3F388BF4FF4967629
:104B60002268516821F03F0141EA030182BF73438B
:104B70004FF47A76B3FBF6F35160116A013321F0FA
:104B80003F010B431362D169431E2B4821F44F416F
:104B9000854221F0FF0132D86D00B3FBF5F340F6FA
:104BA000FC700133034242D0C3F30B031943D161BC
:104BB0001168D4E9073021F0C00103430B431360AF
:104BC0009168D4E9030321F40341034321F0FF0179
:104BD0000B439360D168D4E9053021F0FF01034312
:104BE0000B43D3601368002043F0010313602023BC
:104BF000206484F83D30206384F83E0080E7A0689C
:104C000050B905EB4505B3FBF5F30133C3F30B03D3
:104C10007BB143F40043C9E719206843B3FBF0F3C9
:104C20000133C3F30B0323B143F44043BEE7042332
:104C3000BCE70123BAE700BFA08601007F841E0005
:104C4000FF083D0040420F002DE9F7430446994616
:104C50000F4690460C9EFFF717F894F83D30054636
:104C6000202B03D0022003B0BDE8F083009019236D
:104C7000012220463A49FFF77FFD0028F2D194F83F
:104C80003C30012BEED00123206884F83C300368CF
:104C90004246D90758BF036839465CBF43F0010359
:104CA0000360036823F400630360212384F83D302C
:104CB000402384F83E30002323640A9B204663622D
:104CC000BDF82C306385638D2385264BE3624B460C
:104CD000CDE90065FFF70AFE00282AD00120C2E7CF
:104CE000FFF7DAFD40B1236C042B01BF2268136883
:104CF00043F400731360F1E7636A27681A4612F8F9
:104D0000011B39616262628D218D013A92B2628526
:104D10007A69481E80B2520720850AD548B15A7870
:104D200002333A616362638D0239013B9BB2218594
:104D30006385238D2A4631462046002BD0D1FFF7CC
:104D4000B1FE0028CFD12268136843F400731360CA
:104D5000202384F83C0084F83D3084F83E0082E74C
:104D6000020010000000FFFF2DE9FF4799460023D5
:104D7000044602930F4690460C9EFEF785FF94F87A
:104D80003D308246202B16D146F2A812554B1B68A7
:104D9000B3FBF2F3192253430293029B013B0293AC
:104DA000029B53B92022236384F83D2084F83E30CF
:104DB000236C13432364022066E0226893699907F9
:104DC000EBD494F83C30012BF5D0012384F83C302F
:104DD00013680025DB0758BF136843495CBF43F0E5
:104DE00001031360136823F400631360212384F824
:104DF0003D30402384F83E30BDF83430256463856F
:104E0000638D66629BB2E16223856764C4F8488063
:104E1000C4F84C902565002B57D0606B40B33349E4
:104E20004563816232491032C0E90B513146FFF7C8
:104E300071FA064600283CD12323424600933946A6
:104E40004B462046CDF804A0FFF750FDF8B1606B4B
:104E5000FFF7BCFA636B9E6223681A6822F48062D3
:104E60001A6066851A68268522F001021A600AE037
:104E7000202384F83D3084F83E00236C84F83C0005
:104E800043F080032364012004B0BDE8F087236869
:104E900003905A6903929A6984F83C000392039A3A
:104EA0005A6842F480725A605A6842F400625A604A
:104EB000EAE7202384F83D3084F83E50236C84F8E0
:104EC0003C5043F010032364DDE7202284F83D20AA
:104ED00084F83E30226C84F83C3042F04002226478
:104EE000D1E700BF600000200000FFFFC1510008B3
:104EF000875100082DE9F04786B0044698460E46D3
:104F00001746DDF838A0FEF7BFFE0023039394F8A0
:104F10003D308146202B03D0022006B0BDE8F0874B
:104F200046F2A812644B1B68B3FBF2F319225343F9
:104F30000393039B013B0393039B4BB92022236301
:104F400084F83D2084F83E30236C13432364E3E768
:104F500021688B699A07ECD494F83C30012BDBD0A4
:104F6000012384F83C300B680025DB0758BF0B6831
:104F7000524A5CBF43F001030B600B6823F40063EB
:104F80000B60222384F83D30402384F83E30BDF886
:104F90003C3025646385638DC4F824A09BB2E26233
:104FA00023856664A764C4F84C802565002B66D011
:104FB000A06B58B3424A45638262424A1031C0E94D
:104FC0000B525246FFF7A6F9824600284BD1232305
:104FD0003A460093314643462046CDF80490FFF709
:104FE000DFFC00B3A06BFFF7F1F9A36BC3F828A0B7
:104FF00023681A6822F480621A60A4F82AA01A684A
:10500000A4F828A022F001021A600AE0202384F804
:105010003D3084F83E00236C84F83C0043F080036C
:105020002364012079E7228D2368012A0BBF1A68C7
:105030005A6822F4806242F480520CBF1A605A60AF
:105040000022049259690491996984F83C200491E2
:1050500004995A6842F480725A605A6842F40062B5
:105060005A60002059E7202384F83D3084F83E50F0
:10507000236C84F83C5043F010032364D1E72323CE
:105080003A460093314643462046CDF80490FFF758
:1050900087FC0028C5D1236805905A6905929A6952
:1050A0000592059A1A6842F400721A60202384F867
:1050B0003C0084F83D30D4E7600000200000FFFF92
:1050C000C15100088751000870477047704770470A
:1050D0007047704790F83D2008B5036DD2B283B990
:1050E000C36C0268012B836C05D1DBB21361036DC5
:1050F0000233036508BDC3F307231361036D013356
:10510000F7E7036D012B03D1836C0268DBB2F4E790
:10511000036D022B2FD1222A05D10268136843F4B4
:1051200080731360EAE7438D9BB263B1212A0AD1F1
:10513000436A026813F8011B11614362438D013B0E
:105140009BB24385D6E7438D9BB2002BD2D1212A57
:10515000D0D10268516821F4E0615160116841F4D6
:10516000007111602022036380F83D2080F83E30FA
:10517000FCF76EFCBEE703685A69120644BF0022C2
:105180001A61B7E77047406A08B5436B0BB100225C
:105190009A62836B0BB100229A620268136823F44F
:1051A0008063136000232022438580F83D2080F82F
:1051B0003E30036C43F010030364FFF7E3FF08BDC8
:1051C00070B5446A236894F83D1094F83E00E26A92
:1051D0005D68C9B225F440755D60656BC0B20DB104
:1051E0000026AE62A56B0DB10026AE6201F021056E
:1051F000212D05D001F02205222D23D1202821D1F7
:105200005A68292922F400625A604FF0000363852E
:105210000DD1212323632823204684F83D30FFF756
:1052200055FF2268536843F44073536070BD2A29C8
:10523000F7D1222323632823204684F83D30FFF74B
:1052400046FFEEE794F83E100029EFD0618D89B259
:10525000012902BF196821F480611960596812F5AB
:10526000803F21F44071596006D0082A04D0B2F181
:105270002A4F01D0202A03D1196841F40071196026
:10528000596821F480515960596821F400615960CE
:1052900000236385236C1BB12046FFF773FFC5E72E
:1052A000202184F83D1094F83E1084F83E304029C7
:1052B00004D120462363FCF7D1FBB7E7082A01D0CD
:1052C000202A05D1002320462363FFF7FEFEADE729
:1052D0001223F8E770470000002337B546F2A81103
:1052E00001932C4B406A1B6890F83D20B3FBF1F30F
:1052F00023214B4301930368D2B2019941BB016C56
:1053000041F020010164446B0CB10021A162816B6A
:1053100009B100258D621D6825F480651D6000259A
:10532000458504B1656301B14D63196821F0010140
:10533000196090F83D10602911D1202380F83D308C
:10534000002380F83E300364FFF7C4FF03B030BD94
:1053500001990139019119688905CED4D3E702F08A
:105360002802282A0ED1196841F001011960196834
:1053700041F4806119600023036380F83D20FFF74A
:1053800001FFE3E7202380F83D30002380F83E3022
:10539000F5E700BF6000002010B590F83D2090F8C0
:1053A0003E300446102BD9B2D2B2036801D0402956
:1053B00013D1222A11D1196821F4006119605968AA
:1053C00011F4006106D1602A1EBF202284F83D201E
:1053D00084F83E100022226307E002F02801282909
:1053E000EDD10022226384F83D105A6812F4006265
:1053F0004FD05A68606B22F400625A6090F82130F6
:10540000012B374B2BD04363FEF7E0FF50B12268EE
:10541000606B136823F001031360202384F83D3090
:10542000436B9847236C19071FBF2268536823F406
:10543000E063536094F83D30226CDBB252070DD527
:10544000282B0BD1274B2022E36200232046236325
:1054500084F83D2084F83E30FFF73BFE10BDA06B82
:105460004363FEF7B3FF0028DCD023685A69510676
:1054700005D51A69636A1A70636A01336362226828
:10548000A06B136823F001031360202384F83D30E0
:10549000C6E794F83D10602915D1202184F83D100D
:1054A00022645A69520605D51A69636A1A70636ADA
:1054B0000133636222682046136823F001031360FE
:1054C000FFF708FFAEE75A69500605D51A69636A07
:1054D0001A70636A013363622046FFF753FEA1E747
:1054E000D95200080000FFFFF0B5044603688FB0F2
:1054F0005A68C66A90F83E0094F83D101028C5B26C
:10550000C9B202D0402D40F0E5829F69586910F081
:10551000010F07D1B6F52A0F02D0B6F12A4F51D1AB
:105520000FB0F0BD96054DD5E26AB2F52A0F0CD149
:105530000122E26294F83E20402A11D1226D52B934
:10554000626C02F0FE021A61EAE7E26AB2F12A4FE7
:10555000F0D10822EDE7626C42F00102D2B2F2E72C
:105560002269B2F5804F1AD194F83D20212A626C4D
:1055700011D102F0FE021A61626B0AB1926A2AB975
:10558000A26B002ACCD0926A002AC9D05A6842F491
:1055900000625A60C4E742F00102D2B2EBE7226D2A
:1055A00032B9626CD21102F0060242F0F002CAE790
:1055B000226D012AB4D1626CD21102F0060242F0CF
:1055C000F102C0E7060703D5960501D5626CE4E752
:1055D000860740F1F080960540F1ED8094F83E108A
:1055E000E26A256B94F83D00C9B2222840F0DB80C6
:1055F000206D40B9402906D100905A6900929B69FC
:105600000093009B8CE7216D89B92069B0F5404F6C
:105610000DD101915A6901929A690192019A1A6811
:1056200042F480721A60236D0133236578E7618D3F
:1056300089B251B902915A6902929A690292029A08
:105640001A6842F400721A6019E0618D89B201296A
:1056500049D112F5803F1BD11A6822F480621A608A
:105660005A6812F400620CD01A6822F480621A6040
:10567000002203925A6903929B690393039B0023C0
:10568000D3E704925A6904929A690492049AD7E77C
:10569000082A1CD0202A1AD0122D0DD1012A16D189
:1056A0001A6822F480621A60002205925A690592F3
:1056B0009B690593059BE2E7102AF1D8864941FAD8
:1056C00002F2D707ECD41A6842F48062EBE71A685A
:1056D00022F480621A60002206925A6906929A6940
:1056E0000692069AACE7618D89B2022938D1102A58
:1056F00003D87A49D140CE0718D4196841F4006123
:1057000019600021079159690791996907910799D3
:10571000196821F48061196059680D05AFD5202AF8
:105720001BD8072A0ED8012AA9D111E0196841F423
:10573000806119600021089159690891996908915F
:105740000899E9E7A2F10801654ACA40D00796D551
:105750005A6842F480525A6091E712F5803FE3E7BD
:10576000196841F4806119605968090510D5202A2B
:1057700016D8072A06D8012A0AD15A6842F480525C
:105780005A6005E0A2F10801554ACA40D207F4D494
:10579000002209925A6909929B690993099B6EE755
:1057A00012F5803FE8E700220A925A690A929B6943
:1057B0000A930A9BB4E67F0740F194805E68360541
:1057C0003FF5AEAE070600F004063ED550053CD5C9
:1057D000002E3DD194F83D20258D94F83E10D2B294
:1057E000E06AC9B2C5B9212A18D1082858D02028A2
:1057F00056D010F5803F53D05A6822F4E0625A60C8
:1058000011232363002384F83E302023204684F8AC
:105810003D30FFF759FC83E6212A05D040297FF46B
:105820007FAE222A7FF47CAE628D92B21AB95A689A
:1058300022F48062ADE694F83E20402A16D120463C
:105840000FB0BDE8F040FFF745BC002E3FF468AE56
:1058500097057FF565AE212939D1E16A94F83D209D
:10586000212A7FF45DAE628D92B24AB1626A12F86B
:10587000011B19616262638D013B9BB263854FE638
:1058800008290DD020290BD011F5803F08D0596888
:1058900021F4E06159601123236384F83E20B4E7CA
:1058A0005A68204622F4E0625A601A6842F4007294
:1058B0001A6000232022236384F83D2094F83E20C0
:1058C00084F83E30402AA4D1FCF7C2F828E6402DE7
:1058D0007FF426AEB3E700BFEBFFFEFF140001002C
:1058E0000101000159680E053FF51AAE450600F0AA
:1058F000040140F18680500540F18380002940F08A
:10590000838094F83D20222A7FF40AAEE06A628DFB
:1059100092B2032A14D91A69636A1A70636A01334E
:105920006362638D013B9BB26385638D9BB2032BE6
:105930007FF4F6AD2268536823F480635360EFE58B
:10594000E56A022D3FF473AF012A3FF670AF0B9169
:1059500046F2A811794A1268B2FBF1F202EB820218
:105960000B920B9A013A0B920B99D1B9226C2046FB
:1059700042F0200222645A6822F4E0625A601A69F6
:10598000636A1A70636A01336362638D013B9BB281
:105990006385202384F83D3084F83E10FFF7F2FB46
:1059A000BEE51A6812F40072DBD1196821F4806137
:1059B0001960596821F4E06159601969636A1970C6
:1059C000636A01336362638D013B9BB2638520236D
:1059D00084F83D3094F83E3084F83E20402B04D1CA
:1059E00022632046FCF73AF89AE5082801D02028DF
:1059F00001D1002300E0122320462363FFF765FB5B
:105A00008EE500293FF48CAD92057FF589ADE26A01
:105A1000608D616A80B2042809D15A6822F48062DC
:105A20005A601B690B70636A0133636223E7608D00
:105A300080B203280CD15868042A20F48060586092
:105A4000EFD0022AEDD01A6822F480621A60E8E7EB
:105A5000608D80B20228E4D1042A33D007D8012A0D
:105A600007D0022A2ED0186840F4007004E0102AF3
:105A7000F9D1186820F4806018601B690B70616AA6
:105A80004B1C6362638D013B9BB2638523681B697A
:105A90004B70636A216801336362638D013B9BB283
:105AA00063854B6823F440734B60202384F83D30BA
:105AB00094F83E30402B4FF0000384F83E3005D17F
:105AC00023638EE7186840F48060D5E7082A90D0F9
:105AD000202A8DE7206C20B30025586987072FD531
