:020000040800F2
:10000000005000202D360008493300084B3300080B
:100010004D3300084F330008513300080000000042
:100020000000000000000000000000005333000842
:10003000553300080000000057330008593300080A
:1000400075360008753600087536000875360008E4
:1000500075360008753600087536000875360008D4
:100060007536000875360008753600085D330008DF
:1000700075360008753600086933000875330008C6
:100080007536000875360008813300088D33000886
:100090009933000875360008753600087536000873
:1000A0009D330008A9330008AD330008B1330008C0
:1000B000B5330008C1330008CD3300087536000899
:1000C00075360008D9330008E53300087536000896
:1000D00075360008F13300087536000875360008DB
:1000E00075360008753600087536000800000000F7
:1000F0000000000000000000000000000000000000
:0C01000000000000000000005FF808F1A3
:10010C0010B5054C237833B9044B13B10448AFF345
:10011C0000800123237010BD480200200000000065
:10012C003C9E000808B5034B1BB103490348AFF3D1
:10013C00008008BD000000004C0200203C9E00081E
:10014C00034613F8012B002AFBD1181A013870470B
:10015C0000220A4930B50B88094D013810F8014FBF
:10016C0014B902B10B8030BD5A1C92B2B2F5007FAB
:10017C00EC5414BF134600230122EFE77602002053
:10018C007E020020074A10B51188074C4B1C9BB20D
:10019C00B3F5007F138008BF0023605408BF1380A1
:1001AC0010BD00BF760200207E02002038B500246E
:1001BC000D460E4B01461C700D4B3F220D481C701A
:1001CC0009F076F90B4B1F2229460B4883F83F4068
:1001DC0009F06EF93222084BDC77084B1A601022BA
:1001EC00074B1A70074B1C7038BD00BF640700200A
:1001FC00820600200F070020EF0600206007002079
:10020C006507002074020020014B1878704700BF6E
:10021C0081060020194B70B55B6806460D461446E6
:10022C003BB347F2305316491648002A08BF1C4608
:10023C0009F094F90F223146134809F039F90023DB
:10024C00114A1249D37328460A2209F0AFF80A2240
:10025C0020460F4909F0AAF80E4B1B7863B10E4BE0
:10026C00187810F0020003D00C2206200B4B1A70E9
:10027C0070BD4FF0FF30FBE70120F9E7680200206A
:10028C00549E000805000020DF060020D90600203F
:10029C00C30600200F07002064070020650700201C
:1002AC00064B5B683BB1064B1B7813F0400F0CBF41
:1002BC000520072070474FF0FF3070476802002080
:1002CC0064070020074A10B51188074C4B1C9BB2E1
:1002DC00B3F5007F138008BF0023605408BF138060
:1002EC0010BD00BF7C0200207E0400202DE9FF47DA
:1002FC001F463D4B04465B6888461546BDF830905A
:10030C00002B6CD0394EDFF8E8A033789AF8001047
:10031C0003F040020A4365D01B0758D40A2201A9F6
:10032C00384609F043F801A8FFF70AFF421ED2B283
:10033C00032A4AD82F48FFF70BFF9AF8003053B125
:10034C000A226946204609F031F86846FFF700FF9B
:10035C002C20FFF717FF01A8FFF7FAFE2648FFF73E
:10036C00F7FE002211462548DFF894C0038894B2AA
:10037C00A74216D801B103803378224C23F00C032A
:10038C0043F00C03337023683BB11F489847236834
:10039C0001A8984723681D489847092004B0BDE878
:1003AC00F0875C1CA4B2B4F5007F08BF0024691C64
:1003BC0018F8055089B20CF803500132494514BFA6
:1003CC000D46002523460121D1E70B20E6E70D4B16
:1003DC001B680BB90820E1E70D489847FAE74FF086
:1003EC00FF30DBE70520D9E7680200206407002016
:1003FC0082060020F7A30008589E00087602002011
:10040C007E020020500700205B9E000817A0000809
:10041C006E9E000802460F4B0068516803C390683B
:10042C000D4A1860002313700C4A13700C4A138089
:10043C000C4A13800C4A13800C4A13800C4A13701C
:10044C000C4A13700C4A13700C4A13600C4A13605C
:10045C00704700BF6802002065070020800600205E
:10046C0078020020760200207A0200207C02002014
:10047C00640700208206002081060020540700201B
:10048C0050070020094A13680BB1013B1360084A5E
:10049C00136823B1013B13600BB9064A1370064A6B
:1004AC0013680BB1013B1360704700BF600700205D
:1004BC005C07002080060020580700202DE9F84F2B
:1004CC00A44AA54EB2F800B0338800255B4506D08F
:1004DC00A24F3A78103A022A23D8A6F800B0A04EC0
:1004EC00A04D3368002B40F0528264239B4C336048
:1004FC002378122B00F24B82DFE813F0D103760243
:10050C00B802BE02C802DB020C031603200356031A
:10051C005E036F037D038C03C903CE033E026102AD
:10052C00700202229049914C0A609B45D7D0904AA8
:10053C00D05C22780D2A00F21A82DFE812F00E004D
:10054C005800C600180218028F01A401AC01B901B1
:10055C001802D401F1010302E201002304219846A0
:10056C00DFF810C2844ADFF814928CF80030117056
:10057C005FFA83FE59F82E10E9B9B8F1000F01D0DB
:10058C008CF800E00022784B76491A600B7813F057
:10059C00010F06D03E2804D162F300030B70784B98
:1005AC001A60338801339BB2B3F5007F338004BFEC
:1005BC0000233380B9E791F804A00133824513D1AD
:1005CC00B8F1000F01D08CF800E00B784978303B83
:1005DC00313903EB830301EB43036A490B8001239D
:1005EC00237005231370DCE74FF00108C0E7DFF838
:1005FC0084C162499CF8002051F822205E49097898
:10060C0012F801E0864514D1DFF878C1BCF800304F
:10061C00013B9BB2ACF800300BB10D284DD1937857
:10062C00D278303B03EB8303303A02EB4303237065
:10063C00B7E700229146C1F57F4A8CF800200AF1F9
:10064C00D30ADFF838C15FFA82F85CF828C0BCF135
:10065C00000F0CD1B9F1000F04D04A4A1580454A5D
:10066C0082F800800022013B2270338099E79CF8CD
:10067C0000E09CF80150AEF1300E0EEB8E0E55449E
:10068C0005EB4E05ADB27F2D1BD81CF801E086455D
:10069C0017D13C4B1D80B9F1000F02D0354B83F8BC
:1006AC00008055B99CF802309CF80320303B03EBDA
:1006BC008303303A02EB430323702F4B0131197043
:1006CC006FE74FF001090132BBE70A287FF469AFED
:1006DC000022284B22701B78023B0D2B3FF661AF9A
:1006EC0001A151F823F000BF2D07000845070008B1
:1006FC009D070008AF050008C9070008C9070008D6
:10070C000708000811080008290800080708000855
:10071C00AF05000853080008AF0500085D08000885
:10072C003B78022B7FF43DAF00220D4B1A600D4A33
:10073C00137843F0200355E70A4A137819077FF51D
:10074C0030AF23F0480313700F4B1A880F4B1A80ED
:10075C0027E700BF7C0200207A02002065070020FA
:10076C0060070020640700205C0700208006002042
:10077C007E040020650200206402002078A200089C
:10078C00580700207E060020760200207802002008
:10079C009A4B1A603B78092B994B02BF1A7842F09E
:1007AC0020021A701A7842F002021A70954B1B68DC
:1007BC00002B3FF4F6AE03209847F2E6DFF84082B8
:1007CC0098F8003023F0400388F800308D4B1B68FC
:1007DC000BB1002098478C4B1A78002A7FF4E1AEBD
:1007EC0098F8003062F3410388F800303B78092B0D
:1007FC003FF4D7AE12233B70D3E6814A137823F033
:10080C004003EFE67E4A137823F0080313707D4B08
:10081C001B68002B3FF4C5AE0A20CDE77A4B1B7842
:10082C00002B7FF4BEAE754A1360754A137823F023
:10083C00600343F060031370724B1B68002B3FF492
:10084C00B0AE0720B8E76E4A137823F04203C9E62E
:10085C006B4A137823F042031370CBE76B4A2C28B6
:10086C00126807D106232370002A3FF49AAE684819
:10087C00904796E60021013B21703380002A3FF41B
:10088C0090AE6448F4E722287FF48BAE07232370E4
:10089C000022614B5BE7222803D05F4A1388102BA0
:1008AC0001D10823C3E6591C11805C4AD05478E668
:1008BC000A287FF476AE0023574A23701188574AD2
:1008CC000F299BBF53544E4913700A789FBF42F0B7
:1008DC0020020A70494A13604A4B1B68002B3FF4F4
:1008EC0060AE042068E72C287FF4BCAE464B1B7826
:1008FC002BB10D2300222370494B1A7051E60B23A8
:10090C00C5E72C28FBD0A0F13002092A3FF6AAAE8D
:10091C00434A137803EB830300EB4303303B61E65C
:10092C003A2801D10C2382E6A0F13002092A3FF6C5
:10093C0099AE394A138803EB830300EB4303303B36
:10094C0013802EE6374B9B6803B19847324A1388C5
:10095C00013B9BB21380002B7FF423AE23702B4BF7
:10096C001B68002B3FF41DAE2F48984719E6002357
:10097C002E4A2370136014E62A4B00201B689847FC
:10098C00224B1B680BB12A489847112323702B78F4
:10099C00DA0740F1D381274A126872B923F00903B0
:1009AC00254A2B70184B11881B78244A118023B9C7
:1009BC000122234B1A700A233360BDE8F88F194BC0
:1009CC0001201B689847114B1B680BB11D489847B9
:1009DC00122323704FF4FA733360D8E701230022FB
:1009EC002370194B1A70D2E7174A137873B3013B73
:1009FC00DBB2137063BB1023C8E700BF6007002095
:100A0C0064070020540700208206002050070020B5
:100A1C00869E00089B9E00087E060020C9060020CA
:100A2C008106002068020020AF9E00085C070020B1
:100A3C00C29E000858070020760200207802002091
:100A4C0065070020D89E0008740200200423137050
:100A5C002B78974823F020032B70FFF779FB954BED
:100A6C001B680BB19448984702238FE72B789806A4
:100A7C0040F1BF80032389E79048FFF769FB8D4B5A
:100A8C001B680BB18E48984704237FE78D4F3B784A
:100A9C006BB18D48FFF75CFB864B1B680BB18B4829
:100AAC0098473B78002B0CBF082305236EE788483A
:100ABC00F0E78848FFF74CFB2220FFF763FB8648E2
:100ACC00FFF746FB2220FFF75DFB2C20FFF75AFBBC
:100ADC002220FFF757FB8148FFF73AFB2220FFF754
:100AEC0051FB2C20FFF74EFB7D48FFF731FB2C20F0
:100AFC00FFF748FB7B48FFF72BFB0D20FFF742FB72
:100B0C000A20FFF73FFB6B4B1B680BB176489847ED
:100B1C0006233BE77548FFF71BFB664B1B680BB1C5
:100B2C0073489847072331E77248FFF711FB614B75
:100B3C001B680BB1704898470F2327E72B78990750
:100B4C0001D50A2322E76D4F3B78002B3FF41FAFF2
:100B5C006B48FFF7FDFA2220FFF714FB3846FFF72E
:100B6C00F7FA2220FFF70EFB2C20FFF70BFB2220BD
:100B7C00FFF708FB6348FFF7EBFA2220FFF702FBB5
:100B8C000D20FFF7FFFA0A20FFF7FCFA494B1B6810
:100B9C000BB15D4898472B7823F020032B70092369
:100BAC00237040F2DC5317E72B789A0621D50A23E1
:100BBC0004222370554B15E70022554B55481A70EB
:100BCC00FFF7C6FA3B4B1B680BB1534898472B7881
:100BDC0023F020032B700B23D8E62B789B0601D532
:100BEC000C23D3E6494A1378013BDBB21370002B7C
:100BFC00A7D10123CAE6494B1B78002B3FF4C7AEA3
:100C0C004748FFF7A5FA2B4B1B680BB14548984793
:100C1C000D23BBE64448FFF79BFA2220FFF7B2FAFC
:100C2C004248FFF795FA2220FFF7ACFA2C20FFF789
:100C3C00A9FA2220FFF7A6FA3848FFF789FA2220F2
:100C4C00FFF7A0FA2C20FFF79DFA3948FFF780FA3E
:100C5C002C20FFF797FA3748FFF77AFA2C20FFF78A
:100C6C0091FA3020FFF78EFA0D20FFF78BFA0A204D
:100C7C00FFF788FA0F4B1B680BB12F4898472B785E
:100C8C0023F060032B700E232370C823A4E62B786B
:100C9C009F063FF551AFACE70A4B1B780BB1002315
:100CAC009AE62B789807A4D5590699D5F7E700BF93
:100CBC0041A4000850070020EE9E000833A4000851
:100CCC00FC9E000882060020109F00082C9F000844
:100CDC001E9F0008E9A30008A3060020830600203D
:100CEC000200002000000020409F0008D5A300084F
:100CFC00539F0008C1A30008679F00080F0700203E
:100D0C0029A40008EF0600207E9F00087402002032
:100D1C00C90600201EA40008919F0008DF060020D1
:100D2C0003A40008A29F000811A4000805000020DD
:100D3C00D9060020C3060020B89F0008154C1649A0
:100D4C002288098891423FF438AE144E5F07B05C9C
:100D5C0002D53E2808BF0A20114B5B689847002833
:100D6C003FF42BAE2A78238851070AD5F15C3E2933
:100D7C0007D1322122F0050242F001022A70094A01
:100D8C00116001339BB2B3F5007F08BF00232380B1
:100D9C0013E600BF78020020760200207E020020BD
:100DAC006802002058070020014B1860704700BFF4
:100DBC0054070020014B1860704700BF50070020FB
:100DCC000022F0B5084BD4B2A14202F1010200D8C6
:100DDC00F0BD5D791E686F1C5F71045D74555C79A4
:100DEC00DD792C405C71EEE7EC0D0020032802BF8E
:100DFC000122014B1A707047B4070020021E18BF65
:100E0C0001224FF40071014803F076BA000C014046
:100E1C001FB514461A464FF0FF330091CDE901433C
:100E2C0001460123024803F007FD04B010BD00BFCA
:100E3C0018100020FFF7ECBF13B514461A46CDE985
:100E4C00001401230146024803F086FD02B010BDD8
:100E5C001810002013B514461A46CDE900140123CE
:100E6C000146024803F03EFE02B010BD18100020EF
:100E7C0007B501228DF807000DF10701034806F0B4
:100E8C002EFCB0FA80F0400903B000BD280E002003
:100E9C0010B50446FFF754F981B22046BDE8104066
:100EAC0008F0CAB810B5164B1B78F3B115490C787D
:100EBC00FF2C15D07E2C144B13D818550020621C17
:100ECC00D2B2012A0A7098540AD0134413F8022C97
:100EDC000D2A05D113F8013C0A2B01D1FF230B700D
:100EEC0010BD00220A701A70FAE7084B5A7919687B
:100EFC00541C5C7188545A79D9790A405A71EFE7BD
:100F0C00090900200A0900200B090020D40D00203B
:100F1C00054B064A03F1100153F8040B8B4242F8BF
:100F2C00040BF9D1704700BF140E0020040E0020F2
:100F3C000122014B1A707047CB0900200122014B92
:100F4C001A707047CA09002038B502681A4B04465B
:100F5C009A4212D1194A1A4913781A480133DBB252
:100F6C00282B01BF00231370174A137808BF43F0D6
:100F7C0080031370082202F03BFD2368B3F1804F0D
:100F8C0018D10122114912480B78124CE254134427
:100F9C00027803F00F03013A12F0FF0208BF052597
:100FAC000B7003BFE254013303F00F03027004BF54
:100FBC0005700B7038BD00BF002C0140240E0020C2
:100FCC00140E0020B0100020CC090020AC09002029
:100FDC003A000020AD090020F0B5026883790C4678
:100FEC00D15C0546B22989B018D89F291CD9A139E2
:100FFC0011291FD8DFE811F0280038008400D30035
:10100C00F100650182010E012B0148019F018F0245
:10101C00AC02C902E60203032003E201F02900F04E
:10102C00EA81F12900F04D820222204602F0FFF9FC
:10103C00FF2105E0A0210222204602F0F8F90D2143
:10104C00204602F03CFA08E0A1210D22204602F0D5
:10105C00EEF92046C84902F045FA2046217A09B03B
:10106C00BDE8F04002F02BBA0D22A221204602F07E
:10107C00DEF9C24BC24DB3F9001020462980C9B22B
:10108C0002F01DFA6978204602F019FABD4B204691
:10109C00B3F900102980C9B202F011FA6978204620
:1010AC0002F00DFAB84B2046B3F900102980C9B2F2
:1010BC0002F005FA6978204602F001FAB34B20469B
:1010CC00B3F900102980C9B202F0F9F96978204609
:1010DC0002F0F5F9AE4B2046B3F900102980C9B2E5
:1010EC0002F0EDF96978204602F0E9F9A94BB3F961
:1010FC00001029802046C9B202F0E1F969789FE717
:10110C00A54E1122A321204602F091F99C4D318865
:10111C0020462980C9B202F0D2F96978204602F043
:10112C00CEF9718820462980C9B202F0C8F96978D5
:10113C00204602F0C4F9B18820462980C9B202F0D9
:10114C00BEF96978204602F0BAF9F1882046298068
:10115C00C9B202F0B4F96978204602F0B0F93189CD
:10116C0020462980C9B202F0AAF96978204602F01B
:10117C00A6F9718920462980C9B202F0A0F96978D4
:10118C00204602F09CF9B18920462980C9B202F0B0
:10119C0096F96978204602F092F9F189A9E70222C2
:1011AC00A421204602F043F90D21204602F087F9D4
:1011BC00217A204602F083F900220121284602F010
:1011CC00B6F96F4C002220700121284602F0AFF9CD
:1011DC0060702288714B1A80CBE00222A521204638
:1011EC0002F025F90D21204602F069F9217A2046FA
:1011FC0002F065F900220121284602F098F9604CB2
:10120C00002220700121284602F091F9607022889A
:10121C00634BE0E70222A821204602F008F90D21D9
:10122C00204602F04CF9217A204602F048F90022BF
:10123C000121284602F07BF9514C0022207001213B
:10124C00284602F074F960702288564BC3E70222DC
:10125C00A921204602F0EBF80D21204602F02FF9CF
:10126C00217A204602F02BF900220121284602F0B7
:10127C005EF9434C002220700121284602F057F9F8
:10128C0060702288484BA6E70222AA21204602F071
:10129C00CEF80D21204602F012F9217A204602F0F8
:1012AC000EF900220121284602F041F9344C0022AB
:1012BC0020700121284602F03AF9607022883B4BDD
:1012CC0089E70222A621204602F0B1F80D21204622
:1012DC0002F0F5F8217A204602F0F1F80022012103
:1012EC00284602F024F9264C0022207001212846C1
:1012FC0002F01DF9607022882D4B6CE70222A721A9
:10130C00204602F094F80D21204602F0D8F8217AFC
:10131C00204602F0D4F800220121284602F007F9F9
:10132C00174C002220700121284602F000F9607051
:10133C002288204B4FE70222AB21204602F077F89F
:10134C000D21204602F0BBF8217A204602F0B7F8B6
:10135C0000220121284602F0EAF8094C00222070F4
:10136C000121284602F0E3F86070B4F90020124B1A
:10137C001A6009B0F0BD00BF28B90008C8090020E8
:10138C00D0090020C6090020C4090020C209002091
:10139C00C0090020BE090020040E0020AA0900206C
:1013AC00A80900202600002024000020840700202B
:1013BC002200002020000020180000200222B22170
:1013CC00204602F034F80D21204602F078F8217AFC
:1013DC00204602F074F800220121284602F0A7F8FA
:1013EC00A44C002220700121284602F0A0F8607065
:1013FC002288A14BEFE600251D22204602F017F8AB
:10140C009E4B01AF1B88ADF804309D4B1B88ADF88B
:10141C0006309C4B1B88ADF808309B4B1B88ADF8F5
:10142C000A309A4B1B88ADF80C3037F9026B20460A
:10143C00F1B202F044F801352046C6F3072102F060
:10144C003EF8052DF1D1924D2046297802F037F85F
:10145C006978204602F033F8A978204602F02FF87C
:10146C00E9780025204602F02AF88A4B04AF1B8845
:10147C00ADF81030884B1B88ADF81230874B1B88A9
:10148C00ADF81430864B1B88ADF81630854B1B8895
:10149C00ADF81830844B1B88ADF81A30764B1B888E
:1014AC00ADF81C3037F9026B2046F1B202F007F8A8
:1014BC0001352046C6F3072102F001F8072DF1D1C2
:1014CC00CBE500261122204601F0B1FF774B04AF8B
:1014DC001B680493764B1B680593764B1B6806932D
:1014EC00754B1B68079357F8045B2046E9B201F073
:1014FC00E6FFC5F30721204601F0E1FFC5F30741E4
:10150C00204601F0DCFF01362046290E01F0D7FF02
:10151C00042EE8D1A1E50222AC21204601F087FF80
:10152C000D21204601F0CBFF217A204601F0C7FFA8
:10153C0000220121284601F0FAFF4E4C00222070B7
:10154C000121284601F0F3FF60702288514B42E6DE
:10155C000222AD21204601F06AFF0D21204601F048
:10156C00AEFF217A204601F0AAFF00220121284675
:10157C0001F0DDFF3F4C002220700121284601F0D4
:10158C00D6FF60702288444B25E60222AE2120460D
:10159C0001F04DFF0D21204601F091FF217A2046EC
:1015AC0001F08DFF00220121284601F0C0FF314CD3
:1015BC00002220700121284601F0B9FF60702288BA
:1015CC00364B08E60222AF21204601F030FF0D21F8
:1015DC00204601F074FF217A204601F070FF0022B2
:1015EC000121284601F0A3FF224C0022207001218A
:1015FC00284601F09CFF60702288294BEBE5022203
:10160C00B021204601F013FF0D21204601F057FFB9
:10161C00217A204601F053FF00220121284601F0D7
:10162C0086FF144C002220700121284601F07FFF18
:10163C00607022881B4BCEE50222B121204601F0BE
:10164C00F6FE0D21204601F03AFF217A204601F0EA
:10165C0036FF00220121284601F069FF054C0022CB
:10166C0020700121284601F062FF607022880E4B29
:10167C00B1E500BFD0090020120000202600002098
:10168C0084070020240000202200002020000020DD
:10169C001800002082070020800700201E00002078
:1016AC001C0000201600002014000020A4070020BD
:1016BC00980700209C07002094070020F0B51646E0
:1016CC004379027905469A420C46C3B017D001F013
:1016DC003BFFA0B121462846FFF77EFC0022617A31
:1016EC0002A8D3B299420CD8C6B1FEF78DFD4FF4C7
:1016FC00807300930022637A02A9FEF7F7FD43B0D2
:10170C00F0BDA77925687B1CDBB2A371ED5D0132BE
:10171C0000F8015BE5792B40A371E2E702A807F022
:10172C008BFCECE710B50C4B0C4C1A780C4B0D48A1
:10173C0053F822100122237802FA03F38B4308BFDB
:10174C001A464FF4005102F0D7FD2378013303F011
:10175C001F03237010BD00BFA20900206E070020DC
:10176C004000002000100140F0B5002485B001209D
:10177C0001F000FA2146402320221E20009401F0A3
:10178C0037FB2046162380221421009401F030FBF5
:10179C004023522221465020009401F029FB7F4D1A
:1017AC002146282001F0D8FA7D4902A807F0D6FE80
:1017BC0095E80E00009402A801F0B8FA21465520D5
:1017CC0001F0CAFA774902A807F0C8FE95E80E00A6
:1017DC00009402A801F0AAFA1921282001F0BCFA01
:1017EC000821714B714D0DEB0100B3F90030704ABB
:1017FC0007F020FE95E80E00009402A801F096FA7E
:10180C001921552001F0A8FA08216A4B0DEB0100B3
:10181C00B3F90030664A07F00DFE95E80E0000940F
:10182C0002A801F083FA2521282001F095FA08215D
:10183C00614B0DEB0100B3F900305D4A07F0FAFD86
:10184C0095E80E00009402A801F070FA25215520AD
:10185C0001F082FA0821594B0DEB0100B3F900306D
:10186C00534A07F0E7FD95E80E00009402A801F03A
:10187C005DFA3121282001F06FFA0821504B0DEB55
:10188C000100B3F900304A4A07F0D4FD95E80E0088
:10189C00009402A801F04AFA3121552001F05CFABB
:1018AC0008211E26474B0DEB0100B3F90030404ACE
:1018BC0007F0C0FD95E80E0040F6FA75424F009413
:1018CC0002A801F033FA3B8803227343B3FBF5F310
:1018DC00C3F13C0310463C210094DBB201F042FA08
:1018EC007B8806227343B3FBF5F3C3F13C0310462C
:1018FC003C210094DBB201F035FABB88092273431A
:10190C00B3FBF5F3C3F13C0310463C210094DBB26E
:10191C0001F028FAFB880C227343B3FBF5F3C3F1F7
:10192C003C0310463C210094DBB201F01BFA3B89CE
:10193C000F227343B3FBF5F3C3F13C0310463C2178
:10194C000094DBB201F00EFA7B8912227343B3FBD5
:10195C00F5F3C3F13C0310463C210094DBB201F0DB
:10196C0001FABB8915227343B3FBF5F3C3F13C03B6
:10197C0010463C210094DBB201F0F4F9FB891822EB
:10198C007343B3FBF5F3C3F13C033C2110460094C5
:10199C00DBB201F0E7F905B0F0BD00BF48A40008C8
:1019AC00CE9F0008D29F0008C809002054A400084C
:1019BC00D69F0008C2090020C6090020C0090020DB
:1019CC00C4090020BE090020040E002037B5344C99
:1019DC002378032B61D8DFE803F002151A27314A6C
:1019EC00314B11781B788B4208D030484B1C415C32
:1019FC0003F00F0321B103212170137003B030BD2C
:101A0C000121F9E7FFF7B0FE02232370F6E728481F
:101A1C0004F05CF82028F1D101F0D2F80028EDD0C8
:101A2C000023244A1370F0E7214804F052F8224DA9
:101A3C0010B14FF47A732B601D4804F047F820283E
:101A4C0016D100F0DDFF98B11C4B1D4A01931D4BC4
:101A5C001D4900931D481E4B01F01AF800231D4A26
:101A6C001D4913700A7842F008020A702B60CCE70B
:101A7C002B680133B3F5FA7F2B60BFD90C4802F009
:101A8C00C1FE012001F03AFE094802F013FE00F0FD
:101A9C0089FF00F0A7FF0023E8E70023B5E700BFAC
:101AAC006D0700206C070020AC090020AD09002058
:101ABC0018100020CB09002068070020BE09002068
:101ACC00C4090020C0090020C6090020C809002054
:101ADC00C2090020CA090020CC090020074B084A83
:101AEC001B6812885A63074A1288DA63064A1288FE
:101AFC009A63064A12881A64704700BFB80E002019
:101B0C00AA090020A6090020A8090020A409002089
:101B1C0013B50B4B044600934FF4AA71094B0A4AB8
:101B2C000A4807F087FC4FF4AA7300220093204662
:101B3C0040F243130549FEF7D9FB02B010BD00BFBC
:101B4C001EA00008D99F000819A00008B5070020A6
:101B5C0013B50A4B044600934FF4AA71084B094A7B
:101B6C00094807F067FC4FF4AA7300220093204643
:101B7C00B3230549FEF7BAFB02B010BD23A1000840
:101B8C00D99F000819A00008B50700202DE9F843DB
:101B9C0000241F460C7014701C7047F23A53089DB9
:101BAC0089462B8032490646904607F094FC58B182
:101BBC00043010F8013FE2B213F0DF0F01D0262BF6
:101BCC0036D1002309F8023030462A4907F083FC4D
:101BDC0060B10023043010F8012FD9B212F0DF0FDE
:101BEC0001D0262A2ED1002308F801303046224994
:101BFC0007F071FC58B10023C21C12F8011FD8B2B7
:101C0C0011F0DF0F01D0262926D100233B5430469A
:101C1C001A4907F060FC48B10023053010F8012F79
:101C2C00303AD1B209291DD903B12B80BDE8F88314
:101C3C002B2B08BF202309F8043001343F2CB8D1DA
:101C4C002246BEE72B2A08BF202208F803200133C6
:101C5C003F2BC0D11946C6E7F95401330F2BCCD119
:101C6C001846D2E703EB830302EB430293B2D5E7AA
:101C7C0098A100089EA10008A4A10008A9A1000831
:101C8C002DE9F043344BA9B01E785EB100221A70D6
:101C9C0047F23152314B3248198829B0BDE8F04334
:101CAC00FEF7B8BADFF8BC9099F80030002B42D0A0
:101CBC002D4F3B78FF2B3ED1FEF7A6FA2B4C8046DE
:101CCC002B49204607F007FC0546002836D0402259
:101CDC00314608A807F0E4FB4022314618A807F06B
:101CEC00DFFB102231460DEB020007F0D9FB0DF1A2
:101CFC000E030093204604AB18AA08A9FFF746FF71
:101D0C009DF8103033B1164B0F22184604A907F07A
:101D1C00CFFBC673BDF80E300BB1104A1380404692
:101D2C00FFF716FF002318A908A889F800303B70AC
:101D3C002370FEF73BFA29B0BDE8F08320460D492D
:101D4C0007F0C9FB28B14046FFF7E2FE3D70257055
:101D5C00F1E738702070EEE7B4070020280000206F
:101D6C002A000020090900200A0900200B09002084
:101D7C00B0A10008BAA1000802780346032A1CD8B7
:101D8C00DFE802F00F021407427842B903221A70FE
:101D9C0005E0417801220029F9D101708270002000
:101DAC0070474278012AFAD10222F0E740780022EB
:101DBC000128ECD118709A7070470122E7E70000F7
:101DCC0008B5837813B183880A339BB20A4A83809F
:101DDC001378042B0DD900234FF4004107481370DE
:101DEC0002F084FA064B08B9587008BD01225A70EB
:101DFC00FBE701331370F8E766070020000C014085
:101E0C008C09002073B5294C2378DB0938D0237852
:101E1C00274D23F0800323702B78264E013B2B702B
:101E2C003378013B3370FEF72DFB2348FFF7C8FFD7
:101E3C00224890F84230222B09D0036820491A68B6
:101E4C005B682023012280F8423005F028FE3378AD
:101E5C002BB902233370237843F0400323702E7880
:101E6C0076B90A232B70237843F020032370FFF7F5
:101E7C0059FC144A13780133DBB2092B02D81370C6
:101E8C0002B070BD104B16701C78002CF8D1FEF708
:101E9C0007FA0728F4D14FF48073224600932046AA
:101EAC0009230A49FEF722FAEAE700BFCC09002011
:101EBC003C0000203B0000208C090020280E002054
:101ECC00A0090020A1090020090900200900002018
:101EDC0083784BB98288642A06D9B2F57A7F04D20A
:101EEC000121044A117083807047FDD0014A1370A0
:101EFC00F9E700BFA2090020AE4A2DE9F0411378A2
:101F0C001B0740F1EF801378AB4923F008031370E3
:101F1C0040F6FF724C884B89C988141B511A24EA6D
:101F2C00E474D31A0029ACBF6218221C23EAE373B1
:101F3C001A44012AB8BF0122A04DA148A14E2F6816
:101F4C00D0F800C0A0493260A04A57EA0C0EB2F992
:101F5C000020B1F900100ED04FF05F0E02EB8202A0
:101F6C000EFB0722642701EB81010EFB0C1192FB87
:101F7C00F7F291FBF7F1016001F57A60B0F5FA5FC9
:101F8C002A60934D08D94FF47A70424392FBF1F2D8
:101F9C0040F23D214A432A606FF0C7018D4A8E48BA
:101FAC00B2F900204FF0000C4A43832192FBF1F26E
:101FBC008A498B4F0A6001680A442968312505FB60
:101FCC000211322291FBF2F2026041F2883291FB53
:101FDC00F2F1844A84481160844AC0F800C0156844
:101FEC003A7822B1012A7FD087F800C006E040F28F
:101FFC00DB5332689A4201DD01233B7032227C4B69
:10200C007C4E6D1A1D6033687B4CEB1A02FB03FC93
:10201C007A4B05F19502B2F5957FC3F800C02368A1
:10202C0000F2A580142202FB0533754A9342B8BF17
:10203C00134649F640429342A8BF13464FF47A77B1
:10204C00704A2360B2F9002035605A4392FBF7F2D4
:10205C006D4BB3F9003005FB03226C4BB3F9003028
:10206C000CFB032292FBF7F3694FB2F57A7F3B60CE
:10207C00C0F28280674A1288134442F2283201F57A
:10208C008C5114319142644D4FF000027CD91146B1
:10209C0022602B888B42A8BF0B462988484283427A
:1020AC00B8BF03468A42A8BF0A46824299B2B8BF5B
:1020BC000246002B59485A4BD5BF49421980018022
:1020CC000023D6BF00210380198093B2002A554902
:1020DC00554AD5BF5B4213800B800023D6BF00232B
:1020EC000B801380BDE8F08140F2DB5ED6F80080F7
:1020FC004E4EF0453268DFF838E10ADC002AD4BFD6
:10210C006FF06303642387F800C0CEF800303360AF
:10211C0074E74FF47A756B43A5F5FA6505FB043348
:10212C000A2493FBF8F393FBF4F39C1A414ACEF880
:10213C000030B2F90050404AB2F900205A4305FB76
:10214C0004223E4C002AB8BF0332B4F9004092106E
:10215C00026024B1002AB8BF524292FBF4F4384A10
:10216C00B2F900502544322DA8BF3225CFE70A2200
:10217C00DB0093FBF2F361E712F57A7FD7BF254AB8
:10218C00002312889B1A78E7002B10D02D4A006888
:10219C00B2F900102C4A0144B2F90020C8BFC9188A
:1021AC00A2EB0002CEBFD218591A9A1A71E71A463E
:1021BC0073E700BFCC090020140E00208C07002010
:1021CC00880700207C070020C4090020C8090020D3
:1021DC00B0070020C0090020A8070020AC07002091
:1021EC006F070020900700207407002018000020C3
:1021FC00A4070020A0070020980700209C070020BF
:10220C00C063FFFF8407002026000020240000206C
:10221C00940700202000002022000020A6090020A6
:10222C00A4090020AA090020A8090020700700209A
:10223C007807002080070020820700201200002071
:10224C00140000201E0000201C00002010B594B0CB
:10225C00142200210CA807F023F9142200210DEB05
:10226C00020007F01DF91022002101A807F018F94F
:10227C0002244FF480330122CDE91143CDE90A2326
:10228C004FF4E0130AA80E92139304F09DFA08B1D0
:10229C0072B6FEE70F23CDE905344FF48063079047
:1022AC00CDE90830214605A804F050FC08B172B6FF
:1022BC00FEE7122301934FF40043CDE9033001A84C
:1022CC0004F000FD08B172B6FEE714B010BD0000BA
:1022DC0080B5A74D98B001F0EDF9FFF7B7FF1022CC
:1022EC00002111A807F0DCF8AB69002243F01003C1
:1022FC00AB61AB694FF4005103F010030293029BE6
:10230C00AB699C4843F02003AB61AB69002403F03C
:10231C0020030393039BAB69012743F00403AB61D8
:10232C00AB69022603F004030493049BAB6943F0EE
:10233C000803AB61AB6903F008030593059B01F03F
:10234C00DBFF00224FF400718B4801F0D5FF4FF4F6
:10235C000053884811A9CDE91137CDE9134601F096
:10236C0083FE4FF40043844811A9CDE91134139432
:10237C0001F07AFE4FF400737F4811A9CDE91137B3
:10238C00CDE9134601F070FE6B6922463B436B614D
:10239C006B6921463B400B200193019B01F06CFCC7
:1023AC000B2001F099FC224621460E2001F064FC22
:1023BC000E2001F091FC224621460F2001F05CFC1E
:1023CC000F2001F089FC6D4A6D4BCDE9114413606F
:1023DC004FF480731394936014734FF4602314754B
:1023EC00546008241046D361146101F0B3FB08B1AA
:1023FC0072B6FEE7CDE91107139011A95F4801F001
:10240C003DFA08B172B6FEE75C4811A9CDE9117628
:10241C0001F034FA08B172B6FEE70325574811A94A
:10242C001196129501F02AFA08B172B6FEE71195D1
:10243C000425524811A9129501F020FA08B172B680
:10244C00FEE7119505254D4811A9129501F016FAD4
:10245C0008B172B6FEE711950625484811A91295E8
:10246C0001F00CFA08B172B6FEE711950725434846
:10247C0011A9129501F002FA08B172B6FEE73F48B5
:10248C0011A9CDE9115401F0F9F9044608B172B65D
:10249C00FEE70CAE01461022304607F001F814227C
:1024AC00214611A806F0FCFF47233648DFF8D8C0B8
:1024BC0008AFC0E900C3F92308947C60C0E9033479
:1024CC00C0E90544846004F0E1FD08B172B6FEE792
:1024DC004FF4805831462B48CDF8308004F0BCFEC8
:1024EC0008B172B6FEE7CDE9110011A9254804F038
:1024FC00AAFF08B172B6FEE7CDE9080039462148BB
:10250C0005F026F8054608B172B6FEE70146102222
:10251C00304606F0C5FF1422294611A806F0C0FF6C
:10252C004FF047094FF08043184C0895C4E9003927
:10253C0044F61F6320467D60C4E90335A560A561A0
:10254C0004F0A4FD08B172B6FEE731462046CDF882
:10255C00308004F081FE08B172B6FEE7CDE91100BF
:10256C0011A9204604F06FFF90B172B6FEE700BFD0
:10257C000010024000100140000C0140B01000207F
:10258C0000240140480F0020002C0140000F0020C7
:10259C00CDE908003946204604F0DAFF044608B1BC
:1025AC0072B6FEE701461022384606F079FF142277
:1025BC002146304606F074FF1C22214611A8A14D7D
:1025CC000694079406F06CFF9F4B2846C5E900392A
:1025DC0042F20F730DF1180AC5E90334AC60AC611B
:1025EC0004F054FD08B172B6FEE739462846CDF822
:1025FC00208004F031FE08B172B6FEE7284604F0E4
:10260C0071FD08B172B6FEE7002331468D48CDE965
:10261C000C3304F018FF08B172B6FEE7CDE90600E2
:10262C005146884804F094FF024608B172B6FEE7A2
:10263C0060231390CDE91130159011A9814804F055
:10264C00A9FD08B172B6FEE704227E4811A904F078
:10265C00A1FD08B172B6FEE708227A4811A904F070
:10266C0099FD08B172B6FEE70C22764811A904F068
:10267C0091FD044608B172B6FEE7724800F0E8FD21
:10268C004FF4E1337148724DC0E90244C0E9005384
:10269C000C230461C0E90534C46104F0F1FF044665
:1026AC0008B172B6FEE706F053FC6A486A496B4BF8
:1026BC00C0E90244C0E900134FF48043C0E906446A
:1026CC00C0E90434046201F0F5FF044608B172B6A7
:1026DC00FEE71022014611A806F0E2FE4723604DEA
:1026EC00604A0C94C5E9002342F20F7328467460CB
:1026FC00C5E90334AC60AC6104F0C8FC08B172B637
:10270C00FEE74FF48053284611A9119304F0A4FD61
:10271C0008B172B6FEE7002331465148CDE90C33BF
:10272C0004F016FF044608B172B6FEE74E4806F0F8
:10273C0099FC4E4804F0B4FB4D4804F0B1FB414801
:10274C0004F0AEFB21463F4804F000FF04213D4855
:10275C0004F0FCFE08213B4804F0F8FE0C2139483B
:10276C0004F0F4FE4FF400510122424801F0C4FD84
:10277C00414800F0F9F9414800F0F0F9404800F008
:10278C00E7F900F075FB3F4800F0E2F83E4800F036
:10279C00E5F83E4800F0E8F800F004F93C4A3D4BFF
:1027AC00104613603C4B53603C4B9360FDF732FE7C
:1027BC003B48FEF7FFFA3B48FEF7F6FA01223A498E
:1027CC00224805F06CF9394B39493A481C70FDF731
:1027DC00EDFC394B394A3A493A4800F014FF3A4B70
:1027EC003A4A3B493B4800F00EFF40F201223A4B7B
:1027FC001C703A4B1C803A4B1C803A4B1C803A4B59
:10280C001C803A4B1A809C709C80FFF7FBFAFDF7FA
:10281C0055FEFFF735FA002229492A48FEF74EFFEC
:10282C0001222B492B48FEF749FFFFF757F9FFF719
:10283C00CDF8FFF761FB2D48FFF74AFBFFF79CFA39
:10284C00E3E700BFB80E002000040040280E002073
:10285C00003801401810002000580040801A060073
:10286C00700E002000080040CD0D0008480F00201D
:10287C00000F002000100140CB0900201D0E0008A5
:10288C00450E0008CA090020410E0008610E000820
:10289C0094090020090E00087D0E0008B10E0008F6
:1028AC009D0E0008F90D0008A00900200909002060
:1028BC00C0A10008D3A10008D40C0020D40B002028
:1028CC00F80D0020EC0D0020D40A0020D4090020C3
:1028DC00E00D0020D40D0020CC090020AA09002016
:1028EC00A6090020A8090020A40900208C090020BA
:1028FC000268084B10B59A420AD1074C2078FDF7B4
:10290C00E1FC2146BDE810400122044805F0C7B89F
:10291C0010BD00BF00380140A0090020280E002087
:10292C000368074A934209D11A685B682023012285
:10293C0080F842300349044805F0B1B8704700BF35
:10294C0000380140A0090020280E002072B6FEE7D6
:10295C00014B1860704700BF10110020014B18602C
:10296C00704700BF0C110020014B1860704700BF6E
:10297C0008110020044A10B414680B46A446014602
:10298C000122D02010BC60470C1100201346044AD1
:10299C0010B41468CAB2A446014610BCD0206047DB
:1029AC000811002013B500240DF107006B218DF8E0
:1029BC000740FFF7DFFF04230DF107001A218DF804
:1029CC000730FFF7D7FF0DF107001C218DF80740EA
:1029DC00FFF7D0FF1B210DF10700FFF7CBFF02B073
:1029EC0010BD00000122044B1A70044B1B680BB184
:1029FC0000221A70704700BF7000002010110020D8
:102A0C0008B51A4B19681A4B08781A7818B9012AA4
:102A1C0023D0002008BD0020012A08701DD0022AF6
:102A2C00F7D101201870134B13491A88D2BA0A60D7
:102A3C005A881249D2BA0A609A881149D2BA0A60E5
:102A4C001A891049D2BA0A605A890F49D2BA9B899D
:102A5C000A600E4ADBBA1360DCE702220E211A7000
:102A6C0004483B22FFF792FFD3E700BF1011002070
:102A7C0070000020E0100020041100200011002044
:102A8C00FC100020F8100020F4100020F0100020A2
:102A9C0070B5DDE9045410B10B4E3668068011B1E7
:102AAC000A480068088012B109490968118013B1FD
:102ABC00084A12681A8015B1074B1B682B8014B199
:102ACC00064B1B68238070BD0411002000110020F0
:102ADC00FC100020F8100020F4100020F010002052
:102AEC0013B5064B8DF807001C68012200237820D3
:102AFC000DF10701A04702B010BD00BF201500204A
:102B0C0013B5064B8DF807001C68012200237820B2
:102B1C000DF10701A04702B010BD00BF1C1500202D
:102B2C00044B10B41C68CAB2A4460146402378205A
:102B3C0010BC604720150020044B10B41C68CAB2AE
:102B4C00A44601464023782010BC60471C15002089
:102B5C00014B1860704700BF1C150020014B18601A
:102B6C00704700BF20150020014B1860704700BF54
:102B7C002415002000284FF4806214BFFF2100218F
:102B8C00014806F08DBC00BF1C11002038B5B024E4
:102B9C000A4D2046FFF7A4FF0020FFF7A1FF0134E8
:102BAC001020FFF79DFFE4B228468021FFF7B8FF05
:102BBC00B82C05F18005ECD138BD00BF1C110020EC
:102BCC0038B51C4B1C4C1A682378117819B9012B99
:102BDC000AD0002038BD0021013B1170032BF8D81E
:102BEC00DFE803F0020B1015144B18785038C0B204
:102BFC00FFF786FF02232370EBE70020FFF780FF2F
:102C0C000323F8E71020FFF77BFF0423F3E70B4DBA
:102C1C000B4B2878802103EBC010FFF78DFF0120B0
:102C2C002B7820700133DBB2072B2B70D1D900230A
:102C3C002B70CFE724150020710000201411002008
:102C4C001C110020030630B510D43F290ED80124E6
:102C5C00CB08074D00EBC3102B5C01F0070104FA05
:102C6C0001F1A2420CBF0B438B432B5430BD00BF70
:102C7C001C1100202DE9F04F044689B008A800E98A
:102C8C000E009DF84830A4F120050293EBB25E2BA8
:102C9C0047D8079B23B3234413F8206C224AB2F87D
:102CAC00009009EB0603802B3BDC53889DF815B094
:102CBC00019303EB0B02402A33DC029B4FF000081C
:102CCC00B3FA83FA0BFB05F54FEA5A1A6D00C345AC
:102CDC0009D8154B4E441E80204609B0BDE8F08F34
:102CEC009DF81460DAE70027069A535B0493019B66
:102CFC0008EB0302D3B20393BE4203D808F10108D8
:102D0C000235E4E7049B07EB090003FA07F213040E
:102D1C0054BF5246029A0399C0B2FFF793FF013792
:102D2C00EAE70024D8E700BF1611002070B586B082
:102D3C0003AC84E80E009DF82860451E15F8010FC1
:102D4C0040B1009694E80E00FFF794FF03462878F4
:102D5C008342F3D006B070BD014B18805980704788
:102D6C00161100202DE9F74F9046A8EB0009A3EBB4
:102D7C00010AB9F1000F1E46B8BFC9F10009BAF13A
:102D8C00000FB8BFCAF1000A804594BF4FF0FF3363
:102D9C00012305460C468E4294BF4FF0FF3B4FF08B
:102DAC00010B404631469DF830200093A9EB0A07F1
:102DBC00FFF748FFCAF10003454504D1B44202D1E4
:102DCC0003B0BDE8F08F214628460193FFF73AFF88
:102DDC00019B7900B3EB470FBFBF0098A7EB0A0725
:102DEC002D18EDB28945C2BF5C444F44E4B2E3E711
:102DFC002DE9F0411446A042804628BFA046A042CF
:102E0C00064638BF264699420C4628BF1C469942B6
:102E1C0038BF19460F469DF81820BC4201D83F2CEC
:102E2C0001D9BDE8F081454607E02B0607D42846BA
:102E3C002146FFF707FF0135EDB2B542F5D9013454
:102E4C00E4B2EAE710B504468120FFF749FE2046BC
:102E5C00BDE81040FFF744BE034628B10123AF2064
:102E6C00024A5371FFF73CBEAE20F9E71611002061
:102E7C0008B5642000F042FC0020FFF7EDFF202095
:102E8C00FFF72EFE0020FFF72BFEB020FFF728FEE9
:102E9C00C820FFF725FE0020FFF722FE1020FFF7C9
:102EAC001FFE4020FFF71CFEFF20FFF7CBFFA120E9
:102EBC00FFF716FEA620FFF713FEA820FFF710FE63
:102ECC003F20FFF70DFEA420FFF70AFED320FFF7EB
:102EDC0007FE0020FFF704FED520FFF701FEF020CF
:102EEC00FFF7FEFDD920FFF7FBFD2220FFF7F8FDD1
:102EFC00DA20FFF7F5FD1220FFF7F2FDDB20FFF7DC
:102F0C00EFFD2020FFF7ECFD8D20FFF7E9FD1420ED
:102F1C00FFF7E6FD0120FFF79FFF0020FFF72AFED9
:102F2C00FFF734FE0022034B1A805A8001221A71DB
:102F3C0008BD00BF161100200E4B82B09A6942F0FA
:102F4C0001029A619A6902F001020092009ADA6910
:102F5C0042F08052DA61DB69074A03F08053019337
:102F6C00019B536823F0E06343F08063536002B02D
:102F7C00704700BF001002400000014030B505460C
:102F8C0087B01022002102A806F08AFA2A68204B8A
:102F9C009A423BD103F56C439A691E4842F4007285
:102FAC009A619A6902A902F400720092009A9A69D5
:102FBC00194C42F004029A619B69FF2203F004034E
:102FCC000193019B0323CDE9022301F04DF88020EE
:102FDC004FF480720023C4E903024FF480620F495E
:102FEC002046C4E90013C4E90523A360E36100F0A3
:102FFC00A7FE08B1FFF7AAFC002212202C62114692
:10300C00656200F039FE122000F066FE07B030BD9C
:10301C0000240140000801406C1000200800024010
:10302C0030B5054687B01022002102A806F038FA08
:10303C002A682E4B9A4256D12D4C4FF44061A3690D
:10304C002C4843F00803A361A36903F00803009321
:10305C00009B1223CDE90213032302A9059301F06F
:10306C0003F8E369802243F48003E361E3692248B7
:10307C0003F480030193019B0023204CC4E900035B
:10308C002046C4E90323C4E90533A360E36100F0DF
:10309C0057FE08B1FFF75AFC1023194AAC6365625E
:1030AC00184CC4E90023002380222046C4E90232D4
:1030BC00C4E90433C4E9063300F042FE08B1FFF75B
:1030CC0045FC0022212011466C63656200F0D4FDA2
:1030DC00212000F001FE00222220114600F0CCFD40
:1030EC00222000F0F9FD07B030BD00BF00580040B1
:1030FC0000100240000C014058000240D40F002088
:10310C0044000240900F00200268114B10B59A4207
:10311C0004461CD10F4A4FF48061D3690E4823F446
:10312C008003D36101F074F84FF400610A4801F098
:10313C006FF8A06B00F034FE606B00F031FE2120C4
:10314C0000F0D8FDBDE81040222000F0D3BD10BD2A
:10315C000058004000100240000C01401FB50368ED
:10316C00374A93422CD1374B18209A6942F40062AB
:10317C009A6100229B69114603F400630093009B43
:10318C0000F07AFD182000F0A7FD0022192011464E
:10319C0000F072FD192000F09FFD00221A2011464C
:1031AC0000F06AFD1A2000F097FD00221B2011464A
:1031BC0000F062FD1B2005B05DF804EB00F08CBD47
:1031CC00B3F1804F11D103F50433DA691C2042F0BE
:1031DC000102DA610022DB69114603F0010301935D
:1031EC00019B00F049FD1C20E5E7174A934210D1E2
:1031FC00144B1D20DA6942F00202DA610022DB690D
:10320C00114603F002030293029B00F035FD1D20D2
:10321C00D1E70E4A934210D10A4B1E20DA6942F0D4
:10322C000402DA610022DB69114603F00403039304
:10323C00039B00F021FD1E20BDE705B000BD00BFC3
:10324C00002C014000100240000400400008004027
:10325C0010B5044686B01022002102A806F020F911
:10326C002268114B9A421CD103F503339A690F481B
:10327C0042F008029A619B69332203F00803019320
:10328C00019B022302A9CDE90223059300F0ECFE79
:10329C00074A536823F4406343F0E06343F400634C
:1032AC00536006B010BD00BF00040040000C01408C
:1032BC000000014010B5044686B01022002102A87F
:1032CC0006F0EEF822681B4B9A4230D103F55843B6
:1032DC009A69194842F480429A619A6902A902F4E7
:1032EC0080420092009A9A69002442F004029A618A
:1032FC009B694FF4007203F004030193019B0223BA
:10330C00CDE902230323059300F0AEFE4FF4806356
:10331C00094802A9CDE90234049400F0A5FE252049
:10332C002246214600F0A8FC252000F0D5FC06B072
:10333C0010BD00BF0038014000080140FEE7FEE769
:10334C00FEE7FEE7FEE770477047704700F0C4B930
:10335C00014800F0F1BD00BF6C100020014800F0E6
:10336C00EBBD00BF900F0020014800F0E5BD00BF91
:10337C00D40F0020014800F001BA00BFB0100020AB
:10338C00014802F037BC00BF1C240020FFF7F8BF37
:10339C00014803F0B4BD00BF480F0020FFF7F8BF91
:1033AC00FFF7F6BFFFF7F4BF014803F0A8BD00BF5D
:1033BC00000F0020014803F0A2BD00BFB80E002092
:1033CC00014803F09CBD00BF700E0020014801F0C5
:1033DC0083BE00BF18100020014802F0D7BA00BF0E
:1033EC0018100020014804F0F7B900BF280E002087
:1033FC000A4A0346106810B508B909481060094913
:10340C00094C0344091B8B4206D906F07BF80C23AC
:10341C0003604FF0FF3010BD1360FCE7281500204F
:10342C004028002000500020000400007047034694
:10343C00002030B5187258791C68451C5D715525F3
:10344C00987125545879DC7901322040451C5D7106
:10345C004E251C68D2B225545879DC792040451C85
:10346C005D7145251C6825545879DC792040451C34
:10347C005D7152251C6825545879DC7920401C68F4
:10348C00451C5D7122545879DC794A402040451C1A
:10349C005D713A251C6825545879DC7920401C68EC
:1034AC00451C5D7121545879DC79204058710720F6
:1034BC005872187A504080F03600187230BD0346AE
:1034CC0010B5427A013242725A790068541C5C7110
:1034DC0081545A79D87902405A711A7A81EA0200D9
:1034EC00187210BD002337B58DF807309DF80730E2
:1034FC00CB5C13B9007A03B030BD437A9DF807401A
:10350C0001334372437902685D1C45710C5DD454E0
:10351C004379C27913409DF807204371531CDBB2E9
:10352C008DF807308B5C027A53400372DEE703465A
:10353C0010B5C47980790144214018689971405CB8
:10354C0011440C409C7110BDF0B500240526457942
:10355C000379AB4201D10020F0BD827A072A50D802
:10356C00DFE802F0040F1C22282D4F3E0268D25CCB
:10357C00552A01D101228272C279013313400371A1
:10358C00E6E70268D25C4E2A01D10222F3E7552A03
:10359C00F2D000228272013BDBB2EDE70268D25C12
:1035AC00452A1BD10322E6E70268D25C522A15D1C8
:1035BC000422E0E70268D25C86724272DCE70268A1
:1035CC00D25C3A2A0AD10721C2798172591C0A406D
:1035DC008271427A82F036020272CDE78472DAE7A7
:1035EC00427A0768013AD2B2017A42721AB1FA5C95
:1035FC0051400172C0E78272FA5C8A42BCD1012050
:10360C00AAE78472B8E710B502604FF07F4400223D
:10361C00446002818272C1E900340A818A7210BD51
:10362C00FFF704FF0B480C490C4A002302E0D45866
:10363C00C4500433C4188C42F9D3094A094C0023F2
:10364C0001E013600432A242FBD305F061FFFEF7E8
:10365C003FFE7047000000204802002070B90008AF
:10366C00480200203C280020FEE7000038B50E4B35
:10367C0005461A784FF47A73B3FBF2F30B4A1068D1
:10368C00B0FBF3F000F048FB044658B90F2D09D8F5
:10369C00024629464FF0FF3000F0EEFA2046044B6C
:1036AC001D6038BD0120FCE778000020740000206C
:1036BC007C000020074A08B51368032043F0100370
:1036CC00136000F0C7FA0F20FFF7D0FFFFF734FCB0
:1036DC00002008BD00200240034A044B11681B78EF
:1036EC000B441360704700BF2C150020780000209D
:1036FC00014B1868704700BF2C15002038B50446E4
:10370C00FFF7F6FF0546631C1EBF044B1B78E4183D
:10371C00FFF7EEFF431BA342FAD338BD780000201D
:10372C00436A10B59A6A12F0500F1BD19A6A42F490
:10373C0000729A621A68926802F46022B2F5602FE5
:10374C000CD11A7B52B99A6A22F480729A629A6AE4
:10375C00D2045EBF9A6A42F001029A621846FDF7E3
:10376C00D7FB10BD1B6ABDE810401B6B1847704798
:10377C0008B5406AFFF7FBFF08BD7047036870B5DA
:10378C001D685E680446B00626D5A90724D5A26A32
:10379C00D2065EBFA26A42F40072A2629A6802F478
:1037AC006022B2F5602F10D1227B72B95A6822F0D8
:1037BC0020025A60A36A23F48073A362A36AD8041C
:1037CC005EBFA36A43F00103A3622046FDF7A0FB92
:1037DC006FF0120223681A60310630D56A072ED5B5
:1037EC00A36ADB065EBFA36A43F40053A36223689B
:1037FC009A6802F4E042B2F5E04F0AD05A685005DC
:10380C0016D49A6802F46022B2F5602F10D1227B94
:10381C0072B95A6822F080025A60A36A23F480536A
:10382C00A362A36AD9055EBFA36A43F00103A36236
:10383C00204600F00DFA6FF00C0223681A60720635
:10384C000CD5EB070AD5A36A204643F48033A36258
:10385C00FFF793FF6FF0010223681A6070BD704789
:10386C00406A08B5836A43F040038362C36A43F03D
:10387C000403C362FFF7F3FF08BD0000002373B518
:10388C00019390F824300446012B6CD0012380F86E
:10389C0024304D680268062D086805EB850322D894
:1038AC001F26556B053B9E4025EA060500FA03F3DF
:1038BC002B43536309288B6800EB40054FF007013D
:1038CC0029D9D6681E3DA94026EA0101AB400B431D
:1038DC00D360A0F11003012B25D90020002384F81C
:1038EC00243002B070BD0C2D4FF01F0509D8166B9B
:1038FC00233B9D4026EA050500FA03F32B43136393
:10390C00D8E7D66A413B9D4026EA050500FA03F349
:10391C002B43D362CEE71069A94020EA0101AB40EA
:10392C000B431361D9E7114B9A4216D193681B02D2
:10393C00D3D49368102843F400039360CDD10C4B7F
:10394C000C4A1B68B3FBF2F30A2253430193019B0D
:10395C00002BC2D0019B013BF8E7A36A012043F086
:10396C002003A362BAE70220BBE700BF002401409A
:10397C007400002040420F00002337B50193036808
:10398C0004469A68D20702D5002003B030BD9A686D
:10399C0042F001029A60144B144A1B68B3FBF2F319
:1039AC000193019BE3B9FFF7A3FE054623689B68CF
:1039BC00DB07E9D4FFF79CFE401B0228F6D92368ED
:1039CC009B6813F00103F1D1A26A012042F01002AE
:1039DC00A262E26A84F8243042F00102E262D4E787
:1039EC00019B013BDCE700BF7400002040420F004C
:1039FC002DE9F0413F4B9046026804469A420F462F
:103A0C0002D03D498A4203D15B6813F4702F6DD10B
:103A1C0094F82430012B6BD00123204684F82430F9
:103A2C00FFF7AAFF064600285DD1A56A2168324B34
:103A3C0025F4706525F0010545F480759942A56261
:103A4C0004D12C4A536813F4702F3ED1A36A23F48B
:103A5C008013A3624B685A0505D5A36A23F440531F
:103A6C0043F48053A362A36A206A13F4805318BFF3
:103A7C00E36A3A4618BF23F00603E362002384F896
:103A8C0024301E4B4C3183621D4BC3621D4B0363B0
:103A9C006FF0020341F84C3C51F8443C43F4807302
:103AAC0041F8443C434600F0A5F923689A6802F4B7
:103ABC006022B2F5602F9A680CBF42F4A00242F467
:103ACC0080129A603046BDE8F081A36A43F48013FB
:103ADC00A36253685B0541BFA06A20F4405040F4D8
:103AEC008050A062BFE7002384F824300126E9E768
:103AFC000226E7E700240140002801402D3700088A
:103B0C007D3700086D38000838B5036804469A689C
:103B1C00D10701D4002038BD9A6822F001029A60C6
:103B2C00FFF7E6FD054623689B68DB07F2D5FFF738
:103B3C00DFFD401B0228F6D923689B68DA07F2D513
:103B4C00A36A012043F01003A362E36A43F001036C
:103B5C00E362E0E7F8B5044600286DD0836A23B928
:103B6C00C36280F82430FFF709FA2046FFF7CCFF38
:103B7C00A36A13F0100361D100285FD1A26A6168B7
:103B8C0022F4885222F0020242F00202E569A66891
:103B9C00A262227B2943B6F5807F41EA420136D0EE
:103BAC00771E7D427D412D02277D012F06D182BBE0
:103BBC00A269013A45EA423242F400652268B6F540
:103BCC00807F576827F4694745EA07055560976871
:103BDC001D4D05EA070545EA0105956001D0012E4A
:103BEC0002D12369013B1B05D56A25F470052B43D3
:103BFC00D3629268154B1340994213D10023E362B0
:103C0C00A36A23F0030343F00103A362F8BD354616
:103C1C00CAE7A26A42F02002A262E26A42F0010202
:103C2C00E262CBE7A36A23F0120343F01003A36212
:103C3C00E36A43F00103E3620120E7E7A36A43F080
:103C4C001003A362F8E700BFFDF7E1FFFE0E1FFFB4
:103C5C007047000007490302CA6803F4E06322F4CA
:103C6C00E0621204120C134343F0BF6343F40033BD
:103C7C00CB60704700ED00E0154B30B5DC68C4F349
:103C8C000224C4F10703251D042B28BF0423062D91
:103C9C004FF0FF3594BF0024033C05FA03F321EAEF
:103CAC000303A54022EA0502A340002843EA0203CD
:103CBC00ACBF00F16040074A4FEA0313DBB2ABBF65
:103CCC0000F5614000F00F0080F80033135430BD54
:103CDC0000ED00E014ED00E0002807DB01234109B2
:103CEC00034A00F01F00834042F82130704700BFA8
:103CFC0000E100E000280CDB01220649430900F03A
:103D0C001F008240203341F82320BFF34F8FBFF3B5
:103D1C006F8F704700E100E00138B0F1807F0BD26B
:103D2C004FF0E023F021054A586182F8231000205F
:103D3C00072298611A6170470120704700ED00E07E
:103D4C00034610B530B301681420134A0A44B2FB81
:103D5C00F0F292001A64114ADA63022283F82120ED
:103D6C00D3E901242243DC68086822431C696FF301
:103D7C000D1022435C6922439C692243DC69224377
:103D8C0002430A6000200122986383F8200083F824
:103D9C00212010BD0120FCE7F8FFFDBF0000024010
:103DAC0010B508B30168114A0B680A4423F00103EB
:103DBC000B6000230B604B608B60CB601421B2FB5B
:103DCC00F1F201210A4C9200026401FA02F2C4637E
:103DDC0062608363C0E90A33C0E90C3380F8213098
:103DEC0080F82030184610BD0120FCE7F8FFFDBF1D
:103DFC0000000240F0B590F82040012C34D0012492
:103E0C0080F8204090F82140012CE5B24FF00004DE
:103E1C0028D1022680F8216084630468266826F085
:103E2C0001062660D0E90F67BD407560636043688A
:103E3C00102BC36A0BBFA260A160E160E2604BB1C2
:103E4C00236843F00E0300202360236843F0010332
:103E5C002360F0BD236823F004032360236843F040
:103E6C000A03F0E780F820400220F2E790F82120C6
:103E7C000346022A06D0042282630120002283F822
:103E8C00202070470268C06B116821F00E01116090
:103E9C00116821F00101116001211A6C01FA02F282
:103EAC004260002083F82110E8E7000008B590F884
:103EBC002130022B03D004238363012008BD036847
:103ECC001A6822F00E021A601A6822F001021A60B7
:103EDC00174A93421FD0143293421ED0143293428D
:103EEC001DD0143293421DD0143293421DD0143283
:103EFC00934214BF4FF080734FF480130D4A5360FC
:103F0C00012380F82130002380F82030436B03B16B
:103F1C0098470020D2E70123F0E71023EEE74FF497
:103F2C008073EBE74FF48053E8E74FF48033E5E719
:103F3C00080002400000024070B40425C66B026CFD
:103F4C003468036895402542196832D04D0730D546
:103F5C001A6896065EBF1A6822F004021A603E4A7E
:103F6C00934219D01432934218D01432934217D082
:103F7C001432934217D01432934217D01432934216
:103F8C0014BF4FF080634FF48003344A5360C36A0C
:103F9C00002B5ED070BC18470423F6E74023F4E7EF
:103FAC004FF48063F1E74FF48043EEE74FF4802346
:103FBC00EBE702259540254235D08D0733D51A689D
:103FCC00940606D41A6822F00A021A60012280F8BC
:103FDC002120214A934219D01432934218D0143222
:103FEC00934217D01432934217D01432934217D005
:103FFC001432934214BF4FF000734FF40013174A5E
:10400C005360002380F82030836AC1E70223F6E76F
:10401C002023F4E74FF40073F1E74FF40053EEE77D
:10402C004FF40033EBE708259540254211D00907E2
:10403C000FD5196821F00E011960012303FA02F261
:10404C007260836380F82130002380F82030036B8A
:10405C009EE770BC704700BF0800024000000240A1
:10406C0090F82100704700002DE9F74F00244FF025
:10407C000F0E2646DFF884C1614B00F104080A6874
:10408C0032FA06F502D103B0BDE8F08F012505FA2E
:10409C0006F702EA070537EA020276D14A68032AD4
:1040AC0007D8013A022A00F28380DFE802F09196E9
:1040BC009C00122A00F0948069D8112A00F08A80A2
:1040CC00FF2D94BF8146C1464FEA8602D9F8007095
:1040DC0088BF203A0EFA02FA27EA0A0704FA02F21B
:1040EC001743C9F80070D1F8049019F0805F4CD0D8
:1040FC00DCF8182026F0030742F00102CCF8182057
:10410C00DCF8182007F1804702F00102019207F554
:10411C00803706F0030A019A4FEA8A0ABA680EFA47
:10412C000AFB22EA0B0B374A904260D002F5806200
:10413C0090425ED002F5806290425CD002F58062C3
:10414C00904214BF0422032202FA0AF242EA0B0242
:10415C00BA609A6819F4801F14BF2A43AA439A6064
:10416C00DA6819F4001F14BF2A43AA43DA605A68AC
:10417C0019F4003F14BF2A43AA435A601A6819F471
:10418C00803F14BF2A43AA431A60013677E7DFF851
:10419C0078904A450CD014D8A9F580194A4507D017
:1041AC0009F570294A4503D0A9F580194A4587D1EC
:1041BC008A68D2B1012A4FF008040CBF076147612D
:1041CC007EE7DFF848904A45F2D009F58039EDE7F3
:1041DC00CC6875E7CC68043472E7CC6808346FE7B8
:1041EC00CC680C346CE700246AE7042468E70022EE
:1041FC00AAE70122A8E70222A6E700BF00100240AE
:10420C0000040140000801400000221000003110A1
:10421C002DE9F74F4FF0040B00224FF0010A4FF03D
:10422C000F0800EB0B0301932E4B31FA02F402D171
:10423C0003B0BDE8F08F0AFA02F70F4049D022F024
:10424C00030404F1804404F5803402F0030CA568E7
:10425C004FEA8C0C08FA0CF909EA050E224DA8421B
:10426C0039D005F58065A84237D005F58065A842A0
:10427C0035D005F58065A84214BF0425032505FA41
:10428C000CF575456FEA07060FD11D6835401D60AA
:10429C005D6835405D60DD683540DD609D683540AA
:1042AC009D60A56825EA0905A560FF2F94BF074608
:1042BC00019F4FEA82043D6888BF203C08FA04FC49
:1042CC0025EA0C050BFA04F425433D60C468344020
:1042DC00C4600132A9E70025D1E70125CFE702250B
:1042EC00CDE700BF00040140000801408068084091
:1042FC00003818BF012070470AB1016170470904EA
:10430C00FBE7016800224B6913F4806310D06FF453
:10431C0080634B612023026380F83D3080F83E209F
:10432C00036C80F83C2043F00403036401207047C5
:10433C00184670472DE9F84606460F4691461D462D
:10434C004FEA114A3368BAF1010F39D15C6927EA97
:10435C000404A4B2B4FA84F46409A14501D0002089
:10436C0024E06A1CEFD0FFF7C3F9089BC01AA842DF
:10437C0001D8002DE6D1BAF1010F336818D15B6971
:10438C0027EA03039BB2B3FA83F35B099945D9D1AE
:10439C00002320220120336386F83D2086F83E302E
:1043AC00326C86F83C3042F020023264BDE8F8866C
:1043BC009B69DB43C3F3400383F00103DBB2E5E706
:1043CC009C69E443C4F3400484F00104E4B2C4E700
:1043DC002DE9F04104460F46164698462568686953
:1043EC0027EA000080B2C0B16B695A0517D52B685B
:1043FC00202243F400732B606FF480636B61002305
:10440C00236384F83D2084F83E30236C43F004038E
:10441C0023640023012084F83C30BDE8F081731C38
:10442C00DDD0FFF765F9A0EB0800B04201D8002EF3
:10443C00D4D123685A6927EA020292B2002ACDD05D
:10444C0000232022236384F83D2084F83E30236C23
:10445C001343DDE770B504460D46164623685B69C9
:10446C001B0601D500201EE02046FFF74AFFC8B905
:10447C006A1CF3D0FFF73CF9801BA84201D8002D31
:10448C00ECD123685B6913F08003E7D1202223630E
:10449C0084F83D2084F83E30226C84F83C3042F0A5
:1044AC0020022264012070BD2DE9F04315460268FC
:1044BC009946136885B043F480731360DDE90C787A
:1044CC000E463B4600224FF00111CDF80080044609
:1044DC00FFF730FF236838B11B68DB0502D54FF4BA
:1044EC0000732364032620E006F0FE061E613A46A4
:1044FC00434620461849FFF76BFFA8B92368039081
:10450C005A69394603929B69424603932046039BA2
:10451C00FFF7A0FF064660B1236C042B01BF226895
:10452C00136843F4007313600126304605B0BDE8F0
:10453C00F083B9F1010F236802D1EDB21D61F4E7EC
:10454C002A0A1A61394642462046FFF783FF0028A3
:10455C00E2D12368F1E700BF020001002DE9FF471B
:10456C009A46DDE90C78036815461A680E4642F443
:10457C0080621A601A684FF0011142F480721A605E
:10458C003B460022CDF800800446FFF7D3FE23689B
:10459C0048B11B68DB0548BF4FF400734FF00300B4
:1045AC0048BF236421E05FFA86F906F0FE061E611F
:1045BC003A46434620462949FFF70AFFA0B923682B
:1045CC0003905A69394603929B69424603932046ED
:1045DC00039BFFF73FFF58B1236C042B01BF2268EC
:1045EC00136843F400731360012004B0BDE8F08736
:1045FC00BAF1010F23681AD1EDB242463946204672
:10460C001D61FFF727FF02460028E5D121682046EF
:10461C000B6843F480730B603B464FF00111CDF8EF
:10462C000080FFF787FE226860B11368B2E72A0AA0
:10463C001A61394642462046FFF70CFF0028CBD1C1
:10464C002368D9E749F001031361204643463A46F3
:10465C00024904B0BDE8F047FFF7BABE0200010002
:10466C0070B504460D46164623685B695B0701D599
:10467C0000201EE02046FFF744FEC8B96A1CF3D0A8
:10468C00FFF736F8801BA84201D8002DECD1236827
:10469C005B6913F00403E7D12022236384F83D20E7
:1046AC0084F83E30226C84F83C3042F020022264C4
:1046BC00012070BD70B5044608B9012070BD90F89A
:1046CC003D3003F0FF021BB980F83C20FEF7A8FC3C
:1046DC00242384F83D3023681A6822F001021A6002
:1046EC001A6842F400421A601A6822F400421A60F6
:1046FC0002F0C8FA3F4B65689D4294BF3E4B3F4B5E
:10470C0098428CBF00230123002BD6D1394E3C4B51
:10471C00B542B0FBF3F388BF4FF49676226851682C
:10472C0021F03F0141EA030182BF73434FF47A76D3
:10473C00B3FBF6F35160116A013321F03F010B43D7
:10474C001362D169431E2B4821F44F41854221F05D
:10475C00FF0132D86D00B3FBF5F340F6FC7001336A
:10476C00034242D0C3F30B031943D1611168D4E95E
:10477C00073021F0C00103430B4313609168D4E967
:10478C00030321F40341034321F0FF010B43936026
:10479C00D168D4E9053021F0FF0103430B43D3600A
:1047AC001368002043F0010313602023206484F875
:1047BC003D30206384F83E0080E7A06850B905EBDB
:1047CC004505B3FBF5F30133C3F30B037BB143F4A2
:1047DC000043C9E719206843B3FBF0F30133C3F37B
:1047EC000B0323B143F44043BEE70423BCE701238E
:1047FC00BAE700BFA08601007F841E00FF083D00C1
:10480C0040420F0010B5044698B12423026880F88A
:10481C003D30136823F001031360FEF775FC002094
:10482C00206484F83C0084F83D00206384F83E004A
:10483C0010BD0120FCE700002DE9F7430446994622
:10484C000F4690460C9EFEF753FF94F83D300546FC
:10485C00202B03D0022003B0BDE8F0830090192375
:10486C00012220463A49FFF765FD0028F2D194F861
:10487C003C30012BEED00123206884F83C300368D7
:10488C004246D90758BF036839465CBF43F0010361
:10489C000360036823F400630360212384F83D3034
:1048AC00402384F83E30002323640A9B2046636235
:1048BC00BDF82C306385638D2385264BE3624B4614
:1048CC00CDE90065FFF7F0FD00282AD00120C2E7F2
:1048DC00FFF7C0FD40B1236C042B01BF22681368A5
:1048EC0043F400731360F1E7636A27681A4612F801
:1048FC00011B39616262628D218D013A92B262852F
:10490C007A69481E80B2520720850AD548B15A7878
:10491C0002333A616362638D0239013B9BB221859C
:10492C006385238D2A4631462046002BD0D1FFF7D4
:10493C0097FE0028CFD12268136843F400731360EC
:10494C00202384F83C0084F83D3084F83E0082E754
:10495C00020010000000FFFF2DE9FF4799460023DD
:10496C00044602930F4690460C9EFEF7C1FE94F847
:10497C003D308246202B16D146F2A812554B1B68AF
:10498C00B3FBF2F3192253430293029B013B0293B4
:10499C00029B53B92022236384F83D2084F83E30D7
:1049AC00236C13432364022066E022689369990701
:1049BC00EBD494F83C30012BF5D0012384F83C3037
:1049CC0013680025DB0758BF136843495CBF43F0ED
:1049DC0001031360136823F400631360212384F82C
:1049EC003D30402384F83E30BDF834302564638577
:1049FC00638D66629BB2E16223856764C4F848806C
:104A0C00C4F84C902565002B57D0606B40B33349EC
:104A1C004563816232491032C0E90B513146FFF7D0
:104A2C00E9F9064600283CD1232342460093394637
:104A3C004B462046CDF804A0FFF736FDF8B1606B6D
:104A4C00FFF734FA636B9E6223681A6822F4806263
:104A5C001A6066851A68268522F001021A600AE03F
:104A6C00202384F83D3084F83E00236C84F83C000D
:104A7C0043F080032364012004B0BDE8F087236871
:104A8C0003905A6903929A6984F83C000392039A42
:104A9C005A6842F480725A605A6842F400625A6052
:104AAC00EAE7202384F83D3084F83E50236C84F8E8
:104ABC003C5043F010032364DDE7202284F83D20B2
:104ACC0084F83E30226C84F83C3042F04002226480
:104ADC00D1E700BF740000200000FFFFBD4D0008AF
:104AEC00834D00082DE9F04786B0044698460E46E3
:104AFC001746DDF838A0FEF7FBFD0023039394F86E
:104B0C003D308146202B03D0022006B0BDE8F08753
:104B1C0046F2A812644B1B68B3FBF2F31922534301
:104B2C000393039B013B0393039B4BB92022236309
:104B3C0084F83D2084F83E30236C13432364E3E770
:104B4C0021688B699A07ECD494F83C30012BDBD0AC
:104B5C00012384F83C300B680025DB0758BF0B6839
:104B6C00524A5CBF43F001030B600B6823F40063F3
:104B7C000B60222384F83D30402384F83E30BDF88E
:104B8C003C3025646385638DC4F824A09BB2E2623B
:104B9C0023856664A764C4F84C802565002B66D019
:104BAC00A06B58B3424A45638262424A1031C0E955
:104BBC000B525246FFF71EF9824600284BD1232395
:104BCC003A460093314643462046CDF80490FFF711
:104BDC00C5FC00B3A06BFFF769F9A36BC3F828A061
:104BEC0023681A6822F480621A60A4F82AA01A6852
:104BFC00A4F828A022F001021A600AE0202384F80D
:104C0C003D3084F83E00236C84F83C0043F0800374
:104C1C002364012079E7228D2368012A0BBF1A68CF
:104C2C005A6822F4806242F480520CBF1A605A60B7
:104C3C000022049259690491996984F83C200491EA
:104C4C0004995A6842F480725A605A6842F40062BD
:104C5C005A60002059E7202384F83D3084F83E50F8
:104C6C00236C84F83C5043F010032364D1E72323D6
:104C7C003A460093314643462046CDF80490FFF760
:104C8C006DFC0028C5D1236805905A6905929A6974
:104C9C000592059A1A6842F400721A60202384F86F
:104CAC003C0084F83D30D4E7740000200000FFFF86
:104CBC00BD4D0008834D0008704770477047704722
:104CCC007047704790F83D2008B5036DD2B283B998
:104CDC00C36C0268012B836C05D1DBB21361036DCD
:104CEC000233036508BDC3F307231361036D01335E
:104CFC00F7E7036D012B03D1836C0268DBB2F4E799
:104D0C00036D022B2FD1222A05D10268136843F4BC
:104D1C0080731360EAE7438D9BB263B1212A0AD1F9
:104D2C00436A026813F8011B11614362438D013B16
:104D3C009BB24385D6E7438D9BB2002BD2D1212A5F
:104D4C00D0D10268516821F4E0615160116841F4DE
:104D5C00007111602022036380F83D2080F83E3002
:104D6C00FCF7E6F8BEE703685A69120644BF002256
:104D7C001A61B7E77047406A08B5436B0BB1002264
:104D8C009A62836B0BB100229A620268136823F457
:104D9C008063136000232022438580F83D2080F837
:104DAC003E30036C43F010030364FFF7E3FF08BDD0
:104DBC0070B5446A236894F83D1094F83E00E26A9A
:104DCC005D68C9B225F440755D60656BC0B20DB10C
:104DDC000026AE62A56B0DB10026AE6201F0210576
:104DEC00212D05D001F02205222D23D1202821D1FF
:104DFC005A68292922F400625A604FF00003638537
:104E0C000DD1212323632823204684F83D30FFF75E
:104E1C0055FF2268536843F44073536070BD2A29D0
:104E2C00F7D1222323632823204684F83D30FFF753
:104E3C0046FFEEE794F83E100029EFD0618D89B261
:104E4C00012902BF196821F480611960596812F5B3
:104E5C00803F21F44071596006D0082A04D0B2F189
:104E6C002A4F01D0202A03D1196841F4007119602E
:104E7C00596821F480515960596821F400615960D6
:104E8C0000236385236C1BB12046FFF773FFC5E736
:104E9C00202184F83D1094F83E1084F83E304029CF
:104EAC0004D120462363FCF749F8B7E7082A01D060
:104EBC00202A05D1002320462363FFF7FEFEADE731
:104ECC001223F8E770470000002337B546F2A8110B
:104EDC0001932C4B406A1B6890F83D20B3FBF1F317
:104EEC0023214B4301930368D2B2019941BB016C5E
:104EFC0041F020010164446B0CB10021A162816B73
:104F0C0009B100258D621D6825F480651D600025A2
:104F1C00458504B1656301B14D63196821F0010148
:104F2C00196090F83D10602911D1202380F83D3094
:104F3C00002380F83E300364FFF7C4FF03B030BD9C
:104F4C0001990139019119688905CED4D3E702F092
:104F5C002802282A0ED1196841F00101196019683C
:104F6C0041F4806119600023036380F83D20FFF752
:104F7C0001FFE3E7202380F83D30002380F83E302A
:104F8C00F5E700BF7400002010B590F83D2090F8B4
:104F9C003E300446102BD9B2D2B2036801D040295E
:104FAC0013D1222A11D1196821F4006119605968B2
:104FBC0011F4006106D1602A1EBF202284F83D2026
:104FCC0084F83E100022226307E002F02801282911
:104FDC00EDD10022226384F83D105A6812F400626D
:104FEC004FD05A68606B22F400625A6090F82130FE
:104FFC00012B374B2BD04363FEF758FF50B122687F
:10500C00606B136823F001031360202384F83D3098
:10501C00436B9847236C19071FBF2268536823F40E
:10502C00E063536094F83D30226CDBB252070DD52F
:10503C00282B0BD1274B2022E3620023204623632D
:10504C0084F83D2084F83E30FFF73BFE10BDA06B8A
:10505C004363FEF72BFF0028DCD023685A69510606
:10506C0005D51A69636A1A70636A01336362226830
:10507C00A06B136823F001031360202384F83D30E8
:10508C00C6E794F83D10602915D1202184F83D1015
:10509C0022645A69520605D51A69636A1A70636AE2
:1050AC000133636222682046136823F00103136006
:1050BC00FFF708FFAEE75A69500605D51A69636A0F
:1050CC001A70636A013363622046FFF753FEA1E74F
:1050DC00D54E00080000FFFFF0B5044603688FB002
:1050EC005A68C66A90F83E0094F83D101028C5B274
:1050FC00C9B202D0402D40F0E5829F69586910F08A
:10510C00010F07D1B6F52A0F02D0B6F12A4F51D1B3
:10511C000FB0F0BD96054DD5E26AB2F52A0F0CD151
:10512C000122E26294F83E20402A11D1226D52B93C
:10513C00626C02F0FE021A61EAE7E26AB2F12A4FEF
:10514C00F0D10822EDE7626C42F00102D2B2F2E734
:10515C002269B2F5804F1AD194F83D20212A626C55
:10516C0011D102F0FE021A61626B0AB1926A2AB97D
:10517C00A26B002ACCD0926A002AC9D05A6842F499
:10518C0000625A60C4E742F00102D2B2EBE7226D32
:10519C0032B9626CD21102F0060242F0F002CAE798
:1051AC00226D012AB4D1626CD21102F0060242F0D7
:1051BC00F102C0E7060703D5960501D5626CE4E75A
:1051CC00860740F1F080960540F1ED8094F83E1092
:1051DC00E26A256B94F83D00C9B2222840F0DB80CE
:1051EC00206D40B9402906D100905A6900929B6904
:1051FC000093009B8CE7216D89B92069B0F5404F75
:10520C000DD101915A6901929A690192019A1A6819
:10521C0042F480721A60236D0133236578E7618D47
:10522C0089B251B902915A6902929A690292029A10
:10523C001A6842F400721A6019E0618D89B2012972
:10524C0049D112F5803F1BD11A6822F480621A6092
:10525C005A6812F400620CD01A6822F480621A6048
:10526C00002203925A6903929B690393039B0023C8
:10527C00D3E704925A6904929A690492049AD7E784
:10528C00082A1CD0202A1AD0122D0DD1012A16D191
:10529C001A6822F480621A60002205925A690592FB
:1052AC009B690593059BE2E7102AF1D8864941FAE0
:1052BC0002F2D707ECD41A6842F48062EBE71A6862
:1052CC0022F480621A60002206925A6906929A6948
:1052DC000692069AACE7618D89B2022938D1102A60
:1052EC0003D87A49D140CE0718D4196841F400612B
:1052FC0019600021079159690791996907910799DC
:10530C00196821F48061196059680D05AFD5202A00
:10531C001BD8072A0ED8012AA9D111E0196841F42B
:10532C008061196000210891596908919969089167
:10533C000899E9E7A2F10801654ACA40D00796D559
:10534C005A6842F480525A6091E712F5803FE3E7C5
:10535C00196841F4806119605968090510D5202A33
:10536C0016D8072A06D8012A0AD15A6842F4805264
:10537C005A6005E0A2F10801554ACA40D207F4D49C
:10538C00002209925A6909929B690993099B6EE75D
:10539C0012F5803FE8E700220A925A690A929B694B
:1053AC000A930A9BB4E67F0740F194805E68360549
:1053BC003FF5AEAE070600F004063ED550053CD5D1
:1053CC00002E3DD194F83D20258D94F83E10D2B29C
:1053DC00E06AC9B2C5B9212A18D1082858D02028AA
:1053EC0056D010F5803F53D05A6822F4E0625A60D0
:1053FC0011232363002384F83E302023204684F8B5
:10540C003D30FFF759FC83E6212A05D040297FF473
:10541C007FAE222A7FF47CAE628D92B21AB95A68A2
:10542C0022F48062ADE694F83E20402A16D1204644
:10543C000FB0BDE8F040FFF745BC002E3FF468AE5E
:10544C0097057FF565AE212939D1E16A94F83D20A5
:10545C00212A7FF45DAE628D92B24AB1626A12F873
:10546C00011B19616262638D013B9BB263854FE640
:10547C0008290DD020290BD011F5803F08D0596890
:10548C0021F4E06159601123236384F83E20B4E7D2
:10549C005A68204622F4E0625A601A6842F400729C
:1054AC001A6000232022236384F83D2094F83E20C8
:1054BC0084F83E30402AA4D1FBF73AFD28E6402D73
:1054CC007FF426AEB3E700BFEBFFFEFF1400010034
:1054DC000101000159680E053FF51AAE450600F0B2
:1054EC00040140F18680500540F18380002940F092
:1054FC00838094F83D20222A7FF40AAEE06A628D04
:10550C0092B2032A14D91A69636A1A70636A013356
:10551C006362638D013B9BB26385638D9BB2032BEE
:10552C007FF4F6AD2268536823F480635360EFE593
:10553C00E56A022D3FF473AF012A3FF670AF0B9171
:10554C0046F2A811794A1268B2FBF1F202EB820220
:10555C000B920B9A013A0B920B99D1B9226C204603
:10556C0042F0200222645A6822F4E0625A601A69FE
:10557C00636A1A70636A01336362638D013B9BB289
:10558C006385202384F83D3084F83E10FFF7F2FB4E
:10559C00BEE51A6812F40072DBD1196821F480613F
:1055AC001960596821F4E06159601969636A1970CE
:1055BC00636A01336362638D013B9BB26385202375
:1055CC0084F83D3094F83E3084F83E20402B04D1D2
:1055DC0022632046FBF7B2FC9AE5082801D020286C
:1055EC0001D1002300E0122320462363FFF765FB63
:1055FC008EE500293FF48CAD92057FF589ADE26A0A
:10560C00608D616A80B2042809D15A6822F48062E4
:10561C005A601B690B70636A0133636223E7608D08
:10562C0080B203280CD15868042A20F4806058609A
:10563C00EFD0022AEDD01A6822F480621A60E8E7F3
:10564C00608D80B20228E4D1042A33D007D8012A15
:10565C0007D0022A2ED0186840F4007004E0102AFB
:10566C00F9D1186820F4806018601B690B70616AAE
:10567C004B1C6362638D013B9BB2638523681B6982
:10568C004B70636A216801336362638D013B9BB28B
:10569C0063854B6823F440734B60202384F83D30C2
:1056AC0094F83E30402B4FF0000384F83E3005D187
:1056BC0023638EE7186840F48060D5E7082A90D001
:1056CC00202A8DE7206C20B30025586987072FD539
:1056DC0096052DD5226C02B19D6994F83D2002F0FF
:1056EC002802282A18D15A682F0622F480625A60A0
:1056FC004FF0000354BFE268A269C5F3800181F04A
:10570C0001012046C9B284F83C3092B2FFF7D8FAB6
:10571C00FEE49D695869D9E700220C9259690C91F5
:10572C009B6984F83C200C930C9BF1E474000020E2
:10573C00C60640F1B180950540F1AE8094F83D501D
:10574C005A68EDB222F4E0625A6000220D925A6956
:10575C000D921A6842F001021A600D9A1A6822F42E
:10576C0080621A605A68100520D505F0F702222ACB
:10577C004AD1A06B0268526892B26285628D92B275
:10578C001AB1226C42F0040222645A6822F40062BC
:10579C005A60FEF765FC012808D0A06B794B436377
:1057AC00FEF784FB10B1A06B436B9847638D9BB2E3
:1057BC0013B323685A69510709D51A69636A1A70B9
:1057CC00636A01336362638D013B9BB2638523681B
:1057DC005A69520609D51A69636A1A70636A0133E9
:1057EC006362638D013B9BB26385638D9BB21BB17E
:1057FC00236C43F004032364236C13B320460FB0D3
:10580C00BDE8F040FFF7C0BB606B0268526892B213
:10581C006285628D92B21AB1226C42F0040222644B
:10582C005A6822F400625A60FEF71AFC0128BDD0B7
:10583C00606B544B4363FEF739FB0028B6D0606BAA
:10584C00B2E72A2D06D123632823204684F83D3065
:10585C00FFF735FA94F83D30282B0CD14A4B202217
:10586C00E36200232046236384F83D2084F83E3015
:10587C00FFF727FA4CE4236B222B02D0222D7FF466
:10588C0047AC00232022236384F83D2084F83E306B
:10589C002046FFF714FA3BE401F0F701212900F050
:1058AC00040535D1070627D5560525D53DBB94F8FB
:1058BC003D00628DC0B292B2002A3FF429AC626AFC
:1058CC0012F8015B1D616262628D013A92B26285CF
:1058DC00628D92B2002A7FF41BAC29287FF418AC9D
:1058EC005A68204622F480625A602823216384F887
:1058FC003D30FFF7E3F90BE4002D3FF409AC9505BF
:10590C007FF506AC628D92B2002A3FF401ACA5E59E
:10591C00400627D5510525D53DBB94F83D20618D1A
:10592C00D2B289B200293FF4F3AB1969636A1970DA
:10593C00636A01336362638D013B9BB26385638D44
:10594C009BB2002B7FF4E4AB2A2A7FF4E1AB2268F4
:10595C00536823F48063536022232363282384F841
:10596C003D3095E7002D3FF4D3AB92057FF5D0ABDE
:10597C00628D92B2002A3FF4CBAB1A69636A1A703B
:10598C0049E600BFD54E00080000FFFFF8B50368DC
:10599C0004465F695E6890F83E2017F48075D2B2B9
:1059AC000AD016F4807507D06FF480710125596107
:1059BC00196841F400411960B80506D5F10542BFDC
:1059CC006FF4007145F002055961780536D5F10583
:1059DC0034D5608D94F83D10202AD4F830C080B2B4
:1059EC00C9B25FD100285DD101F0F700212804D0A5
:1059FC00282957D1BCF1210F54D194F83D20E16AEC
:105A0C00D2B2082901D020292AD1282A28D12E4AFD
:105A1C002046E2625A6822F4E0625A606FF48062B7
:105A2C005A611A6822F480621A60002320222363D0
:105A3C0084F83D2084F83E30FFF743F93A053FD512
:105A4C00F3053DD56FF40062236845F008055A61F3
:105A5C00236C20461D432564BDE8F840FFF794BA3B
:105A6C00212A1BD11849E16222630021202284F8EB
:105A7C003D2084F83E105A6822F4E0625A606FF4BC
:105A8C0080625A611A6822F480621A605A691006A0
:105A9C0048BF19612046FFF711F9CFE76FF4806218
:105AAC005A61CBE76FF48061102A596145F0040507
:105ABC0001D0402AC2D11A6842F400721A60BDE7C4
:105ACC00002DC5D1F8BD00BF0000FFFF90F83D00D0
